{
  "fileName": "Blacklistable.sol",
  "contractName": "Blacklistable",
  "source": "pragma solidity ^0.5.2;\nimport \"@openzeppelin/contracts-ethereum-package/contracts/ownership/Ownable.sol\";\n\n/**\n * @title Blacklistable Token\n * @dev Allows accounts to be blacklisted by a \"blacklister\" role\n*/\ncontract Blacklistable is Ownable {\n\n    address public blacklister;\n    mapping(address => bool) internal blacklisted;\n\n    event Blacklisted(address indexed _account);\n    event UnBlacklisted(address indexed _account);\n    event BlacklisterChanged(address indexed newBlacklister);\n\n    function initialize (address _blacklister, address _owner) public initializer {\n        blacklister = _blacklister;\n        emit BlacklisterChanged(blacklister);\n        Ownable.initialize(_owner);\n    }\n\n    /**\n     * @dev Throws if called by any account other than the blacklister\n    */\n    modifier onlyBlacklister(){\n        require(msg.sender == blacklister,\n        \"Only Blacklister Role can call this method\");\n        _;\n    }\n\n    /**\n     * @dev Throws if argument account is blacklisted\n     * @param _account The address to check\n    */\n    modifier notBlacklisted(address _account) {\n        require(blacklisted[_account] == false,\n        \"this account is marked in our  blac-klist\");\n        _;\n    }\n\n    /**\n     * @dev Checks if account is blacklisted\n     * @param _account The address to check\n     */\n    function isBlacklisted(address _account) public view returns (bool) {\n        return blacklisted[_account];\n    }\n\n    /**\n     * @dev Adds account to blacklist\n     * @param _account The address to blacklist\n    */\n    function blacklist(address _account) public onlyBlacklister {\n        blacklisted[_account] = true;\n        emit Blacklisted(_account);\n    }\n\n    /**\n     * @dev Removes account from blacklist\n     * @param _account The address to remove from the blacklist\n    */\n    function unBlacklist(address _account) public onlyBlacklister {\n        blacklisted[_account] = false;\n        emit UnBlacklisted(_account);\n    }\n\n    function updateBlacklister(address _newBlacklister) public onlyOwner {\n        require(_newBlacklister != address(0), \"blacklister is 0x0\");\n        blacklister = _newBlacklister;\n        emit BlacklisterChanged(blacklister);\n    }\n}",
  "sourcePath": "contracts/Blacklistable.sol",
  "abi": [
    {
      "constant": false,
      "inputs": [
        {
          "name": "_account",
          "type": "address"
        }
      ],
      "name": "unBlacklist",
      "outputs": [],
      "payable": false,
      "stateMutability": "nonpayable",
      "type": "function"
    },
    {
      "constant": false,
      "inputs": [
        {
          "name": "_blacklister",
          "type": "address"
        },
        {
          "name": "_owner",
          "type": "address"
        }
      ],
      "name": "initialize",
      "outputs": [],
      "payable": false,
      "stateMutability": "nonpayable",
      "type": "function"
    },
    {
      "constant": false,
      "inputs": [],
      "name": "renounceOwnership",
      "outputs": [],
      "payable": false,
      "stateMutability": "nonpayable",
      "type": "function"
    },
    {
      "constant": true,
      "inputs": [],
      "name": "owner",
      "outputs": [
        {
          "name": "",
          "type": "address"
        }
      ],
      "payable": false,
      "stateMutability": "view",
      "type": "function"
    },
    {
      "constant": true,
      "inputs": [],
      "name": "isOwner",
      "outputs": [
        {
          "name": "",
          "type": "bool"
        }
      ],
      "payable": false,
      "stateMutability": "view",
      "type": "function"
    },
    {
      "constant": false,
      "inputs": [
        {
          "name": "_newBlacklister",
          "type": "address"
        }
      ],
      "name": "updateBlacklister",
      "outputs": [],
      "payable": false,
      "stateMutability": "nonpayable",
      "type": "function"
    },
    {
      "constant": true,
      "inputs": [],
      "name": "blacklister",
      "outputs": [
        {
          "name": "",
          "type": "address"
        }
      ],
      "payable": false,
      "stateMutability": "view",
      "type": "function"
    },
    {
      "constant": false,
      "inputs": [
        {
          "name": "sender",
          "type": "address"
        }
      ],
      "name": "initialize",
      "outputs": [],
      "payable": false,
      "stateMutability": "nonpayable",
      "type": "function"
    },
    {
      "constant": false,
      "inputs": [
        {
          "name": "newOwner",
          "type": "address"
        }
      ],
      "name": "transferOwnership",
      "outputs": [],
      "payable": false,
      "stateMutability": "nonpayable",
      "type": "function"
    },
    {
      "constant": false,
      "inputs": [
        {
          "name": "_account",
          "type": "address"
        }
      ],
      "name": "blacklist",
      "outputs": [],
      "payable": false,
      "stateMutability": "nonpayable",
      "type": "function"
    },
    {
      "constant": true,
      "inputs": [
        {
          "name": "_account",
          "type": "address"
        }
      ],
      "name": "isBlacklisted",
      "outputs": [
        {
          "name": "",
          "type": "bool"
        }
      ],
      "payable": false,
      "stateMutability": "view",
      "type": "function"
    },
    {
      "anonymous": false,
      "inputs": [
        {
          "indexed": true,
          "name": "_account",
          "type": "address"
        }
      ],
      "name": "Blacklisted",
      "type": "event"
    },
    {
      "anonymous": false,
      "inputs": [
        {
          "indexed": true,
          "name": "_account",
          "type": "address"
        }
      ],
      "name": "UnBlacklisted",
      "type": "event"
    },
    {
      "anonymous": false,
      "inputs": [
        {
          "indexed": true,
          "name": "newBlacklister",
          "type": "address"
        }
      ],
      "name": "BlacklisterChanged",
      "type": "event"
    },
    {
      "anonymous": false,
      "inputs": [
        {
          "indexed": true,
          "name": "previousOwner",
          "type": "address"
        },
        {
          "indexed": true,
          "name": "newOwner",
          "type": "address"
        }
      ],
      "name": "OwnershipTransferred",
      "type": "event"
    }
  ],
  "bytecode": "0x608060405234801561001057600080fd5b50610aeb806100206000396000f3fe608060405234801561001057600080fd5b50600436106100c95760003560e01c8063ad38bf2211610081578063f2fde38b1161005b578063f2fde38b14610201578063f9f92be414610234578063fe575a8714610267576100c9565b8063ad38bf2214610193578063bd102430146101c6578063c4d66de8146101ce576100c9565b8063715018a6116100b2578063715018a61461013e5780638da5cb5b146101465780638f32d59b14610177576100c9565b80631a895266146100ce578063485cc95514610103575b600080fd5b610101600480360360208110156100e457600080fd5b503573ffffffffffffffffffffffffffffffffffffffff1661029a565b005b6101016004803603604081101561011957600080fd5b5073ffffffffffffffffffffffffffffffffffffffff8135811691602001351661037e565b610101610511565b61014e610593565b6040805173ffffffffffffffffffffffffffffffffffffffff9092168252519081900360200190f35b61017f6105af565b604080519115158252519081900360200190f35b610101600480360360208110156101a957600080fd5b503573ffffffffffffffffffffffffffffffffffffffff166105cd565b61014e6106d9565b610101600480360360208110156101e457600080fd5b503573ffffffffffffffffffffffffffffffffffffffff166106f5565b6101016004803603602081101561021757600080fd5b503573ffffffffffffffffffffffffffffffffffffffff16610880565b6101016004803603602081101561024a57600080fd5b503573ffffffffffffffffffffffffffffffffffffffff1661089f565b61017f6004803603602081101561027d57600080fd5b503573ffffffffffffffffffffffffffffffffffffffff16610986565b60665473ffffffffffffffffffffffffffffffffffffffff16331461030a576040517f08c379a000000000000000000000000000000000000000000000000000000000815260040180806020018281038252602a815260200180610a68602a913960400191505060405180910390fd5b73ffffffffffffffffffffffffffffffffffffffff811660008181526067602052604080822080547fffffffffffffffffffffffffffffffffffffffffffffffffffffffffffffff00169055517f117e3210bb9aa7d9baff172026820255c6f6c30ba8999d1c2fd88e2848137c4e9190a250565b600054610100900460ff168061039757506103976109b1565b806103a5575060005460ff16155b15156103fc576040517f08c379a000000000000000000000000000000000000000000000000000000000815260040180806020018281038252602e815260200180610a92602e913960400191505060405180910390fd5b600054610100900460ff1615801561046257600080547fffffffffffffffffffffffffffffffffffffffffffffffffffffffffffffff007fffffffffffffffffffffffffffffffffffffffffffffffffffffffffffff00ff909116610100171660011790555b606680547fffffffffffffffffffffffff00000000000000000000000000000000000000001673ffffffffffffffffffffffffffffffffffffffff85811691909117918290556040519116907fc67398012c111ce95ecb7429b933096c977380ee6c421175a71a4a4c6c88c06e90600090a26104dd826106f5565b801561050c57600080547fffffffffffffffffffffffffffffffffffffffffffffffffffffffffffff00ff1690555b505050565b6105196105af565b151561052457600080fd5b60335460405160009173ffffffffffffffffffffffffffffffffffffffff16907f8be0079c531659141344cd1fd0a4f28419497f9722a3daafe3b4186f6b6457e0908390a3603380547fffffffffffffffffffffffff0000000000000000000000000000000000000000169055565b60335473ffffffffffffffffffffffffffffffffffffffff1690565b60335473ffffffffffffffffffffffffffffffffffffffff16331490565b6105d56105af565b15156105e057600080fd5b73ffffffffffffffffffffffffffffffffffffffff8116151561066457604080517f08c379a000000000000000000000000000000000000000000000000000000000815260206004820152601260248201527f626c61636b6c6973746572206973203078300000000000000000000000000000604482015290519081900360640190fd5b606680547fffffffffffffffffffffffff00000000000000000000000000000000000000001673ffffffffffffffffffffffffffffffffffffffff83811691909117918290556040519116907fc67398012c111ce95ecb7429b933096c977380ee6c421175a71a4a4c6c88c06e90600090a250565b60665473ffffffffffffffffffffffffffffffffffffffff1681565b600054610100900460ff168061070e575061070e6109b1565b8061071c575060005460ff16155b1515610773576040517f08c379a000000000000000000000000000000000000000000000000000000000815260040180806020018281038252602e815260200180610a92602e913960400191505060405180910390fd5b600054610100900460ff161580156107d957600080547fffffffffffffffffffffffffffffffffffffffffffffffffffffffffffffff007fffffffffffffffffffffffffffffffffffffffffffffffffffffffffffff00ff909116610100171660011790555b603380547fffffffffffffffffffffffff00000000000000000000000000000000000000001673ffffffffffffffffffffffffffffffffffffffff84811691909117918290556040519116906000907f8be0079c531659141344cd1fd0a4f28419497f9722a3daafe3b4186f6b6457e0908290a3801561087c57600080547fffffffffffffffffffffffffffffffffffffffffffffffffffffffffffff00ff1690555b5050565b6108886105af565b151561089357600080fd5b61089c816109b7565b50565b60665473ffffffffffffffffffffffffffffffffffffffff16331461090f576040517f08c379a000000000000000000000000000000000000000000000000000000000815260040180806020018281038252602a815260200180610a68602a913960400191505060405180910390fd5b73ffffffffffffffffffffffffffffffffffffffff811660008181526067602052604080822080547fffffffffffffffffffffffffffffffffffffffffffffffffffffffffffffff00166001179055517fffa4e6181777692565cf28528fc88fd1516ea86b56da075235fa575af6a4b8559190a250565b73ffffffffffffffffffffffffffffffffffffffff1660009081526067602052604090205460ff1690565b303b1590565b73ffffffffffffffffffffffffffffffffffffffff811615156109d957600080fd5b60335460405173ffffffffffffffffffffffffffffffffffffffff8084169216907f8be0079c531659141344cd1fd0a4f28419497f9722a3daafe3b4186f6b6457e090600090a3603380547fffffffffffffffffffffffff00000000000000000000000000000000000000001673ffffffffffffffffffffffffffffffffffffffff9290921691909117905556fe4f6e6c7920426c61636b6c697374657220526f6c652063616e2063616c6c2074686973206d6574686f64436f6e747261637420696e7374616e63652068617320616c7265616479206265656e20696e697469616c697a6564a165627a7a7230582096c047498975ef655c2affc6250364cf7ca64c18120c98286001e0d96d3dbe310029",
  "compiler": {
    "name": "solc",
    "version": "0.5.2+commit.1df8f40c.Emscripten.clang",
    "optimizer": {
      "enabled": true,
      "runs": 1000000000
    },
    "evmVersion": "constantinople"
  }
}