{"fileName":"Blacklistable.sol","contractName":"Blacklistable","source":"pragma solidity ^0.5.0;\nimport \"openzeppelin-eth/contracts/ownership/Ownable.sol\";\n\n/**\n * @title Blacklistable Token\n * @dev Allows accounts to be blacklisted by a \"blacklister\" role\n*/\ncontract Blacklistable is Ownable {\n\n    address public blacklister;\n    mapping(address => bool) internal blacklisted;\n\n    event Blacklisted(address indexed _account);\n    event UnBlacklisted(address indexed _account);\n    event BlacklisterChanged(address indexed newBlacklister);\n\n    function initialize (address _blacklister) public initializer {\n        blacklister = _blacklister;\n        emit BlacklisterChanged(blacklister);\n    }\n\n    /**\n     * @dev Throws if called by any account other than the blacklister\n    */\n    modifier onlyBlacklister() {\n        require(msg.sender == blacklister);\n        _;\n    }\n\n    /**\n     * @dev Throws if argument account is blacklisted\n     * @param _account The address to check\n    */\n    modifier notBlacklisted(address _account) {\n        require(blacklisted[_account] == false);\n        _;\n    }\n\n    /**\n     * @dev Checks if account is blacklisted\n     * @param _account The address to check    \n    */\n    function isBlacklisted(address _account) public view returns (bool) {\n        return blacklisted[_account];\n    }\n\n    /**\n     * @dev Adds account to blacklist\n     * @param _account The address to blacklist\n    */\n    function blacklist(address _account) public onlyBlacklister {\n        blacklisted[_account] = true;\n        emit Blacklisted(_account);\n    }\n\n    /**\n     * @dev Removes account from blacklist\n     * @param _account The address to remove from the blacklist\n    */\n    function unBlacklist(address _account) public onlyBlacklister {\n        blacklisted[_account] = false;\n        emit UnBlacklisted(_account);\n    }\n\n    function updateBlacklister(address _newBlacklister) public onlyOwner {\n        require(_newBlacklister != address(0), \"blacklister is 0x0\");\n        blacklister = _newBlacklister;\n        emit BlacklisterChanged(blacklister);\n    }\n}","sourcePath":"contracts/Blacklistable.sol","abi":[{"constant":false,"inputs":[{"name":"_account","type":"address"}],"name":"unBlacklist","outputs":[],"payable":false,"stateMutability":"nonpayable","type":"function"},{"constant":false,"inputs":[],"name":"renounceOwnership","outputs":[],"payable":false,"stateMutability":"nonpayable","type":"function"},{"constant":true,"inputs":[],"name":"owner","outputs":[{"name":"","type":"address"}],"payable":false,"stateMutability":"view","type":"function"},{"constant":true,"inputs":[],"name":"isOwner","outputs":[{"name":"","type":"bool"}],"payable":false,"stateMutability":"view","type":"function"},{"constant":false,"inputs":[{"name":"_newBlacklister","type":"address"}],"name":"updateBlacklister","outputs":[],"payable":false,"stateMutability":"nonpayable","type":"function"},{"constant":true,"inputs":[],"name":"blacklister","outputs":[{"name":"","type":"address"}],"payable":false,"stateMutability":"view","type":"function"},{"constant":false,"inputs":[{"name":"_blacklister","type":"address"}],"name":"initialize","outputs":[],"payable":false,"stateMutability":"nonpayable","type":"function"},{"constant":false,"inputs":[{"name":"newOwner","type":"address"}],"name":"transferOwnership","outputs":[],"payable":false,"stateMutability":"nonpayable","type":"function"},{"constant":false,"inputs":[{"name":"_account","type":"address"}],"name":"blacklist","outputs":[],"payable":false,"stateMutability":"nonpayable","type":"function"},{"constant":true,"inputs":[{"name":"_account","type":"address"}],"name":"isBlacklisted","outputs":[{"name":"","type":"bool"}],"payable":false,"stateMutability":"view","type":"function"},{"anonymous":false,"inputs":[{"indexed":true,"name":"_account","type":"address"}],"name":"Blacklisted","type":"event"},{"anonymous":false,"inputs":[{"indexed":true,"name":"_account","type":"address"}],"name":"UnBlacklisted","type":"event"},{"anonymous":false,"inputs":[{"indexed":true,"name":"newBlacklister","type":"address"}],"name":"BlacklisterChanged","type":"event"},{"anonymous":false,"inputs":[{"indexed":true,"name":"previousOwner","type":"address"},{"indexed":true,"name":"newOwner","type":"address"}],"name":"OwnershipTransferred","type":"event"}],"bytecode":"0x60806040523480156100115760006000fd5b50610017565b610bd4806100266000396000f3fe60806040523480156100115760006000fd5b50600436106100a35760003560e01c8063bd10243011610067578063bd102430146101a9578063c4d66de8146101f3578063f2fde38b14610238578063f9f92be41461027d578063fe575a87146102c2576100a3565b80631a895266146100a9578063715018a6146100ee5780638da5cb5b146100f85780638f32d59b14610142578063ad38bf2214610164576100a3565b60006000fd5b6100ec600480360360208110156100c05760006000fd5b81019080803573ffffffffffffffffffffffffffffffffffffffff16906020019092919050505061031f565b005b6100f661041f565b005b6101006104fc565b604051808273ffffffffffffffffffffffffffffffffffffffff1673ffffffffffffffffffffffffffffffffffffffff16815260200191505060405180910390f35b61014a61052b565b604051808215151515815260200191505060405180910390f35b6101a76004803603602081101561017b5760006000fd5b81019080803573ffffffffffffffffffffffffffffffffffffffff169060200190929190505050610588565b005b6101b16106f5565b604051808273ffffffffffffffffffffffffffffffffffffffff1673ffffffffffffffffffffffffffffffffffffffff16815260200191505060405180910390f35b6102366004803603602081101561020a5760006000fd5b81019080803573ffffffffffffffffffffffffffffffffffffffff16906020019092919050505061071b565b005b61027b6004803603602081101561024f5760006000fd5b81019080803573ffffffffffffffffffffffffffffffffffffffff1690602001909291905050506108cf565b005b6102c0600480360360208110156102945760006000fd5b81019080803573ffffffffffffffffffffffffffffffffffffffff1690602001909291905050506108fd565b005b610305600480360360208110156102d95760006000fd5b81019080803573ffffffffffffffffffffffffffffffffffffffff1690602001909291905050506109fd565b604051808215151515815260200191505060405180910390f35b606660009054906101000a900473ffffffffffffffffffffffffffffffffffffffff1673ffffffffffffffffffffffffffffffffffffffff163373ffffffffffffffffffffffffffffffffffffffff1614151561037c5760006000fd5b6000606760005060008373ffffffffffffffffffffffffffffffffffffffff1673ffffffffffffffffffffffffffffffffffffffff16815260200190815260200160002060006101000a81548160ff0219169083151502179055508073ffffffffffffffffffffffffffffffffffffffff167f117e3210bb9aa7d9baff172026820255c6f6c30ba8999d1c2fd88e2848137c4e60405160405180910390a25b5b50565b61042d61052b63ffffffff16565b15156104395760006000fd5b600073ffffffffffffffffffffffffffffffffffffffff16603360009054906101000a900473ffffffffffffffffffffffffffffffffffffffff1673ffffffffffffffffffffffffffffffffffffffff167f8be0079c531659141344cd1fd0a4f28419497f9722a3daafe3b4186f6b6457e060405160405180910390a36000603360006101000a81548173ffffffffffffffffffffffffffffffffffffffff021916908373ffffffffffffffffffffffffffffffffffffffff1602179055505b5b565b6000603360009054906101000a900473ffffffffffffffffffffffffffffffffffffffff169050610528565b90565b6000603360009054906101000a900473ffffffffffffffffffffffffffffffffffffffff1673ffffffffffffffffffffffffffffffffffffffff163373ffffffffffffffffffffffffffffffffffffffff16149050610585565b90565b61059661052b63ffffffff16565b15156105a25760006000fd5b600073ffffffffffffffffffffffffffffffffffffffff168173ffffffffffffffffffffffffffffffffffffffff161415151561064a576040517f08c379a00000000000000000000000000000000000000000000000000000000081526004018080602001828103825260128152602001807f626c61636b6c697374657220697320307830000000000000000000000000000081526020015060200191505060405180910390fd5b80606660006101000a81548173ffffffffffffffffffffffffffffffffffffffff021916908373ffffffffffffffffffffffffffffffffffffffff160217905550606660009054906101000a900473ffffffffffffffffffffffffffffffffffffffff1673ffffffffffffffffffffffffffffffffffffffff167fc67398012c111ce95ecb7429b933096c977380ee6c421175a71a4a4c6c88c06e60405160405180910390a25b5b50565b606660009054906101000a900473ffffffffffffffffffffffffffffffffffffffff1681565b600060019054906101000a900460ff1680610740575061073f610a5b63ffffffff16565b5b806107585750600060009054906101000a900460ff16155b15156107af576040517f08c379a000000000000000000000000000000000000000000000000000000000815260040180806020018281038252602e815260200180610b72602e913960400191505060405180910390fd5b6000600060019054906101000a900460ff161590508015610801576001600060016101000a81548160ff0219169083151502179055506001600060006101000a81548160ff0219169083151502179055505b81606660006101000a81548173ffffffffffffffffffffffffffffffffffffffff021916908373ffffffffffffffffffffffffffffffffffffffff160217905550606660009054906101000a900473ffffffffffffffffffffffffffffffffffffffff1673ffffffffffffffffffffffffffffffffffffffff167fc67398012c111ce95ecb7429b933096c977380ee6c421175a71a4a4c6c88c06e60405160405180910390a25b80156108ca576000600060016101000a81548160ff0219169083151502179055505b505b50565b6108dd61052b63ffffffff16565b15156108e95760006000fd5b6108f881610a7363ffffffff16565b5b5b50565b606660009054906101000a900473ffffffffffffffffffffffffffffffffffffffff1673ffffffffffffffffffffffffffffffffffffffff163373ffffffffffffffffffffffffffffffffffffffff1614151561095a5760006000fd5b6001606760005060008373ffffffffffffffffffffffffffffffffffffffff1673ffffffffffffffffffffffffffffffffffffffff16815260200190815260200160002060006101000a81548160ff0219169083151502179055508073ffffffffffffffffffffffffffffffffffffffff167fffa4e6181777692565cf28528fc88fd1516ea86b56da075235fa575af6a4b85560405160405180910390a25b5b50565b6000606760005060008373ffffffffffffffffffffffffffffffffffffffff1673ffffffffffffffffffffffffffffffffffffffff16815260200190815260200160002060009054906101000a900460ff169050610a56565b919050565b60006000303b905060008114915050610a7056505b90565b600073ffffffffffffffffffffffffffffffffffffffff168173ffffffffffffffffffffffffffffffffffffffff1614151515610ab05760006000fd5b8073ffffffffffffffffffffffffffffffffffffffff16603360009054906101000a900473ffffffffffffffffffffffffffffffffffffffff1673ffffffffffffffffffffffffffffffffffffffff167f8be0079c531659141344cd1fd0a4f28419497f9722a3daafe3b4186f6b6457e060405160405180910390a380603360006101000a81548173ffffffffffffffffffffffffffffffffffffffff021916908373ffffffffffffffffffffffffffffffffffffffff1602179055505b5056fe436f6e747261637420696e7374616e63652068617320616c7265616479206265656e20696e697469616c697a6564a265627a7a723058207e2143fc74af9390c9cde2fef6d7d3e69d4680b28ce99b31f7fcb2eb9936e7bd64736f6c634300050a0032","compiler":{"name":"solc","version":"0.5.10+commit.5a6ea5b1.Emscripten.clang","optimizer":{},"evmVersion":"constantinople"}}