{"fileName":"Blacklistable.sol","contractName":"Blacklistable","source":"pragma solidity ^0.5.2;\nimport \"@openzeppelin/contracts-ethereum-package/contracts/ownership/Ownable.sol\";\n\n/**\n * @title Blacklistable Token\n * @dev Allows accounts to be blacklisted by a \"blacklister\" role\n*/\ncontract Blacklistable is Ownable {\n\n    address public blacklister;\n    mapping(address => bool) internal blacklisted;\n\n    event Blacklisted(address indexed _account);\n    event UnBlacklisted(address indexed _account);\n    event BlacklisterChanged(address indexed newBlacklister);\n\n    function initialize (address _blacklister, address _owner) public initializer {\n        blacklister = _blacklister;\n        emit BlacklisterChanged(blacklister);\n        Ownable.initialize(_owner);\n    }\n\n    /**\n     * @dev Throws if called by any account other than the blacklister\n    */\n    modifier onlyBlacklister(){\n        require(msg.sender == blacklister,\n        \"Only Blacklister Role can call this method\");\n        _;\n    }\n\n    /**\n     * @dev Throws if argument account is blacklisted\n     * @param _account The address to check\n    */\n    modifier notBlacklisted(address _account) {\n        require(blacklisted[_account] == false,\n        \"this account is marked in our  blac-klist\");\n        _;\n    }\n\n    /**\n     * @dev Checks if account is blacklisted\n     * @param _account The address to check\n     */\n    function isBlacklisted(address _account) public view returns (bool) {\n        return blacklisted[_account];\n    }\n\n    /**\n     * @dev Adds account to blacklist\n     * @param _account The address to blacklist\n    */\n    function blacklist(address _account) public onlyBlacklister {\n        blacklisted[_account] = true;\n        emit Blacklisted(_account);\n    }\n\n    /**\n     * @dev Removes account from blacklist\n     * @param _account The address to remove from the blacklist\n    */\n    function unBlacklist(address _account) public onlyBlacklister {\n        blacklisted[_account] = false;\n        emit UnBlacklisted(_account);\n    }\n\n    function updateBlacklister(address _newBlacklister) public onlyOwner {\n        require(_newBlacklister != address(0), \"blacklister is 0x0\");\n        blacklister = _newBlacklister;\n        emit BlacklisterChanged(blacklister);\n    }\n}","sourcePath":"contracts/Blacklistable.sol","abi":[{"constant":false,"inputs":[{"name":"_account","type":"address"}],"name":"unBlacklist","outputs":[],"payable":false,"stateMutability":"nonpayable","type":"function"},{"constant":false,"inputs":[{"name":"_blacklister","type":"address"},{"name":"_owner","type":"address"}],"name":"initialize","outputs":[],"payable":false,"stateMutability":"nonpayable","type":"function"},{"constant":false,"inputs":[],"name":"renounceOwnership","outputs":[],"payable":false,"stateMutability":"nonpayable","type":"function"},{"constant":true,"inputs":[],"name":"owner","outputs":[{"name":"","type":"address"}],"payable":false,"stateMutability":"view","type":"function"},{"constant":true,"inputs":[],"name":"isOwner","outputs":[{"name":"","type":"bool"}],"payable":false,"stateMutability":"view","type":"function"},{"constant":false,"inputs":[{"name":"_newBlacklister","type":"address"}],"name":"updateBlacklister","outputs":[],"payable":false,"stateMutability":"nonpayable","type":"function"},{"constant":true,"inputs":[],"name":"blacklister","outputs":[{"name":"","type":"address"}],"payable":false,"stateMutability":"view","type":"function"},{"constant":false,"inputs":[{"name":"sender","type":"address"}],"name":"initialize","outputs":[],"payable":false,"stateMutability":"nonpayable","type":"function"},{"constant":false,"inputs":[{"name":"newOwner","type":"address"}],"name":"transferOwnership","outputs":[],"payable":false,"stateMutability":"nonpayable","type":"function"},{"constant":false,"inputs":[{"name":"_account","type":"address"}],"name":"blacklist","outputs":[],"payable":false,"stateMutability":"nonpayable","type":"function"},{"constant":true,"inputs":[{"name":"_account","type":"address"}],"name":"isBlacklisted","outputs":[{"name":"","type":"bool"}],"payable":false,"stateMutability":"view","type":"function"},{"anonymous":false,"inputs":[{"indexed":true,"name":"_account","type":"address"}],"name":"Blacklisted","type":"event"},{"anonymous":false,"inputs":[{"indexed":true,"name":"_account","type":"address"}],"name":"UnBlacklisted","type":"event"},{"anonymous":false,"inputs":[{"indexed":true,"name":"newBlacklister","type":"address"}],"name":"BlacklisterChanged","type":"event"},{"anonymous":false,"inputs":[{"indexed":true,"name":"previousOwner","type":"address"},{"indexed":true,"name":"newOwner","type":"address"}],"name":"OwnershipTransferred","type":"event"}],"bytecode":"0x60806040523480156100115760006000fd5b50610017565b610ee0806100266000396000f3fe60806040523480156100115760006000fd5b50600436106100ae5760003560e01c8063ad38bf2211610072578063ad38bf22146101d4578063bd10243014610219578063c4d66de814610263578063f2fde38b146102a8578063f9f92be4146102ed578063fe575a8714610332576100ae565b80631a895266146100b4578063485cc955146100f9578063715018a61461015e5780638da5cb5b146101685780638f32d59b146101b2576100ae565b60006000fd5b6100f7600480360360208110156100cb5760006000fd5b81019080803573ffffffffffffffffffffffffffffffffffffffff16906020019092919050505061038f565b005b61015c600480360360408110156101105760006000fd5b81019080803573ffffffffffffffffffffffffffffffffffffffff169060200190929190803573ffffffffffffffffffffffffffffffffffffffff1690602001909291905050506104da565b005b61016661069e565b005b61017061077b565b604051808273ffffffffffffffffffffffffffffffffffffffff1673ffffffffffffffffffffffffffffffffffffffff16815260200191505060405180910390f35b6101ba6107aa565b604051808215151515815260200191505060405180910390f35b610217600480360360208110156101eb5760006000fd5b81019080803573ffffffffffffffffffffffffffffffffffffffff169060200190929190505050610807565b005b610221610974565b604051808273ffffffffffffffffffffffffffffffffffffffff1673ffffffffffffffffffffffffffffffffffffffff16815260200191505060405180910390f35b6102a66004803603602081101561027a5760006000fd5b81019080803573ffffffffffffffffffffffffffffffffffffffff16906020019092919050505061099a565b005b6102eb600480360360208110156102bf5760006000fd5b81019080803573ffffffffffffffffffffffffffffffffffffffff169060200190929190505050610b66565b005b610330600480360360208110156103045760006000fd5b81019080803573ffffffffffffffffffffffffffffffffffffffff169060200190929190505050610b94565b005b610375600480360360208110156103495760006000fd5b81019080803573ffffffffffffffffffffffffffffffffffffffff169060200190929190505050610cdf565b604051808215151515815260200191505060405180910390f35b606660009054906101000a900473ffffffffffffffffffffffffffffffffffffffff1673ffffffffffffffffffffffffffffffffffffffff163373ffffffffffffffffffffffffffffffffffffffff16141515610437576040517f08c379a000000000000000000000000000000000000000000000000000000000815260040180806020018281038252602a815260200180610e54602a913960400191505060405180910390fd5b6000606760005060008373ffffffffffffffffffffffffffffffffffffffff1673ffffffffffffffffffffffffffffffffffffffff16815260200190815260200160002060006101000a81548160ff0219169083151502179055508073ffffffffffffffffffffffffffffffffffffffff167f117e3210bb9aa7d9baff172026820255c6f6c30ba8999d1c2fd88e2848137c4e60405160405180910390a25b5b50565b600060019054906101000a900460ff16806104ff57506104fe610d3d63ffffffff16565b5b806105175750600060009054906101000a900460ff16155b151561056e576040517f08c379a000000000000000000000000000000000000000000000000000000000815260040180806020018281038252602e815260200180610e7e602e913960400191505060405180910390fd5b6000600060019054906101000a900460ff1615905080156105c0576001600060016101000a81548160ff0219169083151502179055506001600060006101000a81548160ff0219169083151502179055505b82606660006101000a81548173ffffffffffffffffffffffffffffffffffffffff021916908373ffffffffffffffffffffffffffffffffffffffff160217905550606660009054906101000a900473ffffffffffffffffffffffffffffffffffffffff1673ffffffffffffffffffffffffffffffffffffffff167fc67398012c111ce95ecb7429b933096c977380ee6c421175a71a4a4c6c88c06e60405160405180910390a26106758261099a63ffffffff16565b5b8015610698576000600060016101000a81548160ff0219169083151502179055505b505b5050565b6106ac6107aa63ffffffff16565b15156106b85760006000fd5b600073ffffffffffffffffffffffffffffffffffffffff16603360009054906101000a900473ffffffffffffffffffffffffffffffffffffffff1673ffffffffffffffffffffffffffffffffffffffff167f8be0079c531659141344cd1fd0a4f28419497f9722a3daafe3b4186f6b6457e060405160405180910390a36000603360006101000a81548173ffffffffffffffffffffffffffffffffffffffff021916908373ffffffffffffffffffffffffffffffffffffffff1602179055505b5b565b6000603360009054906101000a900473ffffffffffffffffffffffffffffffffffffffff1690506107a7565b90565b6000603360009054906101000a900473ffffffffffffffffffffffffffffffffffffffff1673ffffffffffffffffffffffffffffffffffffffff163373ffffffffffffffffffffffffffffffffffffffff16149050610804565b90565b6108156107aa63ffffffff16565b15156108215760006000fd5b600073ffffffffffffffffffffffffffffffffffffffff168173ffffffffffffffffffffffffffffffffffffffff16141515156108c9576040517f08c379a00000000000000000000000000000000000000000000000000000000081526004018080602001828103825260128152602001807f626c61636b6c697374657220697320307830000000000000000000000000000081526020015060200191505060405180910390fd5b80606660006101000a81548173ffffffffffffffffffffffffffffffffffffffff021916908373ffffffffffffffffffffffffffffffffffffffff160217905550606660009054906101000a900473ffffffffffffffffffffffffffffffffffffffff1673ffffffffffffffffffffffffffffffffffffffff167fc67398012c111ce95ecb7429b933096c977380ee6c421175a71a4a4c6c88c06e60405160405180910390a25b5b50565b606660009054906101000a900473ffffffffffffffffffffffffffffffffffffffff1681565b600060019054906101000a900460ff16806109bf57506109be610d3d63ffffffff16565b5b806109d75750600060009054906101000a900460ff16155b1515610a2e576040517f08c379a000000000000000000000000000000000000000000000000000000000815260040180806020018281038252602e815260200180610e7e602e913960400191505060405180910390fd5b6000600060019054906101000a900460ff161590508015610a80576001600060016101000a81548160ff0219169083151502179055506001600060006101000a81548160ff0219169083151502179055505b81603360006101000a81548173ffffffffffffffffffffffffffffffffffffffff021916908373ffffffffffffffffffffffffffffffffffffffff160217905550603360009054906101000a900473ffffffffffffffffffffffffffffffffffffffff1673ffffffffffffffffffffffffffffffffffffffff16600073ffffffffffffffffffffffffffffffffffffffff167f8be0079c531659141344cd1fd0a4f28419497f9722a3daafe3b4186f6b6457e060405160405180910390a35b8015610b61576000600060016101000a81548160ff0219169083151502179055505b505b50565b610b746107aa63ffffffff16565b1515610b805760006000fd5b610b8f81610d5563ffffffff16565b5b5b50565b606660009054906101000a900473ffffffffffffffffffffffffffffffffffffffff1673ffffffffffffffffffffffffffffffffffffffff163373ffffffffffffffffffffffffffffffffffffffff16141515610c3c576040517f08c379a000000000000000000000000000000000000000000000000000000000815260040180806020018281038252602a815260200180610e54602a913960400191505060405180910390fd5b6001606760005060008373ffffffffffffffffffffffffffffffffffffffff1673ffffffffffffffffffffffffffffffffffffffff16815260200190815260200160002060006101000a81548160ff0219169083151502179055508073ffffffffffffffffffffffffffffffffffffffff167fffa4e6181777692565cf28528fc88fd1516ea86b56da075235fa575af6a4b85560405160405180910390a25b5b50565b6000606760005060008373ffffffffffffffffffffffffffffffffffffffff1673ffffffffffffffffffffffffffffffffffffffff16815260200190815260200160002060009054906101000a900460ff169050610d38565b919050565b60006000303b905060008114915050610d5256505b90565b600073ffffffffffffffffffffffffffffffffffffffff168173ffffffffffffffffffffffffffffffffffffffff1614151515610d925760006000fd5b8073ffffffffffffffffffffffffffffffffffffffff16603360009054906101000a900473ffffffffffffffffffffffffffffffffffffffff1673ffffffffffffffffffffffffffffffffffffffff167f8be0079c531659141344cd1fd0a4f28419497f9722a3daafe3b4186f6b6457e060405160405180910390a380603360006101000a81548173ffffffffffffffffffffffffffffffffffffffff021916908373ffffffffffffffffffffffffffffffffffffffff1602179055505b5056fe4f6e6c7920426c61636b6c697374657220526f6c652063616e2063616c6c2074686973206d6574686f64436f6e747261637420696e7374616e63652068617320616c7265616479206265656e20696e697469616c697a6564a265627a7a72305820540a513a57a5e046b8dbc9520f78b1e852915d88e712c0668e132eb2047cd51064736f6c634300050a0032","compiler":{"name":"solc","version":"0.5.10+commit.5a6ea5b1.Emscripten.clang","optimizer":{},"evmVersion":"constantinople"}}