{"fileName":"ERC20Mintable.sol","contractName":"ERC20Mintable","source":"pragma solidity ^0.5.2;\n\nimport \"zos-lib/contracts/Initializable.sol\";\nimport \"./ERC20.sol\";\nimport \"../../access/roles/MinterRole.sol\";\n\n/**\n * @title ERC20Mintable\n * @dev ERC20 minting logic\n */\ncontract ERC20Mintable is Initializable, ERC20, MinterRole {\n    function initialize(address sender) public initializer {\n        MinterRole.initialize(sender);\n    }\n\n    /**\n     * @dev Function to mint tokens\n     * @param to The address that will receive the minted tokens.\n     * @param value The amount of tokens to mint.\n     * @return A boolean that indicates if the operation was successful.\n     */\n    function mint(address to, uint256 value) public onlyMinter returns (bool) {\n        _mint(to, value);\n        return true;\n    }\n\n    uint256[50] private ______gap;\n}\n","sourcePath":"openzeppelin-eth/contracts/token/ERC20/ERC20Mintable.sol","abi":[{"constant":false,"inputs":[{"name":"spender","type":"address"},{"name":"value","type":"uint256"}],"name":"approve","outputs":[{"name":"","type":"bool"}],"payable":false,"stateMutability":"nonpayable","type":"function"},{"constant":true,"inputs":[],"name":"totalSupply","outputs":[{"name":"","type":"uint256"}],"payable":false,"stateMutability":"view","type":"function"},{"constant":false,"inputs":[{"name":"from","type":"address"},{"name":"to","type":"address"},{"name":"value","type":"uint256"}],"name":"transferFrom","outputs":[{"name":"","type":"bool"}],"payable":false,"stateMutability":"nonpayable","type":"function"},{"constant":false,"inputs":[{"name":"spender","type":"address"},{"name":"addedValue","type":"uint256"}],"name":"increaseAllowance","outputs":[{"name":"","type":"bool"}],"payable":false,"stateMutability":"nonpayable","type":"function"},{"constant":false,"inputs":[{"name":"to","type":"address"},{"name":"value","type":"uint256"}],"name":"mint","outputs":[{"name":"","type":"bool"}],"payable":false,"stateMutability":"nonpayable","type":"function"},{"constant":true,"inputs":[{"name":"owner","type":"address"}],"name":"balanceOf","outputs":[{"name":"","type":"uint256"}],"payable":false,"stateMutability":"view","type":"function"},{"constant":false,"inputs":[{"name":"account","type":"address"}],"name":"addMinter","outputs":[],"payable":false,"stateMutability":"nonpayable","type":"function"},{"constant":false,"inputs":[],"name":"renounceMinter","outputs":[],"payable":false,"stateMutability":"nonpayable","type":"function"},{"constant":false,"inputs":[{"name":"spender","type":"address"},{"name":"subtractedValue","type":"uint256"}],"name":"decreaseAllowance","outputs":[{"name":"","type":"bool"}],"payable":false,"stateMutability":"nonpayable","type":"function"},{"constant":false,"inputs":[{"name":"to","type":"address"},{"name":"value","type":"uint256"}],"name":"transfer","outputs":[{"name":"","type":"bool"}],"payable":false,"stateMutability":"nonpayable","type":"function"},{"constant":true,"inputs":[{"name":"account","type":"address"}],"name":"isMinter","outputs":[{"name":"","type":"bool"}],"payable":false,"stateMutability":"view","type":"function"},{"constant":false,"inputs":[{"name":"sender","type":"address"}],"name":"initialize","outputs":[],"payable":false,"stateMutability":"nonpayable","type":"function"},{"constant":true,"inputs":[{"name":"owner","type":"address"},{"name":"spender","type":"address"}],"name":"allowance","outputs":[{"name":"","type":"uint256"}],"payable":false,"stateMutability":"view","type":"function"},{"anonymous":false,"inputs":[{"indexed":true,"name":"account","type":"address"}],"name":"MinterAdded","type":"event"},{"anonymous":false,"inputs":[{"indexed":true,"name":"account","type":"address"}],"name":"MinterRemoved","type":"event"},{"anonymous":false,"inputs":[{"indexed":true,"name":"from","type":"address"},{"indexed":true,"name":"to","type":"address"},{"indexed":false,"name":"value","type":"uint256"}],"name":"Transfer","type":"event"},{"anonymous":false,"inputs":[{"indexed":true,"name":"owner","type":"address"},{"indexed":true,"name":"spender","type":"address"},{"indexed":false,"name":"value","type":"uint256"}],"name":"Approval","type":"event"}],"bytecode":"0x608060405234801561001057600080fd5b50610c8d806100206000396000f3fe608060405234801561001057600080fd5b50600436106100df5760003560e01c8063983b2d561161008c578063a9059cbb11610066578063a9059cbb146102a9578063aa271e1a146102e2578063c4d66de814610315578063dd62ed3e14610348576100df565b8063983b2d56146102335780639865027514610268578063a457c2d714610270576100df565b806339509351116100bd578063395093511461018e57806340c10f19146101c757806370a0823114610200576100df565b8063095ea7b3146100e457806318160ddd1461013157806323b872dd1461014b575b600080fd5b61011d600480360360408110156100fa57600080fd5b5073ffffffffffffffffffffffffffffffffffffffff8135169060200135610383565b604080519115158252519081900360200190f35b610139610399565b60408051918252519081900360200190f35b61011d6004803603606081101561016157600080fd5b5073ffffffffffffffffffffffffffffffffffffffff81358116916020810135909116906040013561039f565b61011d600480360360408110156101a457600080fd5b5073ffffffffffffffffffffffffffffffffffffffff8135169060200135610403565b61011d600480360360408110156101dd57600080fd5b5073ffffffffffffffffffffffffffffffffffffffff813516906020013561044c565b6101396004803603602081101561021657600080fd5b503573ffffffffffffffffffffffffffffffffffffffff1661046a565b6102666004803603602081101561024957600080fd5b503573ffffffffffffffffffffffffffffffffffffffff16610492565b005b6102666104b0565b61011d6004803603604081101561028657600080fd5b5073ffffffffffffffffffffffffffffffffffffffff81351690602001356104bb565b61011d600480360360408110156102bf57600080fd5b5073ffffffffffffffffffffffffffffffffffffffff8135169060200135610504565b61011d600480360360208110156102f857600080fd5b503573ffffffffffffffffffffffffffffffffffffffff16610511565b6102666004803603602081101561032b57600080fd5b503573ffffffffffffffffffffffffffffffffffffffff1661052a565b6101396004803603604081101561035e57600080fd5b5073ffffffffffffffffffffffffffffffffffffffff81358116916020013516610648565b6000610390338484610680565b50600192915050565b60355490565b60006103ac84848461072f565b73ffffffffffffffffffffffffffffffffffffffff84166000908152603460209081526040808320338085529252909120546103f99186916103f4908663ffffffff61083016565b610680565b5060019392505050565b33600081815260346020908152604080832073ffffffffffffffffffffffffffffffffffffffff8716845290915281205490916103909185906103f4908663ffffffff61084516565b600061045733610511565b61046057600080fd5b610390838361085e565b73ffffffffffffffffffffffffffffffffffffffff1660009081526033602052604090205490565b61049b33610511565b6104a457600080fd5b6104ad8161092f565b50565b6104b933610984565b565b33600081815260346020908152604080832073ffffffffffffffffffffffffffffffffffffffff8716845290915281205490916103909185906103f4908663ffffffff61083016565b600061039033848461072f565b600061052460688363ffffffff6109d916565b92915050565b600054610100900460ff16806105435750610543610a28565b80610551575060005460ff16155b6105a6576040517f08c379a000000000000000000000000000000000000000000000000000000000815260040180806020018281038252602e815260200180610c2b602e913960400191505060405180910390fd5b600054610100900460ff1615801561060c57600080547fffffffffffffffffffffffffffffffffffffffffffffffffffffffffffffff007fffffffffffffffffffffffffffffffffffffffffffffffffffffffffffff00ff909116610100171660011790555b61061582610a2e565b801561064457600080547fffffffffffffffffffffffffffffffffffffffffffffffffffffffffffff00ff1690555b5050565b73ffffffffffffffffffffffffffffffffffffffff918216600090815260346020908152604080832093909416825291909152205490565b73ffffffffffffffffffffffffffffffffffffffff82166106a057600080fd5b73ffffffffffffffffffffffffffffffffffffffff83166106c057600080fd5b73ffffffffffffffffffffffffffffffffffffffff808416600081815260346020908152604080832094871680845294825291829020859055815185815291517f8c5be1e5ebec7d5bd14f71427d1e84f3dd0314c0f7b2291e5b200ac8c7c3b9259281900390910190a3505050565b73ffffffffffffffffffffffffffffffffffffffff821661074f57600080fd5b73ffffffffffffffffffffffffffffffffffffffff8316600090815260336020526040902054610785908263ffffffff61083016565b73ffffffffffffffffffffffffffffffffffffffff80851660009081526033602052604080822093909355908416815220546107c7908263ffffffff61084516565b73ffffffffffffffffffffffffffffffffffffffff80841660008181526033602090815260409182902094909455805185815290519193928716927fddf252ad1be2c89b69c2b068fc378daa952ba7f163c4a11628f55a4df523b3ef92918290030190a3505050565b60008282111561083f57600080fd5b50900390565b60008282018381101561085757600080fd5b9392505050565b73ffffffffffffffffffffffffffffffffffffffff821661087e57600080fd5b603554610891908263ffffffff61084516565b60355573ffffffffffffffffffffffffffffffffffffffff82166000908152603360205260409020546108ca908263ffffffff61084516565b73ffffffffffffffffffffffffffffffffffffffff831660008181526033602090815260408083209490945583518581529351929391927fddf252ad1be2c89b69c2b068fc378daa952ba7f163c4a11628f55a4df523b3ef9281900390910190a35050565b61094060688263ffffffff610b2616565b60405173ffffffffffffffffffffffffffffffffffffffff8216907f6ae172837ea30b801fbfcdd4108aa1d5bf8ff775444fd70256b44e6bf3dfc3f690600090a250565b61099560688263ffffffff610baa16565b60405173ffffffffffffffffffffffffffffffffffffffff8216907fe94479a9f7e1952cc78f2d6baab678adc1b772d936c6583def489e524cb6669290600090a250565b600073ffffffffffffffffffffffffffffffffffffffff82166109fb57600080fd5b5073ffffffffffffffffffffffffffffffffffffffff166000908152602091909152604090205460ff1690565b303b1590565b600054610100900460ff1680610a475750610a47610a28565b80610a55575060005460ff16155b610aaa576040517f08c379a000000000000000000000000000000000000000000000000000000000815260040180806020018281038252602e815260200180610c2b602e913960400191505060405180910390fd5b600054610100900460ff16158015610b1057600080547fffffffffffffffffffffffffffffffffffffffffffffffffffffffffffffff007fffffffffffffffffffffffffffffffffffffffffffffffffffffffffffff00ff909116610100171660011790555b610b1982610511565b610615576106158261092f565b73ffffffffffffffffffffffffffffffffffffffff8116610b4657600080fd5b610b5082826109d9565b15610b5a57600080fd5b73ffffffffffffffffffffffffffffffffffffffff1660009081526020919091526040902080547fffffffffffffffffffffffffffffffffffffffffffffffffffffffffffffff00166001179055565b73ffffffffffffffffffffffffffffffffffffffff8116610bca57600080fd5b610bd482826109d9565b610bdd57600080fd5b73ffffffffffffffffffffffffffffffffffffffff1660009081526020919091526040902080547fffffffffffffffffffffffffffffffffffffffffffffffffffffffffffffff0016905556fe436f6e747261637420696e7374616e63652068617320616c7265616479206265656e20696e697469616c697a6564a265627a7a72305820c6ddb6cda5592b7284689fce3bb5b85a96b695a04098e02c9ff77a3f75183fa564736f6c634300050a0032","compiler":{"name":"solc","version":"0.5.10+commit.5a6ea5b1.Emscripten.clang","optimizer":{"enabled":true,"runs":1000000000},"evmVersion":"constantinople"}}