{"fileName":"FiatToken.sol","contractName":"FiatToken","source":"pragma solidity ^0.5.2;\n\nimport \"@openzeppelin/contracts-ethereum-package/contracts/token/ERC20/ERC20Detailed.sol\";\nimport \"@openzeppelin/contracts-ethereum-package/contracts/token/ERC20/ERC20Burnable.sol\";\nimport \"@openzeppelin/contracts-ethereum-package/contracts/ownership/Ownable.sol\";\nimport \"@openzeppelin/upgrades/contracts/Initializable.sol\";\nimport \"./MasterPauser.sol\";\nimport \"./MasterMinter.sol\";\nimport \"./Blacklistable.sol\";\n\n\n\n/**\n* @title FiatToken contract\n* @dev This sontact was meant to work as a stable coin with upgradeability support.\n*/\ncontract FiatToken is Ownable, ERC20Detailed,ERC20Burnable{\n\n\tBlacklistable public blacklister;\n\tMasterMinter public masterMinter;\n\tMasterPauser public pauser;\n\n\t/**\n\t* @dev this function is needed by support uppgradeability\n\t* @param name : string. The name of this token ERC20.\n\t* @param symbol : string. ERC20 token symbol .\n\t* @param decimals : uint8. Decimals fractions that may have a token unit.\n\t* @param _masterMinter : MasterMinter.\n\t* @param _blacklister : Blacklistable.\n\t* @param _pauser : MasterPauser.\n\t* @param owner : address.\n\t*/\n\tfunction initialize(string memory name,\n\t\tstring memory symbol,\n\t\tuint8 decimals,\n\t\tMasterMinter _masterMinter,\n\t\tBlacklistable _blacklister,\n\t\tMasterPauser _pauser,\n\t\taddress owner) public initializer  {\n\t\tERC20Detailed.initialize(name,symbol,decimals);\n \t\tmasterMinter = _masterMinter;\n\t\tpauser = _pauser;\n\t\temit InitializationLog(\"After Master Minter initialization\");\n\t\tblacklister = _blacklister;\n\t\temit InitializationLog(\"After Black Lister setting\");\n\t\tOwnable.initialize(owner);\n\t\temit InitializationLog(\"After Ownable initialization\");\n\n\t}\n\n\t/*function reInitialize(string memory name,\n\t\tstring memory symbol,\n\t\tuint8 decimals,\n\t\tMasterMinter _masterMinter,\n\t\tBlacklistable _blacklister,\n\t\tMasterPauser _pauser,\n\t\taddress owner) public onlyOwner {\n\t\t\n\t\tpauser.pause();\n\t\t\n\t\t}/*\n\n    /**\n     * @dev Function to mint tokens\n     * @param to The address that will receive the minted tokens.\n     * @param value The amount of tokens to mint.\n     * @return A boolean that indicates if the operation was successful.\n     */\n    function mint(address to, uint256 value) public onlyMinter returns (bool) {\n        _mint(to, value);\n        return true;\n    }\n\n\tmodifier onlyMinter() {\n        require(masterMinter.isMinter(msg.sender),\"Only Minter accounts can mint()\");\n        _;\n    }\n\n\n\n\t/**\n     * @dev Modifier to make a function callable only when the contract is not paused.\n     */\n    modifier whenNotPaused() {\n        require(!pauser.paused(),\"This contract is paused\");\n        _;\n    }\n\n\tmodifier whenPaused(){\n\t\trequire(pauser.paused(),\"This contract is not paused\");\n        _;\n\t}\n\n\tfunction paused() public view returns(bool){\n\t\treturn pauser.paused();\n\t}\n\n\t/**\n\t* @dev overriding ERC20.transfer with modifier whenNotPaused\n\t* @param to The address to transfer to.\n\t* @param value The amount to be transferred.\n\t*/\n\tfunction transfer(address to, uint256 value) public notBlacklisted(msg.sender) whenNotPaused returns(bool) {\n\t\tERC20.transfer(to, value);\n\t\treturn true;\n\t}\n\n\tfunction approve(address spender, uint256 value) public\n\tnotBlacklisted(msg.sender)\n\twhenNotPaused returns (bool){\n\t\tERC20.approve(spender, value);\n\t\treturn true;\n\t}\n\n    function transferFrom(address from, address to, uint256 value) public\n\tnotBlacklisted(from)  notBlacklisted(to) whenNotPaused\n\treturns (bool){\n\t\tERC20.transferFrom(from,to,value);\n\t\treturn true;\n\t}\n\n\t/**\n     * @dev Throws if argument account is blacklisted\n     * @param _account The address to check\n    */\n    modifier notBlacklisted(address _account) {\n        require(!blacklister.isBlacklisted(_account),\n        \"this account is marked in our blac-klist\");\n        _;\n    }\n\n\t\n\n\tfunction helloworld() public pure returns(string memory){\n\t\treturn \"hola mundo feliz\";\n\t}\n\n\tevent InitializationLog(\n        string message\n    );\n\n\tevent FallBackCallLog(\n\t\taddress sender\n\t);\n}","sourcePath":"contracts/FiatToken.sol","abi":[{"constant":true,"inputs":[],"name":"name","outputs":[{"name":"","type":"string"}],"payable":false,"stateMutability":"view","type":"function"},{"constant":false,"inputs":[{"name":"spender","type":"address"},{"name":"value","type":"uint256"}],"name":"approve","outputs":[{"name":"","type":"bool"}],"payable":false,"stateMutability":"nonpayable","type":"function"},{"constant":false,"inputs":[{"name":"name","type":"string"},{"name":"symbol","type":"string"},{"name":"decimals","type":"uint8"},{"name":"_masterMinter","type":"address"},{"name":"_blacklister","type":"address"},{"name":"_pauser","type":"address"},{"name":"owner","type":"address"}],"name":"initialize","outputs":[],"payable":false,"stateMutability":"nonpayable","type":"function"},{"constant":false,"inputs":[{"name":"name","type":"string"},{"name":"symbol","type":"string"},{"name":"decimals","type":"uint8"}],"name":"initialize","outputs":[],"payable":false,"stateMutability":"nonpayable","type":"function"},{"constant":true,"inputs":[],"name":"totalSupply","outputs":[{"name":"","type":"uint256"}],"payable":false,"stateMutability":"view","type":"function"},{"constant":false,"inputs":[{"name":"from","type":"address"},{"name":"to","type":"address"},{"name":"value","type":"uint256"}],"name":"transferFrom","outputs":[{"name":"","type":"bool"}],"payable":false,"stateMutability":"nonpayable","type":"function"},{"constant":true,"inputs":[],"name":"helloworld","outputs":[{"name":"","type":"string"}],"payable":false,"stateMutability":"pure","type":"function"},{"constant":true,"inputs":[],"name":"decimals","outputs":[{"name":"","type":"uint8"}],"payable":false,"stateMutability":"view","type":"function"},{"constant":true,"inputs":[],"name":"masterMinter","outputs":[{"name":"","type":"address"}],"payable":false,"stateMutability":"view","type":"function"},{"constant":false,"inputs":[{"name":"spender","type":"address"},{"name":"addedValue","type":"uint256"}],"name":"increaseAllowance","outputs":[{"name":"","type":"bool"}],"payable":false,"stateMutability":"nonpayable","type":"function"},{"constant":false,"inputs":[{"name":"to","type":"address"},{"name":"value","type":"uint256"}],"name":"mint","outputs":[{"name":"","type":"bool"}],"payable":false,"stateMutability":"nonpayable","type":"function"},{"constant":false,"inputs":[{"name":"value","type":"uint256"}],"name":"burn","outputs":[],"payable":false,"stateMutability":"nonpayable","type":"function"},{"constant":true,"inputs":[],"name":"paused","outputs":[{"name":"","type":"bool"}],"payable":false,"stateMutability":"view","type":"function"},{"constant":true,"inputs":[{"name":"owner","type":"address"}],"name":"balanceOf","outputs":[{"name":"","type":"uint256"}],"payable":false,"stateMutability":"view","type":"function"},{"constant":false,"inputs":[],"name":"renounceOwnership","outputs":[],"payable":false,"stateMutability":"nonpayable","type":"function"},{"constant":false,"inputs":[{"name":"from","type":"address"},{"name":"value","type":"uint256"}],"name":"burnFrom","outputs":[],"payable":false,"stateMutability":"nonpayable","type":"function"},{"constant":true,"inputs":[],"name":"owner","outputs":[{"name":"","type":"address"}],"payable":false,"stateMutability":"view","type":"function"},{"constant":true,"inputs":[],"name":"isOwner","outputs":[{"name":"","type":"bool"}],"payable":false,"stateMutability":"view","type":"function"},{"constant":true,"inputs":[],"name":"symbol","outputs":[{"name":"","type":"string"}],"payable":false,"stateMutability":"view","type":"function"},{"constant":true,"inputs":[],"name":"pauser","outputs":[{"name":"","type":"address"}],"payable":false,"stateMutability":"view","type":"function"},{"constant":false,"inputs":[{"name":"spender","type":"address"},{"name":"subtractedValue","type":"uint256"}],"name":"decreaseAllowance","outputs":[{"name":"","type":"bool"}],"payable":false,"stateMutability":"nonpayable","type":"function"},{"constant":false,"inputs":[{"name":"to","type":"address"},{"name":"value","type":"uint256"}],"name":"transfer","outputs":[{"name":"","type":"bool"}],"payable":false,"stateMutability":"nonpayable","type":"function"},{"constant":true,"inputs":[],"name":"blacklister","outputs":[{"name":"","type":"address"}],"payable":false,"stateMutability":"view","type":"function"},{"constant":false,"inputs":[{"name":"sender","type":"address"}],"name":"initialize","outputs":[],"payable":false,"stateMutability":"nonpayable","type":"function"},{"constant":true,"inputs":[{"name":"owner","type":"address"},{"name":"spender","type":"address"}],"name":"allowance","outputs":[{"name":"","type":"uint256"}],"payable":false,"stateMutability":"view","type":"function"},{"constant":false,"inputs":[{"name":"newOwner","type":"address"}],"name":"transferOwnership","outputs":[],"payable":false,"stateMutability":"nonpayable","type":"function"},{"anonymous":false,"inputs":[{"indexed":false,"name":"message","type":"string"}],"name":"InitializationLog","type":"event"},{"anonymous":false,"inputs":[{"indexed":false,"name":"sender","type":"address"}],"name":"FallBackCallLog","type":"event"},{"anonymous":false,"inputs":[{"indexed":true,"name":"from","type":"address"},{"indexed":true,"name":"to","type":"address"},{"indexed":false,"name":"value","type":"uint256"}],"name":"Transfer","type":"event"},{"anonymous":false,"inputs":[{"indexed":true,"name":"owner","type":"address"},{"indexed":true,"name":"spender","type":"address"},{"indexed":false,"name":"value","type":"uint256"}],"name":"Approval","type":"event"},{"anonymous":false,"inputs":[{"indexed":true,"name":"previousOwner","type":"address"},{"indexed":true,"name":"newOwner","type":"address"}],"name":"OwnershipTransferred","type":"event"}],"bytecode":"0x60806040523480156100115760006000fd5b50610017565b612edc806100266000396000f3fe60806040523480156100115760006000fd5b50600436106101935760003560e01c806370a08231116100df5780639fd0506d11610098578063bd10243011610072578063bd10243014610b50578063c4d66de814610b9a578063dd62ed3e14610bdf578063f2fde38b14610c5857610193565b80639fd0506d14610a38578063a457c2d714610a82578063a9059cbb14610ae957610193565b806370a0823114610896578063715018a6146108ef57806379cc6790146108f95780638da5cb5b146109485780638f32d59b1461099257806395d89b41146109b457610193565b80632f2f48591161014c5780633950935111610126578063395093511461077757806340c10f19146107de57806342966c68146108455780635c975abb1461087457610193565b80632f2f485914610685578063313ce5671461070957806335d99f351461072d57610193565b806306fdde0314610199578063095ea7b31461021d578063147936ba146102845780631624f6c61461047257806318160ddd146105e057806323b872dd146105fe57610193565b60006000fd5b6101a1610c9d565b6040518080602001828103825283818151815260200191508051906020019080838360005b838110156101e25780820151818401525b6020810190506101c6565b50505050905090810190601f16801561020f5780820380516001836020036101000a031916815260200191505b509250505060405180910390f35b61026a600480360360408110156102345760006000fd5b81019080803573ffffffffffffffffffffffffffffffffffffffff16906020019092919080359060200190929190505050610d47565b604051808215151515815260200191505060405180910390f35b610470600480360360e081101561029b5760006000fd5b81019080803590602001906401000000008111156102b95760006000fd5b8201836020820111156102cc5760006000fd5b803590602001918460018302840111640100000000831117156102ef5760006000fd5b91908080601f016020809104026020016040519081016040528093929190818152602001838380828437600081840152601f19601f82011690508083019250505050505050909091929090919290803590602001906401000000008111156103575760006000fd5b82018360208201111561036a5760006000fd5b8035906020019184600183028401116401000000008311171561038d5760006000fd5b91908080601f016020809104026020016040519081016040528093929190818152602001838380828437600081840152601f19601f82011690508083019250505050505050909091929090919290803560ff169060200190929190803573ffffffffffffffffffffffffffffffffffffffff169060200190929190803573ffffffffffffffffffffffffffffffffffffffff169060200190929190803573ffffffffffffffffffffffffffffffffffffffff169060200190929190803573ffffffffffffffffffffffffffffffffffffffff169060200190929190505050610fc2565b005b6105de600480360360608110156104895760006000fd5b81019080803590602001906401000000008111156104a75760006000fd5b8201836020820111156104ba5760006000fd5b803590602001918460018302840111640100000000831117156104dd5760006000fd5b91908080601f016020809104026020016040519081016040528093929190818152602001838380828437600081840152601f19601f82011690508083019250505050505050909091929090919290803590602001906401000000008111156105455760006000fd5b8201836020820111156105585760006000fd5b8035906020019184600183028401116401000000008311171561057b5760006000fd5b91908080601f016020809104026020016040519081016040528093929190818152602001838380828437600081840152601f19601f82011690508083019250505050505050909091929090919290803560ff1690602001909291905050506112dd565b005b6105e861143c565b6040518082815260200191505060405180910390f35b61066b600480360360608110156106155760006000fd5b81019080803573ffffffffffffffffffffffffffffffffffffffff169060200190929190803573ffffffffffffffffffffffffffffffffffffffff1690602001909291908035906020019092919050505061144e565b604051808215151515815260200191505060405180910390f35b61068d611804565b6040518080602001828103825283818151815260200191508051906020019080838360005b838110156106ce5780820151818401525b6020810190506106b2565b50505050905090810190601f1680156106fb5780820380516001836020036101000a031916815260200191505b509250505060405180910390f35b610711611849565b604051808260ff1660ff16815260200191505060405180910390f35b610735611865565b604051808273ffffffffffffffffffffffffffffffffffffffff1673ffffffffffffffffffffffffffffffffffffffff16815260200191505060405180910390f35b6107c46004803603604081101561078e5760006000fd5b81019080803573ffffffffffffffffffffffffffffffffffffffff1690602001909291908035906020019092919050505061188c565b604051808215151515815260200191505060405180910390f35b61082b600480360360408110156107f55760006000fd5b81019080803573ffffffffffffffffffffffffffffffffffffffff16906020019092919080359060200190929190505050611945565b604051808215151515815260200191505060405180910390f35b6108726004803603602081101561085c5760006000fd5b8101908080359060200190929190505050611abc565b005b61087c611ad0565b604051808215151515815260200191505060405180910390f35b6108d9600480360360208110156108ad5760006000fd5b81019080803573ffffffffffffffffffffffffffffffffffffffff169060200190929190505050611b83565b6040518082815260200191505060405180910390f35b6108f7611bd7565b005b610946600480360360408110156109105760006000fd5b81019080803573ffffffffffffffffffffffffffffffffffffffff16906020019092919080359060200190929190505050611cb4565b005b610950611cc9565b604051808273ffffffffffffffffffffffffffffffffffffffff1673ffffffffffffffffffffffffffffffffffffffff16815260200191505060405180910390f35b61099a611cf8565b604051808215151515815260200191505060405180910390f35b6109bc611d55565b6040518080602001828103825283818151815260200191508051906020019080838360005b838110156109fd5780820151818401525b6020810190506109e1565b50505050905090810190601f168015610a2a5780820380516001836020036101000a031916815260200191505b509250505060405180910390f35b610a40611dff565b604051808273ffffffffffffffffffffffffffffffffffffffff1673ffffffffffffffffffffffffffffffffffffffff16815260200191505060405180910390f35b610acf60048036036040811015610a995760006000fd5b81019080803573ffffffffffffffffffffffffffffffffffffffff16906020019092919080359060200190929190505050611e26565b604051808215151515815260200191505060405180910390f35b610b3660048036036040811015610b005760006000fd5b81019080803573ffffffffffffffffffffffffffffffffffffffff16906020019092919080359060200190929190505050611edf565b604051808215151515815260200191505060405180910390f35b610b5861215a565b604051808273ffffffffffffffffffffffffffffffffffffffff1673ffffffffffffffffffffffffffffffffffffffff16815260200191505060405180910390f35b610bdd60048036036020811015610bb15760006000fd5b81019080803573ffffffffffffffffffffffffffffffffffffffff169060200190929190505050612181565b005b610c4260048036036040811015610bf65760006000fd5b81019080803573ffffffffffffffffffffffffffffffffffffffff169060200190929190803573ffffffffffffffffffffffffffffffffffffffff16906020019092919050505061234d565b6040518082815260200191505060405180910390f35b610c9b60048036036020811015610c6f5760006000fd5b81019080803573ffffffffffffffffffffffffffffffffffffffff1690602001909291905050506123e2565b005b606060666000508054600181600116156101000203166002900480601f016020809104026020016040519081016040528092919081815260200182805460018160011615610100020316600290048015610d385780601f10610d0d57610100808354040283529160200191610d38565b820191906000526020600020905b815481529060010190602001808311610d1b57829003601f168201915b50505050509050610d44565b90565b60003361010260009054906101000a900473ffffffffffffffffffffffffffffffffffffffff1673ffffffffffffffffffffffffffffffffffffffff1663fe575a87826040518263ffffffff1660e01b8152600401808273ffffffffffffffffffffffffffffffffffffffff1673ffffffffffffffffffffffffffffffffffffffff16815260200191505060206040518083038186803b158015610deb5760006000fd5b505afa158015610e00573d600060003e3d6000fd5b505050506040513d6020811015610e175760006000fd5b8101908080519060200190929190505050151515610e80576040517f08c379a0000000000000000000000000000000000000000000000000000000008152600401808060200182810382526028815260200180612e526028913960400191505060405180910390fd5b61010460009054906101000a900473ffffffffffffffffffffffffffffffffffffffff1673ffffffffffffffffffffffffffffffffffffffff16635c975abb6040518163ffffffff1660e01b815260040160206040518083038186803b158015610eea5760006000fd5b505afa158015610eff573d600060003e3d6000fd5b505050506040513d6020811015610f165760006000fd5b8101908080519060200190929190505050151515610f9f576040517f08c379a00000000000000000000000000000000000000000000000000000000081526004018080602001828103825260178152602001807f5468697320636f6e74726163742069732070617573656400000000000000000081526020015060200191505060405180910390fd5b610faf848461241063ffffffff16565b5060019150610fb9565b5b5b5092915050565b600060019054906101000a900460ff1680610fe75750610fe661243263ffffffff16565b5b80610fff5750600060009054906101000a900460ff16155b1515611056576040517f08c379a000000000000000000000000000000000000000000000000000000000815260040180806020018281038252602e815260200180612e7a602e913960400191505060405180910390fd5b6000600060019054906101000a900460ff1615905080156110a8576001600060016101000a81548160ff0219169083151502179055506001600060006101000a81548160ff0219169083151502179055505b6110b98888886112dd63ffffffff16565b8461010360006101000a81548173ffffffffffffffffffffffffffffffffffffffff021916908373ffffffffffffffffffffffffffffffffffffffff1602179055508261010460006101000a81548173ffffffffffffffffffffffffffffffffffffffff021916908373ffffffffffffffffffffffffffffffffffffffff1602179055507fadec413d00f72bf512e1c36aa7eb9b13e7a13f77eaf92efb93716aec3f8d36a3604051808060200182810382526022815260200180612e306022913960400191505060405180910390a18361010260006101000a81548173ffffffffffffffffffffffffffffffffffffffff021916908373ffffffffffffffffffffffffffffffffffffffff1602179055507fadec413d00f72bf512e1c36aa7eb9b13e7a13f77eaf92efb93716aec3f8d36a360405180806020018281038252601a8152602001807f416674657220426c61636b204c69737465722073657474696e6700000000000081526020015060200191505060405180910390a16112448261218163ffffffff16565b7fadec413d00f72bf512e1c36aa7eb9b13e7a13f77eaf92efb93716aec3f8d36a360405180806020018281038252601c8152602001807f4166746572204f776e61626c6520696e697469616c697a6174696f6e0000000081526020015060200191505060405180910390a15b80156112d2576000600060016101000a81548160ff0219169083151502179055505b505b50505050505050565b600060019054906101000a900460ff1680611302575061130161243263ffffffff16565b5b8061131a5750600060009054906101000a900460ff16155b1515611371576040517f08c379a000000000000000000000000000000000000000000000000000000000815260040180806020018281038252602e815260200180612e7a602e913960400191505060405180910390fd5b6000600060019054906101000a900460ff1615905080156113c3576001600060016101000a81548160ff0219169083151502179055506001600060006101000a81548160ff0219169083151502179055505b83606660005090805190602001906113dc929190612d7f565b5082606760005090805190602001906113f6929190612d7f565b5081606860006101000a81548160ff021916908360ff1602179055505b8015611435576000600060016101000a81548160ff0219169083151502179055505b505b505050565b6000609d60005054905061144b565b90565b60008361010260009054906101000a900473ffffffffffffffffffffffffffffffffffffffff1673ffffffffffffffffffffffffffffffffffffffff1663fe575a87826040518263ffffffff1660e01b8152600401808273ffffffffffffffffffffffffffffffffffffffff1673ffffffffffffffffffffffffffffffffffffffff16815260200191505060206040518083038186803b1580156114f25760006000fd5b505afa158015611507573d600060003e3d6000fd5b505050506040513d602081101561151e5760006000fd5b8101908080519060200190929190505050151515611587576040517f08c379a0000000000000000000000000000000000000000000000000000000008152600401808060200182810382526028815260200180612e526028913960400191505060405180910390fd5b8361010260009054906101000a900473ffffffffffffffffffffffffffffffffffffffff1673ffffffffffffffffffffffffffffffffffffffff1663fe575a87826040518263ffffffff1660e01b8152600401808273ffffffffffffffffffffffffffffffffffffffff1673ffffffffffffffffffffffffffffffffffffffff16815260200191505060206040518083038186803b1580156116295760006000fd5b505afa15801561163e573d600060003e3d6000fd5b505050506040513d60208110156116555760006000fd5b81019080805190602001909291905050501515156116be576040517f08c379a0000000000000000000000000000000000000000000000000000000008152600401808060200182810382526028815260200180612e526028913960400191505060405180910390fd5b61010460009054906101000a900473ffffffffffffffffffffffffffffffffffffffff1673ffffffffffffffffffffffffffffffffffffffff16635c975abb6040518163ffffffff1660e01b815260040160206040518083038186803b1580156117285760006000fd5b505afa15801561173d573d600060003e3d6000fd5b505050506040513d60208110156117545760006000fd5b81019080805190602001909291905050501515156117dd576040517f08c379a00000000000000000000000000000000000000000000000000000000081526004018080602001828103825260178152602001807f5468697320636f6e74726163742069732070617573656400000000000000000081526020015060200191505060405180910390fd5b6117ee86868661244a63ffffffff16565b50600192506117f8565b5b5b505b509392505050565b60606040518060400160405280601081526020017f686f6c61206d756e646f2066656c697a000000000000000000000000000000008152602001509050611846565b90565b6000606860009054906101000a900460ff169050611862565b90565b61010360009054906101000a900473ffffffffffffffffffffffffffffffffffffffff1681565b6000611936338461192b85609c60005060003373ffffffffffffffffffffffffffffffffffffffff1673ffffffffffffffffffffffffffffffffffffffff16815260200190815260200160002060005060008973ffffffffffffffffffffffffffffffffffffffff1673ffffffffffffffffffffffffffffffffffffffff1681526020019081526020016000206000505461251590919063ffffffff16565b61253e63ffffffff16565b6001905061193f565b92915050565b600061010360009054906101000a900473ffffffffffffffffffffffffffffffffffffffff1673ffffffffffffffffffffffffffffffffffffffff1663aa271e1a336040518263ffffffff1660e01b8152600401808273ffffffffffffffffffffffffffffffffffffffff1673ffffffffffffffffffffffffffffffffffffffff16815260200191505060206040518083038186803b1580156119e85760006000fd5b505afa1580156119fd573d600060003e3d6000fd5b505050506040513d6020811015611a145760006000fd5b81019080805190602001909291905050501515611a9c576040517f08c379a000000000000000000000000000000000000000000000000000000000815260040180806020018281038252601f8152602001807f4f6e6c79204d696e746572206163636f756e74732063616e206d696e7428290081526020015060200191505060405180910390fd5b611aac83836126af63ffffffff16565b60019050611ab5565b5b92915050565b611acc338261281d63ffffffff16565b5b50565b600061010460009054906101000a900473ffffffffffffffffffffffffffffffffffffffff1673ffffffffffffffffffffffffffffffffffffffff16635c975abb6040518163ffffffff1660e01b815260040160206040518083038186803b158015611b3c5760006000fd5b505afa158015611b51573d600060003e3d6000fd5b505050506040513d6020811015611b685760006000fd5b81019080805190602001909291905050509050611b80565b90565b6000609b60005060008373ffffffffffffffffffffffffffffffffffffffff1673ffffffffffffffffffffffffffffffffffffffff168152602001908152602001600020600050549050611bd2565b919050565b611be5611cf863ffffffff16565b1515611bf15760006000fd5b600073ffffffffffffffffffffffffffffffffffffffff16603360009054906101000a900473ffffffffffffffffffffffffffffffffffffffff1673ffffffffffffffffffffffffffffffffffffffff167f8be0079c531659141344cd1fd0a4f28419497f9722a3daafe3b4186f6b6457e060405160405180910390a36000603360006101000a81548173ffffffffffffffffffffffffffffffffffffffff021916908373ffffffffffffffffffffffffffffffffffffffff1602179055505b5b565b611cc4828261298b63ffffffff16565b5b5050565b6000603360009054906101000a900473ffffffffffffffffffffffffffffffffffffffff169050611cf5565b90565b6000603360009054906101000a900473ffffffffffffffffffffffffffffffffffffffff1673ffffffffffffffffffffffffffffffffffffffff163373ffffffffffffffffffffffffffffffffffffffff16149050611d52565b90565b606060676000508054600181600116156101000203166002900480601f016020809104026020016040519081016040528092919081815260200182805460018160011615610100020316600290048015611df05780601f10611dc557610100808354040283529160200191611df0565b820191906000526020600020905b815481529060010190602001808311611dd357829003601f168201915b50505050509050611dfc565b90565b61010460009054906101000a900473ffffffffffffffffffffffffffffffffffffffff1681565b6000611ed03384611ec585609c60005060003373ffffffffffffffffffffffffffffffffffffffff1673ffffffffffffffffffffffffffffffffffffffff16815260200190815260200160002060005060008973ffffffffffffffffffffffffffffffffffffffff1673ffffffffffffffffffffffffffffffffffffffff16815260200190815260200160002060005054612a4890919063ffffffff16565b61253e63ffffffff16565b60019050611ed9565b92915050565b60003361010260009054906101000a900473ffffffffffffffffffffffffffffffffffffffff1673ffffffffffffffffffffffffffffffffffffffff1663fe575a87826040518263ffffffff1660e01b8152600401808273ffffffffffffffffffffffffffffffffffffffff1673ffffffffffffffffffffffffffffffffffffffff16815260200191505060206040518083038186803b158015611f835760006000fd5b505afa158015611f98573d600060003e3d6000fd5b505050506040513d6020811015611faf5760006000fd5b8101908080519060200190929190505050151515612018576040517f08c379a0000000000000000000000000000000000000000000000000000000008152600401808060200182810382526028815260200180612e526028913960400191505060405180910390fd5b61010460009054906101000a900473ffffffffffffffffffffffffffffffffffffffff1673ffffffffffffffffffffffffffffffffffffffff16635c975abb6040518163ffffffff1660e01b815260040160206040518083038186803b1580156120825760006000fd5b505afa158015612097573d600060003e3d6000fd5b505050506040513d60208110156120ae5760006000fd5b8101908080519060200190929190505050151515612137576040517f08c379a00000000000000000000000000000000000000000000000000000000081526004018080602001828103825260178152602001807f5468697320636f6e74726163742069732070617573656400000000000000000081526020015060200191505060405180910390fd5b6121478484612a7163ffffffff16565b5060019150612151565b5b5b5092915050565b61010260009054906101000a900473ffffffffffffffffffffffffffffffffffffffff1681565b600060019054906101000a900460ff16806121a657506121a561243263ffffffff16565b5b806121be5750600060009054906101000a900460ff16155b1515612215576040517f08c379a000000000000000000000000000000000000000000000000000000000815260040180806020018281038252602e815260200180612e7a602e913960400191505060405180910390fd5b6000600060019054906101000a900460ff161590508015612267576001600060016101000a81548160ff0219169083151502179055506001600060006101000a81548160ff0219169083151502179055505b81603360006101000a81548173ffffffffffffffffffffffffffffffffffffffff021916908373ffffffffffffffffffffffffffffffffffffffff160217905550603360009054906101000a900473ffffffffffffffffffffffffffffffffffffffff1673ffffffffffffffffffffffffffffffffffffffff16600073ffffffffffffffffffffffffffffffffffffffff167f8be0079c531659141344cd1fd0a4f28419497f9722a3daafe3b4186f6b6457e060405160405180910390a35b8015612348576000600060016101000a81548160ff0219169083151502179055505b505b50565b6000609c60005060008473ffffffffffffffffffffffffffffffffffffffff1673ffffffffffffffffffffffffffffffffffffffff16815260200190815260200160002060005060008373ffffffffffffffffffffffffffffffffffffffff1673ffffffffffffffffffffffffffffffffffffffff1681526020019081526020016000206000505490506123dc565b92915050565b6123f0611cf863ffffffff16565b15156123fc5760006000fd5b61240b81612a9363ffffffff16565b5b5b50565b600061242333848461253e63ffffffff16565b6001905061242c565b92915050565b60006000303b90506000811491505061244756505b90565b600061245d848484612b9163ffffffff16565b61250584336124fa85609c60005060008a73ffffffffffffffffffffffffffffffffffffffff1673ffffffffffffffffffffffffffffffffffffffff16815260200190815260200160002060005060003373ffffffffffffffffffffffffffffffffffffffff1673ffffffffffffffffffffffffffffffffffffffff16815260200190815260200160002060005054612a4890919063ffffffff16565b61253e63ffffffff16565b6001905061250e565b9392505050565b60006000828401905083811015151561252e5760006000fd5b8091505061253856505b92915050565b600073ffffffffffffffffffffffffffffffffffffffff168273ffffffffffffffffffffffffffffffffffffffff161415151561257b5760006000fd5b600073ffffffffffffffffffffffffffffffffffffffff168373ffffffffffffffffffffffffffffffffffffffff16141515156125b85760006000fd5b80609c60005060008573ffffffffffffffffffffffffffffffffffffffff1673ffffffffffffffffffffffffffffffffffffffff16815260200190815260200160002060005060008473ffffffffffffffffffffffffffffffffffffffff1673ffffffffffffffffffffffffffffffffffffffff1681526020019081526020016000206000508190909055508173ffffffffffffffffffffffffffffffffffffffff168373ffffffffffffffffffffffffffffffffffffffff167f8c5be1e5ebec7d5bd14f71427d1e84f3dd0314c0f7b2291e5b200ac8c7c3b925836040518082815260200191505060405180910390a35b505050565b600073ffffffffffffffffffffffffffffffffffffffff168273ffffffffffffffffffffffffffffffffffffffff16141515156126ec5760006000fd5b61270481609d6000505461251590919063ffffffff16565b609d60005081909090555061276781609b60005060008573ffffffffffffffffffffffffffffffffffffffff1673ffffffffffffffffffffffffffffffffffffffff1681526020019081526020016000206000505461251590919063ffffffff16565b609b60005060008473ffffffffffffffffffffffffffffffffffffffff1673ffffffffffffffffffffffffffffffffffffffff1681526020019081526020016000206000508190909055508173ffffffffffffffffffffffffffffffffffffffff16600073ffffffffffffffffffffffffffffffffffffffff167fddf252ad1be2c89b69c2b068fc378daa952ba7f163c4a11628f55a4df523b3ef836040518082815260200191505060405180910390a35b5050565b600073ffffffffffffffffffffffffffffffffffffffff168273ffffffffffffffffffffffffffffffffffffffff161415151561285a5760006000fd5b61287281609d60005054612a4890919063ffffffff16565b609d6000508190909055506128d581609b60005060008573ffffffffffffffffffffffffffffffffffffffff1673ffffffffffffffffffffffffffffffffffffffff16815260200190815260200160002060005054612a4890919063ffffffff16565b609b60005060008473ffffffffffffffffffffffffffffffffffffffff1673ffffffffffffffffffffffffffffffffffffffff168152602001908152602001600020600050819090905550600073ffffffffffffffffffffffffffffffffffffffff168273ffffffffffffffffffffffffffffffffffffffff167fddf252ad1be2c89b69c2b068fc378daa952ba7f163c4a11628f55a4df523b3ef836040518082815260200191505060405180910390a35b5050565b61299b828261281d63ffffffff16565b612a438233612a3884609c60005060008873ffffffffffffffffffffffffffffffffffffffff1673ffffffffffffffffffffffffffffffffffffffff16815260200190815260200160002060005060003373ffffffffffffffffffffffffffffffffffffffff1673ffffffffffffffffffffffffffffffffffffffff16815260200190815260200160002060005054612a4890919063ffffffff16565b61253e63ffffffff16565b5b5050565b6000828211151515612a5a5760006000fd5b6000828403905080915050612a6b56505b92915050565b6000612a84338484612b9163ffffffff16565b60019050612a8d565b92915050565b600073ffffffffffffffffffffffffffffffffffffffff168173ffffffffffffffffffffffffffffffffffffffff1614151515612ad05760006000fd5b8073ffffffffffffffffffffffffffffffffffffffff16603360009054906101000a900473ffffffffffffffffffffffffffffffffffffffff1673ffffffffffffffffffffffffffffffffffffffff167f8be0079c531659141344cd1fd0a4f28419497f9722a3daafe3b4186f6b6457e060405160405180910390a380603360006101000a81548173ffffffffffffffffffffffffffffffffffffffff021916908373ffffffffffffffffffffffffffffffffffffffff1602179055505b50565b600073ffffffffffffffffffffffffffffffffffffffff168273ffffffffffffffffffffffffffffffffffffffff1614151515612bce5760006000fd5b612c2681609b60005060008673ffffffffffffffffffffffffffffffffffffffff1673ffffffffffffffffffffffffffffffffffffffff16815260200190815260200160002060005054612a4890919063ffffffff16565b609b60005060008573ffffffffffffffffffffffffffffffffffffffff1673ffffffffffffffffffffffffffffffffffffffff168152602001908152602001600020600050819090905550612cc981609b60005060008573ffffffffffffffffffffffffffffffffffffffff1673ffffffffffffffffffffffffffffffffffffffff1681526020019081526020016000206000505461251590919063ffffffff16565b609b60005060008473ffffffffffffffffffffffffffffffffffffffff1673ffffffffffffffffffffffffffffffffffffffff1681526020019081526020016000206000508190909055508173ffffffffffffffffffffffffffffffffffffffff168373ffffffffffffffffffffffffffffffffffffffff167fddf252ad1be2c89b69c2b068fc378daa952ba7f163c4a11628f55a4df523b3ef836040518082815260200191505060405180910390a35b505050565b828054600181600116156101000203166002900490600052602060002090601f016020900481019282601f10612dc057805160ff1916838001178555612df3565b82800160010185558215612df3579182015b82811115612df25782518260005090905591602001919060010190612dd2565b5b509050612e009190612e04565b5090565b612e2c9190612e0e565b80821115612e285760008181506000905550600101612e0e565b5090565b9056fe4166746572204d6173746572204d696e74657220696e697469616c697a6174696f6e74686973206163636f756e74206973206d61726b656420696e206f757220626c61632d6b6c697374436f6e747261637420696e7374616e63652068617320616c7265616479206265656e20696e697469616c697a6564a265627a7a7230582049293989cb38db3a6db4ff23a0ba8b55819633b658299dba8acbe429ad5a218f64736f6c634300050a0032","compiler":{"name":"solc","version":"0.5.10+commit.5a6ea5b1.Emscripten.clang","optimizer":{},"evmVersion":"constantinople"}}