{
  "fileName": "FiatToken.sol",
  "contractName": "FiatToken",
  "source": "pragma solidity ^0.5.0;\nimport \"openzeppelin-eth/contracts/token/ERC20/ERC20Mintable.sol\";\nimport \"openzeppelin-eth/contracts/token/ERC20/ERC20Burnable.sol\";\nimport \"openzeppelin-eth/contracts/token/ERC20/ERC20Detailed.sol\";\nimport \"openzeppelin-eth/contracts/ownership/Ownable.sol\";\nimport \"openzeppelin-eth/contracts/lifecycle/Pausable.sol\";\nimport \"./MasterMinter.sol\";\nimport \"./Blacklistable.sol\";\n\n/**\n@dev By the moment, the Owner address is the msg.sender\n */\ncontract FiatToken is Initializable, Ownable, ERC20Detailed, Pausable,  MasterMinter, ERC20Burnable, Blacklistable {\n\n    /**\n    * @dev this function is needed by support upgreadability \n     */\n    function initialize(string memory name,\n        string memory symbol,\n        uint8 decimals,\n        address masterMinterAddress,\n        address blacklisterAddress,\n        address pauser,\n        address owner) public initializer  {\n\n      MasterMinter.initialize(masterMinterAddress);\n      Blacklistable.initialize(blacklisterAddress);\n      ERC20Detailed.initialize(name,symbol,decimals);\n      MasterMinter.initialize(masterMinterAddress);\n      Ownable.initialize(owner);\n      Pausable.initialize(pauser);\n    }\n\n    function cantidadCuentas() public view returns(uint256){\n      return totalSupply();\n    }\n\n    /**\n    * @dev Just to be sure at all\n     */\n   /** function () external payable {\n      revert();\n    }*/\n\n    /**\n    * @dev overriding ERC20.transfer with modifier whenNotPaused\n    * @param to The address to transfer to.\n    * @param value The amount to be transferred.\n    */\n    function transfer(address to, uint256 value) public whenNotPaused notBlacklisted(msg.sender) returns (bool) {\n    //function transfer(address to, uint256 value) public  notBlacklisted(msg.sender) returns (bool) {\n        ERC20.transfer(to, value);\n        return true;\n    }\n\n    \n\n}",
  "sourcePath": "contracts/FiatToken.sol",
  "abi": [
    {
      "constant": true,
      "inputs": [],
      "name": "name",
      "outputs": [
        {
          "name": "",
          "type": "string"
        }
      ],
      "payable": false,
      "stateMutability": "view",
      "type": "function"
    },
    {
      "constant": false,
      "inputs": [
        {
          "name": "spender",
          "type": "address"
        },
        {
          "name": "value",
          "type": "uint256"
        }
      ],
      "name": "approve",
      "outputs": [
        {
          "name": "",
          "type": "bool"
        }
      ],
      "payable": false,
      "stateMutability": "nonpayable",
      "type": "function"
    },
    {
      "constant": false,
      "inputs": [
        {
          "name": "name",
          "type": "string"
        },
        {
          "name": "symbol",
          "type": "string"
        },
        {
          "name": "decimals",
          "type": "uint8"
        },
        {
          "name": "masterMinterAddress",
          "type": "address"
        },
        {
          "name": "blacklisterAddress",
          "type": "address"
        },
        {
          "name": "pauser",
          "type": "address"
        },
        {
          "name": "owner",
          "type": "address"
        }
      ],
      "name": "initialize",
      "outputs": [],
      "payable": false,
      "stateMutability": "nonpayable",
      "type": "function"
    },
    {
      "constant": false,
      "inputs": [
        {
          "name": "name",
          "type": "string"
        },
        {
          "name": "symbol",
          "type": "string"
        },
        {
          "name": "decimals",
          "type": "uint8"
        }
      ],
      "name": "initialize",
      "outputs": [],
      "payable": false,
      "stateMutability": "nonpayable",
      "type": "function"
    },
    {
      "constant": true,
      "inputs": [],
      "name": "totalSupply",
      "outputs": [
        {
          "name": "",
          "type": "uint256"
        }
      ],
      "payable": false,
      "stateMutability": "view",
      "type": "function"
    },
    {
      "constant": false,
      "inputs": [
        {
          "name": "_account",
          "type": "address"
        }
      ],
      "name": "unBlacklist",
      "outputs": [],
      "payable": false,
      "stateMutability": "nonpayable",
      "type": "function"
    },
    {
      "constant": false,
      "inputs": [
        {
          "name": "from",
          "type": "address"
        },
        {
          "name": "to",
          "type": "address"
        },
        {
          "name": "value",
          "type": "uint256"
        }
      ],
      "name": "transferFrom",
      "outputs": [
        {
          "name": "",
          "type": "bool"
        }
      ],
      "payable": false,
      "stateMutability": "nonpayable",
      "type": "function"
    },
    {
      "constant": false,
      "inputs": [
        {
          "name": "account",
          "type": "address"
        }
      ],
      "name": "removeMinter",
      "outputs": [],
      "payable": false,
      "stateMutability": "nonpayable",
      "type": "function"
    },
    {
      "constant": true,
      "inputs": [],
      "name": "decimals",
      "outputs": [
        {
          "name": "",
          "type": "uint8"
        }
      ],
      "payable": false,
      "stateMutability": "view",
      "type": "function"
    },
    {
      "constant": true,
      "inputs": [],
      "name": "masterMinter",
      "outputs": [
        {
          "name": "",
          "type": "address"
        }
      ],
      "payable": false,
      "stateMutability": "view",
      "type": "function"
    },
    {
      "constant": false,
      "inputs": [
        {
          "name": "spender",
          "type": "address"
        },
        {
          "name": "addedValue",
          "type": "uint256"
        }
      ],
      "name": "increaseAllowance",
      "outputs": [
        {
          "name": "",
          "type": "bool"
        }
      ],
      "payable": false,
      "stateMutability": "nonpayable",
      "type": "function"
    },
    {
      "constant": false,
      "inputs": [],
      "name": "unpause",
      "outputs": [],
      "payable": false,
      "stateMutability": "nonpayable",
      "type": "function"
    },
    {
      "constant": false,
      "inputs": [
        {
          "name": "to",
          "type": "address"
        },
        {
          "name": "value",
          "type": "uint256"
        }
      ],
      "name": "mint",
      "outputs": [
        {
          "name": "",
          "type": "bool"
        }
      ],
      "payable": false,
      "stateMutability": "nonpayable",
      "type": "function"
    },
    {
      "constant": false,
      "inputs": [
        {
          "name": "value",
          "type": "uint256"
        }
      ],
      "name": "burn",
      "outputs": [],
      "payable": false,
      "stateMutability": "nonpayable",
      "type": "function"
    },
    {
      "constant": true,
      "inputs": [
        {
          "name": "account",
          "type": "address"
        }
      ],
      "name": "isPauser",
      "outputs": [
        {
          "name": "",
          "type": "bool"
        }
      ],
      "payable": false,
      "stateMutability": "view",
      "type": "function"
    },
    {
      "constant": true,
      "inputs": [],
      "name": "paused",
      "outputs": [
        {
          "name": "",
          "type": "bool"
        }
      ],
      "payable": false,
      "stateMutability": "view",
      "type": "function"
    },
    {
      "constant": false,
      "inputs": [],
      "name": "renouncePauser",
      "outputs": [],
      "payable": false,
      "stateMutability": "nonpayable",
      "type": "function"
    },
    {
      "constant": true,
      "inputs": [
        {
          "name": "owner",
          "type": "address"
        }
      ],
      "name": "balanceOf",
      "outputs": [
        {
          "name": "",
          "type": "uint256"
        }
      ],
      "payable": false,
      "stateMutability": "view",
      "type": "function"
    },
    {
      "constant": false,
      "inputs": [],
      "name": "renounceOwnership",
      "outputs": [],
      "payable": false,
      "stateMutability": "nonpayable",
      "type": "function"
    },
    {
      "constant": false,
      "inputs": [
        {
          "name": "from",
          "type": "address"
        },
        {
          "name": "value",
          "type": "uint256"
        }
      ],
      "name": "burnFrom",
      "outputs": [],
      "payable": false,
      "stateMutability": "nonpayable",
      "type": "function"
    },
    {
      "constant": false,
      "inputs": [
        {
          "name": "account",
          "type": "address"
        }
      ],
      "name": "addPauser",
      "outputs": [],
      "payable": false,
      "stateMutability": "nonpayable",
      "type": "function"
    },
    {
      "constant": false,
      "inputs": [],
      "name": "pause",
      "outputs": [],
      "payable": false,
      "stateMutability": "nonpayable",
      "type": "function"
    },
    {
      "constant": true,
      "inputs": [],
      "name": "owner",
      "outputs": [
        {
          "name": "",
          "type": "address"
        }
      ],
      "payable": false,
      "stateMutability": "view",
      "type": "function"
    },
    {
      "constant": true,
      "inputs": [],
      "name": "isOwner",
      "outputs": [
        {
          "name": "",
          "type": "bool"
        }
      ],
      "payable": false,
      "stateMutability": "view",
      "type": "function"
    },
    {
      "constant": true,
      "inputs": [],
      "name": "symbol",
      "outputs": [
        {
          "name": "",
          "type": "string"
        }
      ],
      "payable": false,
      "stateMutability": "view",
      "type": "function"
    },
    {
      "constant": false,
      "inputs": [
        {
          "name": "account",
          "type": "address"
        }
      ],
      "name": "addMinter",
      "outputs": [],
      "payable": false,
      "stateMutability": "nonpayable",
      "type": "function"
    },
    {
      "constant": false,
      "inputs": [],
      "name": "renounceMinter",
      "outputs": [],
      "payable": false,
      "stateMutability": "nonpayable",
      "type": "function"
    },
    {
      "constant": false,
      "inputs": [
        {
          "name": "spender",
          "type": "address"
        },
        {
          "name": "subtractedValue",
          "type": "uint256"
        }
      ],
      "name": "decreaseAllowance",
      "outputs": [
        {
          "name": "",
          "type": "bool"
        }
      ],
      "payable": false,
      "stateMutability": "nonpayable",
      "type": "function"
    },
    {
      "constant": true,
      "inputs": [],
      "name": "cantidadCuentas",
      "outputs": [
        {
          "name": "",
          "type": "uint256"
        }
      ],
      "payable": false,
      "stateMutability": "view",
      "type": "function"
    },
    {
      "constant": false,
      "inputs": [
        {
          "name": "to",
          "type": "address"
        },
        {
          "name": "value",
          "type": "uint256"
        }
      ],
      "name": "transfer",
      "outputs": [
        {
          "name": "",
          "type": "bool"
        }
      ],
      "payable": false,
      "stateMutability": "nonpayable",
      "type": "function"
    },
    {
      "constant": false,
      "inputs": [
        {
          "name": "_newMasterMinter",
          "type": "address"
        }
      ],
      "name": "updateMasterMinter",
      "outputs": [],
      "payable": false,
      "stateMutability": "nonpayable",
      "type": "function"
    },
    {
      "constant": true,
      "inputs": [
        {
          "name": "account",
          "type": "address"
        }
      ],
      "name": "isMinter",
      "outputs": [
        {
          "name": "",
          "type": "bool"
        }
      ],
      "payable": false,
      "stateMutability": "view",
      "type": "function"
    },
    {
      "constant": false,
      "inputs": [
        {
          "name": "_newBlacklister",
          "type": "address"
        }
      ],
      "name": "updateBlacklister",
      "outputs": [],
      "payable": false,
      "stateMutability": "nonpayable",
      "type": "function"
    },
    {
      "constant": true,
      "inputs": [],
      "name": "blacklister",
      "outputs": [
        {
          "name": "",
          "type": "address"
        }
      ],
      "payable": false,
      "stateMutability": "view",
      "type": "function"
    },
    {
      "constant": false,
      "inputs": [
        {
          "name": "_blacklister",
          "type": "address"
        }
      ],
      "name": "initialize",
      "outputs": [],
      "payable": false,
      "stateMutability": "nonpayable",
      "type": "function"
    },
    {
      "constant": true,
      "inputs": [
        {
          "name": "owner",
          "type": "address"
        },
        {
          "name": "spender",
          "type": "address"
        }
      ],
      "name": "allowance",
      "outputs": [
        {
          "name": "",
          "type": "uint256"
        }
      ],
      "payable": false,
      "stateMutability": "view",
      "type": "function"
    },
    {
      "constant": false,
      "inputs": [
        {
          "name": "newOwner",
          "type": "address"
        }
      ],
      "name": "transferOwnership",
      "outputs": [],
      "payable": false,
      "stateMutability": "nonpayable",
      "type": "function"
    },
    {
      "constant": false,
      "inputs": [
        {
          "name": "_account",
          "type": "address"
        }
      ],
      "name": "blacklist",
      "outputs": [],
      "payable": false,
      "stateMutability": "nonpayable",
      "type": "function"
    },
    {
      "constant": true,
      "inputs": [
        {
          "name": "_account",
          "type": "address"
        }
      ],
      "name": "isBlacklisted",
      "outputs": [
        {
          "name": "",
          "type": "bool"
        }
      ],
      "payable": false,
      "stateMutability": "view",
      "type": "function"
    },
    {
      "anonymous": false,
      "inputs": [
        {
          "indexed": true,
          "name": "_account",
          "type": "address"
        }
      ],
      "name": "Blacklisted",
      "type": "event"
    },
    {
      "anonymous": false,
      "inputs": [
        {
          "indexed": true,
          "name": "_account",
          "type": "address"
        }
      ],
      "name": "UnBlacklisted",
      "type": "event"
    },
    {
      "anonymous": false,
      "inputs": [
        {
          "indexed": true,
          "name": "newBlacklister",
          "type": "address"
        }
      ],
      "name": "BlacklisterChanged",
      "type": "event"
    },
    {
      "anonymous": false,
      "inputs": [
        {
          "indexed": true,
          "name": "account",
          "type": "address"
        }
      ],
      "name": "MasterMinterAdded",
      "type": "event"
    },
    {
      "anonymous": false,
      "inputs": [
        {
          "indexed": true,
          "name": "newMasterMinter",
          "type": "address"
        }
      ],
      "name": "MasterMinterChanged",
      "type": "event"
    },
    {
      "anonymous": false,
      "inputs": [
        {
          "indexed": false,
          "name": "account",
          "type": "address"
        }
      ],
      "name": "Paused",
      "type": "event"
    },
    {
      "anonymous": false,
      "inputs": [
        {
          "indexed": false,
          "name": "account",
          "type": "address"
        }
      ],
      "name": "Unpaused",
      "type": "event"
    },
    {
      "anonymous": false,
      "inputs": [
        {
          "indexed": true,
          "name": "account",
          "type": "address"
        }
      ],
      "name": "PauserAdded",
      "type": "event"
    },
    {
      "anonymous": false,
      "inputs": [
        {
          "indexed": true,
          "name": "account",
          "type": "address"
        }
      ],
      "name": "PauserRemoved",
      "type": "event"
    },
    {
      "anonymous": false,
      "inputs": [
        {
          "indexed": true,
          "name": "previousOwner",
          "type": "address"
        },
        {
          "indexed": true,
          "name": "newOwner",
          "type": "address"
        }
      ],
      "name": "OwnershipTransferred",
      "type": "event"
    },
    {
      "anonymous": false,
      "inputs": [
        {
          "indexed": true,
          "name": "account",
          "type": "address"
        }
      ],
      "name": "MinterAdded",
      "type": "event"
    },
    {
      "anonymous": false,
      "inputs": [
        {
          "indexed": true,
          "name": "account",
          "type": "address"
        }
      ],
      "name": "MinterRemoved",
      "type": "event"
    },
    {
      "anonymous": false,
      "inputs": [
        {
          "indexed": true,
          "name": "from",
          "type": "address"
        },
        {
          "indexed": true,
          "name": "to",
          "type": "address"
        },
        {
          "indexed": false,
          "name": "value",
          "type": "uint256"
        }
      ],
      "name": "Transfer",
      "type": "event"
    },
    {
      "anonymous": false,
      "inputs": [
        {
          "indexed": true,
          "name": "owner",
          "type": "address"
        },
        {
          "indexed": true,
          "name": "spender",
          "type": "address"
        },
        {
          "indexed": false,
          "name": "value",
          "type": "uint256"
        }
      ],
      "name": "Approval",
      "type": "event"
    }
  ],
  "bytecode": "0x60806040523480156100115760006000fd5b50610017565b613b0e806100266000396000f3fe60806040523480156100115760006000fd5b50600436106102425760003560e01c806379cc67901161013c578063a9059cbb116100b9578063c4d66de81161007d578063c4d66de814610e19578063dd62ed3e14610e5e578063f2fde38b14610ed7578063f9f92be414610f1c578063fe575a8714610f6157610242565b8063a9059cbb14610c81578063aa20e1e414610ce8578063aa271e1a14610d2d578063ad38bf2214610d8a578063bd10243014610dcf57610242565b806395d89b411161010057806395d89b4114610b29578063983b2d5614610bad5780639865027514610bf2578063a457c2d714610bfc578063a85e041f14610c6357610242565b806379cc679014610a1f57806382dc1ec414610a6e5780638456cb5914610ab35780638da5cb5b14610abd5780638f32d59b14610b0757610242565b806335d99f35116101ca57806346fbf68e1161018e57806346fbf68e146109335780635c975abb146109905780636ef8d66d146109b257806370a08231146109bc578063715018a614610a1557610242565b806335d99f35146107e2578063395093511461082c5780633f4ba83a1461089357806340c10f191461089d57806342966c681461090457610242565b806318160ddd1161021157806318160ddd1461068f5780631a895266146106ad57806323b872dd146106f25780633092afd514610779578063313ce567146107be57610242565b806306fdde0314610248578063095ea7b3146102cc578063147936ba146103335780631624f6c61461052157610242565b60006000fd5b610250610fbe565b6040518080602001828103825283818151815260200191508051906020019080838360005b838110156102915780820151818401525b602081019050610275565b50505050905090810190601f1680156102be5780820380516001836020036101000a031916815260200191505b509250505060405180910390f35b610319600480360360408110156102e35760006000fd5b81019080803573ffffffffffffffffffffffffffffffffffffffff16906020019092919080359060200190929190505050611069565b604051808215151515815260200191505060405180910390f35b61051f600480360360e081101561034a5760006000fd5b81019080803590602001906401000000008111156103685760006000fd5b82018360208201111561037b5760006000fd5b8035906020019184600183028401116401000000008311171561039e5760006000fd5b91908080601f016020809104026020016040519081016040528093929190818152602001838380828437600081840152601f19601f82011690508083019250505050505050909091929090919290803590602001906401000000008111156104065760006000fd5b8201836020820111156104195760006000fd5b8035906020019184600183028401116401000000008311171561043c5760006000fd5b91908080601f016020809104026020016040519081016040528093929190818152602001838380828437600081840152601f19601f82011690508083019250505050505050909091929090919290803560ff169060200190929190803573ffffffffffffffffffffffffffffffffffffffff169060200190929190803573ffffffffffffffffffffffffffffffffffffffff169060200190929190803573ffffffffffffffffffffffffffffffffffffffff169060200190929190803573ffffffffffffffffffffffffffffffffffffffff16906020019092919050505061108b565b005b61068d600480360360608110156105385760006000fd5b81019080803590602001906401000000008111156105565760006000fd5b8201836020820111156105695760006000fd5b8035906020019184600183028401116401000000008311171561058c5760006000fd5b91908080601f016020809104026020016040519081016040528093929190818152602001838380828437600081840152601f19601f82011690508083019250505050505050909091929090919290803590602001906401000000008111156105f45760006000fd5b8201836020820111156106075760006000fd5b8035906020019184600183028401116401000000008311171561062a5760006000fd5b91908080601f016020809104026020016040519081016040528093929190818152602001838380828437600081840152601f19601f82011690508083019250505050505050909091929090919290803560ff1690602001909291905050506111fb565b005b61069761135d565b6040518082815260200191505060405180910390f35b6106f0600480360360208110156106c45760006000fd5b81019080803573ffffffffffffffffffffffffffffffffffffffff16906020019092919050505061136f565b005b61075f600480360360608110156107095760006000fd5b81019080803573ffffffffffffffffffffffffffffffffffffffff169060200190929190803573ffffffffffffffffffffffffffffffffffffffff16906020019092919080359060200190929190505050611471565b604051808215151515815260200191505060405180910390f35b6107bc600480360360208110156107905760006000fd5b81019080803573ffffffffffffffffffffffffffffffffffffffff16906020019092919050505061153c565b005b6107c6611619565b604051808260ff1660ff16815260200191505060405180910390f35b6107ea611636565b604051808273ffffffffffffffffffffffffffffffffffffffff1673ffffffffffffffffffffffffffffffffffffffff16815260200191505060405180910390f35b610879600480360360408110156108435760006000fd5b81019080803573ffffffffffffffffffffffffffffffffffffffff1690602001909291908035906020019092919050505061165d565b604051808215151515815260200191505060405180910390f35b61089b611716565b005b6108ea600480360360408110156108b45760006000fd5b81019080803573ffffffffffffffffffffffffffffffffffffffff169060200190929190803590602001909291905050506117d2565b604051808215151515815260200191505060405180910390f35b6109316004803603602081101561091b5760006000fd5b810190808035906020019092919050505061180f565b005b6109766004803603602081101561094a5760006000fd5b81019080803573ffffffffffffffffffffffffffffffffffffffff169060200190929190505050611823565b604051808215151515815260200191505060405180910390f35b610998611849565b604051808215151515815260200191505060405180910390f35b6109ba611866565b005b6109ff600480360360208110156109d35760006000fd5b81019080803573ffffffffffffffffffffffffffffffffffffffff169060200190929190505050611878565b6040518082815260200191505060405180910390f35b610a1d6118cc565b005b610a6c60048036036040811015610a365760006000fd5b81019080803573ffffffffffffffffffffffffffffffffffffffff169060200190929190803590602001909291905050506119a9565b005b610ab160048036036020811015610a855760006000fd5b81019080803573ffffffffffffffffffffffffffffffffffffffff1690602001909291905050506119be565b005b610abb6119ed565b005b610ac5611aaa565b604051808273ffffffffffffffffffffffffffffffffffffffff1673ffffffffffffffffffffffffffffffffffffffff16815260200191505060405180910390f35b610b0f611ad9565b604051808215151515815260200191505060405180910390f35b610b31611b36565b6040518080602001828103825283818151815260200191508051906020019080838360005b83811015610b725780820151818401525b602081019050610b56565b50505050905090810190601f168015610b9f5780820380516001836020036101000a031916815260200191505b509250505060405180910390f35b610bf060048036036020811015610bc45760006000fd5b81019080803573ffffffffffffffffffffffffffffffffffffffff169060200190929190505050611be1565b005b610bfa611cbe565b005b610c4960048036036040811015610c135760006000fd5b81019080803573ffffffffffffffffffffffffffffffffffffffff16906020019092919080359060200190929190505050611cd0565b604051808215151515815260200191505060405180910390f35b610c6b611d89565b6040518082815260200191505060405180910390f35b610cce60048036036040811015610c985760006000fd5b81019080803573ffffffffffffffffffffffffffffffffffffffff16906020019092919080359060200190929190505050611da3565b604051808215151515815260200191505060405180910390f35b610d2b60048036036020811015610cff5760006000fd5b81019080803573ffffffffffffffffffffffffffffffffffffffff169060200190929190505050611e4b565b005b610d7060048036036020811015610d445760006000fd5b81019080803573ffffffffffffffffffffffffffffffffffffffff169060200190929190505050611fd2565b604051808215151515815260200191505060405180910390f35b610dcd60048036036020811015610da15760006000fd5b81019080803573ffffffffffffffffffffffffffffffffffffffff169060200190929190505050611ff7565b005b610dd7612166565b604051808273ffffffffffffffffffffffffffffffffffffffff1673ffffffffffffffffffffffffffffffffffffffff16815260200191505060405180910390f35b610e5c60048036036020811015610e305760006000fd5b81019080803573ffffffffffffffffffffffffffffffffffffffff16906020019092919050505061218d565b005b610ec160048036036040811015610e755760006000fd5b81019080803573ffffffffffffffffffffffffffffffffffffffff169060200190929190803573ffffffffffffffffffffffffffffffffffffffff169060200190929190505050612343565b6040518082815260200191505060405180910390f35b610f1a60048036036020811015610eee5760006000fd5b81019080803573ffffffffffffffffffffffffffffffffffffffff1690602001909291905050506123d8565b005b610f5f60048036036020811015610f335760006000fd5b81019080803573ffffffffffffffffffffffffffffffffffffffff169060200190929190505050612406565b005b610fa460048036036020811015610f785760006000fd5b81019080803573ffffffffffffffffffffffffffffffffffffffff169060200190929190505050612508565b604051808215151515815260200191505060405180910390f35b60606101006000508054600181600116156101000203166002900480601f01602080910402602001604051908101604052809291908181526020018280546001816001161561010002031660029004801561105a5780601f1061102f5761010080835404028352916020019161105a565b820191906000526020600020905b81548152906001019060200180831161103d57829003601f168201915b50505050509050611066565b90565b600061107c33848461256763ffffffff16565b60019050611085565b92915050565b600060019054906101000a900460ff16806110b057506110af6126d863ffffffff16565b5b806110c85750600060009054906101000a900460ff16155b151561111f576040517f08c379a000000000000000000000000000000000000000000000000000000000815260040180806020018281038252602e815260200180613a76602e913960400191505060405180910390fd5b6000600060019054906101000a900460ff161590508015611171576001600060016101000a81548160ff0219169083151502179055506001600060006101000a81548160ff0219169083151502179055505b611180856126f063ffffffff16565b61118f8461218d63ffffffff16565b6111a08888886111fb63ffffffff16565b6111af856126f063ffffffff16565b6111be826128b563ffffffff16565b6111cd83612a8163ffffffff16565b5b80156111f0576000600060016101000a81548160ff0219169083151502179055505b505b50505050505050565b600060019054906101000a900460ff1680611220575061121f6126d863ffffffff16565b5b806112385750600060009054906101000a900460ff16155b151561128f576040517f08c379a000000000000000000000000000000000000000000000000000000000815260040180806020018281038252602e815260200180613a76602e913960400191505060405180910390fd5b6000600060019054906101000a900460ff1615905080156112e1576001600060016101000a81548160ff0219169083151502179055506001600060006101000a81548160ff0219169083151502179055505b8361010060005090805190602001906112fb9291906139c5565b508261010160005090805190602001906113169291906139c5565b508161010260006101000a81548160ff021916908360ff1602179055505b8015611356576000600060016101000a81548160ff0219169083151502179055505b505b505050565b6000603560005054905061136c565b90565b6101ce60009054906101000a900473ffffffffffffffffffffffffffffffffffffffff1673ffffffffffffffffffffffffffffffffffffffff163373ffffffffffffffffffffffffffffffffffffffff161415156113cd5760006000fd5b60006101cf60005060008373ffffffffffffffffffffffffffffffffffffffff1673ffffffffffffffffffffffffffffffffffffffff16815260200190815260200160002060006101000a81548160ff0219169083151502179055508073ffffffffffffffffffffffffffffffffffffffff167f117e3210bb9aa7d9baff172026820255c6f6c30ba8999d1c2fd88e2848137c4e60405160405180910390a25b5b50565b6000611484848484612bba63ffffffff16565b61152c843361152185603460005060008a73ffffffffffffffffffffffffffffffffffffffff1673ffffffffffffffffffffffffffffffffffffffff16815260200190815260200160002060005060003373ffffffffffffffffffffffffffffffffffffffff1673ffffffffffffffffffffffffffffffffffffffff16815260200190815260200160002060005054612da890919063ffffffff16565b61256763ffffffff16565b60019050611535565b9392505050565b61019b60009054906101000a900473ffffffffffffffffffffffffffffffffffffffff1673ffffffffffffffffffffffffffffffffffffffff163373ffffffffffffffffffffffffffffffffffffffff16141515611605576040517f08c379a000000000000000000000000000000000000000000000000000000000815260040180806020018281038252601b8152602001807f6d61737465724d696e7465722061646472657373206e6565646564000000000081526020015060200191505060405180910390fd5b61161481612dd163ffffffff16565b5b5b50565b600061010260009054906101000a900460ff169050611633565b90565b61019b60009054906101000a900473ffffffffffffffffffffffffffffffffffffffff1681565b600061170733846116fc85603460005060003373ffffffffffffffffffffffffffffffffffffffff1673ffffffffffffffffffffffffffffffffffffffff16815260200190815260200160002060005060008973ffffffffffffffffffffffffffffffffffffffff1673ffffffffffffffffffffffffffffffffffffffff16815260200190815260200160002060005054612e2f90919063ffffffff16565b61256763ffffffff16565b60019050611710565b92915050565b6117253361182363ffffffff16565b15156117315760006000fd5b61016860009054906101000a900460ff16151561174e5760006000fd5b600061016860006101000a81548160ff0219169083151502179055507f5db9ee0a495bf2e6ff9c91a7834c1ba4fdd244a5e8aa4e537bd38aeae4b073aa33604051808273ffffffffffffffffffffffffffffffffffffffff1673ffffffffffffffffffffffffffffffffffffffff16815260200191505060405180910390a15b5b5b565b60006117e333611fd263ffffffff16565b15156117ef5760006000fd5b6117ff8383612e5863ffffffff16565b60019050611808565b5b92915050565b61181f3382612fc663ffffffff16565b5b50565b600061183d8261013560005061313490919063ffffffff16565b9050611844565b919050565b600061016860009054906101000a900460ff169050611863565b90565b611875336131d263ffffffff16565b5b565b6000603360005060008373ffffffffffffffffffffffffffffffffffffffff1673ffffffffffffffffffffffffffffffffffffffff1681526020019081526020016000206000505490506118c7565b919050565b6118da611ad963ffffffff16565b15156118e65760006000fd5b600073ffffffffffffffffffffffffffffffffffffffff1660cd60009054906101000a900473ffffffffffffffffffffffffffffffffffffffff1673ffffffffffffffffffffffffffffffffffffffff167f8be0079c531659141344cd1fd0a4f28419497f9722a3daafe3b4186f6b6457e060405160405180910390a3600060cd60006101000a81548173ffffffffffffffffffffffffffffffffffffffff021916908373ffffffffffffffffffffffffffffffffffffffff1602179055505b5b565b6119b9828261323163ffffffff16565b5b5050565b6119cd3361182363ffffffff16565b15156119d95760006000fd5b6119e8816132ee63ffffffff16565b5b5b50565b6119fc3361182363ffffffff16565b1515611a085760006000fd5b61016860009054906101000a900460ff16151515611a265760006000fd5b600161016860006101000a81548160ff0219169083151502179055507f62e78cea01bee320cd4e420270b5ea74000d11b0c9f74754ebdbfc544b05a25833604051808273ffffffffffffffffffffffffffffffffffffffff1673ffffffffffffffffffffffffffffffffffffffff16815260200191505060405180910390a15b5b5b565b600060cd60009054906101000a900473ffffffffffffffffffffffffffffffffffffffff169050611ad6565b90565b600060cd60009054906101000a900473ffffffffffffffffffffffffffffffffffffffff1673ffffffffffffffffffffffffffffffffffffffff163373ffffffffffffffffffffffffffffffffffffffff16149050611b33565b90565b60606101016000508054600181600116156101000203166002900480601f016020809104026020016040519081016040528092919081815260200182805460018160011615610100020316600290048015611bd25780601f10611ba757610100808354040283529160200191611bd2565b820191906000526020600020905b815481529060010190602001808311611bb557829003601f168201915b50505050509050611bde565b90565b61019b60009054906101000a900473ffffffffffffffffffffffffffffffffffffffff1673ffffffffffffffffffffffffffffffffffffffff163373ffffffffffffffffffffffffffffffffffffffff16141515611caa576040517f08c379a000000000000000000000000000000000000000000000000000000000815260040180806020018281038252601b8152602001807f6d61737465724d696e7465722061646472657373206e6565646564000000000081526020015060200191505060405180910390fd5b611cb98161334d63ffffffff16565b5b5b50565b611ccd33612dd163ffffffff16565b5b565b6000611d7a3384611d6f85603460005060003373ffffffffffffffffffffffffffffffffffffffff1673ffffffffffffffffffffffffffffffffffffffff16815260200190815260200160002060005060008973ffffffffffffffffffffffffffffffffffffffff1673ffffffffffffffffffffffffffffffffffffffff16815260200190815260200160002060005054612da890919063ffffffff16565b61256763ffffffff16565b60019050611d83565b92915050565b6000611d9961135d63ffffffff16565b9050611da0565b90565b600061016860009054906101000a900460ff16151515611dc35760006000fd5b33600015156101cf60005060008373ffffffffffffffffffffffffffffffffffffffff1673ffffffffffffffffffffffffffffffffffffffff16815260200190815260200160002060009054906101000a900460ff161515141515611e285760006000fd5b611e3884846133ab63ffffffff16565b5060019150611e42565b5b505b92915050565b611e59611ad963ffffffff16565b1515611e655760006000fd5b600073ffffffffffffffffffffffffffffffffffffffff168173ffffffffffffffffffffffffffffffffffffffff1614158015611ece57503373ffffffffffffffffffffffffffffffffffffffff168173ffffffffffffffffffffffffffffffffffffffff1614155b1515611f25576040517f08c379a0000000000000000000000000000000000000000000000000000000008152600401808060200182810382526036815260200180613aa46036913960400191505060405180910390fd5b8061019b60006101000a81548173ffffffffffffffffffffffffffffffffffffffff021916908373ffffffffffffffffffffffffffffffffffffffff16021790555061019b60009054906101000a900473ffffffffffffffffffffffffffffffffffffffff1673ffffffffffffffffffffffffffffffffffffffff167fdb66dfa9c6b8f5226fe9aac7e51897ae8ee94ac31dc70bb6c9900b2574b707e660405160405180910390a25b5b50565b6000611feb82606860005061313490919063ffffffff16565b9050611ff2565b919050565b612005611ad963ffffffff16565b15156120115760006000fd5b600073ffffffffffffffffffffffffffffffffffffffff168173ffffffffffffffffffffffffffffffffffffffff16141515156120b9576040517f08c379a00000000000000000000000000000000000000000000000000000000081526004018080602001828103825260128152602001807f626c61636b6c697374657220697320307830000000000000000000000000000081526020015060200191505060405180910390fd5b806101ce60006101000a81548173ffffffffffffffffffffffffffffffffffffffff021916908373ffffffffffffffffffffffffffffffffffffffff1602179055506101ce60009054906101000a900473ffffffffffffffffffffffffffffffffffffffff1673ffffffffffffffffffffffffffffffffffffffff167fc67398012c111ce95ecb7429b933096c977380ee6c421175a71a4a4c6c88c06e60405160405180910390a25b5b50565b6101ce60009054906101000a900473ffffffffffffffffffffffffffffffffffffffff1681565b600060019054906101000a900460ff16806121b257506121b16126d863ffffffff16565b5b806121ca5750600060009054906101000a900460ff16155b1515612221576040517f08c379a000000000000000000000000000000000000000000000000000000000815260040180806020018281038252602e815260200180613a76602e913960400191505060405180910390fd5b6000600060019054906101000a900460ff161590508015612273576001600060016101000a81548160ff0219169083151502179055506001600060006101000a81548160ff0219169083151502179055505b816101ce60006101000a81548173ffffffffffffffffffffffffffffffffffffffff021916908373ffffffffffffffffffffffffffffffffffffffff1602179055506101ce60009054906101000a900473ffffffffffffffffffffffffffffffffffffffff1673ffffffffffffffffffffffffffffffffffffffff167fc67398012c111ce95ecb7429b933096c977380ee6c421175a71a4a4c6c88c06e60405160405180910390a25b801561233e576000600060016101000a81548160ff0219169083151502179055505b505b50565b6000603460005060008473ffffffffffffffffffffffffffffffffffffffff1673ffffffffffffffffffffffffffffffffffffffff16815260200190815260200160002060005060008373ffffffffffffffffffffffffffffffffffffffff1673ffffffffffffffffffffffffffffffffffffffff1681526020019081526020016000206000505490506123d2565b92915050565b6123e6611ad963ffffffff16565b15156123f25760006000fd5b612401816133cd63ffffffff16565b5b5b50565b6101ce60009054906101000a900473ffffffffffffffffffffffffffffffffffffffff1673ffffffffffffffffffffffffffffffffffffffff163373ffffffffffffffffffffffffffffffffffffffff161415156124645760006000fd5b60016101cf60005060008373ffffffffffffffffffffffffffffffffffffffff1673ffffffffffffffffffffffffffffffffffffffff16815260200190815260200160002060006101000a81548160ff0219169083151502179055508073ffffffffffffffffffffffffffffffffffffffff167fffa4e6181777692565cf28528fc88fd1516ea86b56da075235fa575af6a4b85560405160405180910390a25b5b50565b60006101cf60005060008373ffffffffffffffffffffffffffffffffffffffff1673ffffffffffffffffffffffffffffffffffffffff16815260200190815260200160002060009054906101000a900460ff169050612562565b919050565b600073ffffffffffffffffffffffffffffffffffffffff168273ffffffffffffffffffffffffffffffffffffffff16141515156125a45760006000fd5b600073ffffffffffffffffffffffffffffffffffffffff168373ffffffffffffffffffffffffffffffffffffffff16141515156125e15760006000fd5b80603460005060008573ffffffffffffffffffffffffffffffffffffffff1673ffffffffffffffffffffffffffffffffffffffff16815260200190815260200160002060005060008473ffffffffffffffffffffffffffffffffffffffff1673ffffffffffffffffffffffffffffffffffffffff1681526020019081526020016000206000508190909055508173ffffffffffffffffffffffffffffffffffffffff168373ffffffffffffffffffffffffffffffffffffffff167f8c5be1e5ebec7d5bd14f71427d1e84f3dd0314c0f7b2291e5b200ac8c7c3b925836040518082815260200191505060405180910390a35b505050565b60006000303b9050600081149150506126ed56505b90565b600060019054906101000a900460ff168061271557506127146126d863ffffffff16565b5b8061272d5750600060009054906101000a900460ff16155b1515612784576040517f08c379a000000000000000000000000000000000000000000000000000000000815260040180806020018281038252602e815260200180613a76602e913960400191505060405180910390fd5b6000600060019054906101000a900460ff1615905080156127d6576001600060016101000a81548160ff0219169083151502179055506001600060006101000a81548160ff0219169083151502179055505b8161019b60006101000a81548173ffffffffffffffffffffffffffffffffffffffff021916908373ffffffffffffffffffffffffffffffffffffffff160217905550612827826134cb63ffffffff16565b61019b60009054906101000a900473ffffffffffffffffffffffffffffffffffffffff1673ffffffffffffffffffffffffffffffffffffffff167fdb66dfa9c6b8f5226fe9aac7e51897ae8ee94ac31dc70bb6c9900b2574b707e660405160405180910390a25b80156128b0576000600060016101000a81548160ff0219169083151502179055505b505b50565b600060019054906101000a900460ff16806128da57506128d96126d863ffffffff16565b5b806128f25750600060009054906101000a900460ff16155b1515612949576040517f08c379a000000000000000000000000000000000000000000000000000000000815260040180806020018281038252602e815260200180613a76602e913960400191505060405180910390fd5b6000600060019054906101000a900460ff16159050801561299b576001600060016101000a81548160ff0219169083151502179055506001600060006101000a81548160ff0219169083151502179055505b8160cd60006101000a81548173ffffffffffffffffffffffffffffffffffffffff021916908373ffffffffffffffffffffffffffffffffffffffff16021790555060cd60009054906101000a900473ffffffffffffffffffffffffffffffffffffffff1673ffffffffffffffffffffffffffffffffffffffff16600073ffffffffffffffffffffffffffffffffffffffff167f8be0079c531659141344cd1fd0a4f28419497f9722a3daafe3b4186f6b6457e060405160405180910390a35b8015612a7c576000600060016101000a81548160ff0219169083151502179055505b505b50565b600060019054906101000a900460ff1680612aa65750612aa56126d863ffffffff16565b5b80612abe5750600060009054906101000a900460ff16155b1515612b15576040517f08c379a000000000000000000000000000000000000000000000000000000000815260040180806020018281038252602e815260200180613a76602e913960400191505060405180910390fd5b6000600060019054906101000a900460ff161590508015612b67576001600060016101000a81548160ff0219169083151502179055506001600060006101000a81548160ff0219169083151502179055505b612b76826135e863ffffffff16565b600061016860006101000a81548160ff0219169083151502179055505b8015612bb5576000600060016101000a81548160ff0219169083151502179055505b505b50565b600073ffffffffffffffffffffffffffffffffffffffff168273ffffffffffffffffffffffffffffffffffffffff1614151515612bf75760006000fd5b612c4f81603360005060008673ffffffffffffffffffffffffffffffffffffffff1673ffffffffffffffffffffffffffffffffffffffff16815260200190815260200160002060005054612da890919063ffffffff16565b603360005060008573ffffffffffffffffffffffffffffffffffffffff1673ffffffffffffffffffffffffffffffffffffffff168152602001908152602001600020600050819090905550612cf281603360005060008573ffffffffffffffffffffffffffffffffffffffff1673ffffffffffffffffffffffffffffffffffffffff16815260200190815260200160002060005054612e2f90919063ffffffff16565b603360005060008473ffffffffffffffffffffffffffffffffffffffff1673ffffffffffffffffffffffffffffffffffffffff1681526020019081526020016000206000508190909055508173ffffffffffffffffffffffffffffffffffffffff168373ffffffffffffffffffffffffffffffffffffffff167fddf252ad1be2c89b69c2b068fc378daa952ba7f163c4a11628f55a4df523b3ef836040518082815260200191505060405180910390a35b505050565b6000828211151515612dba5760006000fd5b6000828403905080915050612dcb56505b92915050565b612de881606860005061371b90919063ffffffff16565b8073ffffffffffffffffffffffffffffffffffffffff167fe94479a9f7e1952cc78f2d6baab678adc1b772d936c6583def489e524cb6669260405160405180910390a25b50565b600060008284019050838110151515612e485760006000fd5b80915050612e5256505b92915050565b600073ffffffffffffffffffffffffffffffffffffffff168273ffffffffffffffffffffffffffffffffffffffff1614151515612e955760006000fd5b612ead81603560005054612e2f90919063ffffffff16565b6035600050819090905550612f1081603360005060008573ffffffffffffffffffffffffffffffffffffffff1673ffffffffffffffffffffffffffffffffffffffff16815260200190815260200160002060005054612e2f90919063ffffffff16565b603360005060008473ffffffffffffffffffffffffffffffffffffffff1673ffffffffffffffffffffffffffffffffffffffff1681526020019081526020016000206000508190909055508173ffffffffffffffffffffffffffffffffffffffff16600073ffffffffffffffffffffffffffffffffffffffff167fddf252ad1be2c89b69c2b068fc378daa952ba7f163c4a11628f55a4df523b3ef836040518082815260200191505060405180910390a35b5050565b600073ffffffffffffffffffffffffffffffffffffffff168273ffffffffffffffffffffffffffffffffffffffff16141515156130035760006000fd5b61301b81603560005054612da890919063ffffffff16565b603560005081909090555061307e81603360005060008573ffffffffffffffffffffffffffffffffffffffff1673ffffffffffffffffffffffffffffffffffffffff16815260200190815260200160002060005054612da890919063ffffffff16565b603360005060008473ffffffffffffffffffffffffffffffffffffffff1673ffffffffffffffffffffffffffffffffffffffff168152602001908152602001600020600050819090905550600073ffffffffffffffffffffffffffffffffffffffff168273ffffffffffffffffffffffffffffffffffffffff167fddf252ad1be2c89b69c2b068fc378daa952ba7f163c4a11628f55a4df523b3ef836040518082815260200191505060405180910390a35b5050565b6000600073ffffffffffffffffffffffffffffffffffffffff168273ffffffffffffffffffffffffffffffffffffffff16141515156131735760006000fd5b8260000160005060008373ffffffffffffffffffffffffffffffffffffffff1673ffffffffffffffffffffffffffffffffffffffff16815260200190815260200160002060009054906101000a900460ff1690506131cc565b92915050565b6131ea8161013560005061371b90919063ffffffff16565b8073ffffffffffffffffffffffffffffffffffffffff167fcd265ebaf09df2871cc7bd4133404a235ba12eff2041bb89d9c714a2621c7c7e60405160405180910390a25b50565b6132418282612fc663ffffffff16565b6132e982336132de84603460005060008873ffffffffffffffffffffffffffffffffffffffff1673ffffffffffffffffffffffffffffffffffffffff16815260200190815260200160002060005060003373ffffffffffffffffffffffffffffffffffffffff1673ffffffffffffffffffffffffffffffffffffffff16815260200190815260200160002060005054612da890919063ffffffff16565b61256763ffffffff16565b5b5050565b613306816101356000506137d690919063ffffffff16565b8073ffffffffffffffffffffffffffffffffffffffff167f6719d08c1888103bea251a4ed56406bd0c3e69723c8a1686e017e7bbe159b6f860405160405180910390a25b50565b6133648160686000506137d690919063ffffffff16565b8073ffffffffffffffffffffffffffffffffffffffff167f6ae172837ea30b801fbfcdd4108aa1d5bf8ff775444fd70256b44e6bf3dfc3f660405160405180910390a25b50565b60006133be338484612bba63ffffffff16565b600190506133c7565b92915050565b600073ffffffffffffffffffffffffffffffffffffffff168173ffffffffffffffffffffffffffffffffffffffff161415151561340a5760006000fd5b8073ffffffffffffffffffffffffffffffffffffffff1660cd60009054906101000a900473ffffffffffffffffffffffffffffffffffffffff1673ffffffffffffffffffffffffffffffffffffffff167f8be0079c531659141344cd1fd0a4f28419497f9722a3daafe3b4186f6b6457e060405160405180910390a38060cd60006101000a81548173ffffffffffffffffffffffffffffffffffffffff021916908373ffffffffffffffffffffffffffffffffffffffff1602179055505b50565b600060019054906101000a900460ff16806134f057506134ef6126d863ffffffff16565b5b806135085750600060009054906101000a900460ff16155b151561355f576040517f08c379a000000000000000000000000000000000000000000000000000000000815260040180806020018281038252602e815260200180613a76602e913960400191505060405180910390fd5b6000600060019054906101000a900460ff1615905080156135b1576001600060016101000a81548160ff0219169083151502179055506001600060006101000a81548160ff0219169083151502179055505b6135c08261389263ffffffff16565b5b80156135e3576000600060016101000a81548160ff0219169083151502179055505b505b50565b600060019054906101000a900460ff168061360d575061360c6126d863ffffffff16565b5b806136255750600060009054906101000a900460ff16155b151561367c576040517f08c379a000000000000000000000000000000000000000000000000000000000815260040180806020018281038252602e815260200180613a76602e913960400191505060405180910390fd5b6000600060019054906101000a900460ff1615905080156136ce576001600060016101000a81548160ff0219169083151502179055506001600060006101000a81548160ff0219169083151502179055505b6136dd8261182363ffffffff16565b15156136f3576136f2826132ee63ffffffff16565b5b5b8015613716576000600060016101000a81548160ff0219169083151502179055505b505b50565b600073ffffffffffffffffffffffffffffffffffffffff168173ffffffffffffffffffffffffffffffffffffffff16141515156137585760006000fd5b613768828261313463ffffffff16565b15156137745760006000fd5b60008260000160005060008373ffffffffffffffffffffffffffffffffffffffff1673ffffffffffffffffffffffffffffffffffffffff16815260200190815260200160002060006101000a81548160ff0219169083151502179055505b5050565b600073ffffffffffffffffffffffffffffffffffffffff168173ffffffffffffffffffffffffffffffffffffffff16141515156138135760006000fd5b613823828261313463ffffffff16565b1515156138305760006000fd5b60018260000160005060008373ffffffffffffffffffffffffffffffffffffffff1673ffffffffffffffffffffffffffffffffffffffff16815260200190815260200160002060006101000a81548160ff0219169083151502179055505b5050565b600060019054906101000a900460ff16806138b757506138b66126d863ffffffff16565b5b806138cf5750600060009054906101000a900460ff16155b1515613926576040517f08c379a000000000000000000000000000000000000000000000000000000000815260040180806020018281038252602e815260200180613a76602e913960400191505060405180910390fd5b6000600060019054906101000a900460ff161590508015613978576001600060016101000a81548160ff0219169083151502179055506001600060006101000a81548160ff0219169083151502179055505b61398782611fd263ffffffff16565b151561399d5761399c8261334d63ffffffff16565b5b5b80156139c0576000600060016101000a81548160ff0219169083151502179055505b505b50565b828054600181600116156101000203166002900490600052602060002090601f016020900481019282601f10613a0657805160ff1916838001178555613a39565b82800160010185558215613a39579182015b82811115613a385782518260005090905591602001919060010190613a18565b5b509050613a469190613a4a565b5090565b613a729190613a54565b80821115613a6e5760008181506000905550600101613a54565b5090565b9056fe436f6e747261637420696e7374616e63652068617320616c7265616479206265656e20696e697469616c697a65646d61737465724d696e7465722068617320746f2062652061207265616c206164647265737320616e64206e6f74207468652073616d65a265627a7a723058201b1c253f5a2509c44158c9b3a6b8607c14060cfd146f956f43249a184c8280b264736f6c634300050a0032",
  "compiler": {
    "name": "solc",
    "version": "0.5.10+commit.5a6ea5b1.Emscripten.clang",
    "optimizer": {},
    "evmVersion": "constantinople"
  }
}