{
  "fileName": "FiatToken.sol",
  "contractName": "FiatToken",
  "source": "pragma solidity ^0.5.2;\n\nimport \"@openzeppelin/contracts-ethereum-package/contracts/token/ERC20/ERC20Detailed.sol\";\nimport \"@openzeppelin/contracts-ethereum-package/contracts/token/ERC20/ERC20Burnable.sol\";\nimport \"@openzeppelin/contracts-ethereum-package/contracts/ownership/Ownable.sol\";\nimport \"@openzeppelin/upgrades/contracts/Initializable.sol\";\nimport \"./MasterPauser.sol\";\nimport \"./MasterMinter.sol\";\nimport \"./Blacklistable.sol\";\n\n\n\n/**\n* @title FiatToken contract\n* @dev This sontact was meant to work as a stable coin with upgradeability support.\n*/\ncontract FiatToken is Ownable, ERC20Detailed,ERC20Burnable{\n\n\tBlacklistable public blacklister;\n\tMasterMinter public masterMinter;\n\tMasterPauser public pauser;\n\n\t/**\n\t* @dev this function is needed by support uppgradeability\n\t* @param name : string. The name of this token ERC20.\n\t* @param symbol : string. ERC20 token symbol .\n\t* @param decimals : uint8. Decimals fractions that may have a token unit.\n\t* @param _masterMinter : MasterMinter.\n\t* @param _blacklister : Blacklistable.\n\t* @param _pauser : MasterPauser.\n\t* @param owner : address.\n\t*/\n\tfunction initialize(string memory name,\n\t\tstring memory symbol,\n\t\tuint8 decimals,\n\t\tMasterMinter _masterMinter,\n\t\tBlacklistable _blacklister,\n\t\tMasterPauser _pauser,\n\t\taddress owner) public initializer  {\n\t\tERC20Detailed.initialize(name,symbol,decimals);\n \t\tmasterMinter = _masterMinter;\n\t\tpauser = _pauser;\n\t\temit InitializationLog(\"After Master Minter initialization\");\n\t\tblacklister = _blacklister;\n\t\temit InitializationLog(\"After Black Lister setting\");\n\t\tOwnable.initialize(owner);\n\t\temit InitializationLog(\"After Ownable initialization\");\n\n\t}\n\n    /**\n     * @dev Function to mint tokens\n     * @param to The address that will receive the minted tokens.\n     * @param value The amount of tokens to mint.\n     * @return A boolean that indicates if the operation was successful.\n     */\n    function mint(address to, uint256 value) public onlyMinter returns (bool) {\n        _mint(to, value);\n        return true;\n    }\n\n\tmodifier onlyMinter() {\n        require(masterMinter.isMinter(msg.sender),\"Only Minter accounts can mint()\");\n        _;\n    }\n\n\n\n\t/**\n     * @dev Modifier to make a function callable only when the contract is not paused.\n     */\n    modifier whenNotPaused() {\n        require(!pauser.paused(),\"This contract is paused\");\n        _;\n    }\n\n\tmodifier whenPaused(){\n\t\trequire(pauser.paused(),\"This contract is not paused\");\n        _;\n\t}\n\n\tfunction paused() public view returns(bool){\n\t\treturn pauser.paused();\n\t}\n\n\t/**\n\t* @dev overriding ERC20.transfer with modifier whenNotPaused\n\t* @param to The address to transfer to.\n\t* @param value The amount to be transferred.\n\t*/\n\tfunction transfer(address to, uint256 value) public notBlacklisted(msg.sender) whenNotPaused returns(bool) {\n\t\tERC20.transfer(to, value);\n\t\treturn true;\n\t}\n\n\tfunction approve(address spender, uint256 value) public\n\tnotBlacklisted(msg.sender)\n\twhenNotPaused returns (bool){\n\t\tERC20.approve(spender, value);\n\t\treturn true;\n\t}\n\n    function transferFrom(address from, address to, uint256 value) public\n\tnotBlacklisted(from)  notBlacklisted(to) whenNotPaused\n\treturns (bool){\n\t\tERC20.transferFrom(from,to,value);\n\t\treturn true;\n\t}\n\n\t/**\n     * @dev Throws if argument account is blacklisted\n     * @param _account The address to check\n    */\n    modifier notBlacklisted(address _account) {\n        require(!blacklister.isBlacklisted(_account),\n        \"this account is marked in our blac-klist\");\n        _;\n    }\n\n\t\n\n\tfunction helloworld() public pure returns(string memory){\n\t\treturn \"hola mundo feliz\";\n\t}\n\n\tevent InitializationLog(\n        string message\n    );\n\n\tevent FallBackCallLog(\n\t\taddress sender\n\t);\n}",
  "sourcePath": "contracts/FiatToken.sol",
  "abi": [
    {
      "constant": true,
      "inputs": [],
      "name": "name",
      "outputs": [
        {
          "name": "",
          "type": "string"
        }
      ],
      "payable": false,
      "stateMutability": "view",
      "type": "function"
    },
    {
      "constant": false,
      "inputs": [
        {
          "name": "spender",
          "type": "address"
        },
        {
          "name": "value",
          "type": "uint256"
        }
      ],
      "name": "approve",
      "outputs": [
        {
          "name": "",
          "type": "bool"
        }
      ],
      "payable": false,
      "stateMutability": "nonpayable",
      "type": "function"
    },
    {
      "constant": false,
      "inputs": [
        {
          "name": "name",
          "type": "string"
        },
        {
          "name": "symbol",
          "type": "string"
        },
        {
          "name": "decimals",
          "type": "uint8"
        },
        {
          "name": "_masterMinter",
          "type": "address"
        },
        {
          "name": "_blacklister",
          "type": "address"
        },
        {
          "name": "_pauser",
          "type": "address"
        },
        {
          "name": "owner",
          "type": "address"
        }
      ],
      "name": "initialize",
      "outputs": [],
      "payable": false,
      "stateMutability": "nonpayable",
      "type": "function"
    },
    {
      "constant": false,
      "inputs": [
        {
          "name": "name",
          "type": "string"
        },
        {
          "name": "symbol",
          "type": "string"
        },
        {
          "name": "decimals",
          "type": "uint8"
        }
      ],
      "name": "initialize",
      "outputs": [],
      "payable": false,
      "stateMutability": "nonpayable",
      "type": "function"
    },
    {
      "constant": true,
      "inputs": [],
      "name": "totalSupply",
      "outputs": [
        {
          "name": "",
          "type": "uint256"
        }
      ],
      "payable": false,
      "stateMutability": "view",
      "type": "function"
    },
    {
      "constant": false,
      "inputs": [
        {
          "name": "from",
          "type": "address"
        },
        {
          "name": "to",
          "type": "address"
        },
        {
          "name": "value",
          "type": "uint256"
        }
      ],
      "name": "transferFrom",
      "outputs": [
        {
          "name": "",
          "type": "bool"
        }
      ],
      "payable": false,
      "stateMutability": "nonpayable",
      "type": "function"
    },
    {
      "constant": true,
      "inputs": [],
      "name": "helloworld",
      "outputs": [
        {
          "name": "",
          "type": "string"
        }
      ],
      "payable": false,
      "stateMutability": "pure",
      "type": "function"
    },
    {
      "constant": true,
      "inputs": [],
      "name": "decimals",
      "outputs": [
        {
          "name": "",
          "type": "uint8"
        }
      ],
      "payable": false,
      "stateMutability": "view",
      "type": "function"
    },
    {
      "constant": true,
      "inputs": [],
      "name": "masterMinter",
      "outputs": [
        {
          "name": "",
          "type": "address"
        }
      ],
      "payable": false,
      "stateMutability": "view",
      "type": "function"
    },
    {
      "constant": false,
      "inputs": [
        {
          "name": "spender",
          "type": "address"
        },
        {
          "name": "addedValue",
          "type": "uint256"
        }
      ],
      "name": "increaseAllowance",
      "outputs": [
        {
          "name": "",
          "type": "bool"
        }
      ],
      "payable": false,
      "stateMutability": "nonpayable",
      "type": "function"
    },
    {
      "constant": false,
      "inputs": [
        {
          "name": "to",
          "type": "address"
        },
        {
          "name": "value",
          "type": "uint256"
        }
      ],
      "name": "mint",
      "outputs": [
        {
          "name": "",
          "type": "bool"
        }
      ],
      "payable": false,
      "stateMutability": "nonpayable",
      "type": "function"
    },
    {
      "constant": false,
      "inputs": [
        {
          "name": "value",
          "type": "uint256"
        }
      ],
      "name": "burn",
      "outputs": [],
      "payable": false,
      "stateMutability": "nonpayable",
      "type": "function"
    },
    {
      "constant": true,
      "inputs": [],
      "name": "paused",
      "outputs": [
        {
          "name": "",
          "type": "bool"
        }
      ],
      "payable": false,
      "stateMutability": "view",
      "type": "function"
    },
    {
      "constant": true,
      "inputs": [
        {
          "name": "owner",
          "type": "address"
        }
      ],
      "name": "balanceOf",
      "outputs": [
        {
          "name": "",
          "type": "uint256"
        }
      ],
      "payable": false,
      "stateMutability": "view",
      "type": "function"
    },
    {
      "constant": false,
      "inputs": [],
      "name": "renounceOwnership",
      "outputs": [],
      "payable": false,
      "stateMutability": "nonpayable",
      "type": "function"
    },
    {
      "constant": false,
      "inputs": [
        {
          "name": "from",
          "type": "address"
        },
        {
          "name": "value",
          "type": "uint256"
        }
      ],
      "name": "burnFrom",
      "outputs": [],
      "payable": false,
      "stateMutability": "nonpayable",
      "type": "function"
    },
    {
      "constant": true,
      "inputs": [],
      "name": "owner",
      "outputs": [
        {
          "name": "",
          "type": "address"
        }
      ],
      "payable": false,
      "stateMutability": "view",
      "type": "function"
    },
    {
      "constant": true,
      "inputs": [],
      "name": "isOwner",
      "outputs": [
        {
          "name": "",
          "type": "bool"
        }
      ],
      "payable": false,
      "stateMutability": "view",
      "type": "function"
    },
    {
      "constant": true,
      "inputs": [],
      "name": "symbol",
      "outputs": [
        {
          "name": "",
          "type": "string"
        }
      ],
      "payable": false,
      "stateMutability": "view",
      "type": "function"
    },
    {
      "constant": true,
      "inputs": [],
      "name": "pauser",
      "outputs": [
        {
          "name": "",
          "type": "address"
        }
      ],
      "payable": false,
      "stateMutability": "view",
      "type": "function"
    },
    {
      "constant": false,
      "inputs": [
        {
          "name": "spender",
          "type": "address"
        },
        {
          "name": "subtractedValue",
          "type": "uint256"
        }
      ],
      "name": "decreaseAllowance",
      "outputs": [
        {
          "name": "",
          "type": "bool"
        }
      ],
      "payable": false,
      "stateMutability": "nonpayable",
      "type": "function"
    },
    {
      "constant": false,
      "inputs": [
        {
          "name": "to",
          "type": "address"
        },
        {
          "name": "value",
          "type": "uint256"
        }
      ],
      "name": "transfer",
      "outputs": [
        {
          "name": "",
          "type": "bool"
        }
      ],
      "payable": false,
      "stateMutability": "nonpayable",
      "type": "function"
    },
    {
      "constant": true,
      "inputs": [],
      "name": "blacklister",
      "outputs": [
        {
          "name": "",
          "type": "address"
        }
      ],
      "payable": false,
      "stateMutability": "view",
      "type": "function"
    },
    {
      "constant": false,
      "inputs": [
        {
          "name": "sender",
          "type": "address"
        }
      ],
      "name": "initialize",
      "outputs": [],
      "payable": false,
      "stateMutability": "nonpayable",
      "type": "function"
    },
    {
      "constant": true,
      "inputs": [
        {
          "name": "owner",
          "type": "address"
        },
        {
          "name": "spender",
          "type": "address"
        }
      ],
      "name": "allowance",
      "outputs": [
        {
          "name": "",
          "type": "uint256"
        }
      ],
      "payable": false,
      "stateMutability": "view",
      "type": "function"
    },
    {
      "constant": false,
      "inputs": [
        {
          "name": "newOwner",
          "type": "address"
        }
      ],
      "name": "transferOwnership",
      "outputs": [],
      "payable": false,
      "stateMutability": "nonpayable",
      "type": "function"
    },
    {
      "anonymous": false,
      "inputs": [
        {
          "indexed": false,
          "name": "message",
          "type": "string"
        }
      ],
      "name": "InitializationLog",
      "type": "event"
    },
    {
      "anonymous": false,
      "inputs": [
        {
          "indexed": false,
          "name": "sender",
          "type": "address"
        }
      ],
      "name": "FallBackCallLog",
      "type": "event"
    },
    {
      "anonymous": false,
      "inputs": [
        {
          "indexed": true,
          "name": "from",
          "type": "address"
        },
        {
          "indexed": true,
          "name": "to",
          "type": "address"
        },
        {
          "indexed": false,
          "name": "value",
          "type": "uint256"
        }
      ],
      "name": "Transfer",
      "type": "event"
    },
    {
      "anonymous": false,
      "inputs": [
        {
          "indexed": true,
          "name": "owner",
          "type": "address"
        },
        {
          "indexed": true,
          "name": "spender",
          "type": "address"
        },
        {
          "indexed": false,
          "name": "value",
          "type": "uint256"
        }
      ],
      "name": "Approval",
      "type": "event"
    },
    {
      "anonymous": false,
      "inputs": [
        {
          "indexed": true,
          "name": "previousOwner",
          "type": "address"
        },
        {
          "indexed": true,
          "name": "newOwner",
          "type": "address"
        }
      ],
      "name": "OwnershipTransferred",
      "type": "event"
    }
  ],
  "bytecode": "0x608060405234801561001057600080fd5b506120b0806100206000396000f3fe608060405234801561001057600080fd5b50600436106101ae5760003560e01c806370a08231116100ee5780639fd0506d11610097578063bd10243011610071578063bd10243014610766578063c4d66de81461076e578063dd62ed3e146107a1578063f2fde38b146107dc576101ae565b80639fd0506d146106ec578063a457c2d7146106f4578063a9059cbb1461072d576101ae565b80638da5cb5b116100c85780638da5cb5b146106d45780638f32d59b146106dc57806395d89b41146106e4576101ae565b806370a0823114610660578063715018a61461069357806379cc67901461069b576101ae565b80632f2f48591161015b578063395093511161013557806339509351146105c957806340c10f191461060257806342966c681461063b5780635c975abb14610658576101ae565b80632f2f485914610572578063313ce5671461057a57806335d99f3514610598576101ae565b80631624f6c61161018c5780631624f6c6146103e357806318160ddd1461051557806323b872dd1461052f576101ae565b806306fdde03146101b3578063095ea7b314610230578063147936ba1461027d575b600080fd5b6101bb61080f565b6040805160208082528351818301528351919283929083019185019080838360005b838110156101f55781810151838201526020016101dd565b50505050905090810190601f1680156102225780820380516001836020036101000a031916815260200191505b509250505060405180910390f35b6102696004803603604081101561024657600080fd5b5073ffffffffffffffffffffffffffffffffffffffff81351690602001356108c4565b604080519115158252519081900360200190f35b6103e1600480360360e081101561029357600080fd5b8101906020810181356401000000008111156102ae57600080fd5b8201836020820111156102c057600080fd5b803590602001918460018302840111640100000000831117156102e257600080fd5b91908080601f016020809104026020016040519081016040528093929190818152602001838380828437600092019190915250929594936020810193503591505064010000000081111561033557600080fd5b82018360208201111561034757600080fd5b8035906020019184600183028401116401000000008311171561036957600080fd5b91908080601f0160208091040260200160405190810160405280939291908181526020018383808284376000920191909152509295505050813560ff16925050602081013573ffffffffffffffffffffffffffffffffffffffff90811691604081013582169160608201358116916080013516610ad0565b005b6103e1600480360360608110156103f957600080fd5b81019060208101813564010000000081111561041457600080fd5b82018360208201111561042657600080fd5b8035906020019184600183028401116401000000008311171561044857600080fd5b91908080601f016020809104026020016040519081016040528093929190818152602001838380828437600092019190915250929594936020810193503591505064010000000081111561049b57600080fd5b8201836020820111156104ad57600080fd5b803590602001918460018302840111640100000000831117156104cf57600080fd5b91908080601f0160208091040260200160405190810160405280939291908181526020018383808284376000920191909152509295505050903560ff169150610da69050565b61051d610f14565b60408051918252519081900360200190f35b6102696004803603606081101561054557600080fd5b5073ffffffffffffffffffffffffffffffffffffffff813581169160208101359091169060400135610f1a565b6101bb611224565b61058261125b565b6040805160ff9092168252519081900360200190f35b6105a0611264565b6040805173ffffffffffffffffffffffffffffffffffffffff9092168252519081900360200190f35b610269600480360360408110156105df57600080fd5b5073ffffffffffffffffffffffffffffffffffffffff8135169060200135611281565b6102696004803603604081101561061857600080fd5b5073ffffffffffffffffffffffffffffffffffffffff81351690602001356112d8565b6103e16004803603602081101561065157600080fd5b50356113ed565b6102696113fa565b61051d6004803603602081101561067657600080fd5b503573ffffffffffffffffffffffffffffffffffffffff16611497565b6103e16114bf565b6103e1600480360360408110156106b157600080fd5b5073ffffffffffffffffffffffffffffffffffffffff8135169060200135611541565b6105a061154f565b61026961156b565b6101bb611589565b6105a0611608565b6102696004803603604081101561070a57600080fd5b5073ffffffffffffffffffffffffffffffffffffffff8135169060200135611625565b6102696004803603604081101561074357600080fd5b5073ffffffffffffffffffffffffffffffffffffffff813516906020013561166e565b6105a061186f565b6103e16004803603602081101561078457600080fd5b503573ffffffffffffffffffffffffffffffffffffffff1661188c565b61051d600480360360408110156107b757600080fd5b5073ffffffffffffffffffffffffffffffffffffffff81358116916020013516611a16565b6103e1600480360360208110156107f257600080fd5b503573ffffffffffffffffffffffffffffffffffffffff16611a4e565b60668054604080516020601f60027fffffffffffffffffffffffffffffffffffffffffffffffffffffffffffffffff6101006001881615020190951694909404938401819004810282018101909252828152606093909290918301828280156108b95780601f1061088e576101008083540402835291602001916108b9565b820191906000526020600020905b81548152906001019060200180831161089c57829003601f168201915b505050505090505b90565b61010254604080517ffe575a870000000000000000000000000000000000000000000000000000000081523360048201819052915160009373ffffffffffffffffffffffffffffffffffffffff169163fe575a87916024808301926020929190829003018186803b15801561093857600080fd5b505afa15801561094c573d6000803e3d6000fd5b505050506040513d602081101561096257600080fd5b5051156109ba576040517f08c379a000000000000000000000000000000000000000000000000000000000815260040180806020018281038252602881526020018061202f6028913960400191505060405180910390fd5b61010460009054906101000a900473ffffffffffffffffffffffffffffffffffffffff1673ffffffffffffffffffffffffffffffffffffffff16635c975abb6040518163ffffffff1660e01b815260040160206040518083038186803b158015610a2357600080fd5b505afa158015610a37573d6000803e3d6000fd5b505050506040513d6020811015610a4d57600080fd5b505115610abb57604080517f08c379a000000000000000000000000000000000000000000000000000000000815260206004820152601760248201527f5468697320636f6e747261637420697320706175736564000000000000000000604482015290519081900360640190fd5b610ac58484611a6a565b506001949350505050565b600054610100900460ff1680610ae95750610ae9611a77565b80610af7575060005460ff16155b1515610b4e576040517f08c379a000000000000000000000000000000000000000000000000000000000815260040180806020018281038252602e815260200180612057602e913960400191505060405180910390fd5b600054610100900460ff16158015610bb457600080547fffffffffffffffffffffffffffffffffffffffffffffffffffffffffffffff007fffffffffffffffffffffffffffffffffffffffffffffffffffffffffffff00ff909116610100171660011790555b610bbf888888610da6565b610103805473ffffffffffffffffffffffffffffffffffffffff8088167fffffffffffffffffffffffff00000000000000000000000000000000000000009283161790925561010480549286169290911691909117905560408051602080825260229082018190527fadec413d00f72bf512e1c36aa7eb9b13e7a13f77eaf92efb93716aec3f8d36a39282919082019061200d823960400191505060405180910390a161010280547fffffffffffffffffffffffff00000000000000000000000000000000000000001673ffffffffffffffffffffffffffffffffffffffff8616179055604080516020808252601a908201527f416674657220426c61636b204c69737465722073657474696e670000000000008183015290517fadec413d00f72bf512e1c36aa7eb9b13e7a13f77eaf92efb93716aec3f8d36a3916060908290030190a1610d0d8261188c565b604080516020808252601c908201527f4166746572204f776e61626c6520696e697469616c697a6174696f6e000000008183015290517fadec413d00f72bf512e1c36aa7eb9b13e7a13f77eaf92efb93716aec3f8d36a39181900360600190a18015610d9c57600080547fffffffffffffffffffffffffffffffffffffffffffffffffffffffffffff00ff1690555b5050505050505050565b600054610100900460ff1680610dbf5750610dbf611a77565b80610dcd575060005460ff16155b1515610e24576040517f08c379a000000000000000000000000000000000000000000000000000000000815260040180806020018281038252602e815260200180612057602e913960400191505060405180910390fd5b600054610100900460ff16158015610e8a57600080547fffffffffffffffffffffffffffffffffffffffffffffffffffffffffffffff007fffffffffffffffffffffffffffffffffffffffffffffffffffffffffffff00ff909116610100171660011790555b8351610e9d906066906020870190611f74565b508251610eb1906067906020860190611f74565b50606880547fffffffffffffffffffffffffffffffffffffffffffffffffffffffffffffff001660ff84161790558015610f0e57600080547fffffffffffffffffffffffffffffffffffffffffffffffffffffffffffff00ff1690555b50505050565b609d5490565b61010254604080517ffe575a8700000000000000000000000000000000000000000000000000000000815273ffffffffffffffffffffffffffffffffffffffff808716600483015291516000938793169163fe575a87916024808301926020929190829003018186803b158015610f9057600080fd5b505afa158015610fa4573d6000803e3d6000fd5b505050506040513d6020811015610fba57600080fd5b505115611012576040517f08c379a000000000000000000000000000000000000000000000000000000000815260040180806020018281038252602881526020018061202f6028913960400191505060405180910390fd5b61010254604080517ffe575a8700000000000000000000000000000000000000000000000000000000815273ffffffffffffffffffffffffffffffffffffffff808816600483015291518793929092169163fe575a8791602480820192602092909190829003018186803b15801561108957600080fd5b505afa15801561109d573d6000803e3d6000fd5b505050506040513d60208110156110b357600080fd5b50511561110b576040517f08c379a000000000000000000000000000000000000000000000000000000000815260040180806020018281038252602881526020018061202f6028913960400191505060405180910390fd5b61010460009054906101000a900473ffffffffffffffffffffffffffffffffffffffff1673ffffffffffffffffffffffffffffffffffffffff16635c975abb6040518163ffffffff1660e01b815260040160206040518083038186803b15801561117457600080fd5b505afa158015611188573d6000803e3d6000fd5b505050506040513d602081101561119e57600080fd5b50511561120c57604080517f08c379a000000000000000000000000000000000000000000000000000000000815260206004820152601760248201527f5468697320636f6e747261637420697320706175736564000000000000000000604482015290519081900360640190fd5b611217868686611a7d565b5060019695505050505050565b60408051808201909152601081527f686f6c61206d756e646f2066656c697a00000000000000000000000000000000602082015290565b60685460ff1690565b6101035473ffffffffffffffffffffffffffffffffffffffff1681565b336000818152609c6020908152604080832073ffffffffffffffffffffffffffffffffffffffff8716845290915281205490916112cf9185906112ca908663ffffffff611adc16565b611af5565b50600192915050565b61010354604080517faa271e1a000000000000000000000000000000000000000000000000000000008152336004820152905160009273ffffffffffffffffffffffffffffffffffffffff169163aa271e1a916024808301926020929190829003018186803b15801561134a57600080fd5b505afa15801561135e573d6000803e3d6000fd5b505050506040513d602081101561137457600080fd5b505115156113e357604080517f08c379a000000000000000000000000000000000000000000000000000000000815260206004820152601f60248201527f4f6e6c79204d696e746572206163636f756e74732063616e206d696e74282900604482015290519081900360640190fd5b6112cf8383611ba8565b6113f73382611c7b565b50565b61010454604080517f5c975abb000000000000000000000000000000000000000000000000000000008152905160009273ffffffffffffffffffffffffffffffffffffffff1691635c975abb916004808301926020929190829003018186803b15801561146657600080fd5b505afa15801561147a573d6000803e3d6000fd5b505050506040513d602081101561149057600080fd5b5051905090565b73ffffffffffffffffffffffffffffffffffffffff166000908152609b602052604090205490565b6114c761156b565b15156114d257600080fd5b60335460405160009173ffffffffffffffffffffffffffffffffffffffff16907f8be0079c531659141344cd1fd0a4f28419497f9722a3daafe3b4186f6b6457e0908390a3603380547fffffffffffffffffffffffff0000000000000000000000000000000000000000169055565b61154b8282611d4d565b5050565b60335473ffffffffffffffffffffffffffffffffffffffff1690565b60335473ffffffffffffffffffffffffffffffffffffffff16331490565b60678054604080516020601f60027fffffffffffffffffffffffffffffffffffffffffffffffffffffffffffffffff6101006001881615020190951694909404938401819004810282018101909252828152606093909290918301828280156108b95780601f1061088e576101008083540402835291602001916108b9565b6101045473ffffffffffffffffffffffffffffffffffffffff1681565b336000818152609c6020908152604080832073ffffffffffffffffffffffffffffffffffffffff8716845290915281205490916112cf9185906112ca908663ffffffff611d9f16565b61010254604080517ffe575a870000000000000000000000000000000000000000000000000000000081523360048201819052915160009373ffffffffffffffffffffffffffffffffffffffff169163fe575a87916024808301926020929190829003018186803b1580156116e257600080fd5b505afa1580156116f6573d6000803e3d6000fd5b505050506040513d602081101561170c57600080fd5b505115611764576040517f08c379a000000000000000000000000000000000000000000000000000000000815260040180806020018281038252602881526020018061202f6028913960400191505060405180910390fd5b61010460009054906101000a900473ffffffffffffffffffffffffffffffffffffffff1673ffffffffffffffffffffffffffffffffffffffff16635c975abb6040518163ffffffff1660e01b815260040160206040518083038186803b1580156117cd57600080fd5b505afa1580156117e1573d6000803e3d6000fd5b505050506040513d60208110156117f757600080fd5b50511561186557604080517f08c379a000000000000000000000000000000000000000000000000000000000815260206004820152601760248201527f5468697320636f6e747261637420697320706175736564000000000000000000604482015290519081900360640190fd5b610ac58484611db4565b6101025473ffffffffffffffffffffffffffffffffffffffff1681565b600054610100900460ff16806118a557506118a5611a77565b806118b3575060005460ff16155b151561190a576040517f08c379a000000000000000000000000000000000000000000000000000000000815260040180806020018281038252602e815260200180612057602e913960400191505060405180910390fd5b600054610100900460ff1615801561197057600080547fffffffffffffffffffffffffffffffffffffffffffffffffffffffffffffff007fffffffffffffffffffffffffffffffffffffffffffffffffffffffffffff00ff909116610100171660011790555b603380547fffffffffffffffffffffffff00000000000000000000000000000000000000001673ffffffffffffffffffffffffffffffffffffffff84811691909117918290556040519116906000907f8be0079c531659141344cd1fd0a4f28419497f9722a3daafe3b4186f6b6457e0908290a3801561154b57600080547fffffffffffffffffffffffffffffffffffffffffffffffffffffffffffff00ff1690555050565b73ffffffffffffffffffffffffffffffffffffffff9182166000908152609c6020908152604080832093909416825291909152205490565b611a5661156b565b1515611a6157600080fd5b6113f781611dc1565b60006112cf338484611af5565b303b1590565b6000611a8a848484611e71565b73ffffffffffffffffffffffffffffffffffffffff84166000908152609c6020908152604080832033808552925290912054611ad29186916112ca908663ffffffff611d9f16565b5060019392505050565b600082820183811015611aee57600080fd5b9392505050565b73ffffffffffffffffffffffffffffffffffffffff82161515611b1757600080fd5b73ffffffffffffffffffffffffffffffffffffffff83161515611b3957600080fd5b73ffffffffffffffffffffffffffffffffffffffff8084166000818152609c6020908152604080832094871680845294825291829020859055815185815291517f8c5be1e5ebec7d5bd14f71427d1e84f3dd0314c0f7b2291e5b200ac8c7c3b9259281900390910190a3505050565b73ffffffffffffffffffffffffffffffffffffffff82161515611bca57600080fd5b609d54611bdd908263ffffffff611adc16565b609d5573ffffffffffffffffffffffffffffffffffffffff82166000908152609b6020526040902054611c16908263ffffffff611adc16565b73ffffffffffffffffffffffffffffffffffffffff83166000818152609b602090815260408083209490945583518581529351929391927fddf252ad1be2c89b69c2b068fc378daa952ba7f163c4a11628f55a4df523b3ef9281900390910190a35050565b73ffffffffffffffffffffffffffffffffffffffff82161515611c9d57600080fd5b609d54611cb0908263ffffffff611d9f16565b609d5573ffffffffffffffffffffffffffffffffffffffff82166000908152609b6020526040902054611ce9908263ffffffff611d9f16565b73ffffffffffffffffffffffffffffffffffffffff83166000818152609b60209081526040808320949094558351858152935191937fddf252ad1be2c89b69c2b068fc378daa952ba7f163c4a11628f55a4df523b3ef929081900390910190a35050565b611d578282611c7b565b73ffffffffffffffffffffffffffffffffffffffff82166000908152609c602090815260408083203380855292529091205461154b9184916112ca908563ffffffff611d9f16565b600082821115611dae57600080fd5b50900390565b60006112cf338484611e71565b73ffffffffffffffffffffffffffffffffffffffff81161515611de357600080fd5b60335460405173ffffffffffffffffffffffffffffffffffffffff8084169216907f8be0079c531659141344cd1fd0a4f28419497f9722a3daafe3b4186f6b6457e090600090a3603380547fffffffffffffffffffffffff00000000000000000000000000000000000000001673ffffffffffffffffffffffffffffffffffffffff92909216919091179055565b73ffffffffffffffffffffffffffffffffffffffff82161515611e9357600080fd5b73ffffffffffffffffffffffffffffffffffffffff83166000908152609b6020526040902054611ec9908263ffffffff611d9f16565b73ffffffffffffffffffffffffffffffffffffffff8085166000908152609b60205260408082209390935590841681522054611f0b908263ffffffff611adc16565b73ffffffffffffffffffffffffffffffffffffffff8084166000818152609b602090815260409182902094909455805185815290519193928716927fddf252ad1be2c89b69c2b068fc378daa952ba7f163c4a11628f55a4df523b3ef92918290030190a3505050565b828054600181600116156101000203166002900490600052602060002090601f016020900481019282601f10611fb557805160ff1916838001178555611fe2565b82800160010185558215611fe2579182015b82811115611fe2578251825591602001919060010190611fc7565b50611fee929150611ff2565b5090565b6108c191905b80821115611fee5760008155600101611ff856fe4166746572204d6173746572204d696e74657220696e697469616c697a6174696f6e74686973206163636f756e74206973206d61726b656420696e206f757220626c61632d6b6c697374436f6e747261637420696e7374616e63652068617320616c7265616479206265656e20696e697469616c697a6564a165627a7a72305820242fa671334d331fe15264c43030e2cde9067c5380f74d34a577b8f3a8ceabdb0029",
  "compiler": {
    "name": "solc",
    "version": "0.5.2+commit.1df8f40c.Emscripten.clang",
    "optimizer": {
      "enabled": true,
      "runs": 1000000000
    },
    "evmVersion": "constantinople"
  }
}