{
  "fileName": "FiatToken.sol",
  "contractName": "FiatToken",
  "source": "pragma solidity ^0.5.2;\n\nimport \"@openzeppelin/contracts-ethereum-package/contracts/token/ERC20/ERC20Detailed.sol\";\nimport \"@openzeppelin/contracts-ethereum-package/contracts/token/ERC20/ERC20.sol\";\nimport \"@openzeppelin/contracts-ethereum-package/contracts/ownership/Ownable.sol\";\nimport '@openzeppelin/contracts-ethereum-package/contracts/math/SafeMath.sol';\nimport \"@openzeppelin/upgrades/contracts/Initializable.sol\";\nimport \"./MasterMinter.sol\";\nimport \"./Blacklistable.sol\";\nimport \"./Pausable.sol\";\n\n\n\n/**\n* @title FiatToken contract\n* @dev This sontact was meant to work as a stable coin with upgradeability support.\n*/\ncontract FiatToken is Ownable, ERC20Detailed, ERC20, Pausable {\n\tusing SafeMath for uint256;\n\n\tBlacklistable public blacklister;\n\tMasterMinter public masterMinter;\n\n\t/* To keep previous storage layaut */\n\tuint256[2] private gap_ex_tos_struct;\n\n\tbytes32 private toSDocument;\n\tmapping (address => uint256) private _mintersReserve;\n\n\t/**\n\t* @dev this function is needed by support uppgradeability\n\t* @param name : string. The name of this token ERC20.\n\t* @param symbol : string. ERC20 token symbol .\n\t* @param decimals : uint8. Decimals fractions that may have a token unit.\n\t* @param _masterMinter : MasterMinter.\n\t* @param _blacklister : Blacklistable.\n\t* @param _pauserRole : address.\n\t* @param owner : address.\n\t*/\n\tfunction initialize(string memory name,\n\t\tstring memory symbol,\n\t\tuint8 decimals,\n\t\tMasterMinter _masterMinter,\n\t\tBlacklistable _blacklister,\n\t\taddress _pauserRole,\n\t\taddress owner) public initializer  {\n\t\tERC20Detailed.initialize(name,symbol,decimals);\n \t\tmasterMinter = _masterMinter;\n\t\temit InitializationLog(\"After Master Minter Module setting\");\n\t\tPausable.initialize(_pauserRole);\n\t\temit InitializationLog(\"After Initialize Pausable\");\n\t\tblacklister = _blacklister;\n\t\temit InitializationLog(\"After Black Lister setting\");\n\t\tOwnable.initialize(owner);\n\t\temit InitializationLog(\"After Ownable initialization\");\n\n\t}\n\n\n\t/**\n\t* @dev Just to be sure at all\n\t*/\n\tfunction () external payable {\n\t\trevert(\"This contract can not handle Ether\");\n\t}\n\n    /**\n     * @dev Function to mint tokens\n     * @param to The address that will receive the minted tokens.\n     * @param value The amount of tokens to mint.\n     * @return A boolean that indicates if the operation was successful.\n     */\n    function mint(address to, uint256 value) public onlyMinter returns (bool) {\n        _mint(to, value);\n\t\tbool mintedReturn = _increaseReserve(msg.sender, value);\n\t\tif( ! mintedReturn){\n\t\t\trevert(\"Minter Reserve can't be updated\");\n\t\t}\n\t\treturn true;\n    }\n\n\t/**\n\t* @dev burnFrom is allowed only for a minter.\n\t* @param to : address\n\t* @param value : uint256\n\t*/\n\tfunction burnFrom(address to, uint256 value) public onlyMinter {\n\t\trequire(balanceOf(to)>=value, \"User Account does not have enough funds\");\n\t\t_burn(to, value);\n\t\tbool burnedReturn = _decreaseReserve(msg.sender,value);\n\t\tif( !  burnedReturn){\n\t\t\trevert(\"Minter Reserve can't be updated\");\n\t\t}\n\t}\n\n\n\tmodifier onlyMinter() {\n        require(masterMinter.isMinter(msg.sender),\"Only Minter accounts can do that\");\n        _;\n    }\n\n\n\n\n\n\t/**\n\t* @dev overriding ERC20.transfer with modifier whenNotPaused\n\t* @param to The address to transfer to.\n\t* @param value The amount to be transferred.\n\t*/\n\tfunction transfer(address to, uint256 value) public notBlacklisted(msg.sender) whenNotPaused returns(bool) {\n\t\tERC20.transfer(to, value);\n\t\treturn true;\n\t}\n\n\tfunction approve(address spender, uint256 value) public\n\tnotBlacklisted(msg.sender)\n\twhenNotPaused returns (bool){\n\t\tERC20.approve(spender, value);\n\t\treturn true;\n\t}\n\n    function transferFrom(address from, address to, uint256 value) public\n\tnotBlacklisted(from)  notBlacklisted(to) whenNotPaused\n\treturns (bool){\n\t\tERC20.transferFrom(from,to,value);\n\t\treturn true;\n\t}\n\n\t/**\n     * @dev Throws if argument account is blacklisted\n     * @param _account The address to check\n    */\n    modifier notBlacklisted(address _account) {\n        require(!blacklister.isBlacklisted(_account),\n        \"this account is marked in our blac-klist\");\n        _;\n    }\n\n\n\tfunction setToSDocument( bytes32 _hash ) public onlyOwner {\n\t\ttoSDocument = _hash;\n\t\temit ToSChanged(_hash);\n\t}\n\n\tfunction setToSDocument() public view returns(bytes32){\n\t\treturn toSDocument;\n\t}\n\n\tevent InitializationLog(\n        string message\n    );\n\n\tevent ToSChanged(\n        bytes32 hash\n    );\n\n\n\n\tfunction _increaseReserve(address minter, uint256 amount) internal returns (bool) {\n\t\t_mintersReserve[minter] = _mintersReserve[minter].add(amount);\n\t\temit MinterReserveUpdate(minter,amount,true);\n\t\treturn true;\n\t}\n\n\tfunction _decreaseReserve(address minter, uint256 value) internal returns (bool) {\n\t\trequire(value<=_mintersReserve[minter], \"Value to reduce from minter reserve is upper than his reserve\");\n\t\t_mintersReserve[minter] = _mintersReserve[minter].sub(value);\n\t\temit MinterReserveUpdate(minter,value,false);\n\t\treturn true;\n\t}\n\n\tfunction minterReserve(address minter) public view returns(uint256){\n\t\trequire(masterMinter.isMinter(minter), \"Account entered is not a minter\");\n\t\treturn _mintersReserve[minter];\n\t}\n\n    /**\n     * @dev Throws if called by any account other than the masterMinter\n    */\n    modifier onlyMasterMinter() {\n        require(msg.sender == masterMinter.getMasterMinter(), \"masterMinter address needed\");\n        _;\n    }\n\n\tfunction transferReserve(address from,address to, uint256 amount) public onlyMasterMinter returns (bool) {\n\t\trequire(masterMinter.isMinter(to), \"Account entered is not a minter\");\n\t\trequire(minterReserve(from)>=amount, \"Reserve of minter is lower than amount to transfer\");\n\t\treturn _increaseReserve(to,amount) && _decreaseReserve(from,amount);\n\t}\n\n\tfunction getMasterMinterModuleAddress() public view returns (address) {\n\t\treturn address(masterMinter);\n\t}\n\n\tfunction getBlacklistModuleAddress() public view returns (address) {\n\t\treturn address(blacklister);\n\t}\n\n\tfunction setMasterMinterModule(MasterMinter _masterMinter) public onlyOwner {\n\t\tmasterMinter = _masterMinter;\n\t\temit InitializationLog(\"After Master Minter Module setting\");\n\t}\n\n\tfunction setBlackListModule(Blacklistable _blacklister) public onlyOwner  {\n\t\tblacklister = _blacklister;\n\t\temit InitializationLog(\"After Black Lister setting\");\n\t}\n\n\n\n\tevent MinterReserveUpdate(\n\t\taddress minter,\n\t\tuint256 value,\n\t\tbool increase\n\t);\n\n\t// Reserved storage space to allow for layout changes in the future.\n\tuint256[50] ______gap;\n\n}",
  "sourcePath": "contracts/FiatToken.sol",
  "abi": [
    {
      "constant": true,
      "inputs": [],
      "name": "getMasterMinterModuleAddress",
      "outputs": [
        {
          "name": "",
          "type": "address"
        }
      ],
      "payable": false,
      "stateMutability": "view",
      "type": "function"
    },
    {
      "constant": true,
      "inputs": [],
      "name": "name",
      "outputs": [
        {
          "name": "",
          "type": "string"
        }
      ],
      "payable": false,
      "stateMutability": "view",
      "type": "function"
    },
    {
      "constant": false,
      "inputs": [
        {
          "name": "spender",
          "type": "address"
        },
        {
          "name": "value",
          "type": "uint256"
        }
      ],
      "name": "approve",
      "outputs": [
        {
          "name": "",
          "type": "bool"
        }
      ],
      "payable": false,
      "stateMutability": "nonpayable",
      "type": "function"
    },
    {
      "constant": false,
      "inputs": [
        {
          "name": "name",
          "type": "string"
        },
        {
          "name": "symbol",
          "type": "string"
        },
        {
          "name": "decimals",
          "type": "uint8"
        },
        {
          "name": "_masterMinter",
          "type": "address"
        },
        {
          "name": "_blacklister",
          "type": "address"
        },
        {
          "name": "_pauserRole",
          "type": "address"
        },
        {
          "name": "owner",
          "type": "address"
        }
      ],
      "name": "initialize",
      "outputs": [],
      "payable": false,
      "stateMutability": "nonpayable",
      "type": "function"
    },
    {
      "constant": false,
      "inputs": [
        {
          "name": "name",
          "type": "string"
        },
        {
          "name": "symbol",
          "type": "string"
        },
        {
          "name": "decimals",
          "type": "uint8"
        }
      ],
      "name": "initialize",
      "outputs": [],
      "payable": false,
      "stateMutability": "nonpayable",
      "type": "function"
    },
    {
      "constant": true,
      "inputs": [],
      "name": "totalSupply",
      "outputs": [
        {
          "name": "",
          "type": "uint256"
        }
      ],
      "payable": false,
      "stateMutability": "view",
      "type": "function"
    },
    {
      "constant": false,
      "inputs": [
        {
          "name": "from",
          "type": "address"
        },
        {
          "name": "to",
          "type": "address"
        },
        {
          "name": "value",
          "type": "uint256"
        }
      ],
      "name": "transferFrom",
      "outputs": [
        {
          "name": "",
          "type": "bool"
        }
      ],
      "payable": false,
      "stateMutability": "nonpayable",
      "type": "function"
    },
    {
      "constant": false,
      "inputs": [
        {
          "name": "_pauserRole",
          "type": "address"
        }
      ],
      "name": "changePauser",
      "outputs": [],
      "payable": false,
      "stateMutability": "nonpayable",
      "type": "function"
    },
    {
      "constant": true,
      "inputs": [],
      "name": "decimals",
      "outputs": [
        {
          "name": "",
          "type": "uint8"
        }
      ],
      "payable": false,
      "stateMutability": "view",
      "type": "function"
    },
    {
      "constant": true,
      "inputs": [],
      "name": "masterMinter",
      "outputs": [
        {
          "name": "",
          "type": "address"
        }
      ],
      "payable": false,
      "stateMutability": "view",
      "type": "function"
    },
    {
      "constant": false,
      "inputs": [
        {
          "name": "spender",
          "type": "address"
        },
        {
          "name": "addedValue",
          "type": "uint256"
        }
      ],
      "name": "increaseAllowance",
      "outputs": [
        {
          "name": "",
          "type": "bool"
        }
      ],
      "payable": false,
      "stateMutability": "nonpayable",
      "type": "function"
    },
    {
      "constant": false,
      "inputs": [],
      "name": "unpause",
      "outputs": [],
      "payable": false,
      "stateMutability": "nonpayable",
      "type": "function"
    },
    {
      "constant": false,
      "inputs": [
        {
          "name": "to",
          "type": "address"
        },
        {
          "name": "value",
          "type": "uint256"
        }
      ],
      "name": "mint",
      "outputs": [
        {
          "name": "",
          "type": "bool"
        }
      ],
      "payable": false,
      "stateMutability": "nonpayable",
      "type": "function"
    },
    {
      "constant": true,
      "inputs": [
        {
          "name": "anAddress",
          "type": "address"
        }
      ],
      "name": "isPauser",
      "outputs": [
        {
          "name": "",
          "type": "bool"
        }
      ],
      "payable": false,
      "stateMutability": "view",
      "type": "function"
    },
    {
      "constant": false,
      "inputs": [
        {
          "name": "_blacklister",
          "type": "address"
        }
      ],
      "name": "setBlackListModule",
      "outputs": [],
      "payable": false,
      "stateMutability": "nonpayable",
      "type": "function"
    },
    {
      "constant": true,
      "inputs": [],
      "name": "getBlacklistModuleAddress",
      "outputs": [
        {
          "name": "",
          "type": "address"
        }
      ],
      "payable": false,
      "stateMutability": "view",
      "type": "function"
    },
    {
      "constant": true,
      "inputs": [
        {
          "name": "owner",
          "type": "address"
        }
      ],
      "name": "balanceOf",
      "outputs": [
        {
          "name": "",
          "type": "uint256"
        }
      ],
      "payable": false,
      "stateMutability": "view",
      "type": "function"
    },
    {
      "constant": false,
      "inputs": [],
      "name": "renounceOwnership",
      "outputs": [],
      "payable": false,
      "stateMutability": "nonpayable",
      "type": "function"
    },
    {
      "constant": false,
      "inputs": [
        {
          "name": "from",
          "type": "address"
        },
        {
          "name": "to",
          "type": "address"
        },
        {
          "name": "amount",
          "type": "uint256"
        }
      ],
      "name": "transferReserve",
      "outputs": [
        {
          "name": "",
          "type": "bool"
        }
      ],
      "payable": false,
      "stateMutability": "nonpayable",
      "type": "function"
    },
    {
      "constant": false,
      "inputs": [
        {
          "name": "to",
          "type": "address"
        },
        {
          "name": "value",
          "type": "uint256"
        }
      ],
      "name": "burnFrom",
      "outputs": [],
      "payable": false,
      "stateMutability": "nonpayable",
      "type": "function"
    },
    {
      "constant": false,
      "inputs": [
        {
          "name": "_hash",
          "type": "bytes32"
        }
      ],
      "name": "setToSDocument",
      "outputs": [],
      "payable": false,
      "stateMutability": "nonpayable",
      "type": "function"
    },
    {
      "constant": false,
      "inputs": [],
      "name": "pause",
      "outputs": [],
      "payable": false,
      "stateMutability": "nonpayable",
      "type": "function"
    },
    {
      "constant": true,
      "inputs": [],
      "name": "owner",
      "outputs": [
        {
          "name": "",
          "type": "address"
        }
      ],
      "payable": false,
      "stateMutability": "view",
      "type": "function"
    },
    {
      "constant": true,
      "inputs": [],
      "name": "isOwner",
      "outputs": [
        {
          "name": "",
          "type": "bool"
        }
      ],
      "payable": false,
      "stateMutability": "view",
      "type": "function"
    },
    {
      "constant": false,
      "inputs": [
        {
          "name": "_masterMinter",
          "type": "address"
        }
      ],
      "name": "setMasterMinterModule",
      "outputs": [],
      "payable": false,
      "stateMutability": "nonpayable",
      "type": "function"
    },
    {
      "constant": true,
      "inputs": [],
      "name": "symbol",
      "outputs": [
        {
          "name": "",
          "type": "string"
        }
      ],
      "payable": false,
      "stateMutability": "view",
      "type": "function"
    },
    {
      "constant": false,
      "inputs": [
        {
          "name": "spender",
          "type": "address"
        },
        {
          "name": "subtractedValue",
          "type": "uint256"
        }
      ],
      "name": "decreaseAllowance",
      "outputs": [
        {
          "name": "",
          "type": "bool"
        }
      ],
      "payable": false,
      "stateMutability": "nonpayable",
      "type": "function"
    },
    {
      "constant": false,
      "inputs": [
        {
          "name": "to",
          "type": "address"
        },
        {
          "name": "value",
          "type": "uint256"
        }
      ],
      "name": "transfer",
      "outputs": [
        {
          "name": "",
          "type": "bool"
        }
      ],
      "payable": false,
      "stateMutability": "nonpayable",
      "type": "function"
    },
    {
      "constant": true,
      "inputs": [],
      "name": "setToSDocument",
      "outputs": [
        {
          "name": "",
          "type": "bytes32"
        }
      ],
      "payable": false,
      "stateMutability": "view",
      "type": "function"
    },
    {
      "constant": true,
      "inputs": [],
      "name": "isPaused",
      "outputs": [
        {
          "name": "",
          "type": "bool"
        }
      ],
      "payable": false,
      "stateMutability": "view",
      "type": "function"
    },
    {
      "constant": true,
      "inputs": [],
      "name": "getPauserRoleAddress",
      "outputs": [
        {
          "name": "",
          "type": "address"
        }
      ],
      "payable": false,
      "stateMutability": "view",
      "type": "function"
    },
    {
      "constant": true,
      "inputs": [],
      "name": "blacklister",
      "outputs": [
        {
          "name": "",
          "type": "address"
        }
      ],
      "payable": false,
      "stateMutability": "view",
      "type": "function"
    },
    {
      "constant": true,
      "inputs": [
        {
          "name": "minter",
          "type": "address"
        }
      ],
      "name": "minterReserve",
      "outputs": [
        {
          "name": "",
          "type": "uint256"
        }
      ],
      "payable": false,
      "stateMutability": "view",
      "type": "function"
    },
    {
      "constant": false,
      "inputs": [
        {
          "name": "_pauserRole",
          "type": "address"
        }
      ],
      "name": "initialize",
      "outputs": [],
      "payable": false,
      "stateMutability": "nonpayable",
      "type": "function"
    },
    {
      "constant": true,
      "inputs": [
        {
          "name": "owner",
          "type": "address"
        },
        {
          "name": "spender",
          "type": "address"
        }
      ],
      "name": "allowance",
      "outputs": [
        {
          "name": "",
          "type": "uint256"
        }
      ],
      "payable": false,
      "stateMutability": "view",
      "type": "function"
    },
    {
      "constant": false,
      "inputs": [
        {
          "name": "newOwner",
          "type": "address"
        }
      ],
      "name": "transferOwnership",
      "outputs": [],
      "payable": false,
      "stateMutability": "nonpayable",
      "type": "function"
    },
    {
      "payable": true,
      "stateMutability": "payable",
      "type": "fallback"
    },
    {
      "anonymous": false,
      "inputs": [
        {
          "indexed": false,
          "name": "message",
          "type": "string"
        }
      ],
      "name": "InitializationLog",
      "type": "event"
    },
    {
      "anonymous": false,
      "inputs": [
        {
          "indexed": false,
          "name": "hash",
          "type": "bytes32"
        }
      ],
      "name": "ToSChanged",
      "type": "event"
    },
    {
      "anonymous": false,
      "inputs": [
        {
          "indexed": false,
          "name": "minter",
          "type": "address"
        },
        {
          "indexed": false,
          "name": "value",
          "type": "uint256"
        },
        {
          "indexed": false,
          "name": "increase",
          "type": "bool"
        }
      ],
      "name": "MinterReserveUpdate",
      "type": "event"
    },
    {
      "anonymous": false,
      "inputs": [
        {
          "indexed": true,
          "name": "pauser",
          "type": "address"
        }
      ],
      "name": "PauserChanged",
      "type": "event"
    },
    {
      "anonymous": false,
      "inputs": [
        {
          "indexed": true,
          "name": "previousOwner",
          "type": "address"
        },
        {
          "indexed": true,
          "name": "newOwner",
          "type": "address"
        }
      ],
      "name": "OwnershipTransferred",
      "type": "event"
    },
    {
      "anonymous": false,
      "inputs": [
        {
          "indexed": true,
          "name": "from",
          "type": "address"
        },
        {
          "indexed": true,
          "name": "to",
          "type": "address"
        },
        {
          "indexed": false,
          "name": "value",
          "type": "uint256"
        }
      ],
      "name": "Transfer",
      "type": "event"
    },
    {
      "anonymous": false,
      "inputs": [
        {
          "indexed": true,
          "name": "owner",
          "type": "address"
        },
        {
          "indexed": true,
          "name": "spender",
          "type": "address"
        },
        {
          "indexed": false,
          "name": "value",
          "type": "uint256"
        }
      ],
      "name": "Approval",
      "type": "event"
    }
  ],
  "bytecode": "0x608060405234801561001057600080fd5b50613242806100206000396000f3fe60806040526004361061024f5760003560e01c8063770d782d11610138578063a9059cbb116100b0578063bd1024301161007f578063c4d66de811610064578063c4d66de814610b6a578063dd62ed3e14610baa578063f2fde38b14610bf25761024f565b8063bd10243014610b15578063c3ea752714610b2a5761024f565b8063a9059cbb14610a90578063a9fb12de14610ad6578063b187bd2614610aeb578063b26149db14610b005761024f565b80638da5cb5b116101075780638f99441c116100ec5780638f99441c146109f557806395d89b4114610a35578063a457c2d714610a4a5761024f565b80638da5cb5b146109cb5780638f32d59b146109e05761024f565b8063770d782d146108f657806379cc67901461094657806383d3db851461098c5780638456cb59146109b65761024f565b806335d99f35116101cb57806346fbf68e1161019a57806369f1c7db1161017f57806369f1c7db1461088c57806370a08231146108a1578063715018a6146108e15761024f565b806346fbf68e1461080c5780634d0414581461084c5761024f565b806335d99f3514610756578063395093511461076b5780633f4ba83a146107b157806340c10f19146107c65761024f565b80631624f6c61161022257806323b872dd1161020757806323b872dd1461069b5780632cd271e7146106eb578063313ce5671461072b5761024f565b80631624f6c61461053557806318160ddd146106745761024f565b806306c66adb146102a057806306fdde03146102de578063095ea7b314610368578063147936ba146103c2575b6040517f08c379a000000000000000000000000000000000000000000000000000000000815260040180806020018281038252602281526020018061314e6022913960400191505060405180910390fd5b3480156102ac57600080fd5b506102b5610c32565b6040805173ffffffffffffffffffffffffffffffffffffffff9092168252519081900360200190f35b3480156102ea57600080fd5b506102f3610c4f565b6040805160208082528351818301528351919283929083019185019080838360005b8381101561032d578181015183820152602001610315565b50505050905090810190601f16801561035a5780820380516001836020036101000a031916815260200191505b509250505060405180910390f35b34801561037457600080fd5b506103ae6004803603604081101561038b57600080fd5b5073ffffffffffffffffffffffffffffffffffffffff8135169060200135610d03565b604080519115158252519081900360200190f35b3480156103ce57600080fd5b50610533600480360360e08110156103e557600080fd5b81019060208101813564010000000081111561040057600080fd5b82018360208201111561041257600080fd5b8035906020019184600183028401116401000000008311171561043457600080fd5b91908080601f016020809104026020016040519081016040528093929190818152602001838380828437600092019190915250929594936020810193503591505064010000000081111561048757600080fd5b82018360208201111561049957600080fd5b803590602001918460018302840111640100000000831117156104bb57600080fd5b91908080601f0160208091040260200160405190810160405280939291908181526020018383808284376000920191909152509295505050813560ff16925050602081013573ffffffffffffffffffffffffffffffffffffffff90811691604081013582169160608201358116916080013516610e97565b005b34801561054157600080fd5b506105336004803603606081101561055857600080fd5b81019060208101813564010000000081111561057357600080fd5b82018360208201111561058557600080fd5b803590602001918460018302840111640100000000831117156105a757600080fd5b91908080601f01602080910402602001604051908101604052809392919081815260200183838082843760009201919091525092959493602081019350359150506401000000008111156105fa57600080fd5b82018360208201111561060c57600080fd5b8035906020019184600183028401116401000000008311171561062e57600080fd5b91908080601f0160208091040260200160405190810160405280939291908181526020018383808284376000920191909152509295505050903560ff1691506111be9050565b34801561068057600080fd5b5061068961132c565b60408051918252519081900360200190f35b3480156106a757600080fd5b506103ae600480360360608110156106be57600080fd5b5073ffffffffffffffffffffffffffffffffffffffff813581169160208101359091169060400135611332565b3480156106f757600080fd5b506105336004803603602081101561070e57600080fd5b503573ffffffffffffffffffffffffffffffffffffffff166115c3565b34801561073757600080fd5b5061074061164b565b6040805160ff9092168252519081900360200190f35b34801561076257600080fd5b506102b5611654565b34801561077757600080fd5b506103ae6004803603604081101561078e57600080fd5b5073ffffffffffffffffffffffffffffffffffffffff8135169060200135611670565b3480156107bd57600080fd5b506105336116c7565b3480156107d257600080fd5b506103ae600480360360408110156107e957600080fd5b5073ffffffffffffffffffffffffffffffffffffffff81351690602001356117ec565b34801561081857600080fd5b506103ae6004803603602081101561082f57600080fd5b503573ffffffffffffffffffffffffffffffffffffffff16611986565b34801561085857600080fd5b506105336004803603602081101561086f57600080fd5b503573ffffffffffffffffffffffffffffffffffffffff166119a7565b34801561089857600080fd5b506102b5611a5e565b3480156108ad57600080fd5b50610689600480360360208110156108c457600080fd5b503573ffffffffffffffffffffffffffffffffffffffff16611a7a565b3480156108ed57600080fd5b50610533611aa2565b34801561090257600080fd5b506103ae6004803603606081101561091957600080fd5b5073ffffffffffffffffffffffffffffffffffffffff813581169160208101359091169060400135611b24565b34801561095257600080fd5b506105336004803603604081101561096957600080fd5b5073ffffffffffffffffffffffffffffffffffffffff8135169060200135611dce565b34801561099857600080fd5b50610533600480360360208110156109af57600080fd5b5035611fc4565b3480156109c257600080fd5b50610533612012565b3480156109d757600080fd5b506102b561214d565b3480156109ec57600080fd5b506103ae612169565b348015610a0157600080fd5b5061053360048036036020811015610a1857600080fd5b503573ffffffffffffffffffffffffffffffffffffffff16612187565b348015610a4157600080fd5b506102f3612229565b348015610a5657600080fd5b506103ae60048036036040811015610a6d57600080fd5b5073ffffffffffffffffffffffffffffffffffffffff81351690602001356122a8565b348015610a9c57600080fd5b506103ae60048036036040811015610ab357600080fd5b5073ffffffffffffffffffffffffffffffffffffffff81351690602001356122f1565b348015610ae257600080fd5b5061068961247a565b348015610af757600080fd5b506103ae612480565b348015610b0c57600080fd5b506102b56124a1565b348015610b2157600080fd5b506102b56124bd565b348015610b3657600080fd5b5061068960048036036020811015610b4d57600080fd5b503573ffffffffffffffffffffffffffffffffffffffff166124d9565b348015610b7657600080fd5b5061053360048036036020811015610b8d57600080fd5b503573ffffffffffffffffffffffffffffffffffffffff16612612565b348015610bb657600080fd5b5061068960048036036040811015610bcd57600080fd5b5073ffffffffffffffffffffffffffffffffffffffff813581169160200135166127c3565b348015610bfe57600080fd5b5061053360048036036020811015610c1557600080fd5b503573ffffffffffffffffffffffffffffffffffffffff166127fb565b60d25473ffffffffffffffffffffffffffffffffffffffff165b90565b60668054604080516020601f60027fffffffffffffffffffffffffffffffffffffffffffffffffffffffffffffffff610100600188161502019095169490940493840181900481028201810190925282815260609390929091830182828015610cf95780601f10610cce57610100808354040283529160200191610cf9565b820191906000526020600020905b815481529060010190602001808311610cdc57829003601f168201915b5050505050905090565b60d154604080517ffe575a870000000000000000000000000000000000000000000000000000000081523360048201819052915160009373ffffffffffffffffffffffffffffffffffffffff169163fe575a87916024808301926020929190829003018186803b158015610d7657600080fd5b505afa158015610d8a573d6000803e3d6000fd5b505050506040513d6020811015610da057600080fd5b505115610df8576040517f08c379a00000000000000000000000000000000000000000000000000000000081526004018080602001828103825260288152602001806130e96028913960400191505060405180910390fd5b60d05474010000000000000000000000000000000000000000900460ff1615610e8257604080517f08c379a000000000000000000000000000000000000000000000000000000000815260206004820152601760248201527f5468697320636f6e747261637420697320706175736564000000000000000000604482015290519081900360640190fd5b610e8c848461281a565b506001949350505050565b600054610100900460ff1680610eb05750610eb0612827565b80610ebe575060005460ff16155b1515610f15576040517f08c379a000000000000000000000000000000000000000000000000000000000815260040180806020018281038252602e815260200180613170602e913960400191505060405180910390fd5b600054610100900460ff16158015610f7b57600080547fffffffffffffffffffffffffffffffffffffffffffffffffffffffffffffff007fffffffffffffffffffffffffffffffffffffffffffffffffffffffffffff00ff909116610100171660011790555b610f868888886111be565b60d280547fffffffffffffffffffffffff00000000000000000000000000000000000000001673ffffffffffffffffffffffffffffffffffffffff871617905560408051602080825260229082018190527fadec413d00f72bf512e1c36aa7eb9b13e7a13f77eaf92efb93716aec3f8d36a3928291908201906131f5823960400191505060405180910390a161101b83612612565b6040805160208082526019908201527f416674657220496e697469616c697a65205061757361626c65000000000000008183015290517fadec413d00f72bf512e1c36aa7eb9b13e7a13f77eaf92efb93716aec3f8d36a39181900360600190a160d180547fffffffffffffffffffffffff00000000000000000000000000000000000000001673ffffffffffffffffffffffffffffffffffffffff8616179055604080516020808252601a908201527f416674657220426c61636b204c69737465722073657474696e670000000000008183015290517fadec413d00f72bf512e1c36aa7eb9b13e7a13f77eaf92efb93716aec3f8d36a3916060908290030190a16111258261282d565b604080516020808252601c908201527f4166746572204f776e61626c6520696e697469616c697a6174696f6e000000008183015290517fadec413d00f72bf512e1c36aa7eb9b13e7a13f77eaf92efb93716aec3f8d36a39181900360600190a180156111b457600080547fffffffffffffffffffffffffffffffffffffffffffffffffffffffffffff00ff1690555b5050505050505050565b600054610100900460ff16806111d757506111d7612827565b806111e5575060005460ff16155b151561123c576040517f08c379a000000000000000000000000000000000000000000000000000000000815260040180806020018281038252602e815260200180613170602e913960400191505060405180910390fd5b600054610100900460ff161580156112a257600080547fffffffffffffffffffffffffffffffffffffffffffffffffffffffffffffff007fffffffffffffffffffffffffffffffffffffffffffffffffffffffffffff00ff909116610100171660011790555b83516112b590606690602087019061301e565b5082516112c990606790602086019061301e565b50606880547fffffffffffffffffffffffffffffffffffffffffffffffffffffffffffffff001660ff8416179055801561132657600080547fffffffffffffffffffffffffffffffffffffffffffffffffffffffffffff00ff1690555b50505050565b609d5490565b60d154604080517ffe575a8700000000000000000000000000000000000000000000000000000000815273ffffffffffffffffffffffffffffffffffffffff808716600483015291516000938793169163fe575a87916024808301926020929190829003018186803b1580156113a757600080fd5b505afa1580156113bb573d6000803e3d6000fd5b505050506040513d60208110156113d157600080fd5b505115611429576040517f08c379a00000000000000000000000000000000000000000000000000000000081526004018080602001828103825260288152602001806130e96028913960400191505060405180910390fd5b60d154604080517ffe575a8700000000000000000000000000000000000000000000000000000000815273ffffffffffffffffffffffffffffffffffffffff808816600483015291518793929092169163fe575a8791602480820192602092909190829003018186803b15801561149f57600080fd5b505afa1580156114b3573d6000803e3d6000fd5b505050506040513d60208110156114c957600080fd5b505115611521576040517f08c379a00000000000000000000000000000000000000000000000000000000081526004018080602001828103825260288152602001806130e96028913960400191505060405180910390fd5b60d05474010000000000000000000000000000000000000000900460ff16156115ab57604080517f08c379a000000000000000000000000000000000000000000000000000000000815260206004820152601760248201527f5468697320636f6e747261637420697320706175736564000000000000000000604482015290519081900360640190fd5b6115b68686866129b7565b5060019695505050505050565b6115cb612169565b15156115d657600080fd5b60d080547fffffffffffffffffffffffff00000000000000000000000000000000000000001673ffffffffffffffffffffffffffffffffffffffff83811691909117918290556040519116907fb80482a293ca2e013eda8683c9bd7fc8347cfdaeea5ede58cba46df502c2a60490600090a250565b60685460ff1690565b60d25473ffffffffffffffffffffffffffffffffffffffff1681565b336000818152609c6020908152604080832073ffffffffffffffffffffffffffffffffffffffff8716845290915281205490916116be9185906116b9908663ffffffff612a0c16565b612a25565b50600192915050565b60d05473ffffffffffffffffffffffffffffffffffffffff163314611737576040517f08c379a000000000000000000000000000000000000000000000000000000000815260040180806020018281038252603081526020018061319e6030913960400191505060405180910390fd5b60d05474010000000000000000000000000000000000000000900460ff1615156117c257604080517f08c379a000000000000000000000000000000000000000000000000000000000815260206004820152601b60248201527f5468697320636f6e7472616374206973206e6f74207061757365640000000000604482015290519081900360640190fd5b60d080547fffffffffffffffffffffff00ffffffffffffffffffffffffffffffffffffffff169055565b60d254604080517faa271e1a000000000000000000000000000000000000000000000000000000008152336004820152905160009273ffffffffffffffffffffffffffffffffffffffff169163aa271e1a916024808301926020929190829003018186803b15801561185d57600080fd5b505afa158015611871573d6000803e3d6000fd5b505050506040513d602081101561188757600080fd5b505115156118f657604080517f08c379a000000000000000000000000000000000000000000000000000000000815260206004820181905260248201527f4f6e6c79204d696e746572206163636f756e74732063616e20646f2074686174604482015290519081900360640190fd5b6119008383612ad8565b600061190c3384612bab565b905080151561197c57604080517f08c379a000000000000000000000000000000000000000000000000000000000815260206004820152601f60248201527f4d696e74657220526573657276652063616e2774206265207570646174656400604482015290519081900360640190fd5b5060019392505050565b60d05473ffffffffffffffffffffffffffffffffffffffff91821691161490565b6119af612169565b15156119ba57600080fd5b60d180547fffffffffffffffffffffffff00000000000000000000000000000000000000001673ffffffffffffffffffffffffffffffffffffffff8316179055604080516020808252601a908201527f416674657220426c61636b204c69737465722073657474696e670000000000008183015290517fadec413d00f72bf512e1c36aa7eb9b13e7a13f77eaf92efb93716aec3f8d36a3916060908290030190a150565b60d15473ffffffffffffffffffffffffffffffffffffffff1690565b73ffffffffffffffffffffffffffffffffffffffff166000908152609b602052604090205490565b611aaa612169565b1515611ab557600080fd5b60335460405160009173ffffffffffffffffffffffffffffffffffffffff16907f8be0079c531659141344cd1fd0a4f28419497f9722a3daafe3b4186f6b6457e0908390a3603380547fffffffffffffffffffffffff0000000000000000000000000000000000000000169055565b60d254604080517fa14e6560000000000000000000000000000000000000000000000000000000008152905160009273ffffffffffffffffffffffffffffffffffffffff169163a14e6560916004808301926020929190829003018186803b158015611b8f57600080fd5b505afa158015611ba3573d6000803e3d6000fd5b505050506040513d6020811015611bb957600080fd5b505173ffffffffffffffffffffffffffffffffffffffff163314611c3e57604080517f08c379a000000000000000000000000000000000000000000000000000000000815260206004820152601b60248201527f6d61737465724d696e7465722061646472657373206e65656465640000000000604482015290519081900360640190fd5b60d254604080517faa271e1a00000000000000000000000000000000000000000000000000000000815273ffffffffffffffffffffffffffffffffffffffff86811660048301529151919092169163aa271e1a916024808301926020929190829003018186803b158015611cb157600080fd5b505afa158015611cc5573d6000803e3d6000fd5b505050506040513d6020811015611cdb57600080fd5b50511515611d4a57604080517f08c379a000000000000000000000000000000000000000000000000000000000815260206004820152601f60248201527f4163636f756e7420656e7465726564206973206e6f742061206d696e74657200604482015290519081900360640190fd5b81611d54856124d9565b1015611dab576040517f08c379a00000000000000000000000000000000000000000000000000000000081526004018080602001828103825260328152602001806130b76032913960400191505060405180910390fd5b611db58383612bab565b8015611dc65750611dc68483612c54565b949350505050565b60d254604080517faa271e1a000000000000000000000000000000000000000000000000000000008152336004820152905173ffffffffffffffffffffffffffffffffffffffff9092169163aa271e1a91602480820192602092909190829003018186803b158015611e3f57600080fd5b505afa158015611e53573d6000803e3d6000fd5b505050506040513d6020811015611e6957600080fd5b50511515611ed857604080517f08c379a000000000000000000000000000000000000000000000000000000000815260206004820181905260248201527f4f6e6c79204d696e746572206163636f756e74732063616e20646f2074686174604482015290519081900360640190fd5b80611ee283611a7a565b1015611f39576040517f08c379a00000000000000000000000000000000000000000000000000000000081526004018080602001828103825260278152602001806131ce6027913960400191505060405180910390fd5b611f438282612d77565b6000611f4f3383612c54565b9050801515611fbf57604080517f08c379a000000000000000000000000000000000000000000000000000000000815260206004820152601f60248201527f4d696e74657220526573657276652063616e2774206265207570646174656400604482015290519081900360640190fd5b505050565b611fcc612169565b1515611fd757600080fd5b60d58190556040805182815290517f57d366e552675fc703ec95d5bf12798847a64af9fc9176dbd10113882d070ba29181900360200190a150565b60d05473ffffffffffffffffffffffffffffffffffffffff163314612082576040517f08c379a000000000000000000000000000000000000000000000000000000000815260040180806020018281038252603081526020018061319e6030913960400191505060405180910390fd5b60d05474010000000000000000000000000000000000000000900460ff161561210c57604080517f08c379a000000000000000000000000000000000000000000000000000000000815260206004820152601760248201527f5468697320636f6e747261637420697320706175736564000000000000000000604482015290519081900360640190fd5b60d080547fffffffffffffffffffffff00ffffffffffffffffffffffffffffffffffffffff1674010000000000000000000000000000000000000000179055565b60335473ffffffffffffffffffffffffffffffffffffffff1690565b60335473ffffffffffffffffffffffffffffffffffffffff16331490565b61218f612169565b151561219a57600080fd5b60d280547fffffffffffffffffffffffff00000000000000000000000000000000000000001673ffffffffffffffffffffffffffffffffffffffff831617905560408051602080825260229082018190527fadec413d00f72bf512e1c36aa7eb9b13e7a13f77eaf92efb93716aec3f8d36a3928291908201906131f5823960400191505060405180910390a150565b60678054604080516020601f60027fffffffffffffffffffffffffffffffffffffffffffffffffffffffffffffffff610100600188161502019095169490940493840181900481028201810190925282815260609390929091830182828015610cf95780601f10610cce57610100808354040283529160200191610cf9565b336000818152609c6020908152604080832073ffffffffffffffffffffffffffffffffffffffff8716845290915281205490916116be9185906116b9908663ffffffff612e4916565b60d154604080517ffe575a870000000000000000000000000000000000000000000000000000000081523360048201819052915160009373ffffffffffffffffffffffffffffffffffffffff169163fe575a87916024808301926020929190829003018186803b15801561236457600080fd5b505afa158015612378573d6000803e3d6000fd5b505050506040513d602081101561238e57600080fd5b5051156123e6576040517f08c379a00000000000000000000000000000000000000000000000000000000081526004018080602001828103825260288152602001806130e96028913960400191505060405180910390fd5b60d05474010000000000000000000000000000000000000000900460ff161561247057604080517f08c379a000000000000000000000000000000000000000000000000000000000815260206004820152601760248201527f5468697320636f6e747261637420697320706175736564000000000000000000604482015290519081900360640190fd5b610e8c8484612e5e565b60d55490565b60d05474010000000000000000000000000000000000000000900460ff1690565b60d05473ffffffffffffffffffffffffffffffffffffffff1690565b60d15473ffffffffffffffffffffffffffffffffffffffff1681565b60d254604080517faa271e1a00000000000000000000000000000000000000000000000000000000815273ffffffffffffffffffffffffffffffffffffffff84811660048301529151600093929092169163aa271e1a91602480820192602092909190829003018186803b15801561255057600080fd5b505afa158015612564573d6000803e3d6000fd5b505050506040513d602081101561257a57600080fd5b505115156125e957604080517f08c379a000000000000000000000000000000000000000000000000000000000815260206004820152601f60248201527f4163636f756e7420656e7465726564206973206e6f742061206d696e74657200604482015290519081900360640190fd5b5073ffffffffffffffffffffffffffffffffffffffff16600090815260d6602052604090205490565b600054610100900460ff168061262b575061262b612827565b80612639575060005460ff16155b1515612690576040517f08c379a000000000000000000000000000000000000000000000000000000000815260040180806020018281038252602e815260200180613170602e913960400191505060405180910390fd5b600054610100900460ff161580156126f657600080547fffffffffffffffffffffffffffffffffffffffffffffffffffffffffffffff007fffffffffffffffffffffffffffffffffffffffffffffffffffffffffffff00ff909116610100171660011790555b60d080547fffffffffffffffffffffffff00000000000000000000000000000000000000001673ffffffffffffffffffffffffffffffffffffffff84811691909117918290556040519116907fb80482a293ca2e013eda8683c9bd7fc8347cfdaeea5ede58cba46df502c2a60490600090a260d080547fffffffffffffffffffffff00ffffffffffffffffffffffffffffffffffffffff16905580156127bf57600080547fffffffffffffffffffffffffffffffffffffffffffffffffffffffffffff00ff1690555b5050565b73ffffffffffffffffffffffffffffffffffffffff9182166000908152609c6020908152604080832093909416825291909152205490565b612803612169565b151561280e57600080fd5b61281781612e6b565b50565b60006116be338484612a25565b303b1590565b600054610100900460ff16806128465750612846612827565b80612854575060005460ff16155b15156128ab576040517f08c379a000000000000000000000000000000000000000000000000000000000815260040180806020018281038252602e815260200180613170602e913960400191505060405180910390fd5b600054610100900460ff1615801561291157600080547fffffffffffffffffffffffffffffffffffffffffffffffffffffffffffffff007fffffffffffffffffffffffffffffffffffffffffffffffffffffffffffff00ff909116610100171660011790555b603380547fffffffffffffffffffffffff00000000000000000000000000000000000000001673ffffffffffffffffffffffffffffffffffffffff84811691909117918290556040519116906000907f8be0079c531659141344cd1fd0a4f28419497f9722a3daafe3b4186f6b6457e0908290a380156127bf57600080547fffffffffffffffffffffffffffffffffffffffffffffffffffffffffffff00ff1690555050565b60006129c4848484612f1b565b73ffffffffffffffffffffffffffffffffffffffff84166000908152609c602090815260408083203380855292529091205461197c9186916116b9908663ffffffff612e4916565b600082820183811015612a1e57600080fd5b9392505050565b73ffffffffffffffffffffffffffffffffffffffff82161515612a4757600080fd5b73ffffffffffffffffffffffffffffffffffffffff83161515612a6957600080fd5b73ffffffffffffffffffffffffffffffffffffffff8084166000818152609c6020908152604080832094871680845294825291829020859055815185815291517f8c5be1e5ebec7d5bd14f71427d1e84f3dd0314c0f7b2291e5b200ac8c7c3b9259281900390910190a3505050565b73ffffffffffffffffffffffffffffffffffffffff82161515612afa57600080fd5b609d54612b0d908263ffffffff612a0c16565b609d5573ffffffffffffffffffffffffffffffffffffffff82166000908152609b6020526040902054612b46908263ffffffff612a0c16565b73ffffffffffffffffffffffffffffffffffffffff83166000818152609b602090815260408083209490945583518581529351929391927fddf252ad1be2c89b69c2b068fc378daa952ba7f163c4a11628f55a4df523b3ef9281900390910190a35050565b73ffffffffffffffffffffffffffffffffffffffff8216600090815260d66020526040812054612be1908363ffffffff612a0c16565b73ffffffffffffffffffffffffffffffffffffffff8416600081815260d6602090815260409182902093909355805191825291810184905260018183015290517f6a9ac2053d663f7ad5b60beb48c89cc789fe730f966a14c75d15859b4f50c7039181900360600190a150600192915050565b73ffffffffffffffffffffffffffffffffffffffff8216600090815260d66020526040812054821115612cd2576040517f08c379a000000000000000000000000000000000000000000000000000000000815260040180806020018281038252603d815260200180613111603d913960400191505060405180910390fd5b73ffffffffffffffffffffffffffffffffffffffff8316600090815260d66020526040902054612d08908363ffffffff612e4916565b73ffffffffffffffffffffffffffffffffffffffff8416600081815260d66020908152604080832094909455835192835282018590528183015290517f6a9ac2053d663f7ad5b60beb48c89cc789fe730f966a14c75d15859b4f50c7039181900360600190a150600192915050565b73ffffffffffffffffffffffffffffffffffffffff82161515612d9957600080fd5b609d54612dac908263ffffffff612e4916565b609d5573ffffffffffffffffffffffffffffffffffffffff82166000908152609b6020526040902054612de5908263ffffffff612e4916565b73ffffffffffffffffffffffffffffffffffffffff83166000818152609b60209081526040808320949094558351858152935191937fddf252ad1be2c89b69c2b068fc378daa952ba7f163c4a11628f55a4df523b3ef929081900390910190a35050565b600082821115612e5857600080fd5b50900390565b60006116be338484612f1b565b73ffffffffffffffffffffffffffffffffffffffff81161515612e8d57600080fd5b60335460405173ffffffffffffffffffffffffffffffffffffffff8084169216907f8be0079c531659141344cd1fd0a4f28419497f9722a3daafe3b4186f6b6457e090600090a3603380547fffffffffffffffffffffffff00000000000000000000000000000000000000001673ffffffffffffffffffffffffffffffffffffffff92909216919091179055565b73ffffffffffffffffffffffffffffffffffffffff82161515612f3d57600080fd5b73ffffffffffffffffffffffffffffffffffffffff83166000908152609b6020526040902054612f73908263ffffffff612e4916565b73ffffffffffffffffffffffffffffffffffffffff8085166000908152609b60205260408082209390935590841681522054612fb5908263ffffffff612a0c16565b73ffffffffffffffffffffffffffffffffffffffff8084166000818152609b602090815260409182902094909455805185815290519193928716927fddf252ad1be2c89b69c2b068fc378daa952ba7f163c4a11628f55a4df523b3ef92918290030190a3505050565b828054600181600116156101000203166002900490600052602060002090601f016020900481019282601f1061305f57805160ff191683800117855561308c565b8280016001018555821561308c579182015b8281111561308c578251825591602001919060010190613071565b5061309892915061309c565b5090565b610c4c91905b8082111561309857600081556001016130a256fe52657365727665206f66206d696e746572206973206c6f776572207468616e20616d6f756e7420746f207472616e7366657274686973206163636f756e74206973206d61726b656420696e206f757220626c61632d6b6c69737456616c756520746f207265647563652066726f6d206d696e7465722072657365727665206973207570706572207468616e2068697320726573657276655468697320636f6e74726163742063616e206e6f742068616e646c65204574686572436f6e747261637420696e7374616e63652068617320616c7265616479206265656e20696e697469616c697a65644f6e6c792070617573657220726f6c6520616464726573732063616e207061757365207468697320636f6e747261637455736572204163636f756e7420646f6573206e6f74206861766520656e6f7567682066756e64734166746572204d6173746572204d696e746572204d6f64756c652073657474696e67a165627a7a72305820bbe500854be4fc1cfcb1e65eff2d581fe6c3fbc04fbc45e93c1b5321e9cf741a0029",
  "compiler": {
    "name": "solc",
    "version": "0.5.2+commit.1df8f40c.Emscripten.clang",
    "optimizer": {
      "enabled": true,
      "runs": 1000000000
    },
    "evmVersion": "constantinople"
  }
}