{
  "fileName": "FiatToken.sol",
  "contractName": "FiatToken",
  "source": "pragma solidity ^0.5.2;\n\nimport \"@openzeppelin/contracts-ethereum-package/contracts/token/ERC20/ERC20Detailed.sol\";\nimport \"@openzeppelin/contracts-ethereum-package/contracts/token/ERC20/ERC20Burnable.sol\";\nimport \"@openzeppelin/contracts-ethereum-package/contracts/ownership/Ownable.sol\";\nimport \"@openzeppelin/upgrades/contracts/Initializable.sol\";\nimport  \"./Types.sol\";\nimport \"./MasterMinter.sol\";\nimport \"./Blacklistable.sol\";\nimport \"./Pausable.sol\";\n\n\n\n/**\n* @title FiatToken contract\n* @dev This sontact was meant to work as a stable coin with upgradeability support.\n*/\ncontract FiatToken is Ownable, ERC20Detailed,ERC20Burnable, Pausable{\n\n\tBlacklistable public blacklister;\n\tMasterMinter public masterMinter;\n\n\t/**\n\t* @dev this function is needed by support uppgradeability\n\t* @param name : string. The name of this token ERC20.\n\t* @param symbol : string. ERC20 token symbol .\n\t* @param decimals : uint8. Decimals fractions that may have a token unit.\n\t* @param _masterMinter : MasterMinter.\n\t* @param _blacklister : Blacklistable.\n\t* @param _pauserRole : address.\n\t* @param owner : address.\n\t*/\n\tfunction initialize(string memory name,\n\t\tstring memory symbol,\n\t\tuint8 decimals,\n\t\tMasterMinter _masterMinter,\n\t\tBlacklistable _blacklister,\n\t\taddress _pauserRole,\n\t\taddress owner) public initializer  {\n\t\tERC20Detailed.initialize(name,symbol,decimals);\n \t\tmasterMinter = _masterMinter;\n\t\temit InitializationLog(\"After Master Minter initialization\");\n\t\tPausable.initialize(_pauserRole);\n\t\temit InitializationLog(\"After Initialize Pausable\");\n\t\tblacklister = _blacklister;\n\t\temit InitializationLog(\"After Black Lister setting\");\n\t\tOwnable.initialize(owner);\n\t\temit InitializationLog(\"After Ownable initialization\");\n\n\t}\n\n\n\t/**\n\t* @dev Just to be sure at all\n\t*/\n\tfunction () external payable {\n\t\trevert();\n\t}\n\t\n    /**\n     * @dev Function to mint tokens\n     * @param to The address that will receive the minted tokens.\n     * @param value The amount of tokens to mint.\n     * @return A boolean that indicates if the operation was successful.\n     */\n    function mint(address to, uint256 value) public onlyMinter returns (bool) {\n        _mint(to, value);\n        return true;\n    }\n\n\tmodifier onlyMinter() {\n        require(masterMinter.isMinter(msg.sender),\"Only Minter accounts can mint()\");\n        _;\n    }\n\n\n\n\n\n\t/**\n\t* @dev overriding ERC20.transfer with modifier whenNotPaused\n\t* @param to The address to transfer to.\n\t* @param value The amount to be transferred.\n\t*/\n\tfunction transfer(address to, uint256 value) public notBlacklisted(msg.sender) whenNotPaused returns(bool) {\n\t\tERC20.transfer(to, value);\n\t\treturn true;\n\t}\n\n\tfunction approve(address spender, uint256 value) public\n\tnotBlacklisted(msg.sender)\n\twhenNotPaused returns (bool){\n\t\tERC20.approve(spender, value);\n\t\treturn true;\n\t}\n\n    function transferFrom(address from, address to, uint256 value) public\n\tnotBlacklisted(from)  notBlacklisted(to) whenNotPaused\n\treturns (bool){\n\t\tERC20.transferFrom(from,to,value);\n\t\treturn true;\n\t}\n\n\t/**\n     * @dev Throws if argument account is blacklisted\n     * @param _account The address to check\n    */\n    modifier notBlacklisted(address _account) {\n        require(!blacklister.isBlacklisted(_account),\n        \"this account is marked in our blac-klist\");\n        _;\n    }\n\n\tTypes.Multihash public toSDocument;\n\n\tfunction setToSDocument(\n\t\tbytes32 digest,\n\t\tuint8 hashFuntion,\n\t\tuint8 size ) public onlyOwner\n\t{\n\t\tbytes32 oldDigest = toSDocument.digest;\n\t\tuint8 oldHashFunction = toSDocument.hashFunction;\n\t\tuint8 oldSize = toSDocument.size;\n\n\t\ttoSDocument = Types.Multihash(digest,hashFuntion,size);\n\t\temit MultihashChanged(\n\t\t\toldDigest,oldHashFunction,oldSize,\n\t\t\tdigest, hashFuntion, size);\n\t}\n\n\tevent InitializationLog(\n        string message\n    );\n\n\tevent MultihashChanged(\n        bytes32 oldDigest,\n\t\tuint8 oldHashFunction,\n\t\tuint8 oldSize,\n        bytes32 newDigest,\n        uint8 newHashFunction,\n        uint8 newSize\n    );\n\n\n}",
  "sourcePath": "contracts/FiatToken.sol",
  "abi": [
    {
      "constant": true,
      "inputs": [],
      "name": "name",
      "outputs": [
        {
          "name": "",
          "type": "string"
        }
      ],
      "payable": false,
      "stateMutability": "view",
      "type": "function"
    },
    {
      "constant": false,
      "inputs": [
        {
          "name": "spender",
          "type": "address"
        },
        {
          "name": "value",
          "type": "uint256"
        }
      ],
      "name": "approve",
      "outputs": [
        {
          "name": "",
          "type": "bool"
        }
      ],
      "payable": false,
      "stateMutability": "nonpayable",
      "type": "function"
    },
    {
      "constant": false,
      "inputs": [
        {
          "name": "name",
          "type": "string"
        },
        {
          "name": "symbol",
          "type": "string"
        },
        {
          "name": "decimals",
          "type": "uint8"
        },
        {
          "name": "_masterMinter",
          "type": "address"
        },
        {
          "name": "_blacklister",
          "type": "address"
        },
        {
          "name": "_pauserRole",
          "type": "address"
        },
        {
          "name": "owner",
          "type": "address"
        }
      ],
      "name": "initialize",
      "outputs": [],
      "payable": false,
      "stateMutability": "nonpayable",
      "type": "function"
    },
    {
      "constant": false,
      "inputs": [
        {
          "name": "name",
          "type": "string"
        },
        {
          "name": "symbol",
          "type": "string"
        },
        {
          "name": "decimals",
          "type": "uint8"
        }
      ],
      "name": "initialize",
      "outputs": [],
      "payable": false,
      "stateMutability": "nonpayable",
      "type": "function"
    },
    {
      "constant": true,
      "inputs": [],
      "name": "totalSupply",
      "outputs": [
        {
          "name": "",
          "type": "uint256"
        }
      ],
      "payable": false,
      "stateMutability": "view",
      "type": "function"
    },
    {
      "constant": false,
      "inputs": [
        {
          "name": "from",
          "type": "address"
        },
        {
          "name": "to",
          "type": "address"
        },
        {
          "name": "value",
          "type": "uint256"
        }
      ],
      "name": "transferFrom",
      "outputs": [
        {
          "name": "",
          "type": "bool"
        }
      ],
      "payable": false,
      "stateMutability": "nonpayable",
      "type": "function"
    },
    {
      "constant": false,
      "inputs": [
        {
          "name": "_pauserRole",
          "type": "address"
        }
      ],
      "name": "changePauser",
      "outputs": [],
      "payable": false,
      "stateMutability": "nonpayable",
      "type": "function"
    },
    {
      "constant": true,
      "inputs": [],
      "name": "decimals",
      "outputs": [
        {
          "name": "",
          "type": "uint8"
        }
      ],
      "payable": false,
      "stateMutability": "view",
      "type": "function"
    },
    {
      "constant": true,
      "inputs": [],
      "name": "masterMinter",
      "outputs": [
        {
          "name": "",
          "type": "address"
        }
      ],
      "payable": false,
      "stateMutability": "view",
      "type": "function"
    },
    {
      "constant": false,
      "inputs": [
        {
          "name": "spender",
          "type": "address"
        },
        {
          "name": "addedValue",
          "type": "uint256"
        }
      ],
      "name": "increaseAllowance",
      "outputs": [
        {
          "name": "",
          "type": "bool"
        }
      ],
      "payable": false,
      "stateMutability": "nonpayable",
      "type": "function"
    },
    {
      "constant": false,
      "inputs": [],
      "name": "unpause",
      "outputs": [],
      "payable": false,
      "stateMutability": "nonpayable",
      "type": "function"
    },
    {
      "constant": false,
      "inputs": [
        {
          "name": "to",
          "type": "address"
        },
        {
          "name": "value",
          "type": "uint256"
        }
      ],
      "name": "mint",
      "outputs": [
        {
          "name": "",
          "type": "bool"
        }
      ],
      "payable": false,
      "stateMutability": "nonpayable",
      "type": "function"
    },
    {
      "constant": false,
      "inputs": [
        {
          "name": "value",
          "type": "uint256"
        }
      ],
      "name": "burn",
      "outputs": [],
      "payable": false,
      "stateMutability": "nonpayable",
      "type": "function"
    },
    {
      "constant": true,
      "inputs": [],
      "name": "toSDocument",
      "outputs": [
        {
          "name": "digest",
          "type": "bytes32"
        },
        {
          "name": "hashFunction",
          "type": "uint8"
        },
        {
          "name": "size",
          "type": "uint8"
        }
      ],
      "payable": false,
      "stateMutability": "view",
      "type": "function"
    },
    {
      "constant": true,
      "inputs": [
        {
          "name": "anAddress",
          "type": "address"
        }
      ],
      "name": "isPauser",
      "outputs": [
        {
          "name": "",
          "type": "bool"
        }
      ],
      "payable": false,
      "stateMutability": "view",
      "type": "function"
    },
    {
      "constant": false,
      "inputs": [
        {
          "name": "digest",
          "type": "bytes32"
        },
        {
          "name": "hashFuntion",
          "type": "uint8"
        },
        {
          "name": "size",
          "type": "uint8"
        }
      ],
      "name": "setToSDocument",
      "outputs": [],
      "payable": false,
      "stateMutability": "nonpayable",
      "type": "function"
    },
    {
      "constant": true,
      "inputs": [
        {
          "name": "owner",
          "type": "address"
        }
      ],
      "name": "balanceOf",
      "outputs": [
        {
          "name": "",
          "type": "uint256"
        }
      ],
      "payable": false,
      "stateMutability": "view",
      "type": "function"
    },
    {
      "constant": false,
      "inputs": [],
      "name": "renounceOwnership",
      "outputs": [],
      "payable": false,
      "stateMutability": "nonpayable",
      "type": "function"
    },
    {
      "constant": false,
      "inputs": [
        {
          "name": "from",
          "type": "address"
        },
        {
          "name": "value",
          "type": "uint256"
        }
      ],
      "name": "burnFrom",
      "outputs": [],
      "payable": false,
      "stateMutability": "nonpayable",
      "type": "function"
    },
    {
      "constant": false,
      "inputs": [],
      "name": "pause",
      "outputs": [],
      "payable": false,
      "stateMutability": "nonpayable",
      "type": "function"
    },
    {
      "constant": true,
      "inputs": [],
      "name": "owner",
      "outputs": [
        {
          "name": "",
          "type": "address"
        }
      ],
      "payable": false,
      "stateMutability": "view",
      "type": "function"
    },
    {
      "constant": true,
      "inputs": [],
      "name": "isOwner",
      "outputs": [
        {
          "name": "",
          "type": "bool"
        }
      ],
      "payable": false,
      "stateMutability": "view",
      "type": "function"
    },
    {
      "constant": true,
      "inputs": [],
      "name": "symbol",
      "outputs": [
        {
          "name": "",
          "type": "string"
        }
      ],
      "payable": false,
      "stateMutability": "view",
      "type": "function"
    },
    {
      "constant": false,
      "inputs": [
        {
          "name": "spender",
          "type": "address"
        },
        {
          "name": "subtractedValue",
          "type": "uint256"
        }
      ],
      "name": "decreaseAllowance",
      "outputs": [
        {
          "name": "",
          "type": "bool"
        }
      ],
      "payable": false,
      "stateMutability": "nonpayable",
      "type": "function"
    },
    {
      "constant": false,
      "inputs": [
        {
          "name": "to",
          "type": "address"
        },
        {
          "name": "value",
          "type": "uint256"
        }
      ],
      "name": "transfer",
      "outputs": [
        {
          "name": "",
          "type": "bool"
        }
      ],
      "payable": false,
      "stateMutability": "nonpayable",
      "type": "function"
    },
    {
      "constant": true,
      "inputs": [],
      "name": "isPaused",
      "outputs": [
        {
          "name": "",
          "type": "bool"
        }
      ],
      "payable": false,
      "stateMutability": "view",
      "type": "function"
    },
    {
      "constant": true,
      "inputs": [],
      "name": "blacklister",
      "outputs": [
        {
          "name": "",
          "type": "address"
        }
      ],
      "payable": false,
      "stateMutability": "view",
      "type": "function"
    },
    {
      "constant": false,
      "inputs": [
        {
          "name": "_pauserRole",
          "type": "address"
        }
      ],
      "name": "initialize",
      "outputs": [],
      "payable": false,
      "stateMutability": "nonpayable",
      "type": "function"
    },
    {
      "constant": true,
      "inputs": [
        {
          "name": "owner",
          "type": "address"
        },
        {
          "name": "spender",
          "type": "address"
        }
      ],
      "name": "allowance",
      "outputs": [
        {
          "name": "",
          "type": "uint256"
        }
      ],
      "payable": false,
      "stateMutability": "view",
      "type": "function"
    },
    {
      "constant": false,
      "inputs": [
        {
          "name": "newOwner",
          "type": "address"
        }
      ],
      "name": "transferOwnership",
      "outputs": [],
      "payable": false,
      "stateMutability": "nonpayable",
      "type": "function"
    },
    {
      "payable": true,
      "stateMutability": "payable",
      "type": "fallback"
    },
    {
      "anonymous": false,
      "inputs": [
        {
          "indexed": false,
          "name": "message",
          "type": "string"
        }
      ],
      "name": "InitializationLog",
      "type": "event"
    },
    {
      "anonymous": false,
      "inputs": [
        {
          "indexed": false,
          "name": "oldDigest",
          "type": "bytes32"
        },
        {
          "indexed": false,
          "name": "oldHashFunction",
          "type": "uint8"
        },
        {
          "indexed": false,
          "name": "oldSize",
          "type": "uint8"
        },
        {
          "indexed": false,
          "name": "newDigest",
          "type": "bytes32"
        },
        {
          "indexed": false,
          "name": "newHashFunction",
          "type": "uint8"
        },
        {
          "indexed": false,
          "name": "newSize",
          "type": "uint8"
        }
      ],
      "name": "MultihashChanged",
      "type": "event"
    },
    {
      "anonymous": false,
      "inputs": [
        {
          "indexed": true,
          "name": "pauser",
          "type": "address"
        }
      ],
      "name": "PauserChanged",
      "type": "event"
    },
    {
      "anonymous": false,
      "inputs": [
        {
          "indexed": true,
          "name": "previousOwner",
          "type": "address"
        },
        {
          "indexed": true,
          "name": "newOwner",
          "type": "address"
        }
      ],
      "name": "OwnershipTransferred",
      "type": "event"
    },
    {
      "anonymous": false,
      "inputs": [
        {
          "indexed": true,
          "name": "from",
          "type": "address"
        },
        {
          "indexed": true,
          "name": "to",
          "type": "address"
        },
        {
          "indexed": false,
          "name": "value",
          "type": "uint256"
        }
      ],
      "name": "Transfer",
      "type": "event"
    },
    {
      "anonymous": false,
      "inputs": [
        {
          "indexed": true,
          "name": "owner",
          "type": "address"
        },
        {
          "indexed": true,
          "name": "spender",
          "type": "address"
        },
        {
          "indexed": false,
          "name": "value",
          "type": "uint256"
        }
      ],
      "name": "Approval",
      "type": "event"
    }
  ],
  "bytecode": "0x608060405234801561001057600080fd5b5061273a806100206000396000f3fe6080604052600436106101cd5760003560e01c806353d03fbc116100f757806395d89b4111610095578063bd10243011610064578063bd10243014610995578063c4d66de8146109aa578063dd62ed3e146109ea578063f2fde38b14610a32576101cd565b806395d89b41146108df578063a457c2d7146108f4578063a9059cbb1461093a578063b187bd2614610980576101cd565b806379cc6790116100d157806379cc67901461085a5780638456cb59146108a05780638da5cb5b146108b55780638f32d59b146108ca576101cd565b806353d03fbc146107ca57806370a0823114610805578063715018a614610845576101cd565b8063313ce5671161016f57806340c10f191161013e57806340c10f19146106e357806342966c68146107295780634375649a1461075357806346fbf68e1461078a576101cd565b8063313ce5671461061f57806335d99f351461064a57806339509351146106885780633f4ba83a146106ce576101cd565b80631624f6c6116101ab5780631624f6c61461042957806318160ddd1461056857806323b872dd1461058f5780632cd271e7146105df576101cd565b806306fdde03146101d2578063095ea7b31461025c578063147936ba146102b6575b600080fd5b3480156101de57600080fd5b506101e7610a72565b6040805160208082528351818301528351919283929083019185019080838360005b83811015610221578181015183820152602001610209565b50505050905090810190601f16801561024e5780820380516001836020036101000a031916815260200191505b509250505060405180910390f35b34801561026857600080fd5b506102a26004803603604081101561027f57600080fd5b5073ffffffffffffffffffffffffffffffffffffffff8135169060200135610b27565b604080519115158252519081900360200190f35b3480156102c257600080fd5b50610427600480360360e08110156102d957600080fd5b8101906020810181356401000000008111156102f457600080fd5b82018360208201111561030657600080fd5b8035906020019184600183028401116401000000008311171561032857600080fd5b91908080601f016020809104026020016040519081016040528093929190818152602001838380828437600092019190915250929594936020810193503591505064010000000081111561037b57600080fd5b82018360208201111561038d57600080fd5b803590602001918460018302840111640100000000831117156103af57600080fd5b91908080601f0160208091040260200160405190810160405280939291908181526020018383808284376000920191909152509295505050813560ff16925050602081013573ffffffffffffffffffffffffffffffffffffffff90811691604081013582169160608201358116916080013516610cbd565b005b34801561043557600080fd5b506104276004803603606081101561044c57600080fd5b81019060208101813564010000000081111561046757600080fd5b82018360208201111561047957600080fd5b8035906020019184600183028401116401000000008311171561049b57600080fd5b91908080601f01602080910402602001604051908101604052809392919081815260200183838082843760009201919091525092959493602081019350359150506401000000008111156104ee57600080fd5b82018360208201111561050057600080fd5b8035906020019184600183028401116401000000008311171561052257600080fd5b91908080601f0160208091040260200160405190810160405280939291908181526020018383808284376000920191909152509295505050903560ff169150610fe69050565b34801561057457600080fd5b5061057d611154565b60408051918252519081900360200190f35b34801561059b57600080fd5b506102a2600480360360608110156105b257600080fd5b5073ffffffffffffffffffffffffffffffffffffffff81358116916020810135909116906040013561115a565b3480156105eb57600080fd5b506104276004803603602081101561060257600080fd5b503573ffffffffffffffffffffffffffffffffffffffff166113ee565b34801561062b57600080fd5b50610634611477565b6040805160ff9092168252519081900360200190f35b34801561065657600080fd5b5061065f611480565b6040805173ffffffffffffffffffffffffffffffffffffffff9092168252519081900360200190f35b34801561069457600080fd5b506102a2600480360360408110156106ab57600080fd5b5073ffffffffffffffffffffffffffffffffffffffff813516906020013561149d565b3480156106da57600080fd5b506104276114f4565b3480156106ef57600080fd5b506102a26004803603604081101561070657600080fd5b5073ffffffffffffffffffffffffffffffffffffffff813516906020013561161c565b34801561073557600080fd5b506104276004803603602081101561074c57600080fd5b5035611731565b34801561075f57600080fd5b5061076861173e565b6040805193845260ff9283166020850152911682820152519081900360600190f35b34801561079657600080fd5b506102a2600480360360208110156107ad57600080fd5b503573ffffffffffffffffffffffffffffffffffffffff16611755565b3480156107d657600080fd5b50610427600480360360608110156107ed57600080fd5b5080359060ff60208201358116916040013516611777565b34801561081157600080fd5b5061057d6004803603602081101561082857600080fd5b503573ffffffffffffffffffffffffffffffffffffffff16611872565b34801561085157600080fd5b5061042761189a565b34801561086657600080fd5b506104276004803603604081101561087d57600080fd5b5073ffffffffffffffffffffffffffffffffffffffff813516906020013561191c565b3480156108ac57600080fd5b5061042761192a565b3480156108c157600080fd5b5061065f611a68565b3480156108d657600080fd5b506102a2611a84565b3480156108eb57600080fd5b506101e7611aa2565b34801561090057600080fd5b506102a26004803603604081101561091757600080fd5b5073ffffffffffffffffffffffffffffffffffffffff8135169060200135611b21565b34801561094657600080fd5b506102a26004803603604081101561095d57600080fd5b5073ffffffffffffffffffffffffffffffffffffffff8135169060200135611b6a565b34801561098c57600080fd5b506102a2611cf5565b3480156109a157600080fd5b5061065f611d17565b3480156109b657600080fd5b50610427600480360360208110156109cd57600080fd5b503573ffffffffffffffffffffffffffffffffffffffff16611d34565b3480156109f657600080fd5b5061057d60048036036040811015610a0d57600080fd5b5073ffffffffffffffffffffffffffffffffffffffff81358116916020013516611ee6565b348015610a3e57600080fd5b5061042760048036036020811015610a5557600080fd5b503573ffffffffffffffffffffffffffffffffffffffff16611f1e565b60668054604080516020601f60027fffffffffffffffffffffffffffffffffffffffffffffffffffffffffffffffff610100600188161502019095169490940493840181900481028201810190925282815260609390929091830182828015610b1c5780601f10610af157610100808354040283529160200191610b1c565b820191906000526020600020905b815481529060010190602001808311610aff57829003601f168201915b505050505090505b90565b61010354604080517ffe575a870000000000000000000000000000000000000000000000000000000081523360048201819052915160009373ffffffffffffffffffffffffffffffffffffffff169163fe575a87916024808301926020929190829003018186803b158015610b9b57600080fd5b505afa158015610baf573d6000803e3d6000fd5b505050506040513d6020811015610bc557600080fd5b505115610c1d576040517f08c379a00000000000000000000000000000000000000000000000000000000081526004018080602001828103825260288152602001806126896028913960400191505060405180910390fd5b6101025474010000000000000000000000000000000000000000900460ff1615610ca857604080517f08c379a000000000000000000000000000000000000000000000000000000000815260206004820152601760248201527f5468697320636f6e747261637420697320706175736564000000000000000000604482015290519081900360640190fd5b610cb28484611f3a565b506001949350505050565b600054610100900460ff1680610cd65750610cd6611f47565b80610ce4575060005460ff16155b1515610d3b576040517f08c379a000000000000000000000000000000000000000000000000000000000815260040180806020018281038252602e8152602001806126b1602e913960400191505060405180910390fd5b600054610100900460ff16158015610da157600080547fffffffffffffffffffffffffffffffffffffffffffffffffffffffffffffff007fffffffffffffffffffffffffffffffffffffffffffffffffffffffffffff00ff909116610100171660011790555b610dac888888610fe6565b61010480547fffffffffffffffffffffffff00000000000000000000000000000000000000001673ffffffffffffffffffffffffffffffffffffffff871617905560408051602080825260229082018190527fadec413d00f72bf512e1c36aa7eb9b13e7a13f77eaf92efb93716aec3f8d36a392829190820190612667823960400191505060405180910390a1610e4283611d34565b6040805160208082526019908201527f416674657220496e697469616c697a65205061757361626c65000000000000008183015290517fadec413d00f72bf512e1c36aa7eb9b13e7a13f77eaf92efb93716aec3f8d36a39181900360600190a161010380547fffffffffffffffffffffffff00000000000000000000000000000000000000001673ffffffffffffffffffffffffffffffffffffffff8616179055604080516020808252601a908201527f416674657220426c61636b204c69737465722073657474696e670000000000008183015290517fadec413d00f72bf512e1c36aa7eb9b13e7a13f77eaf92efb93716aec3f8d36a3916060908290030190a1610f4d82611f4d565b604080516020808252601c908201527f4166746572204f776e61626c6520696e697469616c697a6174696f6e000000008183015290517fadec413d00f72bf512e1c36aa7eb9b13e7a13f77eaf92efb93716aec3f8d36a39181900360600190a18015610fdc57600080547fffffffffffffffffffffffffffffffffffffffffffffffffffffffffffff00ff1690555b5050505050505050565b600054610100900460ff1680610fff5750610fff611f47565b8061100d575060005460ff16155b1515611064576040517f08c379a000000000000000000000000000000000000000000000000000000000815260040180806020018281038252602e8152602001806126b1602e913960400191505060405180910390fd5b600054610100900460ff161580156110ca57600080547fffffffffffffffffffffffffffffffffffffffffffffffffffffffffffffff007fffffffffffffffffffffffffffffffffffffffffffffffffffffffffffff00ff909116610100171660011790555b83516110dd9060669060208701906125ce565b5082516110f19060679060208601906125ce565b50606880547fffffffffffffffffffffffffffffffffffffffffffffffffffffffffffffff001660ff8416179055801561114e57600080547fffffffffffffffffffffffffffffffffffffffffffffffffffffffffffff00ff1690555b50505050565b609d5490565b61010354604080517ffe575a8700000000000000000000000000000000000000000000000000000000815273ffffffffffffffffffffffffffffffffffffffff808716600483015291516000938793169163fe575a87916024808301926020929190829003018186803b1580156111d057600080fd5b505afa1580156111e4573d6000803e3d6000fd5b505050506040513d60208110156111fa57600080fd5b505115611252576040517f08c379a00000000000000000000000000000000000000000000000000000000081526004018080602001828103825260288152602001806126896028913960400191505060405180910390fd5b61010354604080517ffe575a8700000000000000000000000000000000000000000000000000000000815273ffffffffffffffffffffffffffffffffffffffff808816600483015291518793929092169163fe575a8791602480820192602092909190829003018186803b1580156112c957600080fd5b505afa1580156112dd573d6000803e3d6000fd5b505050506040513d60208110156112f357600080fd5b50511561134b576040517f08c379a00000000000000000000000000000000000000000000000000000000081526004018080602001828103825260288152602001806126896028913960400191505060405180910390fd5b6101025474010000000000000000000000000000000000000000900460ff16156113d657604080517f08c379a000000000000000000000000000000000000000000000000000000000815260206004820152601760248201527f5468697320636f6e747261637420697320706175736564000000000000000000604482015290519081900360640190fd5b6113e18686866120d7565b5060019695505050505050565b6113f6611a84565b151561140157600080fd5b61010280547fffffffffffffffffffffffff00000000000000000000000000000000000000001673ffffffffffffffffffffffffffffffffffffffff83811691909117918290556040519116907fb80482a293ca2e013eda8683c9bd7fc8347cfdaeea5ede58cba46df502c2a60490600090a250565b60685460ff1690565b6101045473ffffffffffffffffffffffffffffffffffffffff1681565b336000818152609c6020908152604080832073ffffffffffffffffffffffffffffffffffffffff8716845290915281205490916114eb9185906114e6908663ffffffff61213616565b61214f565b50600192915050565b6101025473ffffffffffffffffffffffffffffffffffffffff163314611565576040517f08c379a00000000000000000000000000000000000000000000000000000000081526004018080602001828103825260308152602001806126df6030913960400191505060405180910390fd5b6101025474010000000000000000000000000000000000000000900460ff1615156115f157604080517f08c379a000000000000000000000000000000000000000000000000000000000815260206004820152601b60248201527f5468697320636f6e7472616374206973206e6f74207061757365640000000000604482015290519081900360640190fd5b61010280547fffffffffffffffffffffff00ffffffffffffffffffffffffffffffffffffffff169055565b61010454604080517faa271e1a000000000000000000000000000000000000000000000000000000008152336004820152905160009273ffffffffffffffffffffffffffffffffffffffff169163aa271e1a916024808301926020929190829003018186803b15801561168e57600080fd5b505afa1580156116a2573d6000803e3d6000fd5b505050506040513d60208110156116b857600080fd5b5051151561172757604080517f08c379a000000000000000000000000000000000000000000000000000000000815260206004820152601f60248201527f4f6e6c79204d696e746572206163636f756e74732063616e206d696e74282900604482015290519081900360640190fd5b6114eb8383612202565b61173b33826122d5565b50565b610105546101065460ff8082169161010090041683565b6101025473ffffffffffffffffffffffffffffffffffffffff91821691161490565b61177f611a84565b151561178a57600080fd5b61010580546101068054604080516060818101835289825260ff89811660208085018290528a8316948601859052988c90556101008481027fffffffffffffffffffffffffffffffffffffffffffffffffffffffffffff00ff7fffffffffffffffffffffffffffffffffffffffffffffffffffffffffffffff0089168417161790975584518881528287169981018a905296909504168584018190529085018a9052608085019390935260a08401525192939290917f8cf27bf6b8360841af33a5a7b6c7fac39ca5703e1deb0a018269c70ecccda579919081900360c00190a1505050505050565b73ffffffffffffffffffffffffffffffffffffffff166000908152609b602052604090205490565b6118a2611a84565b15156118ad57600080fd5b60335460405160009173ffffffffffffffffffffffffffffffffffffffff16907f8be0079c531659141344cd1fd0a4f28419497f9722a3daafe3b4186f6b6457e0908390a3603380547fffffffffffffffffffffffff0000000000000000000000000000000000000000169055565b61192682826123a7565b5050565b6101025473ffffffffffffffffffffffffffffffffffffffff16331461199b576040517f08c379a00000000000000000000000000000000000000000000000000000000081526004018080602001828103825260308152602001806126df6030913960400191505060405180910390fd5b6101025474010000000000000000000000000000000000000000900460ff1615611a2657604080517f08c379a000000000000000000000000000000000000000000000000000000000815260206004820152601760248201527f5468697320636f6e747261637420697320706175736564000000000000000000604482015290519081900360640190fd5b61010280547fffffffffffffffffffffff00ffffffffffffffffffffffffffffffffffffffff1674010000000000000000000000000000000000000000179055565b60335473ffffffffffffffffffffffffffffffffffffffff1690565b60335473ffffffffffffffffffffffffffffffffffffffff16331490565b60678054604080516020601f60027fffffffffffffffffffffffffffffffffffffffffffffffffffffffffffffffff610100600188161502019095169490940493840181900481028201810190925282815260609390929091830182828015610b1c5780601f10610af157610100808354040283529160200191610b1c565b336000818152609c6020908152604080832073ffffffffffffffffffffffffffffffffffffffff8716845290915281205490916114eb9185906114e6908663ffffffff6123f916565b61010354604080517ffe575a870000000000000000000000000000000000000000000000000000000081523360048201819052915160009373ffffffffffffffffffffffffffffffffffffffff169163fe575a87916024808301926020929190829003018186803b158015611bde57600080fd5b505afa158015611bf2573d6000803e3d6000fd5b505050506040513d6020811015611c0857600080fd5b505115611c60576040517f08c379a00000000000000000000000000000000000000000000000000000000081526004018080602001828103825260288152602001806126896028913960400191505060405180910390fd5b6101025474010000000000000000000000000000000000000000900460ff1615611ceb57604080517f08c379a000000000000000000000000000000000000000000000000000000000815260206004820152601760248201527f5468697320636f6e747261637420697320706175736564000000000000000000604482015290519081900360640190fd5b610cb2848461240e565b6101025474010000000000000000000000000000000000000000900460ff1690565b6101035473ffffffffffffffffffffffffffffffffffffffff1681565b600054610100900460ff1680611d4d5750611d4d611f47565b80611d5b575060005460ff16155b1515611db2576040517f08c379a000000000000000000000000000000000000000000000000000000000815260040180806020018281038252602e8152602001806126b1602e913960400191505060405180910390fd5b600054610100900460ff16158015611e1857600080547fffffffffffffffffffffffffffffffffffffffffffffffffffffffffffffff007fffffffffffffffffffffffffffffffffffffffffffffffffffffffffffff00ff909116610100171660011790555b61010280547fffffffffffffffffffffffff00000000000000000000000000000000000000001673ffffffffffffffffffffffffffffffffffffffff84811691909117918290556040519116907fb80482a293ca2e013eda8683c9bd7fc8347cfdaeea5ede58cba46df502c2a60490600090a261010280547fffffffffffffffffffffff00ffffffffffffffffffffffffffffffffffffffff169055801561192657600080547fffffffffffffffffffffffffffffffffffffffffffffffffffffffffffff00ff1690555050565b73ffffffffffffffffffffffffffffffffffffffff9182166000908152609c6020908152604080832093909416825291909152205490565b611f26611a84565b1515611f3157600080fd5b61173b8161241b565b60006114eb33848461214f565b303b1590565b600054610100900460ff1680611f665750611f66611f47565b80611f74575060005460ff16155b1515611fcb576040517f08c379a000000000000000000000000000000000000000000000000000000000815260040180806020018281038252602e8152602001806126b1602e913960400191505060405180910390fd5b600054610100900460ff1615801561203157600080547fffffffffffffffffffffffffffffffffffffffffffffffffffffffffffffff007fffffffffffffffffffffffffffffffffffffffffffffffffffffffffffff00ff909116610100171660011790555b603380547fffffffffffffffffffffffff00000000000000000000000000000000000000001673ffffffffffffffffffffffffffffffffffffffff84811691909117918290556040519116906000907f8be0079c531659141344cd1fd0a4f28419497f9722a3daafe3b4186f6b6457e0908290a3801561192657600080547fffffffffffffffffffffffffffffffffffffffffffffffffffffffffffff00ff1690555050565b60006120e48484846124cb565b73ffffffffffffffffffffffffffffffffffffffff84166000908152609c602090815260408083203380855292529091205461212c9186916114e6908663ffffffff6123f916565b5060019392505050565b60008282018381101561214857600080fd5b9392505050565b73ffffffffffffffffffffffffffffffffffffffff8216151561217157600080fd5b73ffffffffffffffffffffffffffffffffffffffff8316151561219357600080fd5b73ffffffffffffffffffffffffffffffffffffffff8084166000818152609c6020908152604080832094871680845294825291829020859055815185815291517f8c5be1e5ebec7d5bd14f71427d1e84f3dd0314c0f7b2291e5b200ac8c7c3b9259281900390910190a3505050565b73ffffffffffffffffffffffffffffffffffffffff8216151561222457600080fd5b609d54612237908263ffffffff61213616565b609d5573ffffffffffffffffffffffffffffffffffffffff82166000908152609b6020526040902054612270908263ffffffff61213616565b73ffffffffffffffffffffffffffffffffffffffff83166000818152609b602090815260408083209490945583518581529351929391927fddf252ad1be2c89b69c2b068fc378daa952ba7f163c4a11628f55a4df523b3ef9281900390910190a35050565b73ffffffffffffffffffffffffffffffffffffffff821615156122f757600080fd5b609d5461230a908263ffffffff6123f916565b609d5573ffffffffffffffffffffffffffffffffffffffff82166000908152609b6020526040902054612343908263ffffffff6123f916565b73ffffffffffffffffffffffffffffffffffffffff83166000818152609b60209081526040808320949094558351858152935191937fddf252ad1be2c89b69c2b068fc378daa952ba7f163c4a11628f55a4df523b3ef929081900390910190a35050565b6123b182826122d5565b73ffffffffffffffffffffffffffffffffffffffff82166000908152609c60209081526040808320338085529252909120546119269184916114e6908563ffffffff6123f916565b60008282111561240857600080fd5b50900390565b60006114eb3384846124cb565b73ffffffffffffffffffffffffffffffffffffffff8116151561243d57600080fd5b60335460405173ffffffffffffffffffffffffffffffffffffffff8084169216907f8be0079c531659141344cd1fd0a4f28419497f9722a3daafe3b4186f6b6457e090600090a3603380547fffffffffffffffffffffffff00000000000000000000000000000000000000001673ffffffffffffffffffffffffffffffffffffffff92909216919091179055565b73ffffffffffffffffffffffffffffffffffffffff821615156124ed57600080fd5b73ffffffffffffffffffffffffffffffffffffffff83166000908152609b6020526040902054612523908263ffffffff6123f916565b73ffffffffffffffffffffffffffffffffffffffff8085166000908152609b60205260408082209390935590841681522054612565908263ffffffff61213616565b73ffffffffffffffffffffffffffffffffffffffff8084166000818152609b602090815260409182902094909455805185815290519193928716927fddf252ad1be2c89b69c2b068fc378daa952ba7f163c4a11628f55a4df523b3ef92918290030190a3505050565b828054600181600116156101000203166002900490600052602060002090601f016020900481019282601f1061260f57805160ff191683800117855561263c565b8280016001018555821561263c579182015b8281111561263c578251825591602001919060010190612621565b5061264892915061264c565b5090565b610b2491905b80821115612648576000815560010161265256fe4166746572204d6173746572204d696e74657220696e697469616c697a6174696f6e74686973206163636f756e74206973206d61726b656420696e206f757220626c61632d6b6c697374436f6e747261637420696e7374616e63652068617320616c7265616479206265656e20696e697469616c697a65644f6e6c792070617573657220726f6c6520616464726573732063616e207061757365207468697320636f6e7472616374a165627a7a72305820a68c3331c3c3320f10430be61656342c874b133d9c3949e3f0893f7fc38980b90029",
  "compiler": {
    "name": "solc",
    "version": "0.5.2+commit.1df8f40c.Emscripten.clang",
    "optimizer": {
      "enabled": true,
      "runs": 1000000000
    },
    "evmVersion": "constantinople"
  }
}