{
  "fileName": "FiatToken.sol",
  "contractName": "FiatToken",
  "source": "pragma solidity ^0.5.2;\n\nimport \"@openzeppelin/contracts-ethereum-package/contracts/token/ERC20/ERC20Detailed.sol\";\nimport \"@openzeppelin/contracts-ethereum-package/contracts/token/ERC20/ERC20.sol\";\nimport \"@openzeppelin/contracts-ethereum-package/contracts/ownership/Ownable.sol\";\nimport '@openzeppelin/contracts-ethereum-package/contracts/math/SafeMath.sol';\nimport \"@openzeppelin/upgrades/contracts/Initializable.sol\";\nimport  \"./Types.sol\";\nimport \"./MasterMinter.sol\";\nimport \"./Blacklistable.sol\";\nimport \"./Pausable.sol\";\n\n\n\n/**\n* @title FiatToken contract\n* @dev This sontact was meant to work as a stable coin with upgradeability support.\n*/\ncontract FiatToken is Ownable, ERC20Detailed, ERC20, Pausable {\n\tusing SafeMath for uint256;\n\n\tBlacklistable public blacklister;\n\tMasterMinter public masterMinter;\n\n\t/**\n\t* @dev this function is needed by support uppgradeability\n\t* @param name : string. The name of this token ERC20.\n\t* @param symbol : string. ERC20 token symbol .\n\t* @param decimals : uint8. Decimals fractions that may have a token unit.\n\t* @param _masterMinter : MasterMinter.\n\t* @param _blacklister : Blacklistable.\n\t* @param _pauserRole : address.\n\t* @param owner : address.\n\t*/\n\tfunction initialize(string memory name,\n\t\tstring memory symbol,\n\t\tuint8 decimals,\n\t\tMasterMinter _masterMinter,\n\t\tBlacklistable _blacklister,\n\t\taddress _pauserRole,\n\t\taddress owner) public initializer  {\n\t\tERC20Detailed.initialize(name,symbol,decimals);\n \t\tmasterMinter = _masterMinter;\n\t\temit InitializationLog(\"After Master Minter initialization\");\n\t\tPausable.initialize(_pauserRole);\n\t\temit InitializationLog(\"After Initialize Pausable\");\n\t\tblacklister = _blacklister;\n\t\temit InitializationLog(\"After Black Lister setting\");\n\t\tOwnable.initialize(owner);\n\t\temit InitializationLog(\"After Ownable initialization\");\n\n\t}\n\n\n\t/**\n\t* @dev Just to be sure at all\n\t*/\n\tfunction () external payable {\n\t\trevert();\n\t}\n\n    /**\n     * @dev Function to mint tokens\n     * @param to The address that will receive the minted tokens.\n     * @param value The amount of tokens to mint.\n     * @return A boolean that indicates if the operation was successful.\n     */\n    function mint(address to, uint256 value) public onlyMinter returns (bool) {\n        _mint(to, value);\n\t\tbool mintedReturn = _increaseReserve(msg.sender, value);\n\t\tif( ! mintedReturn){\n\t\t\trevert(\"Minter Reserve can't be updated\");\n\t\t}\n\t\treturn true;\n    }\n\n\t/**\n\t* @dev burnFrom is allowed only for a minter.\n\t* @param to : address\n\t* @param value : uint256\n\t*/\n\tfunction burnFrom(address to, uint256 value) public onlyMinter {\n\t\trequire(balanceOf(to)>=value, \"User Account does not have enough funds\");\n\t\t_burn(to, value);\n\t\tbool burnedReturn = _decreaseReserve(msg.sender,value);\n\t\tif( !  burnedReturn){\n\t\t\trevert(\"Minter Reserve can't be updated\");\n\t\t}\n\t}\n\n\n\tmodifier onlyMinter() {\n        require(masterMinter.isMinter(msg.sender),\"Only Minter accounts can do that\");\n        _;\n    }\n\n\n\n\n\n\t/**\n\t* @dev overriding ERC20.transfer with modifier whenNotPaused\n\t* @param to The address to transfer to.\n\t* @param value The amount to be transferred.\n\t*/\n\tfunction transfer(address to, uint256 value) public notBlacklisted(msg.sender) whenNotPaused returns(bool) {\n\t\tERC20.transfer(to, value);\n\t\treturn true;\n\t}\n\n\tfunction approve(address spender, uint256 value) public\n\tnotBlacklisted(msg.sender)\n\twhenNotPaused returns (bool){\n\t\tERC20.approve(spender, value);\n\t\treturn true;\n\t}\n\n    function transferFrom(address from, address to, uint256 value) public\n\tnotBlacklisted(from)  notBlacklisted(to) whenNotPaused\n\treturns (bool){\n\t\tERC20.transferFrom(from,to,value);\n\t\treturn true;\n\t}\n\n\t/**\n     * @dev Throws if argument account is blacklisted\n     * @param _account The address to check\n    */\n    modifier notBlacklisted(address _account) {\n        require(!blacklister.isBlacklisted(_account),\n        \"this account is marked in our blac-klist\");\n        _;\n    }\n\n\tTypes.Multihash public toSDocument;\n\n\tfunction setToSDocument(\n\t\tbytes32 digest,\n\t\tuint8 hashFuntion,\n\t\tuint8 size ) public onlyOwner\n\t{\n\t\tbytes32 oldDigest = toSDocument.digest;\n\t\tuint8 oldHashFunction = toSDocument.hashFunction;\n\t\tuint8 oldSize = toSDocument.size;\n\n\t\ttoSDocument = Types.Multihash(digest,hashFuntion,size);\n\t\temit MultihashChanged(\n\t\t\toldDigest,oldHashFunction,oldSize,\n\t\t\tdigest, hashFuntion, size);\n\t}\n\n\tevent InitializationLog(\n        string message\n    );\n\n\tevent MultihashChanged(\n        bytes32 oldDigest,\n\t\tuint8 oldHashFunction,\n\t\tuint8 oldSize,\n        bytes32 newDigest,\n        uint8 newHashFunction,\n        uint8 newSize\n    );\n\n\tmapping (address => uint256) private _mintersReserve;\n\n\tfunction _increaseReserve(address minter, uint256 amount) internal returns (bool) {\n\t\t_mintersReserve[minter] = _mintersReserve[minter].add(amount);\n\t\temit MinterReserveUpdate(minter,amount,true);\n\t\treturn true;\n\t}\n\n\tfunction _decreaseReserve(address minter, uint256 value) internal returns (bool) {\n\t\trequire(value<=_mintersReserve[minter], \"Value to reduce from minter reserve is upper than his reserve\");\n\t\t_mintersReserve[minter] = _mintersReserve[minter].sub(value);\n\t\temit MinterReserveUpdate(minter,value,false);\n\t\treturn true;\n\t}\n\n\tfunction minterReserve(address minter) public view returns(uint256){\n\t\trequire(masterMinter.isMinter(minter), \"Account entered is not a minter\");\n\t\treturn _mintersReserve[minter];\n\t}\n\n    /**\n     * @dev Throws if called by any account other than the masterMinter\n    */\n    modifier onlyMasterMinter() {\n        require(msg.sender == masterMinter.getMasterMinter(), \"masterMinter address needed\");\n        _;\n    }\n\n\tfunction transferReserve(address from,address to, uint256 amount) public onlyMasterMinter returns (bool) {\n\t\trequire(masterMinter.isMinter(to), \"Account entered is not a minter\");\n\t\trequire(minterReserve(from)>=amount, \"Reserve of minter is lower than amount to transfer\");\n\t\treturn _increaseReserve(to,amount) && _decreaseReserve(from,amount);\n\t}\n\n\tevent MinterReserveUpdate(\n\t\taddress minter,\n\t\tuint256 value,\n\t\tbool increase\n\t);\n\n}",
  "sourcePath": "contracts/FiatToken.sol",
  "abi": [
    {
      "constant": true,
      "inputs": [],
      "name": "name",
      "outputs": [
        {
          "name": "",
          "type": "string"
        }
      ],
      "payable": false,
      "stateMutability": "view",
      "type": "function"
    },
    {
      "constant": false,
      "inputs": [
        {
          "name": "spender",
          "type": "address"
        },
        {
          "name": "value",
          "type": "uint256"
        }
      ],
      "name": "approve",
      "outputs": [
        {
          "name": "",
          "type": "bool"
        }
      ],
      "payable": false,
      "stateMutability": "nonpayable",
      "type": "function"
    },
    {
      "constant": false,
      "inputs": [
        {
          "name": "name",
          "type": "string"
        },
        {
          "name": "symbol",
          "type": "string"
        },
        {
          "name": "decimals",
          "type": "uint8"
        },
        {
          "name": "_masterMinter",
          "type": "address"
        },
        {
          "name": "_blacklister",
          "type": "address"
        },
        {
          "name": "_pauserRole",
          "type": "address"
        },
        {
          "name": "owner",
          "type": "address"
        }
      ],
      "name": "initialize",
      "outputs": [],
      "payable": false,
      "stateMutability": "nonpayable",
      "type": "function"
    },
    {
      "constant": false,
      "inputs": [
        {
          "name": "name",
          "type": "string"
        },
        {
          "name": "symbol",
          "type": "string"
        },
        {
          "name": "decimals",
          "type": "uint8"
        }
      ],
      "name": "initialize",
      "outputs": [],
      "payable": false,
      "stateMutability": "nonpayable",
      "type": "function"
    },
    {
      "constant": true,
      "inputs": [],
      "name": "totalSupply",
      "outputs": [
        {
          "name": "",
          "type": "uint256"
        }
      ],
      "payable": false,
      "stateMutability": "view",
      "type": "function"
    },
    {
      "constant": false,
      "inputs": [
        {
          "name": "from",
          "type": "address"
        },
        {
          "name": "to",
          "type": "address"
        },
        {
          "name": "value",
          "type": "uint256"
        }
      ],
      "name": "transferFrom",
      "outputs": [
        {
          "name": "",
          "type": "bool"
        }
      ],
      "payable": false,
      "stateMutability": "nonpayable",
      "type": "function"
    },
    {
      "constant": false,
      "inputs": [
        {
          "name": "_pauserRole",
          "type": "address"
        }
      ],
      "name": "changePauser",
      "outputs": [],
      "payable": false,
      "stateMutability": "nonpayable",
      "type": "function"
    },
    {
      "constant": true,
      "inputs": [],
      "name": "decimals",
      "outputs": [
        {
          "name": "",
          "type": "uint8"
        }
      ],
      "payable": false,
      "stateMutability": "view",
      "type": "function"
    },
    {
      "constant": true,
      "inputs": [],
      "name": "masterMinter",
      "outputs": [
        {
          "name": "",
          "type": "address"
        }
      ],
      "payable": false,
      "stateMutability": "view",
      "type": "function"
    },
    {
      "constant": false,
      "inputs": [
        {
          "name": "spender",
          "type": "address"
        },
        {
          "name": "addedValue",
          "type": "uint256"
        }
      ],
      "name": "increaseAllowance",
      "outputs": [
        {
          "name": "",
          "type": "bool"
        }
      ],
      "payable": false,
      "stateMutability": "nonpayable",
      "type": "function"
    },
    {
      "constant": false,
      "inputs": [],
      "name": "unpause",
      "outputs": [],
      "payable": false,
      "stateMutability": "nonpayable",
      "type": "function"
    },
    {
      "constant": false,
      "inputs": [
        {
          "name": "to",
          "type": "address"
        },
        {
          "name": "value",
          "type": "uint256"
        }
      ],
      "name": "mint",
      "outputs": [
        {
          "name": "",
          "type": "bool"
        }
      ],
      "payable": false,
      "stateMutability": "nonpayable",
      "type": "function"
    },
    {
      "constant": true,
      "inputs": [],
      "name": "toSDocument",
      "outputs": [
        {
          "name": "digest",
          "type": "bytes32"
        },
        {
          "name": "hashFunction",
          "type": "uint8"
        },
        {
          "name": "size",
          "type": "uint8"
        }
      ],
      "payable": false,
      "stateMutability": "view",
      "type": "function"
    },
    {
      "constant": true,
      "inputs": [
        {
          "name": "anAddress",
          "type": "address"
        }
      ],
      "name": "isPauser",
      "outputs": [
        {
          "name": "",
          "type": "bool"
        }
      ],
      "payable": false,
      "stateMutability": "view",
      "type": "function"
    },
    {
      "constant": false,
      "inputs": [
        {
          "name": "digest",
          "type": "bytes32"
        },
        {
          "name": "hashFuntion",
          "type": "uint8"
        },
        {
          "name": "size",
          "type": "uint8"
        }
      ],
      "name": "setToSDocument",
      "outputs": [],
      "payable": false,
      "stateMutability": "nonpayable",
      "type": "function"
    },
    {
      "constant": true,
      "inputs": [
        {
          "name": "owner",
          "type": "address"
        }
      ],
      "name": "balanceOf",
      "outputs": [
        {
          "name": "",
          "type": "uint256"
        }
      ],
      "payable": false,
      "stateMutability": "view",
      "type": "function"
    },
    {
      "constant": false,
      "inputs": [],
      "name": "renounceOwnership",
      "outputs": [],
      "payable": false,
      "stateMutability": "nonpayable",
      "type": "function"
    },
    {
      "constant": false,
      "inputs": [
        {
          "name": "from",
          "type": "address"
        },
        {
          "name": "to",
          "type": "address"
        },
        {
          "name": "amount",
          "type": "uint256"
        }
      ],
      "name": "transferReserve",
      "outputs": [
        {
          "name": "",
          "type": "bool"
        }
      ],
      "payable": false,
      "stateMutability": "nonpayable",
      "type": "function"
    },
    {
      "constant": false,
      "inputs": [
        {
          "name": "to",
          "type": "address"
        },
        {
          "name": "value",
          "type": "uint256"
        }
      ],
      "name": "burnFrom",
      "outputs": [],
      "payable": false,
      "stateMutability": "nonpayable",
      "type": "function"
    },
    {
      "constant": false,
      "inputs": [],
      "name": "pause",
      "outputs": [],
      "payable": false,
      "stateMutability": "nonpayable",
      "type": "function"
    },
    {
      "constant": true,
      "inputs": [],
      "name": "owner",
      "outputs": [
        {
          "name": "",
          "type": "address"
        }
      ],
      "payable": false,
      "stateMutability": "view",
      "type": "function"
    },
    {
      "constant": true,
      "inputs": [],
      "name": "isOwner",
      "outputs": [
        {
          "name": "",
          "type": "bool"
        }
      ],
      "payable": false,
      "stateMutability": "view",
      "type": "function"
    },
    {
      "constant": true,
      "inputs": [],
      "name": "symbol",
      "outputs": [
        {
          "name": "",
          "type": "string"
        }
      ],
      "payable": false,
      "stateMutability": "view",
      "type": "function"
    },
    {
      "constant": false,
      "inputs": [
        {
          "name": "spender",
          "type": "address"
        },
        {
          "name": "subtractedValue",
          "type": "uint256"
        }
      ],
      "name": "decreaseAllowance",
      "outputs": [
        {
          "name": "",
          "type": "bool"
        }
      ],
      "payable": false,
      "stateMutability": "nonpayable",
      "type": "function"
    },
    {
      "constant": false,
      "inputs": [
        {
          "name": "to",
          "type": "address"
        },
        {
          "name": "value",
          "type": "uint256"
        }
      ],
      "name": "transfer",
      "outputs": [
        {
          "name": "",
          "type": "bool"
        }
      ],
      "payable": false,
      "stateMutability": "nonpayable",
      "type": "function"
    },
    {
      "constant": true,
      "inputs": [],
      "name": "isPaused",
      "outputs": [
        {
          "name": "",
          "type": "bool"
        }
      ],
      "payable": false,
      "stateMutability": "view",
      "type": "function"
    },
    {
      "constant": true,
      "inputs": [],
      "name": "blacklister",
      "outputs": [
        {
          "name": "",
          "type": "address"
        }
      ],
      "payable": false,
      "stateMutability": "view",
      "type": "function"
    },
    {
      "constant": true,
      "inputs": [
        {
          "name": "minter",
          "type": "address"
        }
      ],
      "name": "minterReserve",
      "outputs": [
        {
          "name": "",
          "type": "uint256"
        }
      ],
      "payable": false,
      "stateMutability": "view",
      "type": "function"
    },
    {
      "constant": false,
      "inputs": [
        {
          "name": "_pauserRole",
          "type": "address"
        }
      ],
      "name": "initialize",
      "outputs": [],
      "payable": false,
      "stateMutability": "nonpayable",
      "type": "function"
    },
    {
      "constant": true,
      "inputs": [
        {
          "name": "owner",
          "type": "address"
        },
        {
          "name": "spender",
          "type": "address"
        }
      ],
      "name": "allowance",
      "outputs": [
        {
          "name": "",
          "type": "uint256"
        }
      ],
      "payable": false,
      "stateMutability": "view",
      "type": "function"
    },
    {
      "constant": false,
      "inputs": [
        {
          "name": "newOwner",
          "type": "address"
        }
      ],
      "name": "transferOwnership",
      "outputs": [],
      "payable": false,
      "stateMutability": "nonpayable",
      "type": "function"
    },
    {
      "payable": true,
      "stateMutability": "payable",
      "type": "fallback"
    },
    {
      "anonymous": false,
      "inputs": [
        {
          "indexed": false,
          "name": "message",
          "type": "string"
        }
      ],
      "name": "InitializationLog",
      "type": "event"
    },
    {
      "anonymous": false,
      "inputs": [
        {
          "indexed": false,
          "name": "oldDigest",
          "type": "bytes32"
        },
        {
          "indexed": false,
          "name": "oldHashFunction",
          "type": "uint8"
        },
        {
          "indexed": false,
          "name": "oldSize",
          "type": "uint8"
        },
        {
          "indexed": false,
          "name": "newDigest",
          "type": "bytes32"
        },
        {
          "indexed": false,
          "name": "newHashFunction",
          "type": "uint8"
        },
        {
          "indexed": false,
          "name": "newSize",
          "type": "uint8"
        }
      ],
      "name": "MultihashChanged",
      "type": "event"
    },
    {
      "anonymous": false,
      "inputs": [
        {
          "indexed": false,
          "name": "minter",
          "type": "address"
        },
        {
          "indexed": false,
          "name": "value",
          "type": "uint256"
        },
        {
          "indexed": false,
          "name": "increase",
          "type": "bool"
        }
      ],
      "name": "MinterReserveUpdate",
      "type": "event"
    },
    {
      "anonymous": false,
      "inputs": [
        {
          "indexed": true,
          "name": "pauser",
          "type": "address"
        }
      ],
      "name": "PauserChanged",
      "type": "event"
    },
    {
      "anonymous": false,
      "inputs": [
        {
          "indexed": true,
          "name": "previousOwner",
          "type": "address"
        },
        {
          "indexed": true,
          "name": "newOwner",
          "type": "address"
        }
      ],
      "name": "OwnershipTransferred",
      "type": "event"
    },
    {
      "anonymous": false,
      "inputs": [
        {
          "indexed": true,
          "name": "from",
          "type": "address"
        },
        {
          "indexed": true,
          "name": "to",
          "type": "address"
        },
        {
          "indexed": false,
          "name": "value",
          "type": "uint256"
        }
      ],
      "name": "Transfer",
      "type": "event"
    },
    {
      "anonymous": false,
      "inputs": [
        {
          "indexed": true,
          "name": "owner",
          "type": "address"
        },
        {
          "indexed": true,
          "name": "spender",
          "type": "address"
        },
        {
          "indexed": false,
          "name": "value",
          "type": "uint256"
        }
      ],
      "name": "Approval",
      "type": "event"
    }
  ],
  "bytecode": "0x608060405234801561001057600080fd5b50612fde806100206000396000f3fe6080604052600436106101d85760003560e01c806370a0823111610102578063a457c2d711610095578063c3ea752711610064578063c3ea7527146109db578063c4d66de814610a1b578063dd62ed3e14610a5b578063f2fde38b14610aa3576101d8565b8063a457c2d714610925578063a9059cbb1461096b578063b187bd26146109b1578063bd102430146109c6576101d8565b80638456cb59116100d15780638456cb59146108d15780638da5cb5b146108e65780638f32d59b146108fb57806395d89b4114610910576101d8565b806370a08231146107e6578063715018a614610826578063770d782d1461083b57806379cc67901461088b576101d8565b8063313ce5671161017a57806340c10f191161014957806340c10f19146106ee5780634375649a1461073457806346fbf68e1461076b57806353d03fbc146107ab576101d8565b8063313ce5671461062a57806335d99f351461065557806339509351146106935780633f4ba83a146106d9576101d8565b80631624f6c6116101b65780631624f6c61461043457806318160ddd1461057357806323b872dd1461059a5780632cd271e7146105ea576101d8565b806306fdde03146101dd578063095ea7b314610267578063147936ba146102c1575b600080fd5b3480156101e957600080fd5b506101f2610ae3565b6040805160208082528351818301528351919283929083019185019080838360005b8381101561022c578181015183820152602001610214565b50505050905090810190601f1680156102595780820380516001836020036101000a031916815260200191505b509250505060405180910390f35b34801561027357600080fd5b506102ad6004803603604081101561028a57600080fd5b5073ffffffffffffffffffffffffffffffffffffffff8135169060200135610b98565b604080519115158252519081900360200190f35b3480156102cd57600080fd5b50610432600480360360e08110156102e457600080fd5b8101906020810181356401000000008111156102ff57600080fd5b82018360208201111561031157600080fd5b8035906020019184600183028401116401000000008311171561033357600080fd5b91908080601f016020809104026020016040519081016040528093929190818152602001838380828437600092019190915250929594936020810193503591505064010000000081111561038657600080fd5b82018360208201111561039857600080fd5b803590602001918460018302840111640100000000831117156103ba57600080fd5b91908080601f0160208091040260200160405190810160405280939291908181526020018383808284376000920191909152509295505050813560ff16925050602081013573ffffffffffffffffffffffffffffffffffffffff90811691604081013582169160608201358116916080013516610d2c565b005b34801561044057600080fd5b506104326004803603606081101561045757600080fd5b81019060208101813564010000000081111561047257600080fd5b82018360208201111561048457600080fd5b803590602001918460018302840111640100000000831117156104a657600080fd5b91908080601f01602080910402602001604051908101604052809392919081815260200183838082843760009201919091525092959493602081019350359150506401000000008111156104f957600080fd5b82018360208201111561050b57600080fd5b8035906020019184600183028401116401000000008311171561052d57600080fd5b91908080601f0160208091040260200160405190810160405280939291908181526020018383808284376000920191909152509295505050903560ff1691506110539050565b34801561057f57600080fd5b506105886111c1565b60408051918252519081900360200190f35b3480156105a657600080fd5b506102ad600480360360608110156105bd57600080fd5b5073ffffffffffffffffffffffffffffffffffffffff8135811691602081013590911690604001356111c7565b3480156105f657600080fd5b506104326004803603602081101561060d57600080fd5b503573ffffffffffffffffffffffffffffffffffffffff16611458565b34801561063657600080fd5b5061063f6114e0565b6040805160ff9092168252519081900360200190f35b34801561066157600080fd5b5061066a6114e9565b6040805173ffffffffffffffffffffffffffffffffffffffff9092168252519081900360200190f35b34801561069f57600080fd5b506102ad600480360360408110156106b657600080fd5b5073ffffffffffffffffffffffffffffffffffffffff8135169060200135611505565b3480156106e557600080fd5b5061043261155c565b3480156106fa57600080fd5b506102ad6004803603604081101561071157600080fd5b5073ffffffffffffffffffffffffffffffffffffffff8135169060200135611681565b34801561074057600080fd5b5061074961181b565b6040805193845260ff9283166020850152911682820152519081900360600190f35b34801561077757600080fd5b506102ad6004803603602081101561078e57600080fd5b503573ffffffffffffffffffffffffffffffffffffffff16611830565b3480156107b757600080fd5b50610432600480360360608110156107ce57600080fd5b5080359060ff60208201358116916040013516611851565b3480156107f257600080fd5b506105886004803603602081101561080957600080fd5b503573ffffffffffffffffffffffffffffffffffffffff1661194a565b34801561083257600080fd5b50610432611972565b34801561084757600080fd5b506102ad6004803603606081101561085e57600080fd5b5073ffffffffffffffffffffffffffffffffffffffff8135811691602081013590911690604001356119f4565b34801561089757600080fd5b50610432600480360360408110156108ae57600080fd5b5073ffffffffffffffffffffffffffffffffffffffff8135169060200135611c9e565b3480156108dd57600080fd5b50610432611e94565b3480156108f257600080fd5b5061066a611fcf565b34801561090757600080fd5b506102ad611feb565b34801561091c57600080fd5b506101f2612009565b34801561093157600080fd5b506102ad6004803603604081101561094857600080fd5b5073ffffffffffffffffffffffffffffffffffffffff8135169060200135612088565b34801561097757600080fd5b506102ad6004803603604081101561098e57600080fd5b5073ffffffffffffffffffffffffffffffffffffffff81351690602001356120d1565b3480156109bd57600080fd5b506102ad61225a565b3480156109d257600080fd5b5061066a61227b565b3480156109e757600080fd5b50610588600480360360208110156109fe57600080fd5b503573ffffffffffffffffffffffffffffffffffffffff16612297565b348015610a2757600080fd5b5061043260048036036020811015610a3e57600080fd5b503573ffffffffffffffffffffffffffffffffffffffff166123d0565b348015610a6757600080fd5b5061058860048036036040811015610a7e57600080fd5b5073ffffffffffffffffffffffffffffffffffffffff81358116916020013516612581565b348015610aaf57600080fd5b5061043260048036036020811015610ac657600080fd5b503573ffffffffffffffffffffffffffffffffffffffff166125b9565b60668054604080516020601f60027fffffffffffffffffffffffffffffffffffffffffffffffffffffffffffffffff610100600188161502019095169490940493840181900481028201810190925282815260609390929091830182828015610b8d5780601f10610b6257610100808354040283529160200191610b8d565b820191906000526020600020905b815481529060010190602001808311610b7057829003601f168201915b505050505090505b90565b60d154604080517ffe575a870000000000000000000000000000000000000000000000000000000081523360048201819052915160009373ffffffffffffffffffffffffffffffffffffffff169163fe575a87916024808301926020929190829003018186803b158015610c0b57600080fd5b505afa158015610c1f573d6000803e3d6000fd5b505050506040513d6020811015610c3557600080fd5b505115610c8d576040517f08c379a0000000000000000000000000000000000000000000000000000000008152600401808060200182810382526028815260200180612ec96028913960400191505060405180910390fd5b60d05474010000000000000000000000000000000000000000900460ff1615610d1757604080517f08c379a000000000000000000000000000000000000000000000000000000000815260206004820152601760248201527f5468697320636f6e747261637420697320706175736564000000000000000000604482015290519081900360640190fd5b610d2184846125d8565b506001949350505050565b600054610100900460ff1680610d455750610d456125e5565b80610d53575060005460ff16155b1515610daa576040517f08c379a000000000000000000000000000000000000000000000000000000000815260040180806020018281038252602e815260200180612f2e602e913960400191505060405180910390fd5b600054610100900460ff16158015610e1057600080547fffffffffffffffffffffffffffffffffffffffffffffffffffffffffffffff007fffffffffffffffffffffffffffffffffffffffffffffffffffffffffffff00ff909116610100171660011790555b610e1b888888611053565b60d280547fffffffffffffffffffffffff00000000000000000000000000000000000000001673ffffffffffffffffffffffffffffffffffffffff871617905560408051602080825260229082018190527fadec413d00f72bf512e1c36aa7eb9b13e7a13f77eaf92efb93716aec3f8d36a392829190820190612ea7823960400191505060405180910390a1610eb0836123d0565b6040805160208082526019908201527f416674657220496e697469616c697a65205061757361626c65000000000000008183015290517fadec413d00f72bf512e1c36aa7eb9b13e7a13f77eaf92efb93716aec3f8d36a39181900360600190a160d180547fffffffffffffffffffffffff00000000000000000000000000000000000000001673ffffffffffffffffffffffffffffffffffffffff8616179055604080516020808252601a908201527f416674657220426c61636b204c69737465722073657474696e670000000000008183015290517fadec413d00f72bf512e1c36aa7eb9b13e7a13f77eaf92efb93716aec3f8d36a3916060908290030190a1610fba826125eb565b604080516020808252601c908201527f4166746572204f776e61626c6520696e697469616c697a6174696f6e000000008183015290517fadec413d00f72bf512e1c36aa7eb9b13e7a13f77eaf92efb93716aec3f8d36a39181900360600190a1801561104957600080547fffffffffffffffffffffffffffffffffffffffffffffffffffffffffffff00ff1690555b5050505050505050565b600054610100900460ff168061106c575061106c6125e5565b8061107a575060005460ff16155b15156110d1576040517f08c379a000000000000000000000000000000000000000000000000000000000815260040180806020018281038252602e815260200180612f2e602e913960400191505060405180910390fd5b600054610100900460ff1615801561113757600080547fffffffffffffffffffffffffffffffffffffffffffffffffffffffffffffff007fffffffffffffffffffffffffffffffffffffffffffffffffffffffffffff00ff909116610100171660011790555b835161114a906066906020870190612ddc565b50825161115e906067906020860190612ddc565b50606880547fffffffffffffffffffffffffffffffffffffffffffffffffffffffffffffff001660ff841617905580156111bb57600080547fffffffffffffffffffffffffffffffffffffffffffffffffffffffffffff00ff1690555b50505050565b609d5490565b60d154604080517ffe575a8700000000000000000000000000000000000000000000000000000000815273ffffffffffffffffffffffffffffffffffffffff808716600483015291516000938793169163fe575a87916024808301926020929190829003018186803b15801561123c57600080fd5b505afa158015611250573d6000803e3d6000fd5b505050506040513d602081101561126657600080fd5b5051156112be576040517f08c379a0000000000000000000000000000000000000000000000000000000008152600401808060200182810382526028815260200180612ec96028913960400191505060405180910390fd5b60d154604080517ffe575a8700000000000000000000000000000000000000000000000000000000815273ffffffffffffffffffffffffffffffffffffffff808816600483015291518793929092169163fe575a8791602480820192602092909190829003018186803b15801561133457600080fd5b505afa158015611348573d6000803e3d6000fd5b505050506040513d602081101561135e57600080fd5b5051156113b6576040517f08c379a0000000000000000000000000000000000000000000000000000000008152600401808060200182810382526028815260200180612ec96028913960400191505060405180910390fd5b60d05474010000000000000000000000000000000000000000900460ff161561144057604080517f08c379a000000000000000000000000000000000000000000000000000000000815260206004820152601760248201527f5468697320636f6e747261637420697320706175736564000000000000000000604482015290519081900360640190fd5b61144b868686612775565b5060019695505050505050565b611460611feb565b151561146b57600080fd5b60d080547fffffffffffffffffffffffff00000000000000000000000000000000000000001673ffffffffffffffffffffffffffffffffffffffff83811691909117918290556040519116907fb80482a293ca2e013eda8683c9bd7fc8347cfdaeea5ede58cba46df502c2a60490600090a250565b60685460ff1690565b60d25473ffffffffffffffffffffffffffffffffffffffff1681565b336000818152609c6020908152604080832073ffffffffffffffffffffffffffffffffffffffff87168452909152812054909161155391859061154e908663ffffffff6127ca16565b6127e3565b50600192915050565b60d05473ffffffffffffffffffffffffffffffffffffffff1633146115cc576040517f08c379a0000000000000000000000000000000000000000000000000000000008152600401808060200182810382526030815260200180612f5c6030913960400191505060405180910390fd5b60d05474010000000000000000000000000000000000000000900460ff16151561165757604080517f08c379a000000000000000000000000000000000000000000000000000000000815260206004820152601b60248201527f5468697320636f6e7472616374206973206e6f74207061757365640000000000604482015290519081900360640190fd5b60d080547fffffffffffffffffffffff00ffffffffffffffffffffffffffffffffffffffff169055565b60d254604080517faa271e1a000000000000000000000000000000000000000000000000000000008152336004820152905160009273ffffffffffffffffffffffffffffffffffffffff169163aa271e1a916024808301926020929190829003018186803b1580156116f257600080fd5b505afa158015611706573d6000803e3d6000fd5b505050506040513d602081101561171c57600080fd5b5051151561178b57604080517f08c379a000000000000000000000000000000000000000000000000000000000815260206004820181905260248201527f4f6e6c79204d696e746572206163636f756e74732063616e20646f2074686174604482015290519081900360640190fd5b6117958383612896565b60006117a13384612969565b905080151561181157604080517f08c379a000000000000000000000000000000000000000000000000000000000815260206004820152601f60248201527f4d696e74657220526573657276652063616e2774206265207570646174656400604482015290519081900360640190fd5b5060019392505050565b60d35460d45460ff8082169161010090041683565b60d05473ffffffffffffffffffffffffffffffffffffffff91821691161490565b611859611feb565b151561186457600080fd5b60d3805460d48054604080516060818101835289825260ff89811660208085018290528a8316948601859052988c90556101008481027fffffffffffffffffffffffffffffffffffffffffffffffffffffffffffff00ff7fffffffffffffffffffffffffffffffffffffffffffffffffffffffffffffff0089168417161790975584518881528287169981018a905296909504168584018190529085018a9052608085019390935260a08401525192939290917f8cf27bf6b8360841af33a5a7b6c7fac39ca5703e1deb0a018269c70ecccda579919081900360c00190a1505050505050565b73ffffffffffffffffffffffffffffffffffffffff166000908152609b602052604090205490565b61197a611feb565b151561198557600080fd5b60335460405160009173ffffffffffffffffffffffffffffffffffffffff16907f8be0079c531659141344cd1fd0a4f28419497f9722a3daafe3b4186f6b6457e0908390a3603380547fffffffffffffffffffffffff0000000000000000000000000000000000000000169055565b60d254604080517fa14e6560000000000000000000000000000000000000000000000000000000008152905160009273ffffffffffffffffffffffffffffffffffffffff169163a14e6560916004808301926020929190829003018186803b158015611a5f57600080fd5b505afa158015611a73573d6000803e3d6000fd5b505050506040513d6020811015611a8957600080fd5b505173ffffffffffffffffffffffffffffffffffffffff163314611b0e57604080517f08c379a000000000000000000000000000000000000000000000000000000000815260206004820152601b60248201527f6d61737465724d696e7465722061646472657373206e65656465640000000000604482015290519081900360640190fd5b60d254604080517faa271e1a00000000000000000000000000000000000000000000000000000000815273ffffffffffffffffffffffffffffffffffffffff86811660048301529151919092169163aa271e1a916024808301926020929190829003018186803b158015611b8157600080fd5b505afa158015611b95573d6000803e3d6000fd5b505050506040513d6020811015611bab57600080fd5b50511515611c1a57604080517f08c379a000000000000000000000000000000000000000000000000000000000815260206004820152601f60248201527f4163636f756e7420656e7465726564206973206e6f742061206d696e74657200604482015290519081900360640190fd5b81611c2485612297565b1015611c7b576040517f08c379a0000000000000000000000000000000000000000000000000000000008152600401808060200182810382526032815260200180612e756032913960400191505060405180910390fd5b611c858383612969565b8015611c965750611c968483612a12565b949350505050565b60d254604080517faa271e1a000000000000000000000000000000000000000000000000000000008152336004820152905173ffffffffffffffffffffffffffffffffffffffff9092169163aa271e1a91602480820192602092909190829003018186803b158015611d0f57600080fd5b505afa158015611d23573d6000803e3d6000fd5b505050506040513d6020811015611d3957600080fd5b50511515611da857604080517f08c379a000000000000000000000000000000000000000000000000000000000815260206004820181905260248201527f4f6e6c79204d696e746572206163636f756e74732063616e20646f2074686174604482015290519081900360640190fd5b80611db28361194a565b1015611e09576040517f08c379a0000000000000000000000000000000000000000000000000000000008152600401808060200182810382526027815260200180612f8c6027913960400191505060405180910390fd5b611e138282612b35565b6000611e1f3383612a12565b9050801515611e8f57604080517f08c379a000000000000000000000000000000000000000000000000000000000815260206004820152601f60248201527f4d696e74657220526573657276652063616e2774206265207570646174656400604482015290519081900360640190fd5b505050565b60d05473ffffffffffffffffffffffffffffffffffffffff163314611f04576040517f08c379a0000000000000000000000000000000000000000000000000000000008152600401808060200182810382526030815260200180612f5c6030913960400191505060405180910390fd5b60d05474010000000000000000000000000000000000000000900460ff1615611f8e57604080517f08c379a000000000000000000000000000000000000000000000000000000000815260206004820152601760248201527f5468697320636f6e747261637420697320706175736564000000000000000000604482015290519081900360640190fd5b60d080547fffffffffffffffffffffff00ffffffffffffffffffffffffffffffffffffffff1674010000000000000000000000000000000000000000179055565b60335473ffffffffffffffffffffffffffffffffffffffff1690565b60335473ffffffffffffffffffffffffffffffffffffffff16331490565b60678054604080516020601f60027fffffffffffffffffffffffffffffffffffffffffffffffffffffffffffffffff610100600188161502019095169490940493840181900481028201810190925282815260609390929091830182828015610b8d5780601f10610b6257610100808354040283529160200191610b8d565b336000818152609c6020908152604080832073ffffffffffffffffffffffffffffffffffffffff87168452909152812054909161155391859061154e908663ffffffff612c0716565b60d154604080517ffe575a870000000000000000000000000000000000000000000000000000000081523360048201819052915160009373ffffffffffffffffffffffffffffffffffffffff169163fe575a87916024808301926020929190829003018186803b15801561214457600080fd5b505afa158015612158573d6000803e3d6000fd5b505050506040513d602081101561216e57600080fd5b5051156121c6576040517f08c379a0000000000000000000000000000000000000000000000000000000008152600401808060200182810382526028815260200180612ec96028913960400191505060405180910390fd5b60d05474010000000000000000000000000000000000000000900460ff161561225057604080517f08c379a000000000000000000000000000000000000000000000000000000000815260206004820152601760248201527f5468697320636f6e747261637420697320706175736564000000000000000000604482015290519081900360640190fd5b610d218484612c1c565b60d05474010000000000000000000000000000000000000000900460ff1690565b60d15473ffffffffffffffffffffffffffffffffffffffff1681565b60d254604080517faa271e1a00000000000000000000000000000000000000000000000000000000815273ffffffffffffffffffffffffffffffffffffffff84811660048301529151600093929092169163aa271e1a91602480820192602092909190829003018186803b15801561230e57600080fd5b505afa158015612322573d6000803e3d6000fd5b505050506040513d602081101561233857600080fd5b505115156123a757604080517f08c379a000000000000000000000000000000000000000000000000000000000815260206004820152601f60248201527f4163636f756e7420656e7465726564206973206e6f742061206d696e74657200604482015290519081900360640190fd5b5073ffffffffffffffffffffffffffffffffffffffff16600090815260d5602052604090205490565b600054610100900460ff16806123e957506123e96125e5565b806123f7575060005460ff16155b151561244e576040517f08c379a000000000000000000000000000000000000000000000000000000000815260040180806020018281038252602e815260200180612f2e602e913960400191505060405180910390fd5b600054610100900460ff161580156124b457600080547fffffffffffffffffffffffffffffffffffffffffffffffffffffffffffffff007fffffffffffffffffffffffffffffffffffffffffffffffffffffffffffff00ff909116610100171660011790555b60d080547fffffffffffffffffffffffff00000000000000000000000000000000000000001673ffffffffffffffffffffffffffffffffffffffff84811691909117918290556040519116907fb80482a293ca2e013eda8683c9bd7fc8347cfdaeea5ede58cba46df502c2a60490600090a260d080547fffffffffffffffffffffff00ffffffffffffffffffffffffffffffffffffffff169055801561257d57600080547fffffffffffffffffffffffffffffffffffffffffffffffffffffffffffff00ff1690555b5050565b73ffffffffffffffffffffffffffffffffffffffff9182166000908152609c6020908152604080832093909416825291909152205490565b6125c1611feb565b15156125cc57600080fd5b6125d581612c29565b50565b60006115533384846127e3565b303b1590565b600054610100900460ff168061260457506126046125e5565b80612612575060005460ff16155b1515612669576040517f08c379a000000000000000000000000000000000000000000000000000000000815260040180806020018281038252602e815260200180612f2e602e913960400191505060405180910390fd5b600054610100900460ff161580156126cf57600080547fffffffffffffffffffffffffffffffffffffffffffffffffffffffffffffff007fffffffffffffffffffffffffffffffffffffffffffffffffffffffffffff00ff909116610100171660011790555b603380547fffffffffffffffffffffffff00000000000000000000000000000000000000001673ffffffffffffffffffffffffffffffffffffffff84811691909117918290556040519116906000907f8be0079c531659141344cd1fd0a4f28419497f9722a3daafe3b4186f6b6457e0908290a3801561257d57600080547fffffffffffffffffffffffffffffffffffffffffffffffffffffffffffff00ff1690555050565b6000612782848484612cd9565b73ffffffffffffffffffffffffffffffffffffffff84166000908152609c602090815260408083203380855292529091205461181191869161154e908663ffffffff612c0716565b6000828201838110156127dc57600080fd5b9392505050565b73ffffffffffffffffffffffffffffffffffffffff8216151561280557600080fd5b73ffffffffffffffffffffffffffffffffffffffff8316151561282757600080fd5b73ffffffffffffffffffffffffffffffffffffffff8084166000818152609c6020908152604080832094871680845294825291829020859055815185815291517f8c5be1e5ebec7d5bd14f71427d1e84f3dd0314c0f7b2291e5b200ac8c7c3b9259281900390910190a3505050565b73ffffffffffffffffffffffffffffffffffffffff821615156128b857600080fd5b609d546128cb908263ffffffff6127ca16565b609d5573ffffffffffffffffffffffffffffffffffffffff82166000908152609b6020526040902054612904908263ffffffff6127ca16565b73ffffffffffffffffffffffffffffffffffffffff83166000818152609b602090815260408083209490945583518581529351929391927fddf252ad1be2c89b69c2b068fc378daa952ba7f163c4a11628f55a4df523b3ef9281900390910190a35050565b73ffffffffffffffffffffffffffffffffffffffff8216600090815260d5602052604081205461299f908363ffffffff6127ca16565b73ffffffffffffffffffffffffffffffffffffffff8416600081815260d5602090815260409182902093909355805191825291810184905260018183015290517f6a9ac2053d663f7ad5b60beb48c89cc789fe730f966a14c75d15859b4f50c7039181900360600190a150600192915050565b73ffffffffffffffffffffffffffffffffffffffff8216600090815260d56020526040812054821115612a90576040517f08c379a000000000000000000000000000000000000000000000000000000000815260040180806020018281038252603d815260200180612ef1603d913960400191505060405180910390fd5b73ffffffffffffffffffffffffffffffffffffffff8316600090815260d56020526040902054612ac6908363ffffffff612c0716565b73ffffffffffffffffffffffffffffffffffffffff8416600081815260d56020908152604080832094909455835192835282018590528183015290517f6a9ac2053d663f7ad5b60beb48c89cc789fe730f966a14c75d15859b4f50c7039181900360600190a150600192915050565b73ffffffffffffffffffffffffffffffffffffffff82161515612b5757600080fd5b609d54612b6a908263ffffffff612c0716565b609d5573ffffffffffffffffffffffffffffffffffffffff82166000908152609b6020526040902054612ba3908263ffffffff612c0716565b73ffffffffffffffffffffffffffffffffffffffff83166000818152609b60209081526040808320949094558351858152935191937fddf252ad1be2c89b69c2b068fc378daa952ba7f163c4a11628f55a4df523b3ef929081900390910190a35050565b600082821115612c1657600080fd5b50900390565b6000611553338484612cd9565b73ffffffffffffffffffffffffffffffffffffffff81161515612c4b57600080fd5b60335460405173ffffffffffffffffffffffffffffffffffffffff8084169216907f8be0079c531659141344cd1fd0a4f28419497f9722a3daafe3b4186f6b6457e090600090a3603380547fffffffffffffffffffffffff00000000000000000000000000000000000000001673ffffffffffffffffffffffffffffffffffffffff92909216919091179055565b73ffffffffffffffffffffffffffffffffffffffff82161515612cfb57600080fd5b73ffffffffffffffffffffffffffffffffffffffff83166000908152609b6020526040902054612d31908263ffffffff612c0716565b73ffffffffffffffffffffffffffffffffffffffff8085166000908152609b60205260408082209390935590841681522054612d73908263ffffffff6127ca16565b73ffffffffffffffffffffffffffffffffffffffff8084166000818152609b602090815260409182902094909455805185815290519193928716927fddf252ad1be2c89b69c2b068fc378daa952ba7f163c4a11628f55a4df523b3ef92918290030190a3505050565b828054600181600116156101000203166002900490600052602060002090601f016020900481019282601f10612e1d57805160ff1916838001178555612e4a565b82800160010185558215612e4a579182015b82811115612e4a578251825591602001919060010190612e2f565b50612e56929150612e5a565b5090565b610b9591905b80821115612e565760008155600101612e6056fe52657365727665206f66206d696e746572206973206c6f776572207468616e20616d6f756e7420746f207472616e736665724166746572204d6173746572204d696e74657220696e697469616c697a6174696f6e74686973206163636f756e74206973206d61726b656420696e206f757220626c61632d6b6c69737456616c756520746f207265647563652066726f6d206d696e7465722072657365727665206973207570706572207468616e206869732072657365727665436f6e747261637420696e7374616e63652068617320616c7265616479206265656e20696e697469616c697a65644f6e6c792070617573657220726f6c6520616464726573732063616e207061757365207468697320636f6e747261637455736572204163636f756e7420646f6573206e6f74206861766520656e6f7567682066756e6473a165627a7a723058206f6adcad334bed50dae53bb91e6d623c23689276e4c5d4467a7c25e5e46348710029",
  "compiler": {
    "name": "solc",
    "version": "0.5.2+commit.1df8f40c.Emscripten.clang",
    "optimizer": {
      "enabled": true,
      "runs": 1000000000
    },
    "evmVersion": "constantinople"
  }
}