{"fileName":"FiatToken.sol","contractName":"FiatToken","source":"pragma solidity ^0.5.2;\n\nimport \"openzeppelin-eth/contracts/token/ERC20/ERC20Mintable.sol\";\nimport \"openzeppelin-eth/contracts/token/ERC20/ERC20Burnable.sol\";\nimport \"openzeppelin-eth/contracts/token/ERC20/ERC20Detailed.sol\";\nimport \"openzeppelin-eth/contracts/ownership/Ownable.sol\";\nimport \"openzeppelin-eth/contracts/lifecycle/Pausable.sol\";\nimport \"./MasterMinter.sol\";\nimport \"./Blacklistable.sol\";\n\n/**\n* @title FiatToken contract\n* @dev This sontact was meant to work as a stable coin with upgradeability support.\n*/\ncontract FiatToken is Ownable, ERC20Detailed, Pausable,  MasterMinter, ERC20Burnable, Blacklistable {\n\n\n\t/**\n\t* @dev this function is needed by support uppgradeability\n\t* @param name : string. The name of this token ERC20.\n\t* @param symbol : string. ERC20 token symbol .\n\t* @param decimals : uint8. Decimals fractions that may have a token unit.\n\t* @param masterMinterAddress : address.\n\t* @param blacklisterAddress : address.\n\t* @param pauser : address.\n\t* @param owner : address.\n\t*/\n\tfunction initialize(string memory name,\n\t\tstring memory symbol,\n\t\tuint8 decimals,\n\t\taddress masterMinterAddress,\n\t\taddress blacklisterAddress,\n\t\taddress pauser,\n\t\taddress owner) public initializer  {\n\n\t\tMasterMinter.initialize(masterMinterAddress);\n\t\tBlacklistable.initialize(blacklisterAddress);\n\t\tERC20Detailed.initialize(name,symbol,decimals);\n\t\tMasterMinter.initialize(masterMinterAddress);\n\t\tOwnable.initialize(owner);\n\t\tPausable.initialize(pauser);\n\t}\n\n\t/**\n\t* @dev Just to be sure at all\n\t*/\n\tfunction () external payable {\n\t\trevert(\"This contract is not meant to manage ether\");\n\t}\n\n\t/**\n\t* @dev overriding ERC20.transfer with modifier whenNotPaused\n\t* @param to The address to transfer to.\n\t* @param value The amount to be transferred.\n\t*/\n\tfunction transfer(address to, uint256 value) public whenNotPaused notBlacklisted(msg.sender) returns(bool) {\n\t\tERC20.transfer(to, value);\n\t\treturn true;\n\t}\n\n\n\n}","sourcePath":"contracts/FiatToken.sol","abi":[{"constant":true,"inputs":[],"name":"name","outputs":[{"name":"","type":"string"}],"payable":false,"stateMutability":"view","type":"function"},{"constant":false,"inputs":[{"name":"spender","type":"address"},{"name":"value","type":"uint256"}],"name":"approve","outputs":[{"name":"","type":"bool"}],"payable":false,"stateMutability":"nonpayable","type":"function"},{"constant":false,"inputs":[{"name":"name","type":"string"},{"name":"symbol","type":"string"},{"name":"decimals","type":"uint8"},{"name":"masterMinterAddress","type":"address"},{"name":"blacklisterAddress","type":"address"},{"name":"pauser","type":"address"},{"name":"owner","type":"address"}],"name":"initialize","outputs":[],"payable":false,"stateMutability":"nonpayable","type":"function"},{"constant":false,"inputs":[{"name":"name","type":"string"},{"name":"symbol","type":"string"},{"name":"decimals","type":"uint8"}],"name":"initialize","outputs":[],"payable":false,"stateMutability":"nonpayable","type":"function"},{"constant":true,"inputs":[],"name":"totalSupply","outputs":[{"name":"","type":"uint256"}],"payable":false,"stateMutability":"view","type":"function"},{"constant":false,"inputs":[{"name":"_account","type":"address"}],"name":"unBlacklist","outputs":[],"payable":false,"stateMutability":"nonpayable","type":"function"},{"constant":false,"inputs":[{"name":"from","type":"address"},{"name":"to","type":"address"},{"name":"value","type":"uint256"}],"name":"transferFrom","outputs":[{"name":"","type":"bool"}],"payable":false,"stateMutability":"nonpayable","type":"function"},{"constant":false,"inputs":[{"name":"account","type":"address"}],"name":"removeMinter","outputs":[],"payable":false,"stateMutability":"nonpayable","type":"function"},{"constant":true,"inputs":[],"name":"decimals","outputs":[{"name":"","type":"uint8"}],"payable":false,"stateMutability":"view","type":"function"},{"constant":true,"inputs":[],"name":"masterMinter","outputs":[{"name":"","type":"address"}],"payable":false,"stateMutability":"view","type":"function"},{"constant":false,"inputs":[{"name":"spender","type":"address"},{"name":"addedValue","type":"uint256"}],"name":"increaseAllowance","outputs":[{"name":"","type":"bool"}],"payable":false,"stateMutability":"nonpayable","type":"function"},{"constant":false,"inputs":[],"name":"unpause","outputs":[],"payable":false,"stateMutability":"nonpayable","type":"function"},{"constant":false,"inputs":[{"name":"to","type":"address"},{"name":"value","type":"uint256"}],"name":"mint","outputs":[{"name":"","type":"bool"}],"payable":false,"stateMutability":"nonpayable","type":"function"},{"constant":false,"inputs":[{"name":"value","type":"uint256"}],"name":"burn","outputs":[],"payable":false,"stateMutability":"nonpayable","type":"function"},{"constant":true,"inputs":[{"name":"account","type":"address"}],"name":"isPauser","outputs":[{"name":"","type":"bool"}],"payable":false,"stateMutability":"view","type":"function"},{"constant":true,"inputs":[],"name":"paused","outputs":[{"name":"","type":"bool"}],"payable":false,"stateMutability":"view","type":"function"},{"constant":false,"inputs":[],"name":"renouncePauser","outputs":[],"payable":false,"stateMutability":"nonpayable","type":"function"},{"constant":true,"inputs":[{"name":"owner","type":"address"}],"name":"balanceOf","outputs":[{"name":"","type":"uint256"}],"payable":false,"stateMutability":"view","type":"function"},{"constant":false,"inputs":[],"name":"renounceOwnership","outputs":[],"payable":false,"stateMutability":"nonpayable","type":"function"},{"constant":false,"inputs":[{"name":"from","type":"address"},{"name":"value","type":"uint256"}],"name":"burnFrom","outputs":[],"payable":false,"stateMutability":"nonpayable","type":"function"},{"constant":false,"inputs":[{"name":"account","type":"address"}],"name":"addPauser","outputs":[],"payable":false,"stateMutability":"nonpayable","type":"function"},{"constant":false,"inputs":[],"name":"pause","outputs":[],"payable":false,"stateMutability":"nonpayable","type":"function"},{"constant":true,"inputs":[],"name":"owner","outputs":[{"name":"","type":"address"}],"payable":false,"stateMutability":"view","type":"function"},{"constant":true,"inputs":[],"name":"isOwner","outputs":[{"name":"","type":"bool"}],"payable":false,"stateMutability":"view","type":"function"},{"constant":true,"inputs":[],"name":"symbol","outputs":[{"name":"","type":"string"}],"payable":false,"stateMutability":"view","type":"function"},{"constant":false,"inputs":[{"name":"account","type":"address"}],"name":"addMinter","outputs":[],"payable":false,"stateMutability":"nonpayable","type":"function"},{"constant":false,"inputs":[],"name":"renounceMinter","outputs":[],"payable":false,"stateMutability":"nonpayable","type":"function"},{"constant":false,"inputs":[{"name":"spender","type":"address"},{"name":"subtractedValue","type":"uint256"}],"name":"decreaseAllowance","outputs":[{"name":"","type":"bool"}],"payable":false,"stateMutability":"nonpayable","type":"function"},{"constant":false,"inputs":[{"name":"to","type":"address"},{"name":"value","type":"uint256"}],"name":"transfer","outputs":[{"name":"","type":"bool"}],"payable":false,"stateMutability":"nonpayable","type":"function"},{"constant":false,"inputs":[{"name":"_newMasterMinter","type":"address"}],"name":"updateMasterMinter","outputs":[],"payable":false,"stateMutability":"nonpayable","type":"function"},{"constant":true,"inputs":[{"name":"account","type":"address"}],"name":"isMinter","outputs":[{"name":"","type":"bool"}],"payable":false,"stateMutability":"view","type":"function"},{"constant":false,"inputs":[{"name":"_newBlacklister","type":"address"}],"name":"updateBlacklister","outputs":[],"payable":false,"stateMutability":"nonpayable","type":"function"},{"constant":true,"inputs":[],"name":"blacklister","outputs":[{"name":"","type":"address"}],"payable":false,"stateMutability":"view","type":"function"},{"constant":false,"inputs":[{"name":"_blacklister","type":"address"}],"name":"initialize","outputs":[],"payable":false,"stateMutability":"nonpayable","type":"function"},{"constant":true,"inputs":[{"name":"owner","type":"address"},{"name":"spender","type":"address"}],"name":"allowance","outputs":[{"name":"","type":"uint256"}],"payable":false,"stateMutability":"view","type":"function"},{"constant":false,"inputs":[{"name":"newOwner","type":"address"}],"name":"transferOwnership","outputs":[],"payable":false,"stateMutability":"nonpayable","type":"function"},{"constant":false,"inputs":[{"name":"_account","type":"address"}],"name":"blacklist","outputs":[],"payable":false,"stateMutability":"nonpayable","type":"function"},{"constant":true,"inputs":[{"name":"_account","type":"address"}],"name":"isBlacklisted","outputs":[{"name":"","type":"bool"}],"payable":false,"stateMutability":"view","type":"function"},{"payable":true,"stateMutability":"payable","type":"fallback"},{"anonymous":false,"inputs":[{"indexed":true,"name":"_account","type":"address"}],"name":"Blacklisted","type":"event"},{"anonymous":false,"inputs":[{"indexed":true,"name":"_account","type":"address"}],"name":"UnBlacklisted","type":"event"},{"anonymous":false,"inputs":[{"indexed":true,"name":"newBlacklister","type":"address"}],"name":"BlacklisterChanged","type":"event"},{"anonymous":false,"inputs":[{"indexed":true,"name":"account","type":"address"}],"name":"MasterMinterAdded","type":"event"},{"anonymous":false,"inputs":[{"indexed":true,"name":"newMasterMinter","type":"address"}],"name":"MasterMinterChanged","type":"event"},{"anonymous":false,"inputs":[{"indexed":false,"name":"account","type":"address"}],"name":"Paused","type":"event"},{"anonymous":false,"inputs":[{"indexed":false,"name":"account","type":"address"}],"name":"Unpaused","type":"event"},{"anonymous":false,"inputs":[{"indexed":true,"name":"account","type":"address"}],"name":"PauserAdded","type":"event"},{"anonymous":false,"inputs":[{"indexed":true,"name":"account","type":"address"}],"name":"PauserRemoved","type":"event"},{"anonymous":false,"inputs":[{"indexed":true,"name":"previousOwner","type":"address"},{"indexed":true,"name":"newOwner","type":"address"}],"name":"OwnershipTransferred","type":"event"},{"anonymous":false,"inputs":[{"indexed":true,"name":"account","type":"address"}],"name":"MinterAdded","type":"event"},{"anonymous":false,"inputs":[{"indexed":true,"name":"account","type":"address"}],"name":"MinterRemoved","type":"event"},{"anonymous":false,"inputs":[{"indexed":true,"name":"from","type":"address"},{"indexed":true,"name":"to","type":"address"},{"indexed":false,"name":"value","type":"uint256"}],"name":"Transfer","type":"event"},{"anonymous":false,"inputs":[{"indexed":true,"name":"owner","type":"address"},{"indexed":true,"name":"spender","type":"address"},{"indexed":false,"name":"value","type":"uint256"}],"name":"Approval","type":"event"}],"bytecode":"0x608060405234801561001057600080fd5b50612c23806100206000396000f3fe6080604052600436106102855760003560e01c806379cc679011610153578063a9059cbb116100cb578063c4d66de81161007f578063f2fde38b11610064578063f2fde38b14610c6e578063f9f92be414610cae578063fe575a8714610cee57610285565b8063c4d66de814610be6578063dd62ed3e14610c2657610285565b8063aa271e1a116100b0578063aa271e1a14610b51578063ad38bf2214610b91578063bd10243014610bd157610285565b8063a9059cbb14610acb578063aa20e1e414610b1157610285565b80638f32d59b11610122578063983b2d5611610107578063983b2d5614610a305780639865027514610a70578063a457c2d714610a8557610285565b80638f32d59b14610a0657806395d89b4114610a1b57610285565b806379cc67901461095657806382dc1ec41461099c5780638456cb59146109dc5780638da5cb5b146109f157610285565b806335d99f351161020157806346fbf68e116101b55780636ef8d66d1161019a5780636ef8d66d146108ec57806370a0823114610901578063715018a61461094157610285565b806346fbf68e146108975780635c975abb146108d757610285565b80633f4ba83a116101e65780633f4ba83a1461081257806340c10f191461082757806342966c681461086d57610285565b806335d99f351461078e57806339509351146107cc57610285565b806318160ddd1161025857806323b872dd1161023d57806323b872dd146106d35780633092afd514610723578063313ce5671461076357610285565b806318160ddd1461066c5780631a8952661461069357610285565b806306fdde03146102d6578063095ea7b314610360578063147936ba146103ba5780631624f6c61461052d575b6040517f08c379a000000000000000000000000000000000000000000000000000000000815260040180806020018281038252602a815260200180612b0e602a913960400191505060405180910390fd5b3480156102e257600080fd5b506102eb610d2e565b6040805160208082528351818301528351919283929083019185019080838360005b8381101561032557818101518382015260200161030d565b50505050905090810190601f1680156103525780820380516001836020036101000a031916815260200191505b509250505060405180910390f35b34801561036c57600080fd5b506103a66004803603604081101561038357600080fd5b5073ffffffffffffffffffffffffffffffffffffffff8135169060200135610de2565b604080519115158252519081900360200190f35b3480156103c657600080fd5b5061052b600480360360e08110156103dd57600080fd5b8101906020810181356401000000008111156103f857600080fd5b82018360208201111561040a57600080fd5b8035906020019184600183028401116401000000008311171561042c57600080fd5b91908080601f016020809104026020016040519081016040528093929190818152602001838380828437600092019190915250929594936020810193503591505064010000000081111561047f57600080fd5b82018360208201111561049157600080fd5b803590602001918460018302840111640100000000831117156104b357600080fd5b91908080601f0160208091040260200160405190810160405280939291908181526020018383808284376000920191909152509295505050813560ff16925050602081013573ffffffffffffffffffffffffffffffffffffffff90811691604081013582169160608201358116916080013516610df8565b005b34801561053957600080fd5b5061052b6004803603606081101561055057600080fd5b81019060208101813564010000000081111561056b57600080fd5b82018360208201111561057d57600080fd5b8035906020019184600183028401116401000000008311171561059f57600080fd5b91908080601f01602080910402602001604051908101604052809392919081815260200183838082843760009201919091525092959493602081019350359150506401000000008111156105f257600080fd5b82018360208201111561060457600080fd5b8035906020019184600183028401116401000000008311171561062657600080fd5b91908080601f0160208091040260200160405190810160405280939291908181526020018383808284376000920191909152509295505050903560ff169150610f4b9050565b34801561067857600080fd5b506106816110ba565b60408051918252519081900360200190f35b34801561069f57600080fd5b5061052b600480360360208110156106b657600080fd5b503573ffffffffffffffffffffffffffffffffffffffff166110c0565b3480156106df57600080fd5b506103a6600480360360608110156106f657600080fd5b5073ffffffffffffffffffffffffffffffffffffffff8135811691602081013590911690604001356111a6565b34801561072f57600080fd5b5061052b6004803603602081101561074657600080fd5b503573ffffffffffffffffffffffffffffffffffffffff1661120a565b34801561076f57600080fd5b5061077861129d565b6040805160ff9092168252519081900360200190f35b34801561079a57600080fd5b506107a36112a7565b6040805173ffffffffffffffffffffffffffffffffffffffff9092168252519081900360200190f35b3480156107d857600080fd5b506103a6600480360360408110156107ef57600080fd5b5073ffffffffffffffffffffffffffffffffffffffff81351690602001356112c4565b34801561081e57600080fd5b5061052b61130d565b34801561083357600080fd5b506103a66004803603604081101561084a57600080fd5b5073ffffffffffffffffffffffffffffffffffffffff813516906020013561138d565b34801561087957600080fd5b5061052b6004803603602081101561089057600080fd5b50356113ab565b3480156108a357600080fd5b506103a6600480360360208110156108ba57600080fd5b503573ffffffffffffffffffffffffffffffffffffffff166113b5565b3480156108e357600080fd5b506103a66113cf565b3480156108f857600080fd5b5061052b6113d9565b34801561090d57600080fd5b506106816004803603602081101561092457600080fd5b503573ffffffffffffffffffffffffffffffffffffffff166113e4565b34801561094d57600080fd5b5061052b61140c565b34801561096257600080fd5b5061052b6004803603604081101561097957600080fd5b5073ffffffffffffffffffffffffffffffffffffffff813516906020013561148c565b3480156109a857600080fd5b5061052b600480360360208110156109bf57600080fd5b503573ffffffffffffffffffffffffffffffffffffffff1661149a565b3480156109e857600080fd5b5061052b6114b5565b3480156109fd57600080fd5b506107a3611539565b348015610a1257600080fd5b506103a6611555565b348015610a2757600080fd5b506102eb611573565b348015610a3c57600080fd5b5061052b60048036036020811015610a5357600080fd5b503573ffffffffffffffffffffffffffffffffffffffff166115f3565b348015610a7c57600080fd5b5061052b611683565b348015610a9157600080fd5b506103a660048036036040811015610aa857600080fd5b5073ffffffffffffffffffffffffffffffffffffffff813516906020013561168c565b348015610ad757600080fd5b506103a660048036036040811015610aee57600080fd5b5073ffffffffffffffffffffffffffffffffffffffff81351690602001356116d5565b348015610b1d57600080fd5b5061052b60048036036020811015610b3457600080fd5b503573ffffffffffffffffffffffffffffffffffffffff16611768565b348015610b5d57600080fd5b506103a660048036036020811015610b7457600080fd5b503573ffffffffffffffffffffffffffffffffffffffff1661187f565b348015610b9d57600080fd5b5061052b60048036036020811015610bb457600080fd5b503573ffffffffffffffffffffffffffffffffffffffff16611892565b348015610bdd57600080fd5b506107a361199b565b348015610bf257600080fd5b5061052b60048036036020811015610c0957600080fd5b503573ffffffffffffffffffffffffffffffffffffffff166119b8565b348015610c3257600080fd5b5061068160048036036040811015610c4957600080fd5b5073ffffffffffffffffffffffffffffffffffffffff81358116916020013516611b3f565b348015610c7a57600080fd5b5061052b60048036036020811015610c9157600080fd5b503573ffffffffffffffffffffffffffffffffffffffff16611b77565b348015610cba57600080fd5b5061052b60048036036020811015610cd157600080fd5b503573ffffffffffffffffffffffffffffffffffffffff16611b91565b348015610cfa57600080fd5b506103a660048036036020811015610d1157600080fd5b503573ffffffffffffffffffffffffffffffffffffffff16611c7a565b6101008054604080516020601f60027fffffffffffffffffffffffffffffffffffffffffffffffffffffffffffffffff60018716158802019095169490940493840181900481028201810190925282815260609390929091830182828015610dd75780601f10610dac57610100808354040283529160200191610dd7565b820191906000526020600020905b815481529060010190602001808311610dba57829003601f168201915b505050505090505b90565b6000610def338484611ca6565b50600192915050565b600054610100900460ff1680610e115750610e11611d55565b80610e1f575060005460ff16155b610e74576040517f08c379a000000000000000000000000000000000000000000000000000000000815260040180806020018281038252602e815260200180612b8b602e913960400191505060405180910390fd5b600054610100900460ff16158015610eda57600080547fffffffffffffffffffffffffffffffffffffffffffffffffffffffffffffff007fffffffffffffffffffffffffffffffffffffffffffffffffffffffffffff00ff909116610100171660011790555b610ee385611d5b565b610eec846119b8565b610ef7888888610f4b565b610f0085611d5b565b610f0982611eff565b610f1283612087565b8015610f4157600080547fffffffffffffffffffffffffffffffffffffffffffffffffffffffffffff00ff1690555b5050505050505050565b600054610100900460ff1680610f645750610f64611d55565b80610f72575060005460ff16155b610fc7576040517f08c379a000000000000000000000000000000000000000000000000000000000815260040180806020018281038252602e815260200180612b8b602e913960400191505060405180910390fd5b600054610100900460ff1615801561102d57600080547fffffffffffffffffffffffffffffffffffffffffffffffffffffffffffffff007fffffffffffffffffffffffffffffffffffffffffffffffffffffffffffff00ff909116610100171660011790555b835161104190610100906020870190612a75565b50825161105690610101906020860190612a75565b5061010280547fffffffffffffffffffffffffffffffffffffffffffffffffffffffffffffff001660ff841617905580156110b457600080547fffffffffffffffffffffffffffffffffffffffffffffffffffffffffffff00ff1690555b50505050565b60355490565b6101ce5473ffffffffffffffffffffffffffffffffffffffff163314611131576040517f08c379a000000000000000000000000000000000000000000000000000000000815260040180806020018281038252602a815260200180612b61602a913960400191505060405180910390fd5b73ffffffffffffffffffffffffffffffffffffffff811660008181526101cf602052604080822080547fffffffffffffffffffffffffffffffffffffffffffffffffffffffffffffff00169055517f117e3210bb9aa7d9baff172026820255c6f6c30ba8999d1c2fd88e2848137c4e9190a250565b60006111b38484846121cd565b73ffffffffffffffffffffffffffffffffffffffff84166000908152603460209081526040808320338085529252909120546112009186916111fb908663ffffffff6122ce16565b611ca6565b5060019392505050565b61019b5473ffffffffffffffffffffffffffffffffffffffff16331461129157604080517f08c379a000000000000000000000000000000000000000000000000000000000815260206004820152601b60248201527f6d61737465724d696e7465722061646472657373206e65656465640000000000604482015290519081900360640190fd5b61129a816122e3565b50565b6101025460ff1690565b61019b5473ffffffffffffffffffffffffffffffffffffffff1681565b33600081815260346020908152604080832073ffffffffffffffffffffffffffffffffffffffff871684529091528120549091610def9185906111fb908663ffffffff61233816565b611316336113b5565b61131f57600080fd5b6101685460ff1661132f57600080fd5b61016880547fffffffffffffffffffffffffffffffffffffffffffffffffffffffffffffff001690556040805133815290517f5db9ee0a495bf2e6ff9c91a7834c1ba4fdd244a5e8aa4e537bd38aeae4b073aa9181900360200190a1565b60006113983361187f565b6113a157600080fd5b610def8383612351565b61129a3382612422565b60006113c96101358363ffffffff6124f216565b92915050565b6101685460ff1690565b6113e233612541565b565b73ffffffffffffffffffffffffffffffffffffffff1660009081526033602052604090205490565b611414611555565b61141d57600080fd5b60cd5460405160009173ffffffffffffffffffffffffffffffffffffffff16907f8be0079c531659141344cd1fd0a4f28419497f9722a3daafe3b4186f6b6457e0908390a360cd80547fffffffffffffffffffffffff0000000000000000000000000000000000000000169055565b6114968282612597565b5050565b6114a3336113b5565b6114ac57600080fd5b61129a816125e9565b6114be336113b5565b6114c757600080fd5b6101685460ff16156114d857600080fd5b61016880547fffffffffffffffffffffffffffffffffffffffffffffffffffffffffffffff001660011790556040805133815290517f62e78cea01bee320cd4e420270b5ea74000d11b0c9f74754ebdbfc544b05a2589181900360200190a1565b60cd5473ffffffffffffffffffffffffffffffffffffffff1690565b60cd5473ffffffffffffffffffffffffffffffffffffffff16331490565b6101018054604080516020601f60027fffffffffffffffffffffffffffffffffffffffffffffffffffffffffffffffff610100600188161502019095169490940493840181900481028201810190925282815260609390929091830182828015610dd75780601f10610dac57610100808354040283529160200191610dd7565b61019b5473ffffffffffffffffffffffffffffffffffffffff16331461167a57604080517f08c379a000000000000000000000000000000000000000000000000000000000815260206004820152601b60248201527f6d61737465724d696e7465722061646472657373206e65656465640000000000604482015290519081900360640190fd5b61129a8161263f565b6113e2336122e3565b33600081815260346020908152604080832073ffffffffffffffffffffffffffffffffffffffff871684529091528120549091610def9185906111fb908663ffffffff6122ce16565b6101685460009060ff16156116e957600080fd5b3360008181526101cf602052604090205460ff1615611753576040517f08c379a0000000000000000000000000000000000000000000000000000000008152600401808060200182810382526029815260200180612b386029913960400191505060405180910390fd5b61175d8484612694565b506001949350505050565b611770611555565b61177957600080fd5b73ffffffffffffffffffffffffffffffffffffffff8116158015906117b4575073ffffffffffffffffffffffffffffffffffffffff81163314155b611809576040517f08c379a0000000000000000000000000000000000000000000000000000000008152600401808060200182810382526036815260200180612bb96036913960400191505060405180910390fd5b61019b80547fffffffffffffffffffffffff00000000000000000000000000000000000000001673ffffffffffffffffffffffffffffffffffffffff83811691909117918290556040519116907fdb66dfa9c6b8f5226fe9aac7e51897ae8ee94ac31dc70bb6c9900b2574b707e690600090a250565b60006113c960688363ffffffff6124f216565b61189a611555565b6118a357600080fd5b73ffffffffffffffffffffffffffffffffffffffff811661192557604080517f08c379a000000000000000000000000000000000000000000000000000000000815260206004820152601260248201527f626c61636b6c6973746572206973203078300000000000000000000000000000604482015290519081900360640190fd5b6101ce80547fffffffffffffffffffffffff00000000000000000000000000000000000000001673ffffffffffffffffffffffffffffffffffffffff83811691909117918290556040519116907fc67398012c111ce95ecb7429b933096c977380ee6c421175a71a4a4c6c88c06e90600090a250565b6101ce5473ffffffffffffffffffffffffffffffffffffffff1681565b600054610100900460ff16806119d157506119d1611d55565b806119df575060005460ff16155b611a34576040517f08c379a000000000000000000000000000000000000000000000000000000000815260040180806020018281038252602e815260200180612b8b602e913960400191505060405180910390fd5b600054610100900460ff16158015611a9a57600080547fffffffffffffffffffffffffffffffffffffffffffffffffffffffffffffff007fffffffffffffffffffffffffffffffffffffffffffffffffffffffffffff00ff909116610100171660011790555b6101ce80547fffffffffffffffffffffffff00000000000000000000000000000000000000001673ffffffffffffffffffffffffffffffffffffffff84811691909117918290556040519116907fc67398012c111ce95ecb7429b933096c977380ee6c421175a71a4a4c6c88c06e90600090a2801561149657600080547fffffffffffffffffffffffffffffffffffffffffffffffffffffffffffff00ff1690555050565b73ffffffffffffffffffffffffffffffffffffffff918216600090815260346020908152604080832093909416825291909152205490565b611b7f611555565b611b8857600080fd5b61129a816126a1565b6101ce5473ffffffffffffffffffffffffffffffffffffffff163314611c02576040517f08c379a000000000000000000000000000000000000000000000000000000000815260040180806020018281038252602a815260200180612b61602a913960400191505060405180910390fd5b73ffffffffffffffffffffffffffffffffffffffff811660008181526101cf602052604080822080547fffffffffffffffffffffffffffffffffffffffffffffffffffffffffffffff00166001179055517fffa4e6181777692565cf28528fc88fd1516ea86b56da075235fa575af6a4b8559190a250565b73ffffffffffffffffffffffffffffffffffffffff1660009081526101cf602052604090205460ff1690565b73ffffffffffffffffffffffffffffffffffffffff8216611cc657600080fd5b73ffffffffffffffffffffffffffffffffffffffff8316611ce657600080fd5b73ffffffffffffffffffffffffffffffffffffffff808416600081815260346020908152604080832094871680845294825291829020859055815185815291517f8c5be1e5ebec7d5bd14f71427d1e84f3dd0314c0f7b2291e5b200ac8c7c3b9259281900390910190a3505050565b303b1590565b600054610100900460ff1680611d745750611d74611d55565b80611d82575060005460ff16155b611dd7576040517f08c379a000000000000000000000000000000000000000000000000000000000815260040180806020018281038252602e815260200180612b8b602e913960400191505060405180910390fd5b600054610100900460ff16158015611e3d57600080547fffffffffffffffffffffffffffffffffffffffffffffffffffffffffffffff007fffffffffffffffffffffffffffffffffffffffffffffffffffffffffffff00ff909116610100171660011790555b61019b80547fffffffffffffffffffffffff00000000000000000000000000000000000000001673ffffffffffffffffffffffffffffffffffffffff8416179055611e878261274f565b61019b5460405173ffffffffffffffffffffffffffffffffffffffff909116907fdb66dfa9c6b8f5226fe9aac7e51897ae8ee94ac31dc70bb6c9900b2574b707e690600090a2801561149657600080547fffffffffffffffffffffffffffffffffffffffffffffffffffffffffffff00ff1690555050565b600054610100900460ff1680611f185750611f18611d55565b80611f26575060005460ff16155b611f7b576040517f08c379a000000000000000000000000000000000000000000000000000000000815260040180806020018281038252602e815260200180612b8b602e913960400191505060405180910390fd5b600054610100900460ff16158015611fe157600080547fffffffffffffffffffffffffffffffffffffffffffffffffffffffffffffff007fffffffffffffffffffffffffffffffffffffffffffffffffffffffffffff00ff909116610100171660011790555b60cd80547fffffffffffffffffffffffff00000000000000000000000000000000000000001673ffffffffffffffffffffffffffffffffffffffff84811691909117918290556040519116906000907f8be0079c531659141344cd1fd0a4f28419497f9722a3daafe3b4186f6b6457e0908290a3801561149657600080547fffffffffffffffffffffffffffffffffffffffffffffffffffffffffffff00ff1690555050565b600054610100900460ff16806120a057506120a0611d55565b806120ae575060005460ff16155b612103576040517f08c379a000000000000000000000000000000000000000000000000000000000815260040180806020018281038252602e815260200180612b8b602e913960400191505060405180910390fd5b600054610100900460ff1615801561216957600080547fffffffffffffffffffffffffffffffffffffffffffffffffffffffffffffff007fffffffffffffffffffffffffffffffffffffffffffffffffffffffffffff00ff909116610100171660011790555b61217282612879565b61016880547fffffffffffffffffffffffffffffffffffffffffffffffffffffffffffffff00169055801561149657600080547fffffffffffffffffffffffffffffffffffffffffffffffffffffffffffff00ff1690555050565b73ffffffffffffffffffffffffffffffffffffffff82166121ed57600080fd5b73ffffffffffffffffffffffffffffffffffffffff8316600090815260336020526040902054612223908263ffffffff6122ce16565b73ffffffffffffffffffffffffffffffffffffffff8085166000908152603360205260408082209390935590841681522054612265908263ffffffff61233816565b73ffffffffffffffffffffffffffffffffffffffff80841660008181526033602090815260409182902094909455805185815290519193928716927fddf252ad1be2c89b69c2b068fc378daa952ba7f163c4a11628f55a4df523b3ef92918290030190a3505050565b6000828211156122dd57600080fd5b50900390565b6122f460688263ffffffff61297116565b60405173ffffffffffffffffffffffffffffffffffffffff8216907fe94479a9f7e1952cc78f2d6baab678adc1b772d936c6583def489e524cb6669290600090a250565b60008282018381101561234a57600080fd5b9392505050565b73ffffffffffffffffffffffffffffffffffffffff821661237157600080fd5b603554612384908263ffffffff61233816565b60355573ffffffffffffffffffffffffffffffffffffffff82166000908152603360205260409020546123bd908263ffffffff61233816565b73ffffffffffffffffffffffffffffffffffffffff831660008181526033602090815260408083209490945583518581529351929391927fddf252ad1be2c89b69c2b068fc378daa952ba7f163c4a11628f55a4df523b3ef9281900390910190a35050565b73ffffffffffffffffffffffffffffffffffffffff821661244257600080fd5b603554612455908263ffffffff6122ce16565b60355573ffffffffffffffffffffffffffffffffffffffff821660009081526033602052604090205461248e908263ffffffff6122ce16565b73ffffffffffffffffffffffffffffffffffffffff83166000818152603360209081526040808320949094558351858152935191937fddf252ad1be2c89b69c2b068fc378daa952ba7f163c4a11628f55a4df523b3ef929081900390910190a35050565b600073ffffffffffffffffffffffffffffffffffffffff821661251457600080fd5b5073ffffffffffffffffffffffffffffffffffffffff166000908152602091909152604090205460ff1690565b6125536101358263ffffffff61297116565b60405173ffffffffffffffffffffffffffffffffffffffff8216907fcd265ebaf09df2871cc7bd4133404a235ba12eff2041bb89d9c714a2621c7c7e90600090a250565b6125a18282612422565b73ffffffffffffffffffffffffffffffffffffffff82166000908152603460209081526040808320338085529252909120546114969184916111fb908563ffffffff6122ce16565b6125fb6101358263ffffffff6129f116565b60405173ffffffffffffffffffffffffffffffffffffffff8216907f6719d08c1888103bea251a4ed56406bd0c3e69723c8a1686e017e7bbe159b6f890600090a250565b61265060688263ffffffff6129f116565b60405173ffffffffffffffffffffffffffffffffffffffff8216907f6ae172837ea30b801fbfcdd4108aa1d5bf8ff775444fd70256b44e6bf3dfc3f690600090a250565b6000610def3384846121cd565b73ffffffffffffffffffffffffffffffffffffffff81166126c157600080fd5b60cd5460405173ffffffffffffffffffffffffffffffffffffffff8084169216907f8be0079c531659141344cd1fd0a4f28419497f9722a3daafe3b4186f6b6457e090600090a360cd80547fffffffffffffffffffffffff00000000000000000000000000000000000000001673ffffffffffffffffffffffffffffffffffffffff92909216919091179055565b600054610100900460ff16806127685750612768611d55565b80612776575060005460ff16155b6127cb576040517f08c379a000000000000000000000000000000000000000000000000000000000815260040180806020018281038252602e815260200180612b8b602e913960400191505060405180910390fd5b600054610100900460ff1615801561283157600080547fffffffffffffffffffffffffffffffffffffffffffffffffffffffffffffff007fffffffffffffffffffffffffffffffffffffffffffffffffffffffffffff00ff909116610100171660011790555b61283a8261187f565b612847576128478261263f565b801561149657600080547fffffffffffffffffffffffffffffffffffffffffffffffffffffffffffff00ff1690555050565b600054610100900460ff16806128925750612892611d55565b806128a0575060005460ff16155b6128f5576040517f08c379a000000000000000000000000000000000000000000000000000000000815260040180806020018281038252602e815260200180612b8b602e913960400191505060405180910390fd5b600054610100900460ff1615801561295b57600080547fffffffffffffffffffffffffffffffffffffffffffffffffffffffffffffff007fffffffffffffffffffffffffffffffffffffffffffffffffffffffffffff00ff909116610100171660011790555b612964826113b5565b61284757612847826125e9565b73ffffffffffffffffffffffffffffffffffffffff811661299157600080fd5b61299b82826124f2565b6129a457600080fd5b73ffffffffffffffffffffffffffffffffffffffff1660009081526020919091526040902080547fffffffffffffffffffffffffffffffffffffffffffffffffffffffffffffff00169055565b73ffffffffffffffffffffffffffffffffffffffff8116612a1157600080fd5b612a1b82826124f2565b15612a2557600080fd5b73ffffffffffffffffffffffffffffffffffffffff1660009081526020919091526040902080547fffffffffffffffffffffffffffffffffffffffffffffffffffffffffffffff00166001179055565b828054600181600116156101000203166002900490600052602060002090601f016020900481019282601f10612ab657805160ff1916838001178555612ae3565b82800160010185558215612ae3579182015b82811115612ae3578251825591602001919060010190612ac8565b50612aef929150612af3565b5090565b610ddf91905b80821115612aef5760008155600101612af956fe5468697320636f6e7472616374206973206e6f74206d65616e7420746f206d616e61676520657468657274686973206163636f756e74206973206d61726b656420696e206f75722020626c61632d6b6c6973744f6e6c7920426c61636b6c697374657220526f6c652063616e2063616c6c2074686973206d6574686f64436f6e747261637420696e7374616e63652068617320616c7265616479206265656e20696e697469616c697a65646d61737465724d696e7465722068617320746f2062652061207265616c206164647265737320616e64206e6f74207468652073616d65a265627a7a72305820e9b3e654480dba799eed71ba42d7538de54c03ed24591d25e1eb1a4df8433d5a64736f6c634300050a0032","compiler":{"name":"solc","version":"0.5.10+commit.5a6ea5b1.Emscripten.clang","optimizer":{"enabled":true,"runs":1000000000},"evmVersion":"constantinople"}}