{
  "fileName": "FiatToken.sol",
  "contractName": "FiatToken",
  "source": "pragma solidity ^0.5.2;\n\nimport \"@openzeppelin/contracts-ethereum-package/contracts/token/ERC20/ERC20Detailed.sol\";\nimport \"@openzeppelin/contracts-ethereum-package/contracts/token/ERC20/ERC20Burnable.sol\";\nimport \"@openzeppelin/contracts-ethereum-package/contracts/ownership/Ownable.sol\";\nimport \"@openzeppelin/upgrades/contracts/Initializable.sol\";\nimport  \"./Types.sol\";\nimport \"./MasterPauser.sol\";\nimport \"./MasterMinter.sol\";\nimport \"./Blacklistable.sol\";\n\n\n\n/**\n* @title FiatToken contract\n* @dev This sontact was meant to work as a stable coin with upgradeability support.\n*/\ncontract FiatToken is Ownable, ERC20Detailed,ERC20Burnable{\n\n\tBlacklistable public blacklister;\n\tMasterMinter public masterMinter;\n\tMasterPauser public pauser;\n\n\t/**\n\t* @dev this function is needed by support uppgradeability\n\t* @param name : string. The name of this token ERC20.\n\t* @param symbol : string. ERC20 token symbol .\n\t* @param decimals : uint8. Decimals fractions that may have a token unit.\n\t* @param _masterMinter : MasterMinter.\n\t* @param _blacklister : Blacklistable.\n\t* @param _pauser : MasterPauser.\n\t* @param owner : address.\n\t*/\n\tfunction initialize(string memory name,\n\t\tstring memory symbol,\n\t\tuint8 decimals,\n\t\tMasterMinter _masterMinter,\n\t\tBlacklistable _blacklister,\n\t\tMasterPauser _pauser,\n\t\taddress owner) public initializer  {\n\t\tERC20Detailed.initialize(name,symbol,decimals);\n \t\tmasterMinter = _masterMinter;\n\t\tpauser = _pauser;\n\t\temit InitializationLog(\"After Master Minter initialization\");\n\t\tblacklister = _blacklister;\n\t\temit InitializationLog(\"After Black Lister setting\");\n\t\tOwnable.initialize(owner);\n\t\temit InitializationLog(\"After Ownable initialization\");\n\n\t}\n\n\n\t/**\n\t* @dev Just to be sure at all\n\t*/\n\tfunction () external payable {\n\t\trevert();\n\t}\n\t\n    /**\n     * @dev Function to mint tokens\n     * @param to The address that will receive the minted tokens.\n     * @param value The amount of tokens to mint.\n     * @return A boolean that indicates if the operation was successful.\n     */\n    function mint(address to, uint256 value) public onlyMinter returns (bool) {\n        _mint(to, value);\n        return true;\n    }\n\n\tmodifier onlyMinter() {\n        require(masterMinter.isMinter(msg.sender),\"Only Minter accounts can mint()\");\n        _;\n    }\n\n\n\n\t/**\n     * @dev Modifier to make a function callable only when the contract is not paused.\n     */\n    modifier whenNotPaused() {\n        require(!pauser.paused(),\"This contract is paused\");\n        _;\n    }\n\n\tmodifier whenPaused(){\n\t\trequire(pauser.paused(),\"This contract is not paused\");\n        _;\n\t}\n\n\tfunction paused() public view returns(bool){\n\t\treturn pauser.paused();\n\t}\n\n\t/**\n\t* @dev overriding ERC20.transfer with modifier whenNotPaused\n\t* @param to The address to transfer to.\n\t* @param value The amount to be transferred.\n\t*/\n\tfunction transfer(address to, uint256 value) public notBlacklisted(msg.sender) whenNotPaused returns(bool) {\n\t\tERC20.transfer(to, value);\n\t\treturn true;\n\t}\n\n\tfunction approve(address spender, uint256 value) public\n\tnotBlacklisted(msg.sender)\n\twhenNotPaused returns (bool){\n\t\tERC20.approve(spender, value);\n\t\treturn true;\n\t}\n\n    function transferFrom(address from, address to, uint256 value) public\n\tnotBlacklisted(from)  notBlacklisted(to) whenNotPaused\n\treturns (bool){\n\t\tERC20.transferFrom(from,to,value);\n\t\treturn true;\n\t}\n\n\t/**\n     * @dev Throws if argument account is blacklisted\n     * @param _account The address to check\n    */\n    modifier notBlacklisted(address _account) {\n        require(!blacklister.isBlacklisted(_account),\n        \"this account is marked in our blac-klist\");\n        _;\n    }\n\n\tTypes.Multihash public toSDocument;\n\n\tfunction setToSDocument(\n\t\tbytes32 digest,\n\t\tuint8 hashFuntion,\n\t\tuint8 size ) public onlyOwner\n\t{\n\t\tbytes32 oldDigest = toSDocument.digest;\n\t\tuint8 oldHashFunction = toSDocument.hashFunction;\n\t\tuint8 oldSize = toSDocument.size;\n\n\t\ttoSDocument = Types.Multihash(digest,hashFuntion,size);\n\t\temit MultihashChanged(\n\t\t\toldDigest,oldHashFunction,oldSize,\n\t\t\tdigest, hashFuntion, size);\n\t}\n\n\tevent InitializationLog(\n        string message\n    );\n\n\tevent MultihashChanged(\n        bytes32 oldDigest,\n\t\tuint8 oldHashFunction,\n\t\tuint8 oldSize,\n        bytes32 newDigest,\n        uint8 newHashFunction,\n        uint8 newSize\n    );\n}",
  "sourcePath": "contracts/FiatToken.sol",
  "abi": [
    {
      "constant": true,
      "inputs": [],
      "name": "name",
      "outputs": [
        {
          "name": "",
          "type": "string"
        }
      ],
      "payable": false,
      "stateMutability": "view",
      "type": "function"
    },
    {
      "constant": false,
      "inputs": [
        {
          "name": "spender",
          "type": "address"
        },
        {
          "name": "value",
          "type": "uint256"
        }
      ],
      "name": "approve",
      "outputs": [
        {
          "name": "",
          "type": "bool"
        }
      ],
      "payable": false,
      "stateMutability": "nonpayable",
      "type": "function"
    },
    {
      "constant": false,
      "inputs": [
        {
          "name": "name",
          "type": "string"
        },
        {
          "name": "symbol",
          "type": "string"
        },
        {
          "name": "decimals",
          "type": "uint8"
        },
        {
          "name": "_masterMinter",
          "type": "address"
        },
        {
          "name": "_blacklister",
          "type": "address"
        },
        {
          "name": "_pauser",
          "type": "address"
        },
        {
          "name": "owner",
          "type": "address"
        }
      ],
      "name": "initialize",
      "outputs": [],
      "payable": false,
      "stateMutability": "nonpayable",
      "type": "function"
    },
    {
      "constant": false,
      "inputs": [
        {
          "name": "name",
          "type": "string"
        },
        {
          "name": "symbol",
          "type": "string"
        },
        {
          "name": "decimals",
          "type": "uint8"
        }
      ],
      "name": "initialize",
      "outputs": [],
      "payable": false,
      "stateMutability": "nonpayable",
      "type": "function"
    },
    {
      "constant": true,
      "inputs": [],
      "name": "totalSupply",
      "outputs": [
        {
          "name": "",
          "type": "uint256"
        }
      ],
      "payable": false,
      "stateMutability": "view",
      "type": "function"
    },
    {
      "constant": false,
      "inputs": [
        {
          "name": "from",
          "type": "address"
        },
        {
          "name": "to",
          "type": "address"
        },
        {
          "name": "value",
          "type": "uint256"
        }
      ],
      "name": "transferFrom",
      "outputs": [
        {
          "name": "",
          "type": "bool"
        }
      ],
      "payable": false,
      "stateMutability": "nonpayable",
      "type": "function"
    },
    {
      "constant": true,
      "inputs": [],
      "name": "decimals",
      "outputs": [
        {
          "name": "",
          "type": "uint8"
        }
      ],
      "payable": false,
      "stateMutability": "view",
      "type": "function"
    },
    {
      "constant": true,
      "inputs": [],
      "name": "masterMinter",
      "outputs": [
        {
          "name": "",
          "type": "address"
        }
      ],
      "payable": false,
      "stateMutability": "view",
      "type": "function"
    },
    {
      "constant": false,
      "inputs": [
        {
          "name": "spender",
          "type": "address"
        },
        {
          "name": "addedValue",
          "type": "uint256"
        }
      ],
      "name": "increaseAllowance",
      "outputs": [
        {
          "name": "",
          "type": "bool"
        }
      ],
      "payable": false,
      "stateMutability": "nonpayable",
      "type": "function"
    },
    {
      "constant": false,
      "inputs": [
        {
          "name": "to",
          "type": "address"
        },
        {
          "name": "value",
          "type": "uint256"
        }
      ],
      "name": "mint",
      "outputs": [
        {
          "name": "",
          "type": "bool"
        }
      ],
      "payable": false,
      "stateMutability": "nonpayable",
      "type": "function"
    },
    {
      "constant": false,
      "inputs": [
        {
          "name": "value",
          "type": "uint256"
        }
      ],
      "name": "burn",
      "outputs": [],
      "payable": false,
      "stateMutability": "nonpayable",
      "type": "function"
    },
    {
      "constant": true,
      "inputs": [],
      "name": "toSDocument",
      "outputs": [
        {
          "name": "digest",
          "type": "bytes32"
        },
        {
          "name": "hashFunction",
          "type": "uint8"
        },
        {
          "name": "size",
          "type": "uint8"
        }
      ],
      "payable": false,
      "stateMutability": "view",
      "type": "function"
    },
    {
      "constant": false,
      "inputs": [
        {
          "name": "digest",
          "type": "bytes32"
        },
        {
          "name": "hashFuntion",
          "type": "uint8"
        },
        {
          "name": "size",
          "type": "uint8"
        }
      ],
      "name": "setToSDocument",
      "outputs": [],
      "payable": false,
      "stateMutability": "nonpayable",
      "type": "function"
    },
    {
      "constant": true,
      "inputs": [],
      "name": "paused",
      "outputs": [
        {
          "name": "",
          "type": "bool"
        }
      ],
      "payable": false,
      "stateMutability": "view",
      "type": "function"
    },
    {
      "constant": true,
      "inputs": [
        {
          "name": "owner",
          "type": "address"
        }
      ],
      "name": "balanceOf",
      "outputs": [
        {
          "name": "",
          "type": "uint256"
        }
      ],
      "payable": false,
      "stateMutability": "view",
      "type": "function"
    },
    {
      "constant": false,
      "inputs": [],
      "name": "renounceOwnership",
      "outputs": [],
      "payable": false,
      "stateMutability": "nonpayable",
      "type": "function"
    },
    {
      "constant": false,
      "inputs": [
        {
          "name": "from",
          "type": "address"
        },
        {
          "name": "value",
          "type": "uint256"
        }
      ],
      "name": "burnFrom",
      "outputs": [],
      "payable": false,
      "stateMutability": "nonpayable",
      "type": "function"
    },
    {
      "constant": true,
      "inputs": [],
      "name": "owner",
      "outputs": [
        {
          "name": "",
          "type": "address"
        }
      ],
      "payable": false,
      "stateMutability": "view",
      "type": "function"
    },
    {
      "constant": true,
      "inputs": [],
      "name": "isOwner",
      "outputs": [
        {
          "name": "",
          "type": "bool"
        }
      ],
      "payable": false,
      "stateMutability": "view",
      "type": "function"
    },
    {
      "constant": true,
      "inputs": [],
      "name": "symbol",
      "outputs": [
        {
          "name": "",
          "type": "string"
        }
      ],
      "payable": false,
      "stateMutability": "view",
      "type": "function"
    },
    {
      "constant": true,
      "inputs": [],
      "name": "pauser",
      "outputs": [
        {
          "name": "",
          "type": "address"
        }
      ],
      "payable": false,
      "stateMutability": "view",
      "type": "function"
    },
    {
      "constant": false,
      "inputs": [
        {
          "name": "spender",
          "type": "address"
        },
        {
          "name": "subtractedValue",
          "type": "uint256"
        }
      ],
      "name": "decreaseAllowance",
      "outputs": [
        {
          "name": "",
          "type": "bool"
        }
      ],
      "payable": false,
      "stateMutability": "nonpayable",
      "type": "function"
    },
    {
      "constant": false,
      "inputs": [
        {
          "name": "to",
          "type": "address"
        },
        {
          "name": "value",
          "type": "uint256"
        }
      ],
      "name": "transfer",
      "outputs": [
        {
          "name": "",
          "type": "bool"
        }
      ],
      "payable": false,
      "stateMutability": "nonpayable",
      "type": "function"
    },
    {
      "constant": true,
      "inputs": [],
      "name": "blacklister",
      "outputs": [
        {
          "name": "",
          "type": "address"
        }
      ],
      "payable": false,
      "stateMutability": "view",
      "type": "function"
    },
    {
      "constant": false,
      "inputs": [
        {
          "name": "sender",
          "type": "address"
        }
      ],
      "name": "initialize",
      "outputs": [],
      "payable": false,
      "stateMutability": "nonpayable",
      "type": "function"
    },
    {
      "constant": true,
      "inputs": [
        {
          "name": "owner",
          "type": "address"
        },
        {
          "name": "spender",
          "type": "address"
        }
      ],
      "name": "allowance",
      "outputs": [
        {
          "name": "",
          "type": "uint256"
        }
      ],
      "payable": false,
      "stateMutability": "view",
      "type": "function"
    },
    {
      "constant": false,
      "inputs": [
        {
          "name": "newOwner",
          "type": "address"
        }
      ],
      "name": "transferOwnership",
      "outputs": [],
      "payable": false,
      "stateMutability": "nonpayable",
      "type": "function"
    },
    {
      "payable": true,
      "stateMutability": "payable",
      "type": "fallback"
    },
    {
      "anonymous": false,
      "inputs": [
        {
          "indexed": false,
          "name": "message",
          "type": "string"
        }
      ],
      "name": "InitializationLog",
      "type": "event"
    },
    {
      "anonymous": false,
      "inputs": [
        {
          "indexed": false,
          "name": "oldDigest",
          "type": "bytes32"
        },
        {
          "indexed": false,
          "name": "oldHashFunction",
          "type": "uint8"
        },
        {
          "indexed": false,
          "name": "oldSize",
          "type": "uint8"
        },
        {
          "indexed": false,
          "name": "newDigest",
          "type": "bytes32"
        },
        {
          "indexed": false,
          "name": "newHashFunction",
          "type": "uint8"
        },
        {
          "indexed": false,
          "name": "newSize",
          "type": "uint8"
        }
      ],
      "name": "MultihashChanged",
      "type": "event"
    },
    {
      "anonymous": false,
      "inputs": [
        {
          "indexed": true,
          "name": "from",
          "type": "address"
        },
        {
          "indexed": true,
          "name": "to",
          "type": "address"
        },
        {
          "indexed": false,
          "name": "value",
          "type": "uint256"
        }
      ],
      "name": "Transfer",
      "type": "event"
    },
    {
      "anonymous": false,
      "inputs": [
        {
          "indexed": true,
          "name": "owner",
          "type": "address"
        },
        {
          "indexed": true,
          "name": "spender",
          "type": "address"
        },
        {
          "indexed": false,
          "name": "value",
          "type": "uint256"
        }
      ],
      "name": "Approval",
      "type": "event"
    },
    {
      "anonymous": false,
      "inputs": [
        {
          "indexed": true,
          "name": "previousOwner",
          "type": "address"
        },
        {
          "indexed": true,
          "name": "newOwner",
          "type": "address"
        }
      ],
      "name": "OwnershipTransferred",
      "type": "event"
    }
  ],
  "bytecode": "0x608060405234801561001057600080fd5b50612338806100206000396000f3fe6080604052600436106101ac5760003560e01c80635c975abb116100ec5780639fd0506d1161008a578063bd10243011610064578063bd102430146108df578063c4d66de8146108f4578063dd62ed3e14610934578063f2fde38b1461097c576101ac565b80639fd0506d1461083e578063a457c2d714610853578063a9059cbb14610899576101ac565b806379cc6790116100c657806379cc6790146107b95780638da5cb5b146107ff5780638f32d59b1461081457806395d89b4114610829576101ac565b80635c975abb1461074f57806370a0823114610764578063715018a6146107a4576101ac565b8063313ce5671161015957806340c10f191161013357806340c10f191461066d57806342966c68146106b35780634375649a146106dd57806353d03fbc14610714576101ac565b8063313ce567146105be57806335d99f35146105e95780633950935114610627576101ac565b80631624f6c61161018a5780631624f6c61461040857806318160ddd1461054757806323b872dd1461056e576101ac565b806306fdde03146101b1578063095ea7b31461023b578063147936ba14610295575b600080fd5b3480156101bd57600080fd5b506101c66109bc565b6040805160208082528351818301528351919283929083019185019080838360005b838110156102005781810151838201526020016101e8565b50505050905090810190601f16801561022d5780820380516001836020036101000a031916815260200191505b509250505060405180910390f35b34801561024757600080fd5b506102816004803603604081101561025e57600080fd5b5073ffffffffffffffffffffffffffffffffffffffff8135169060200135610a71565b604080519115158252519081900360200190f35b3480156102a157600080fd5b50610406600480360360e08110156102b857600080fd5b8101906020810181356401000000008111156102d357600080fd5b8201836020820111156102e557600080fd5b8035906020019184600183028401116401000000008311171561030757600080fd5b91908080601f016020809104026020016040519081016040528093929190818152602001838380828437600092019190915250929594936020810193503591505064010000000081111561035a57600080fd5b82018360208201111561036c57600080fd5b8035906020019184600183028401116401000000008311171561038e57600080fd5b91908080601f0160208091040260200160405190810160405280939291908181526020018383808284376000920191909152509295505050813560ff16925050602081013573ffffffffffffffffffffffffffffffffffffffff90811691604081013582169160608201358116916080013516610c7d565b005b34801561041457600080fd5b506104066004803603606081101561042b57600080fd5b81019060208101813564010000000081111561044657600080fd5b82018360208201111561045857600080fd5b8035906020019184600183028401116401000000008311171561047a57600080fd5b91908080601f01602080910402602001604051908101604052809392919081815260200183838082843760009201919091525092959493602081019350359150506401000000008111156104cd57600080fd5b8201836020820111156104df57600080fd5b8035906020019184600183028401116401000000008311171561050157600080fd5b91908080601f0160208091040260200160405190810160405280939291908181526020018383808284376000920191909152509295505050903560ff169150610f539050565b34801561055357600080fd5b5061055c6110c1565b60408051918252519081900360200190f35b34801561057a57600080fd5b506102816004803603606081101561059157600080fd5b5073ffffffffffffffffffffffffffffffffffffffff8135811691602081013590911690604001356110c7565b3480156105ca57600080fd5b506105d36113d1565b6040805160ff9092168252519081900360200190f35b3480156105f557600080fd5b506105fe6113da565b6040805173ffffffffffffffffffffffffffffffffffffffff9092168252519081900360200190f35b34801561063357600080fd5b506102816004803603604081101561064a57600080fd5b5073ffffffffffffffffffffffffffffffffffffffff81351690602001356113f7565b34801561067957600080fd5b506102816004803603604081101561069057600080fd5b5073ffffffffffffffffffffffffffffffffffffffff813516906020013561144e565b3480156106bf57600080fd5b50610406600480360360208110156106d657600080fd5b5035611563565b3480156106e957600080fd5b506106f2611570565b6040805193845260ff9283166020850152911682820152519081900360600190f35b34801561072057600080fd5b506104066004803603606081101561073757600080fd5b5080359060ff60208201358116916040013516611587565b34801561075b57600080fd5b50610281611682565b34801561077057600080fd5b5061055c6004803603602081101561078757600080fd5b503573ffffffffffffffffffffffffffffffffffffffff1661171f565b3480156107b057600080fd5b50610406611747565b3480156107c557600080fd5b50610406600480360360408110156107dc57600080fd5b5073ffffffffffffffffffffffffffffffffffffffff81351690602001356117c9565b34801561080b57600080fd5b506105fe6117d7565b34801561082057600080fd5b506102816117f3565b34801561083557600080fd5b506101c6611811565b34801561084a57600080fd5b506105fe611890565b34801561085f57600080fd5b506102816004803603604081101561087657600080fd5b5073ffffffffffffffffffffffffffffffffffffffff81351690602001356118ad565b3480156108a557600080fd5b50610281600480360360408110156108bc57600080fd5b5073ffffffffffffffffffffffffffffffffffffffff81351690602001356118f6565b3480156108eb57600080fd5b506105fe611af7565b34801561090057600080fd5b506104066004803603602081101561091757600080fd5b503573ffffffffffffffffffffffffffffffffffffffff16611b14565b34801561094057600080fd5b5061055c6004803603604081101561095757600080fd5b5073ffffffffffffffffffffffffffffffffffffffff81358116916020013516611c9e565b34801561098857600080fd5b506104066004803603602081101561099f57600080fd5b503573ffffffffffffffffffffffffffffffffffffffff16611cd6565b60668054604080516020601f60027fffffffffffffffffffffffffffffffffffffffffffffffffffffffffffffffff610100600188161502019095169490940493840181900481028201810190925282815260609390929091830182828015610a665780601f10610a3b57610100808354040283529160200191610a66565b820191906000526020600020905b815481529060010190602001808311610a4957829003601f168201915b505050505090505b90565b61010254604080517ffe575a870000000000000000000000000000000000000000000000000000000081523360048201819052915160009373ffffffffffffffffffffffffffffffffffffffff169163fe575a87916024808301926020929190829003018186803b158015610ae557600080fd5b505afa158015610af9573d6000803e3d6000fd5b505050506040513d6020811015610b0f57600080fd5b505115610b67576040517f08c379a00000000000000000000000000000000000000000000000000000000081526004018080602001828103825260288152602001806122b76028913960400191505060405180910390fd5b61010460009054906101000a900473ffffffffffffffffffffffffffffffffffffffff1673ffffffffffffffffffffffffffffffffffffffff16635c975abb6040518163ffffffff1660e01b815260040160206040518083038186803b158015610bd057600080fd5b505afa158015610be4573d6000803e3d6000fd5b505050506040513d6020811015610bfa57600080fd5b505115610c6857604080517f08c379a000000000000000000000000000000000000000000000000000000000815260206004820152601760248201527f5468697320636f6e747261637420697320706175736564000000000000000000604482015290519081900360640190fd5b610c728484611cf2565b506001949350505050565b600054610100900460ff1680610c965750610c96611cff565b80610ca4575060005460ff16155b1515610cfb576040517f08c379a000000000000000000000000000000000000000000000000000000000815260040180806020018281038252602e8152602001806122df602e913960400191505060405180910390fd5b600054610100900460ff16158015610d6157600080547fffffffffffffffffffffffffffffffffffffffffffffffffffffffffffffff007fffffffffffffffffffffffffffffffffffffffffffffffffffffffffffff00ff909116610100171660011790555b610d6c888888610f53565b610103805473ffffffffffffffffffffffffffffffffffffffff8088167fffffffffffffffffffffffff00000000000000000000000000000000000000009283161790925561010480549286169290911691909117905560408051602080825260229082018190527fadec413d00f72bf512e1c36aa7eb9b13e7a13f77eaf92efb93716aec3f8d36a392829190820190612295823960400191505060405180910390a161010280547fffffffffffffffffffffffff00000000000000000000000000000000000000001673ffffffffffffffffffffffffffffffffffffffff8616179055604080516020808252601a908201527f416674657220426c61636b204c69737465722073657474696e670000000000008183015290517fadec413d00f72bf512e1c36aa7eb9b13e7a13f77eaf92efb93716aec3f8d36a3916060908290030190a1610eba82611b14565b604080516020808252601c908201527f4166746572204f776e61626c6520696e697469616c697a6174696f6e000000008183015290517fadec413d00f72bf512e1c36aa7eb9b13e7a13f77eaf92efb93716aec3f8d36a39181900360600190a18015610f4957600080547fffffffffffffffffffffffffffffffffffffffffffffffffffffffffffff00ff1690555b5050505050505050565b600054610100900460ff1680610f6c5750610f6c611cff565b80610f7a575060005460ff16155b1515610fd1576040517f08c379a000000000000000000000000000000000000000000000000000000000815260040180806020018281038252602e8152602001806122df602e913960400191505060405180910390fd5b600054610100900460ff1615801561103757600080547fffffffffffffffffffffffffffffffffffffffffffffffffffffffffffffff007fffffffffffffffffffffffffffffffffffffffffffffffffffffffffffff00ff909116610100171660011790555b835161104a9060669060208701906121fc565b50825161105e9060679060208601906121fc565b50606880547fffffffffffffffffffffffffffffffffffffffffffffffffffffffffffffff001660ff841617905580156110bb57600080547fffffffffffffffffffffffffffffffffffffffffffffffffffffffffffff00ff1690555b50505050565b609d5490565b61010254604080517ffe575a8700000000000000000000000000000000000000000000000000000000815273ffffffffffffffffffffffffffffffffffffffff808716600483015291516000938793169163fe575a87916024808301926020929190829003018186803b15801561113d57600080fd5b505afa158015611151573d6000803e3d6000fd5b505050506040513d602081101561116757600080fd5b5051156111bf576040517f08c379a00000000000000000000000000000000000000000000000000000000081526004018080602001828103825260288152602001806122b76028913960400191505060405180910390fd5b61010254604080517ffe575a8700000000000000000000000000000000000000000000000000000000815273ffffffffffffffffffffffffffffffffffffffff808816600483015291518793929092169163fe575a8791602480820192602092909190829003018186803b15801561123657600080fd5b505afa15801561124a573d6000803e3d6000fd5b505050506040513d602081101561126057600080fd5b5051156112b8576040517f08c379a00000000000000000000000000000000000000000000000000000000081526004018080602001828103825260288152602001806122b76028913960400191505060405180910390fd5b61010460009054906101000a900473ffffffffffffffffffffffffffffffffffffffff1673ffffffffffffffffffffffffffffffffffffffff16635c975abb6040518163ffffffff1660e01b815260040160206040518083038186803b15801561132157600080fd5b505afa158015611335573d6000803e3d6000fd5b505050506040513d602081101561134b57600080fd5b5051156113b957604080517f08c379a000000000000000000000000000000000000000000000000000000000815260206004820152601760248201527f5468697320636f6e747261637420697320706175736564000000000000000000604482015290519081900360640190fd5b6113c4868686611d05565b5060019695505050505050565b60685460ff1690565b6101035473ffffffffffffffffffffffffffffffffffffffff1681565b336000818152609c6020908152604080832073ffffffffffffffffffffffffffffffffffffffff871684529091528120549091611445918590611440908663ffffffff611d6416565b611d7d565b50600192915050565b61010354604080517faa271e1a000000000000000000000000000000000000000000000000000000008152336004820152905160009273ffffffffffffffffffffffffffffffffffffffff169163aa271e1a916024808301926020929190829003018186803b1580156114c057600080fd5b505afa1580156114d4573d6000803e3d6000fd5b505050506040513d60208110156114ea57600080fd5b5051151561155957604080517f08c379a000000000000000000000000000000000000000000000000000000000815260206004820152601f60248201527f4f6e6c79204d696e746572206163636f756e74732063616e206d696e74282900604482015290519081900360640190fd5b6114458383611e30565b61156d3382611f03565b50565b610105546101065460ff8082169161010090041683565b61158f6117f3565b151561159a57600080fd5b61010580546101068054604080516060818101835289825260ff89811660208085018290528a8316948601859052988c90556101008481027fffffffffffffffffffffffffffffffffffffffffffffffffffffffffffff00ff7fffffffffffffffffffffffffffffffffffffffffffffffffffffffffffffff0089168417161790975584518881528287169981018a905296909504168584018190529085018a9052608085019390935260a08401525192939290917f8cf27bf6b8360841af33a5a7b6c7fac39ca5703e1deb0a018269c70ecccda579919081900360c00190a1505050505050565b61010454604080517f5c975abb000000000000000000000000000000000000000000000000000000008152905160009273ffffffffffffffffffffffffffffffffffffffff1691635c975abb916004808301926020929190829003018186803b1580156116ee57600080fd5b505afa158015611702573d6000803e3d6000fd5b505050506040513d602081101561171857600080fd5b5051905090565b73ffffffffffffffffffffffffffffffffffffffff166000908152609b602052604090205490565b61174f6117f3565b151561175a57600080fd5b60335460405160009173ffffffffffffffffffffffffffffffffffffffff16907f8be0079c531659141344cd1fd0a4f28419497f9722a3daafe3b4186f6b6457e0908390a3603380547fffffffffffffffffffffffff0000000000000000000000000000000000000000169055565b6117d38282611fd5565b5050565b60335473ffffffffffffffffffffffffffffffffffffffff1690565b60335473ffffffffffffffffffffffffffffffffffffffff16331490565b60678054604080516020601f60027fffffffffffffffffffffffffffffffffffffffffffffffffffffffffffffffff610100600188161502019095169490940493840181900481028201810190925282815260609390929091830182828015610a665780601f10610a3b57610100808354040283529160200191610a66565b6101045473ffffffffffffffffffffffffffffffffffffffff1681565b336000818152609c6020908152604080832073ffffffffffffffffffffffffffffffffffffffff871684529091528120549091611445918590611440908663ffffffff61202716565b61010254604080517ffe575a870000000000000000000000000000000000000000000000000000000081523360048201819052915160009373ffffffffffffffffffffffffffffffffffffffff169163fe575a87916024808301926020929190829003018186803b15801561196a57600080fd5b505afa15801561197e573d6000803e3d6000fd5b505050506040513d602081101561199457600080fd5b5051156119ec576040517f08c379a00000000000000000000000000000000000000000000000000000000081526004018080602001828103825260288152602001806122b76028913960400191505060405180910390fd5b61010460009054906101000a900473ffffffffffffffffffffffffffffffffffffffff1673ffffffffffffffffffffffffffffffffffffffff16635c975abb6040518163ffffffff1660e01b815260040160206040518083038186803b158015611a5557600080fd5b505afa158015611a69573d6000803e3d6000fd5b505050506040513d6020811015611a7f57600080fd5b505115611aed57604080517f08c379a000000000000000000000000000000000000000000000000000000000815260206004820152601760248201527f5468697320636f6e747261637420697320706175736564000000000000000000604482015290519081900360640190fd5b610c72848461203c565b6101025473ffffffffffffffffffffffffffffffffffffffff1681565b600054610100900460ff1680611b2d5750611b2d611cff565b80611b3b575060005460ff16155b1515611b92576040517f08c379a000000000000000000000000000000000000000000000000000000000815260040180806020018281038252602e8152602001806122df602e913960400191505060405180910390fd5b600054610100900460ff16158015611bf857600080547fffffffffffffffffffffffffffffffffffffffffffffffffffffffffffffff007fffffffffffffffffffffffffffffffffffffffffffffffffffffffffffff00ff909116610100171660011790555b603380547fffffffffffffffffffffffff00000000000000000000000000000000000000001673ffffffffffffffffffffffffffffffffffffffff84811691909117918290556040519116906000907f8be0079c531659141344cd1fd0a4f28419497f9722a3daafe3b4186f6b6457e0908290a380156117d357600080547fffffffffffffffffffffffffffffffffffffffffffffffffffffffffffff00ff1690555050565b73ffffffffffffffffffffffffffffffffffffffff9182166000908152609c6020908152604080832093909416825291909152205490565b611cde6117f3565b1515611ce957600080fd5b61156d81612049565b6000611445338484611d7d565b303b1590565b6000611d128484846120f9565b73ffffffffffffffffffffffffffffffffffffffff84166000908152609c6020908152604080832033808552925290912054611d5a918691611440908663ffffffff61202716565b5060019392505050565b600082820183811015611d7657600080fd5b9392505050565b73ffffffffffffffffffffffffffffffffffffffff82161515611d9f57600080fd5b73ffffffffffffffffffffffffffffffffffffffff83161515611dc157600080fd5b73ffffffffffffffffffffffffffffffffffffffff8084166000818152609c6020908152604080832094871680845294825291829020859055815185815291517f8c5be1e5ebec7d5bd14f71427d1e84f3dd0314c0f7b2291e5b200ac8c7c3b9259281900390910190a3505050565b73ffffffffffffffffffffffffffffffffffffffff82161515611e5257600080fd5b609d54611e65908263ffffffff611d6416565b609d5573ffffffffffffffffffffffffffffffffffffffff82166000908152609b6020526040902054611e9e908263ffffffff611d6416565b73ffffffffffffffffffffffffffffffffffffffff83166000818152609b602090815260408083209490945583518581529351929391927fddf252ad1be2c89b69c2b068fc378daa952ba7f163c4a11628f55a4df523b3ef9281900390910190a35050565b73ffffffffffffffffffffffffffffffffffffffff82161515611f2557600080fd5b609d54611f38908263ffffffff61202716565b609d5573ffffffffffffffffffffffffffffffffffffffff82166000908152609b6020526040902054611f71908263ffffffff61202716565b73ffffffffffffffffffffffffffffffffffffffff83166000818152609b60209081526040808320949094558351858152935191937fddf252ad1be2c89b69c2b068fc378daa952ba7f163c4a11628f55a4df523b3ef929081900390910190a35050565b611fdf8282611f03565b73ffffffffffffffffffffffffffffffffffffffff82166000908152609c60209081526040808320338085529252909120546117d3918491611440908563ffffffff61202716565b60008282111561203657600080fd5b50900390565b60006114453384846120f9565b73ffffffffffffffffffffffffffffffffffffffff8116151561206b57600080fd5b60335460405173ffffffffffffffffffffffffffffffffffffffff8084169216907f8be0079c531659141344cd1fd0a4f28419497f9722a3daafe3b4186f6b6457e090600090a3603380547fffffffffffffffffffffffff00000000000000000000000000000000000000001673ffffffffffffffffffffffffffffffffffffffff92909216919091179055565b73ffffffffffffffffffffffffffffffffffffffff8216151561211b57600080fd5b73ffffffffffffffffffffffffffffffffffffffff83166000908152609b6020526040902054612151908263ffffffff61202716565b73ffffffffffffffffffffffffffffffffffffffff8085166000908152609b60205260408082209390935590841681522054612193908263ffffffff611d6416565b73ffffffffffffffffffffffffffffffffffffffff8084166000818152609b602090815260409182902094909455805185815290519193928716927fddf252ad1be2c89b69c2b068fc378daa952ba7f163c4a11628f55a4df523b3ef92918290030190a3505050565b828054600181600116156101000203166002900490600052602060002090601f016020900481019282601f1061223d57805160ff191683800117855561226a565b8280016001018555821561226a579182015b8281111561226a57825182559160200191906001019061224f565b5061227692915061227a565b5090565b610a6e91905b80821115612276576000815560010161228056fe4166746572204d6173746572204d696e74657220696e697469616c697a6174696f6e74686973206163636f756e74206973206d61726b656420696e206f757220626c61632d6b6c697374436f6e747261637420696e7374616e63652068617320616c7265616479206265656e20696e697469616c697a6564a165627a7a72305820d7e228b62b370e31691fd77c0f8b4e21e9bd43f59497218f1b80ae2426c521500029",
  "compiler": {
    "name": "solc",
    "version": "0.5.2+commit.1df8f40c.Emscripten.clang",
    "optimizer": {
      "enabled": true,
      "runs": 1000000000
    },
    "evmVersion": "constantinople"
  }
}