{
  "fileName": "MasterPauser.sol",
  "contractName": "MasterPauser",
  "source": "pragma solidity ^0.5.2;\n\n\nimport \"@openzeppelin/contracts-ethereum-package/contracts/ownership/Ownable.sol\";\nimport \"@openzeppelin/contracts-ethereum-package/contracts/lifecycle/Pausable.sol\";\nimport \"@openzeppelin/upgrades/contracts/Initializable.sol\";\n\n/**\n*   @title MasterPauser role, is that who is resposable of add and remove another pausers.\n*/\ncontract MasterPauser is Ownable, Pausable {\n\n\n    event MasterPauserAdded(address indexed account);\n    event MasterPauserChanged(address indexed newMasterPauser);\n\n    address public masterPauser;\n\n    function initialize (\n        address _masterPauser,\n        address owner\n        ) public initializer {\n        masterPauser = _masterPauser;\n        PauserRole.initialize(_masterPauser);\n        Ownable.initialize(owner);\n        emit MasterPauserChanged(_masterPauser);\n    }\n\n    /**\n     * @dev Throws if called by any account other than the masterPauser\n    */\n    modifier onlyMasterPauser() {\n        require(msg.sender == masterPauser, \"masterPauser address needed\");\n        _;\n    }\n\n\n    /**\n     * @dev add pauser address, only the contract Owner can do that\n    */\n    function addPauser(address account) public onlyMasterPauser {\n        _addPauser(account);\n    }\n\n\n    /**\n     * @dev remove a pauser address, only the contract Owner can do that\n    */\n    function removePauser(address account) public onlyMasterPauser {\n        _removePauser(account);\n    }\n\n    /**\n     * @dev update the MasterPauser address, only the contract Owner can do that\n    */\n    function updateMasterPauser(address _newMasterPauser) public onlyOwner {\n        require(_newMasterPauser != address(0) && _newMasterPauser != msg.sender, \"masterPauser has to be a real address and not the same\");\n        masterPauser = _newMasterPauser;\n        emit MasterPauserChanged(masterPauser);\n    }\n\n}\n",
  "sourcePath": "contracts/MasterPauser.sol",
  "abi": [
    {
      "constant": false,
      "inputs": [],
      "name": "unpause",
      "outputs": [],
      "payable": false,
      "stateMutability": "nonpayable",
      "type": "function"
    },
    {
      "constant": true,
      "inputs": [
        {
          "name": "account",
          "type": "address"
        }
      ],
      "name": "isPauser",
      "outputs": [
        {
          "name": "",
          "type": "bool"
        }
      ],
      "payable": false,
      "stateMutability": "view",
      "type": "function"
    },
    {
      "constant": false,
      "inputs": [
        {
          "name": "_masterPauser",
          "type": "address"
        },
        {
          "name": "owner",
          "type": "address"
        }
      ],
      "name": "initialize",
      "outputs": [],
      "payable": false,
      "stateMutability": "nonpayable",
      "type": "function"
    },
    {
      "constant": true,
      "inputs": [],
      "name": "masterPauser",
      "outputs": [
        {
          "name": "",
          "type": "address"
        }
      ],
      "payable": false,
      "stateMutability": "view",
      "type": "function"
    },
    {
      "constant": true,
      "inputs": [],
      "name": "paused",
      "outputs": [
        {
          "name": "",
          "type": "bool"
        }
      ],
      "payable": false,
      "stateMutability": "view",
      "type": "function"
    },
    {
      "constant": false,
      "inputs": [
        {
          "name": "account",
          "type": "address"
        }
      ],
      "name": "removePauser",
      "outputs": [],
      "payable": false,
      "stateMutability": "nonpayable",
      "type": "function"
    },
    {
      "constant": false,
      "inputs": [],
      "name": "renouncePauser",
      "outputs": [],
      "payable": false,
      "stateMutability": "nonpayable",
      "type": "function"
    },
    {
      "constant": false,
      "inputs": [],
      "name": "renounceOwnership",
      "outputs": [],
      "payable": false,
      "stateMutability": "nonpayable",
      "type": "function"
    },
    {
      "constant": false,
      "inputs": [
        {
          "name": "account",
          "type": "address"
        }
      ],
      "name": "addPauser",
      "outputs": [],
      "payable": false,
      "stateMutability": "nonpayable",
      "type": "function"
    },
    {
      "constant": false,
      "inputs": [],
      "name": "pause",
      "outputs": [],
      "payable": false,
      "stateMutability": "nonpayable",
      "type": "function"
    },
    {
      "constant": false,
      "inputs": [
        {
          "name": "_newMasterPauser",
          "type": "address"
        }
      ],
      "name": "updateMasterPauser",
      "outputs": [],
      "payable": false,
      "stateMutability": "nonpayable",
      "type": "function"
    },
    {
      "constant": true,
      "inputs": [],
      "name": "owner",
      "outputs": [
        {
          "name": "",
          "type": "address"
        }
      ],
      "payable": false,
      "stateMutability": "view",
      "type": "function"
    },
    {
      "constant": true,
      "inputs": [],
      "name": "isOwner",
      "outputs": [
        {
          "name": "",
          "type": "bool"
        }
      ],
      "payable": false,
      "stateMutability": "view",
      "type": "function"
    },
    {
      "constant": false,
      "inputs": [
        {
          "name": "sender",
          "type": "address"
        }
      ],
      "name": "initialize",
      "outputs": [],
      "payable": false,
      "stateMutability": "nonpayable",
      "type": "function"
    },
    {
      "constant": false,
      "inputs": [
        {
          "name": "newOwner",
          "type": "address"
        }
      ],
      "name": "transferOwnership",
      "outputs": [],
      "payable": false,
      "stateMutability": "nonpayable",
      "type": "function"
    },
    {
      "anonymous": false,
      "inputs": [
        {
          "indexed": true,
          "name": "account",
          "type": "address"
        }
      ],
      "name": "MasterPauserAdded",
      "type": "event"
    },
    {
      "anonymous": false,
      "inputs": [
        {
          "indexed": true,
          "name": "newMasterPauser",
          "type": "address"
        }
      ],
      "name": "MasterPauserChanged",
      "type": "event"
    },
    {
      "anonymous": false,
      "inputs": [
        {
          "indexed": false,
          "name": "account",
          "type": "address"
        }
      ],
      "name": "Paused",
      "type": "event"
    },
    {
      "anonymous": false,
      "inputs": [
        {
          "indexed": false,
          "name": "account",
          "type": "address"
        }
      ],
      "name": "Unpaused",
      "type": "event"
    },
    {
      "anonymous": false,
      "inputs": [
        {
          "indexed": true,
          "name": "account",
          "type": "address"
        }
      ],
      "name": "PauserAdded",
      "type": "event"
    },
    {
      "anonymous": false,
      "inputs": [
        {
          "indexed": true,
          "name": "account",
          "type": "address"
        }
      ],
      "name": "PauserRemoved",
      "type": "event"
    },
    {
      "anonymous": false,
      "inputs": [
        {
          "indexed": true,
          "name": "previousOwner",
          "type": "address"
        },
        {
          "indexed": true,
          "name": "newOwner",
          "type": "address"
        }
      ],
      "name": "OwnershipTransferred",
      "type": "event"
    }
  ],
  "bytecode": "0x608060405234801561001057600080fd5b5061103e806100206000396000f3fe608060405234801561001057600080fd5b50600436106100f55760003560e01c8063715018a6116100975780638da5cb5b116100665780638da5cb5b146102705780638f32d59b14610278578063c4d66de814610280578063f2fde38b146102b3576100f5565b8063715018a6146101fa57806382dc1ec4146102025780638456cb59146102355780638b189f441461023d576100f5565b806359ef1662116100d357806359ef1662146101865780635c975abb146101b75780636b2c0f55146101bf5780636ef8d66d146101f2576100f5565b80633f4ba83a146100fa57806346fbf68e14610104578063485cc9551461014b575b600080fd5b6101026102e6565b005b6101376004803603602081101561011a57600080fd5b503573ffffffffffffffffffffffffffffffffffffffff16610368565b604080519115158252519081900360200190f35b6101026004803603604081101561016157600080fd5b5073ffffffffffffffffffffffffffffffffffffffff81358116916020013516610381565b61018e61052c565b6040805173ffffffffffffffffffffffffffffffffffffffff9092168252519081900360200190f35b610137610548565b610102600480360360208110156101d557600080fd5b503573ffffffffffffffffffffffffffffffffffffffff16610551565b6101026105e3565b6101026105ee565b6101026004803603602081101561021857600080fd5b503573ffffffffffffffffffffffffffffffffffffffff16610670565b6101026106ff565b6101026004803603602081101561025357600080fd5b503573ffffffffffffffffffffffffffffffffffffffff16610783565b61018e61089d565b6101376108b9565b6101026004803603602081101561029657600080fd5b503573ffffffffffffffffffffffffffffffffffffffff166108d7565b610102600480360360208110156102c957600080fd5b503573ffffffffffffffffffffffffffffffffffffffff16610a1f565b6102ef33610368565b15156102fa57600080fd5b60995460ff16151561030b57600080fd5b609980547fffffffffffffffffffffffffffffffffffffffffffffffffffffffffffffff001690556040805133815290517f5db9ee0a495bf2e6ff9c91a7834c1ba4fdd244a5e8aa4e537bd38aeae4b073aa9181900360200190a1565b600061037b60668363ffffffff610a3b16565b92915050565b600054610100900460ff168061039a575061039a610a8c565b806103a8575060005460ff16155b15156103ff576040517f08c379a000000000000000000000000000000000000000000000000000000000815260040180806020018281038252602e815260200180610faf602e913960400191505060405180910390fd5b600054610100900460ff1615801561046557600080547fffffffffffffffffffffffffffffffffffffffffffffffffffffffffffffff007fffffffffffffffffffffffffffffffffffffffffffffffffffffffffffff00ff909116610100171660011790555b60cc80547fffffffffffffffffffffffff00000000000000000000000000000000000000001673ffffffffffffffffffffffffffffffffffffffff85161790556104ae83610a92565b6104b782610bc0565b60405173ffffffffffffffffffffffffffffffffffffffff8416907f432aaa68b84b28983ad544552e174ec0942e4163f559a6be5fada006ba6df25b90600090a2801561052757600080547fffffffffffffffffffffffffffffffffffffffffffffffffffffffffffff00ff1690555b505050565b60cc5473ffffffffffffffffffffffffffffffffffffffff1681565b60995460ff1690565b60cc5473ffffffffffffffffffffffffffffffffffffffff1633146105d757604080517f08c379a000000000000000000000000000000000000000000000000000000000815260206004820152601b60248201527f6d61737465725061757365722061646472657373206e65656465640000000000604482015290519081900360640190fd5b6105e081610d4a565b50565b6105ec33610d4a565b565b6105f66108b9565b151561060157600080fd5b60335460405160009173ffffffffffffffffffffffffffffffffffffffff16907f8be0079c531659141344cd1fd0a4f28419497f9722a3daafe3b4186f6b6457e0908390a3603380547fffffffffffffffffffffffff0000000000000000000000000000000000000000169055565b60cc5473ffffffffffffffffffffffffffffffffffffffff1633146106f657604080517f08c379a000000000000000000000000000000000000000000000000000000000815260206004820152601b60248201527f6d61737465725061757365722061646472657373206e65656465640000000000604482015290519081900360640190fd5b6105e081610d9f565b61070833610368565b151561071357600080fd5b60995460ff161561072357600080fd5b609980547fffffffffffffffffffffffffffffffffffffffffffffffffffffffffffffff001660011790556040805133815290517f62e78cea01bee320cd4e420270b5ea74000d11b0c9f74754ebdbfc544b05a2589181900360200190a1565b61078b6108b9565b151561079657600080fd5b73ffffffffffffffffffffffffffffffffffffffff8116158015906107d1575073ffffffffffffffffffffffffffffffffffffffff81163314155b1515610828576040517f08c379a0000000000000000000000000000000000000000000000000000000008152600401808060200182810382526036815260200180610fdd6036913960400191505060405180910390fd5b60cc80547fffffffffffffffffffffffff00000000000000000000000000000000000000001673ffffffffffffffffffffffffffffffffffffffff83811691909117918290556040519116907f432aaa68b84b28983ad544552e174ec0942e4163f559a6be5fada006ba6df25b90600090a250565b60335473ffffffffffffffffffffffffffffffffffffffff1690565b60335473ffffffffffffffffffffffffffffffffffffffff16331490565b600054610100900460ff16806108f057506108f0610a8c565b806108fe575060005460ff16155b1515610955576040517f08c379a000000000000000000000000000000000000000000000000000000000815260040180806020018281038252602e815260200180610faf602e913960400191505060405180910390fd5b600054610100900460ff161580156109bb57600080547fffffffffffffffffffffffffffffffffffffffffffffffffffffffffffffff007fffffffffffffffffffffffffffffffffffffffffffffffffffffffffffff00ff909116610100171660011790555b6109c482610a92565b609980547fffffffffffffffffffffffffffffffffffffffffffffffffffffffffffffff001690558015610a1b57600080547fffffffffffffffffffffffffffffffffffffffffffffffffffffffffffff00ff1690555b5050565b610a276108b9565b1515610a3257600080fd5b6105e081610df4565b600073ffffffffffffffffffffffffffffffffffffffff82161515610a5f57600080fd5b5073ffffffffffffffffffffffffffffffffffffffff166000908152602091909152604090205460ff1690565b303b1590565b600054610100900460ff1680610aab5750610aab610a8c565b80610ab9575060005460ff16155b1515610b10576040517f08c379a000000000000000000000000000000000000000000000000000000000815260040180806020018281038252602e815260200180610faf602e913960400191505060405180910390fd5b600054610100900460ff16158015610b7657600080547fffffffffffffffffffffffffffffffffffffffffffffffffffffffffffffff007fffffffffffffffffffffffffffffffffffffffffffffffffffffffffffff00ff909116610100171660011790555b610b7f82610368565b1515610b8e57610b8e82610d9f565b8015610a1b57600080547fffffffffffffffffffffffffffffffffffffffffffffffffffffffffffff00ff1690555050565b600054610100900460ff1680610bd95750610bd9610a8c565b80610be7575060005460ff16155b1515610c3e576040517f08c379a000000000000000000000000000000000000000000000000000000000815260040180806020018281038252602e815260200180610faf602e913960400191505060405180910390fd5b600054610100900460ff16158015610ca457600080547fffffffffffffffffffffffffffffffffffffffffffffffffffffffffffffff007fffffffffffffffffffffffffffffffffffffffffffffffffffffffffffff00ff909116610100171660011790555b603380547fffffffffffffffffffffffff00000000000000000000000000000000000000001673ffffffffffffffffffffffffffffffffffffffff84811691909117918290556040519116906000907f8be0079c531659141344cd1fd0a4f28419497f9722a3daafe3b4186f6b6457e0908290a38015610a1b57600080547fffffffffffffffffffffffffffffffffffffffffffffffffffffffffffff00ff1690555050565b610d5b60668263ffffffff610ea416565b60405173ffffffffffffffffffffffffffffffffffffffff8216907fcd265ebaf09df2871cc7bd4133404a235ba12eff2041bb89d9c714a2621c7c7e90600090a250565b610db060668263ffffffff610f2816565b60405173ffffffffffffffffffffffffffffffffffffffff8216907f6719d08c1888103bea251a4ed56406bd0c3e69723c8a1686e017e7bbe159b6f890600090a250565b73ffffffffffffffffffffffffffffffffffffffff81161515610e1657600080fd5b60335460405173ffffffffffffffffffffffffffffffffffffffff8084169216907f8be0079c531659141344cd1fd0a4f28419497f9722a3daafe3b4186f6b6457e090600090a3603380547fffffffffffffffffffffffff00000000000000000000000000000000000000001673ffffffffffffffffffffffffffffffffffffffff92909216919091179055565b73ffffffffffffffffffffffffffffffffffffffff81161515610ec657600080fd5b610ed08282610a3b565b1515610edb57600080fd5b73ffffffffffffffffffffffffffffffffffffffff1660009081526020919091526040902080547fffffffffffffffffffffffffffffffffffffffffffffffffffffffffffffff00169055565b73ffffffffffffffffffffffffffffffffffffffff81161515610f4a57600080fd5b610f548282610a3b565b15610f5e57600080fd5b73ffffffffffffffffffffffffffffffffffffffff1660009081526020919091526040902080547fffffffffffffffffffffffffffffffffffffffffffffffffffffffffffffff0016600117905556fe436f6e747261637420696e7374616e63652068617320616c7265616479206265656e20696e697469616c697a65646d61737465725061757365722068617320746f2062652061207265616c206164647265737320616e64206e6f74207468652073616d65a165627a7a72305820595cd3f6378241545d073008efeb3d4f49974edf372ee3514fabee71c4f477390029",
  "compiler": {
    "name": "solc",
    "version": "0.5.2+commit.1df8f40c.Emscripten.clang",
    "optimizer": {
      "enabled": true,
      "runs": 1000000000
    },
    "evmVersion": "constantinople"
  }
}