{"fileName":"MasterPauser.sol","contractName":"MasterPauser","source":"pragma solidity ^0.5.2;\n\n\nimport \"@openzeppelin/contracts-ethereum-package/contracts/ownership/Ownable.sol\";\nimport \"@openzeppelin/contracts-ethereum-package/contracts/lifecycle/Pausable.sol\";\nimport \"@openzeppelin/upgrades/contracts/Initializable.sol\";\n\n/**\n*   @title MasterPauser role, is that who is resposable of add and remove another pausers.\n*/\ncontract MasterPauser is Ownable, Pausable {\n\n\n    event MasterPauserAdded(address indexed account);\n    event MasterPauserChanged(address indexed newMasterPauser);\n\n    address public masterPauser;\n\n    function initialize (\n        address _masterPauser,\n        address owner\n        ) public initializer {\n        masterPauser = _masterPauser;\n        PauserRole.initialize(_masterPauser);\n        Ownable.initialize(owner);\n        emit MasterPauserChanged(_masterPauser);\n    }\n\n    /**\n     * @dev Throws if called by any account other than the masterPauser\n    */\n    modifier onlyMasterPauser() {\n        require(msg.sender == masterPauser, \"masterPauser address needed\");\n        _;\n    }\n\n\n    /**\n     * @dev add pauser address, only the contract Owner can do that\n    */\n    function addPauser(address account) public onlyMasterPauser {\n        _addPauser(account);\n    }\n\n\n    /**\n     * @dev remove a pauser address, only the contract Owner can do that\n    */\n    function removePauser(address account) public onlyMasterPauser {\n        _removePauser(account);\n    }\n\n    /**\n     * @dev update the MasterPauser address, only the contract Owner can do that\n    */\n    function updateMasterPauser(address _newMasterPauser) public onlyOwner {\n        require(_newMasterPauser != address(0) && _newMasterPauser != msg.sender, \"masterPauser has to be a real address and not the same\");\n        masterPauser = _newMasterPauser;\n        emit MasterPauserChanged(masterPauser);\n    }\n\n}\n","sourcePath":"contracts/MasterPauser.sol","abi":[{"constant":false,"inputs":[],"name":"unpause","outputs":[],"payable":false,"stateMutability":"nonpayable","type":"function"},{"constant":true,"inputs":[{"name":"account","type":"address"}],"name":"isPauser","outputs":[{"name":"","type":"bool"}],"payable":false,"stateMutability":"view","type":"function"},{"constant":false,"inputs":[{"name":"_masterPauser","type":"address"},{"name":"owner","type":"address"}],"name":"initialize","outputs":[],"payable":false,"stateMutability":"nonpayable","type":"function"},{"constant":true,"inputs":[],"name":"masterPauser","outputs":[{"name":"","type":"address"}],"payable":false,"stateMutability":"view","type":"function"},{"constant":true,"inputs":[],"name":"paused","outputs":[{"name":"","type":"bool"}],"payable":false,"stateMutability":"view","type":"function"},{"constant":false,"inputs":[{"name":"account","type":"address"}],"name":"removePauser","outputs":[],"payable":false,"stateMutability":"nonpayable","type":"function"},{"constant":false,"inputs":[],"name":"renouncePauser","outputs":[],"payable":false,"stateMutability":"nonpayable","type":"function"},{"constant":false,"inputs":[],"name":"renounceOwnership","outputs":[],"payable":false,"stateMutability":"nonpayable","type":"function"},{"constant":false,"inputs":[{"name":"account","type":"address"}],"name":"addPauser","outputs":[],"payable":false,"stateMutability":"nonpayable","type":"function"},{"constant":false,"inputs":[],"name":"pause","outputs":[],"payable":false,"stateMutability":"nonpayable","type":"function"},{"constant":false,"inputs":[{"name":"_newMasterPauser","type":"address"}],"name":"updateMasterPauser","outputs":[],"payable":false,"stateMutability":"nonpayable","type":"function"},{"constant":true,"inputs":[],"name":"owner","outputs":[{"name":"","type":"address"}],"payable":false,"stateMutability":"view","type":"function"},{"constant":true,"inputs":[],"name":"isOwner","outputs":[{"name":"","type":"bool"}],"payable":false,"stateMutability":"view","type":"function"},{"constant":false,"inputs":[{"name":"sender","type":"address"}],"name":"initialize","outputs":[],"payable":false,"stateMutability":"nonpayable","type":"function"},{"constant":false,"inputs":[{"name":"newOwner","type":"address"}],"name":"transferOwnership","outputs":[],"payable":false,"stateMutability":"nonpayable","type":"function"},{"anonymous":false,"inputs":[{"indexed":true,"name":"account","type":"address"}],"name":"MasterPauserAdded","type":"event"},{"anonymous":false,"inputs":[{"indexed":true,"name":"newMasterPauser","type":"address"}],"name":"MasterPauserChanged","type":"event"},{"anonymous":false,"inputs":[{"indexed":false,"name":"account","type":"address"}],"name":"Paused","type":"event"},{"anonymous":false,"inputs":[{"indexed":false,"name":"account","type":"address"}],"name":"Unpaused","type":"event"},{"anonymous":false,"inputs":[{"indexed":true,"name":"account","type":"address"}],"name":"PauserAdded","type":"event"},{"anonymous":false,"inputs":[{"indexed":true,"name":"account","type":"address"}],"name":"PauserRemoved","type":"event"},{"anonymous":false,"inputs":[{"indexed":true,"name":"previousOwner","type":"address"},{"indexed":true,"name":"newOwner","type":"address"}],"name":"OwnershipTransferred","type":"event"}],"bytecode":"0x60806040523480156100115760006000fd5b50610017565b611545806100266000396000f3fe60806040523480156100115760006000fd5b50600436106100fa5760003560e01c8063715018a6116100985780638da5cb5b116100675780638da5cb5b146103255780638f32d59b1461036f578063c4d66de814610391578063f2fde38b146103d6576100fa565b8063715018a61461028757806382dc1ec4146102915780638456cb59146102d65780638b189f44146102e0576100fa565b806359ef1662116100d457806359ef1662146101cc5780635c975abb146102165780636b2c0f55146102385780636ef8d66d1461027d576100fa565b80633f4ba83a1461010057806346fbf68e1461010a578063485cc95514610167576100fa565b60006000fd5b61010861041b565b005b61014d600480360360208110156101215760006000fd5b81019080803573ffffffffffffffffffffffffffffffffffffffff1690602001909291905050506104d5565b604051808215151515815260200191505060405180910390f35b6101ca6004803603604081101561017e5760006000fd5b81019080803573ffffffffffffffffffffffffffffffffffffffff169060200190929190803573ffffffffffffffffffffffffffffffffffffffff1690602001909291905050506104fa565b005b6101d46106ab565b604051808273ffffffffffffffffffffffffffffffffffffffff1673ffffffffffffffffffffffffffffffffffffffff16815260200191505060405180910390f35b61021e6106d1565b604051808215151515815260200191505060405180910390f35b61027b6004803603602081101561024f5760006000fd5b81019080803573ffffffffffffffffffffffffffffffffffffffff1690602001909291905050506106ed565b005b6102856107c9565b005b61028f6107db565b005b6102d4600480360360208110156102a85760006000fd5b81019080803573ffffffffffffffffffffffffffffffffffffffff1690602001909291905050506108b8565b005b6102de610994565b005b610323600480360360208110156102f75760006000fd5b81019080803573ffffffffffffffffffffffffffffffffffffffff169060200190929190505050610a4f565b005b61032d610bd4565b604051808273ffffffffffffffffffffffffffffffffffffffff1673ffffffffffffffffffffffffffffffffffffffff16815260200191505060405180910390f35b610377610c03565b604051808215151515815260200191505060405180910390f35b6103d4600480360360208110156103a85760006000fd5b81019080803573ffffffffffffffffffffffffffffffffffffffff169060200190929190505050610c60565b005b610419600480360360208110156103ed5760006000fd5b81019080803573ffffffffffffffffffffffffffffffffffffffff169060200190929190505050610d98565b005b61042a336104d563ffffffff16565b15156104365760006000fd5b609960009054906101000a900460ff1615156104525760006000fd5b6000609960006101000a81548160ff0219169083151502179055507f5db9ee0a495bf2e6ff9c91a7834c1ba4fdd244a5e8aa4e537bd38aeae4b073aa33604051808273ffffffffffffffffffffffffffffffffffffffff1673ffffffffffffffffffffffffffffffffffffffff16815260200191505060405180910390a15b5b5b565b60006104ee826066600050610dc690919063ffffffff16565b90506104f5565b919050565b600060019054906101000a900460ff168061051f575061051e610e6463ffffffff16565b5b806105375750600060009054906101000a900460ff16155b151561058e576040517f08c379a000000000000000000000000000000000000000000000000000000000815260040180806020018281038252602e8152602001806114ad602e913960400191505060405180910390fd5b6000600060019054906101000a900460ff1615905080156105e0576001600060016101000a81548160ff0219169083151502179055506001600060006101000a81548160ff0219169083151502179055505b8260cc60006101000a81548173ffffffffffffffffffffffffffffffffffffffff021916908373ffffffffffffffffffffffffffffffffffffffff16021790555061063083610e7c63ffffffff16565b61063f82610faf63ffffffff16565b8273ffffffffffffffffffffffffffffffffffffffff167f432aaa68b84b28983ad544552e174ec0942e4163f559a6be5fada006ba6df25b60405160405180910390a25b80156106a5576000600060016101000a81548160ff0219169083151502179055505b505b5050565b60cc60009054906101000a900473ffffffffffffffffffffffffffffffffffffffff1681565b6000609960009054906101000a900460ff1690506106ea565b90565b60cc60009054906101000a900473ffffffffffffffffffffffffffffffffffffffff1673ffffffffffffffffffffffffffffffffffffffff163373ffffffffffffffffffffffffffffffffffffffff161415156107b5576040517f08c379a000000000000000000000000000000000000000000000000000000000815260040180806020018281038252601b8152602001807f6d61737465725061757365722061646472657373206e6565646564000000000081526020015060200191505060405180910390fd5b6107c48161117b63ffffffff16565b5b5b50565b6107d83361117b63ffffffff16565b5b565b6107e9610c0363ffffffff16565b15156107f55760006000fd5b600073ffffffffffffffffffffffffffffffffffffffff16603360009054906101000a900473ffffffffffffffffffffffffffffffffffffffff1673ffffffffffffffffffffffffffffffffffffffff167f8be0079c531659141344cd1fd0a4f28419497f9722a3daafe3b4186f6b6457e060405160405180910390a36000603360006101000a81548173ffffffffffffffffffffffffffffffffffffffff021916908373ffffffffffffffffffffffffffffffffffffffff1602179055505b5b565b60cc60009054906101000a900473ffffffffffffffffffffffffffffffffffffffff1673ffffffffffffffffffffffffffffffffffffffff163373ffffffffffffffffffffffffffffffffffffffff16141515610980576040517f08c379a000000000000000000000000000000000000000000000000000000000815260040180806020018281038252601b8152602001807f6d61737465725061757365722061646472657373206e6565646564000000000081526020015060200191505060405180910390fd5b61098f816111d963ffffffff16565b5b5b50565b6109a3336104d563ffffffff16565b15156109af5760006000fd5b609960009054906101000a900460ff161515156109cc5760006000fd5b6001609960006101000a81548160ff0219169083151502179055507f62e78cea01bee320cd4e420270b5ea74000d11b0c9f74754ebdbfc544b05a25833604051808273ffffffffffffffffffffffffffffffffffffffff1673ffffffffffffffffffffffffffffffffffffffff16815260200191505060405180910390a15b5b5b565b610a5d610c0363ffffffff16565b1515610a695760006000fd5b600073ffffffffffffffffffffffffffffffffffffffff168173ffffffffffffffffffffffffffffffffffffffff1614158015610ad257503373ffffffffffffffffffffffffffffffffffffffff168173ffffffffffffffffffffffffffffffffffffffff1614155b1515610b29576040517f08c379a00000000000000000000000000000000000000000000000000000000081526004018080602001828103825260368152602001806114db6036913960400191505060405180910390fd5b8060cc60006101000a81548173ffffffffffffffffffffffffffffffffffffffff021916908373ffffffffffffffffffffffffffffffffffffffff16021790555060cc60009054906101000a900473ffffffffffffffffffffffffffffffffffffffff1673ffffffffffffffffffffffffffffffffffffffff167f432aaa68b84b28983ad544552e174ec0942e4163f559a6be5fada006ba6df25b60405160405180910390a25b5b50565b6000603360009054906101000a900473ffffffffffffffffffffffffffffffffffffffff169050610c00565b90565b6000603360009054906101000a900473ffffffffffffffffffffffffffffffffffffffff1673ffffffffffffffffffffffffffffffffffffffff163373ffffffffffffffffffffffffffffffffffffffff16149050610c5d565b90565b600060019054906101000a900460ff1680610c855750610c84610e6463ffffffff16565b5b80610c9d5750600060009054906101000a900460ff16155b1515610cf4576040517f08c379a000000000000000000000000000000000000000000000000000000000815260040180806020018281038252602e8152602001806114ad602e913960400191505060405180910390fd5b6000600060019054906101000a900460ff161590508015610d46576001600060016101000a81548160ff0219169083151502179055506001600060006101000a81548160ff0219169083151502179055505b610d5582610e7c63ffffffff16565b6000609960006101000a81548160ff0219169083151502179055505b8015610d93576000600060016101000a81548160ff0219169083151502179055505b505b50565b610da6610c0363ffffffff16565b1515610db25760006000fd5b610dc18161123763ffffffff16565b5b5b50565b6000600073ffffffffffffffffffffffffffffffffffffffff168273ffffffffffffffffffffffffffffffffffffffff1614151515610e055760006000fd5b8260000160005060008373ffffffffffffffffffffffffffffffffffffffff1673ffffffffffffffffffffffffffffffffffffffff16815260200190815260200160002060009054906101000a900460ff169050610e5e565b92915050565b60006000303b905060008114915050610e7956505b90565b600060019054906101000a900460ff1680610ea15750610ea0610e6463ffffffff16565b5b80610eb95750600060009054906101000a900460ff16155b1515610f10576040517f08c379a000000000000000000000000000000000000000000000000000000000815260040180806020018281038252602e8152602001806114ad602e913960400191505060405180910390fd5b6000600060019054906101000a900460ff161590508015610f62576001600060016101000a81548160ff0219169083151502179055506001600060006101000a81548160ff0219169083151502179055505b610f71826104d563ffffffff16565b1515610f8757610f86826111d963ffffffff16565b5b5b8015610faa576000600060016101000a81548160ff0219169083151502179055505b505b50565b600060019054906101000a900460ff1680610fd45750610fd3610e6463ffffffff16565b5b80610fec5750600060009054906101000a900460ff16155b1515611043576040517f08c379a000000000000000000000000000000000000000000000000000000000815260040180806020018281038252602e8152602001806114ad602e913960400191505060405180910390fd5b6000600060019054906101000a900460ff161590508015611095576001600060016101000a81548160ff0219169083151502179055506001600060006101000a81548160ff0219169083151502179055505b81603360006101000a81548173ffffffffffffffffffffffffffffffffffffffff021916908373ffffffffffffffffffffffffffffffffffffffff160217905550603360009054906101000a900473ffffffffffffffffffffffffffffffffffffffff1673ffffffffffffffffffffffffffffffffffffffff16600073ffffffffffffffffffffffffffffffffffffffff167f8be0079c531659141344cd1fd0a4f28419497f9722a3daafe3b4186f6b6457e060405160405180910390a35b8015611176576000600060016101000a81548160ff0219169083151502179055505b505b50565b61119281606660005061133590919063ffffffff16565b8073ffffffffffffffffffffffffffffffffffffffff167fcd265ebaf09df2871cc7bd4133404a235ba12eff2041bb89d9c714a2621c7c7e60405160405180910390a25b50565b6111f08160666000506113f090919063ffffffff16565b8073ffffffffffffffffffffffffffffffffffffffff167f6719d08c1888103bea251a4ed56406bd0c3e69723c8a1686e017e7bbe159b6f860405160405180910390a25b50565b600073ffffffffffffffffffffffffffffffffffffffff168173ffffffffffffffffffffffffffffffffffffffff16141515156112745760006000fd5b8073ffffffffffffffffffffffffffffffffffffffff16603360009054906101000a900473ffffffffffffffffffffffffffffffffffffffff1673ffffffffffffffffffffffffffffffffffffffff167f8be0079c531659141344cd1fd0a4f28419497f9722a3daafe3b4186f6b6457e060405160405180910390a380603360006101000a81548173ffffffffffffffffffffffffffffffffffffffff021916908373ffffffffffffffffffffffffffffffffffffffff1602179055505b50565b600073ffffffffffffffffffffffffffffffffffffffff168173ffffffffffffffffffffffffffffffffffffffff16141515156113725760006000fd5b6113828282610dc663ffffffff16565b151561138e5760006000fd5b60008260000160005060008373ffffffffffffffffffffffffffffffffffffffff1673ffffffffffffffffffffffffffffffffffffffff16815260200190815260200160002060006101000a81548160ff0219169083151502179055505b5050565b600073ffffffffffffffffffffffffffffffffffffffff168173ffffffffffffffffffffffffffffffffffffffff161415151561142d5760006000fd5b61143d8282610dc663ffffffff16565b15151561144a5760006000fd5b60018260000160005060008373ffffffffffffffffffffffffffffffffffffffff1673ffffffffffffffffffffffffffffffffffffffff16815260200190815260200160002060006101000a81548160ff0219169083151502179055505b505056fe436f6e747261637420696e7374616e63652068617320616c7265616479206265656e20696e697469616c697a65646d61737465725061757365722068617320746f2062652061207265616c206164647265737320616e64206e6f74207468652073616d65a265627a7a72305820b2d11be367ee84a74b746cce2712f6c25f600c573b97264480caa9cb29b6a40264736f6c634300050a0032","compiler":{"name":"solc","version":"0.5.10+commit.5a6ea5b1.Emscripten.clang","optimizer":{},"evmVersion":"constantinople"}}