{
    "fileName": "MasterMinter.sol",
    "contractName": "MasterMinter",
    "source": "pragma solidity ^0.5.2;\n\nimport \"@openzeppelin/contracts-ethereum-package/contracts/access/roles/MinterRole.sol\";\nimport \"@openzeppelin/contracts-ethereum-package/contracts/ownership/Ownable.sol\";\nimport \"@openzeppelin/upgrades/contracts/Initializable.sol\";\n\n/**\n*   @title MasterMinter role, is that who is resposable of add and remove another minters\n*/\ncontract MasterMinter is Ownable, MinterRole {\n\n\n    event MasterMinterAdded(address indexed account);\n    event MasterMinterChanged(address indexed newMasterMinter);\n\n    address public masterMinter;\n\n    function initialize (\n        address _masterMinter,\n        address owner\n        ) public initializer {\n        masterMinter = _masterMinter;\n        MinterRole.initialize(_masterMinter);\n        Ownable.initialize(owner);\n        emit MasterMinterChanged(masterMinter);\n    }\n\n    /**\n     * @dev Throws if called by any account other than the masterMinter\n    */\n    modifier onlyMasterMinter() {\n        require(msg.sender == masterMinter, \"masterMinter address needed\");\n        _;\n    }\n\n    /**\n     * @dev add minter address, only the contract Owner can do that\n    */\n    function addMinter(address account) public onlyMasterMinter {\n        _addMinter(account);\n    }\n\n    /**\n     * @dev remobe a minter address, only the contract Owner can do that\n    */\n    function removeMinter(address account) public onlyMasterMinter {\n        _removeMinter(account);\n    }\n\n    /**\n     * @dev update the MasterMinter address, only the contract Owner can do that\n    */\n    function updateMasterMinter(address _newMasterMinter) public onlyOwner {\n        require(_newMasterMinter != address(0) && _newMasterMinter != msg.sender, \"masterMinter has to be a real address and not the same\");\n        masterMinter = _newMasterMinter;\n        emit MasterMinterChanged(masterMinter);\n    }\n\n}\n",
    "sourcePath": "contracts/MasterMinter.sol",
    "abi": [
        {
            "constant": false,
            "inputs": [
                {
                    "name": "account",
                    "type": "address"
                }
            ],
            "name": "removeMinter",
            "outputs": [],
            "payable": false,
            "stateMutability": "nonpayable",
            "type": "function"
        },
        {
            "constant": true,
            "inputs": [],
            "name": "masterMinter",
            "outputs": [
                {
                    "name": "",
                    "type": "address"
                }
            ],
            "payable": false,
            "stateMutability": "view",
            "type": "function"
        },
        {
            "constant": false,
            "inputs": [
                {
                    "name": "_masterMinter",
                    "type": "address"
                },
                {
                    "name": "owner",
                    "type": "address"
                }
            ],
            "name": "initialize",
            "outputs": [],
            "payable": false,
            "stateMutability": "nonpayable",
            "type": "function"
        },
        {
            "constant": false,
            "inputs": [],
            "name": "renounceOwnership",
            "outputs": [],
            "payable": false,
            "stateMutability": "nonpayable",
            "type": "function"
        },
        {
            "constant": true,
            "inputs": [],
            "name": "owner",
            "outputs": [
                {
                    "name": "",
                    "type": "address"
                }
            ],
            "payable": false,
            "stateMutability": "view",
            "type": "function"
        },
        {
            "constant": true,
            "inputs": [],
            "name": "isOwner",
            "outputs": [
                {
                    "name": "",
                    "type": "bool"
                }
            ],
            "payable": false,
            "stateMutability": "view",
            "type": "function"
        },
        {
            "constant": false,
            "inputs": [
                {
                    "name": "account",
                    "type": "address"
                }
            ],
            "name": "addMinter",
            "outputs": [],
            "payable": false,
            "stateMutability": "nonpayable",
            "type": "function"
        },
        {
            "constant": false,
            "inputs": [],
            "name": "renounceMinter",
            "outputs": [],
            "payable": false,
            "stateMutability": "nonpayable",
            "type": "function"
        },
        {
            "constant": false,
            "inputs": [
                {
                    "name": "_newMasterMinter",
                    "type": "address"
                }
            ],
            "name": "updateMasterMinter",
            "outputs": [],
            "payable": false,
            "stateMutability": "nonpayable",
            "type": "function"
        },
        {
            "constant": true,
            "inputs": [
                {
                    "name": "account",
                    "type": "address"
                }
            ],
            "name": "isMinter",
            "outputs": [
                {
                    "name": "",
                    "type": "bool"
                }
            ],
            "payable": false,
            "stateMutability": "view",
            "type": "function"
        },
        {
            "constant": false,
            "inputs": [
                {
                    "name": "sender",
                    "type": "address"
                }
            ],
            "name": "initialize",
            "outputs": [],
            "payable": false,
            "stateMutability": "nonpayable",
            "type": "function"
        },
        {
            "constant": false,
            "inputs": [
                {
                    "name": "newOwner",
                    "type": "address"
                }
            ],
            "name": "transferOwnership",
            "outputs": [],
            "payable": false,
            "stateMutability": "nonpayable",
            "type": "function"
        },
        {
            "anonymous": false,
            "inputs": [
                {
                    "indexed": true,
                    "name": "account",
                    "type": "address"
                }
            ],
            "name": "MasterMinterAdded",
            "type": "event"
        },
        {
            "anonymous": false,
            "inputs": [
                {
                    "indexed": true,
                    "name": "newMasterMinter",
                    "type": "address"
                }
            ],
            "name": "MasterMinterChanged",
            "type": "event"
        },
        {
            "anonymous": false,
            "inputs": [
                {
                    "indexed": true,
                    "name": "account",
                    "type": "address"
                }
            ],
            "name": "MinterAdded",
            "type": "event"
        },
        {
            "anonymous": false,
            "inputs": [
                {
                    "indexed": true,
                    "name": "account",
                    "type": "address"
                }
            ],
            "name": "MinterRemoved",
            "type": "event"
        },
        {
            "anonymous": false,
            "inputs": [
                {
                    "indexed": true,
                    "name": "previousOwner",
                    "type": "address"
                },
                {
                    "indexed": true,
                    "name": "newOwner",
                    "type": "address"
                }
            ],
            "name": "OwnershipTransferred",
            "type": "event"
        }
    ],
    "bytecode": "0x608060405234801561001057600080fd5b50610db3806100206000396000f3fe608060405234801561001057600080fd5b50600436106100d45760003560e01c8063983b2d5611610081578063aa271e1a1161005b578063aa271e1a14610214578063c4d66de814610247578063f2fde38b1461027a576100d4565b8063983b2d56146101a657806398650275146101d9578063aa20e1e4146101e1576100d4565b8063715018a6116100b2578063715018a61461017a5780638da5cb5b146101825780638f32d59b1461018a576100d4565b80633092afd5146100d957806335d99f351461010e578063485cc9551461013f575b600080fd5b61010c600480360360208110156100ef57600080fd5b503573ffffffffffffffffffffffffffffffffffffffff166102ad565b005b61011661033f565b6040805173ffffffffffffffffffffffffffffffffffffffff9092168252519081900360200190f35b61010c6004803603604081101561015557600080fd5b5073ffffffffffffffffffffffffffffffffffffffff8135811691602001351661035b565b61010c61050a565b61011661058c565b6101926105a8565b604080519115158252519081900360200190f35b61010c600480360360208110156101bc57600080fd5b503573ffffffffffffffffffffffffffffffffffffffff166105c6565b61010c610655565b61010c600480360360208110156101f757600080fd5b503573ffffffffffffffffffffffffffffffffffffffff16610660565b6101926004803603602081101561022a57600080fd5b503573ffffffffffffffffffffffffffffffffffffffff1661077a565b61010c6004803603602081101561025d57600080fd5b503573ffffffffffffffffffffffffffffffffffffffff16610793565b61010c6004803603602081101561029057600080fd5b503573ffffffffffffffffffffffffffffffffffffffff166108c2565b60995473ffffffffffffffffffffffffffffffffffffffff16331461033357604080517f08c379a000000000000000000000000000000000000000000000000000000000815260206004820152601b60248201527f6d61737465724d696e7465722061646472657373206e65656465640000000000604482015290519081900360640190fd5b61033c816108de565b50565b60995473ffffffffffffffffffffffffffffffffffffffff1681565b600054610100900460ff16806103745750610374610933565b80610382575060005460ff16155b15156103d9576040517f08c379a000000000000000000000000000000000000000000000000000000000815260040180806020018281038252602e815260200180610d24602e913960400191505060405180910390fd5b600054610100900460ff1615801561043f57600080547fffffffffffffffffffffffffffffffffffffffffffffffffffffffffffffff007fffffffffffffffffffffffffffffffffffffffffffffffffffffffffffff00ff909116610100171660011790555b609980547fffffffffffffffffffffffff00000000000000000000000000000000000000001673ffffffffffffffffffffffffffffffffffffffff851617905561048883610793565b61049182610939565b60995460405173ffffffffffffffffffffffffffffffffffffffff909116907fdb66dfa9c6b8f5226fe9aac7e51897ae8ee94ac31dc70bb6c9900b2574b707e690600090a2801561050557600080547fffffffffffffffffffffffffffffffffffffffffffffffffffffffffffff00ff1690555b505050565b6105126105a8565b151561051d57600080fd5b60335460405160009173ffffffffffffffffffffffffffffffffffffffff16907f8be0079c531659141344cd1fd0a4f28419497f9722a3daafe3b4186f6b6457e0908390a3603380547fffffffffffffffffffffffff0000000000000000000000000000000000000000169055565b60335473ffffffffffffffffffffffffffffffffffffffff1690565b60335473ffffffffffffffffffffffffffffffffffffffff16331490565b60995473ffffffffffffffffffffffffffffffffffffffff16331461064c57604080517f08c379a000000000000000000000000000000000000000000000000000000000815260206004820152601b60248201527f6d61737465724d696e7465722061646472657373206e65656465640000000000604482015290519081900360640190fd5b61033c81610ac3565b61065e336108de565b565b6106686105a8565b151561067357600080fd5b73ffffffffffffffffffffffffffffffffffffffff8116158015906106ae575073ffffffffffffffffffffffffffffffffffffffff81163314155b1515610705576040517f08c379a0000000000000000000000000000000000000000000000000000000008152600401808060200182810382526036815260200180610d526036913960400191505060405180910390fd5b609980547fffffffffffffffffffffffff00000000000000000000000000000000000000001673ffffffffffffffffffffffffffffffffffffffff83811691909117918290556040519116907fdb66dfa9c6b8f5226fe9aac7e51897ae8ee94ac31dc70bb6c9900b2574b707e690600090a250565b600061078d60668363ffffffff610b1816565b92915050565b600054610100900460ff16806107ac57506107ac610933565b806107ba575060005460ff16155b1515610811576040517f08c379a000000000000000000000000000000000000000000000000000000000815260040180806020018281038252602e815260200180610d24602e913960400191505060405180910390fd5b600054610100900460ff1615801561087757600080547fffffffffffffffffffffffffffffffffffffffffffffffffffffffffffffff007fffffffffffffffffffffffffffffffffffffffffffffffffffffffffffff00ff909116610100171660011790555b6108808261077a565b151561088f5761088f82610ac3565b80156108be57600080547fffffffffffffffffffffffffffffffffffffffffffffffffffffffffffff00ff1690555b5050565b6108ca6105a8565b15156108d557600080fd5b61033c81610b69565b6108ef60668263ffffffff610c1916565b60405173ffffffffffffffffffffffffffffffffffffffff8216907fe94479a9f7e1952cc78f2d6baab678adc1b772d936c6583def489e524cb6669290600090a250565b303b1590565b600054610100900460ff16806109525750610952610933565b80610960575060005460ff16155b15156109b7576040517f08c379a000000000000000000000000000000000000000000000000000000000815260040180806020018281038252602e815260200180610d24602e913960400191505060405180910390fd5b600054610100900460ff16158015610a1d57600080547fffffffffffffffffffffffffffffffffffffffffffffffffffffffffffffff007fffffffffffffffffffffffffffffffffffffffffffffffffffffffffffff00ff909116610100171660011790555b603380547fffffffffffffffffffffffff00000000000000000000000000000000000000001673ffffffffffffffffffffffffffffffffffffffff84811691909117918290556040519116906000907f8be0079c531659141344cd1fd0a4f28419497f9722a3daafe3b4186f6b6457e0908290a380156108be57600080547fffffffffffffffffffffffffffffffffffffffffffffffffffffffffffff00ff1690555050565b610ad460668263ffffffff610c9d16565b60405173ffffffffffffffffffffffffffffffffffffffff8216907f6ae172837ea30b801fbfcdd4108aa1d5bf8ff775444fd70256b44e6bf3dfc3f690600090a250565b600073ffffffffffffffffffffffffffffffffffffffff82161515610b3c57600080fd5b5073ffffffffffffffffffffffffffffffffffffffff166000908152602091909152604090205460ff1690565b73ffffffffffffffffffffffffffffffffffffffff81161515610b8b57600080fd5b60335460405173ffffffffffffffffffffffffffffffffffffffff8084169216907f8be0079c531659141344cd1fd0a4f28419497f9722a3daafe3b4186f6b6457e090600090a3603380547fffffffffffffffffffffffff00000000000000000000000000000000000000001673ffffffffffffffffffffffffffffffffffffffff92909216919091179055565b73ffffffffffffffffffffffffffffffffffffffff81161515610c3b57600080fd5b610c458282610b18565b1515610c5057600080fd5b73ffffffffffffffffffffffffffffffffffffffff1660009081526020919091526040902080547fffffffffffffffffffffffffffffffffffffffffffffffffffffffffffffff00169055565b73ffffffffffffffffffffffffffffffffffffffff81161515610cbf57600080fd5b610cc98282610b18565b15610cd357600080fd5b73ffffffffffffffffffffffffffffffffffffffff1660009081526020919091526040902080547fffffffffffffffffffffffffffffffffffffffffffffffffffffffffffffff0016600117905556fe436f6e747261637420696e7374616e63652068617320616c7265616479206265656e20696e697469616c697a65646d61737465724d696e7465722068617320746f2062652061207265616c206164647265737320616e64206e6f74207468652073616d65a165627a7a723058200d17b0952d8eeb372740ef4ab9f4b53cf48b381cf6e624e04f580ccf601eed820029",
    "compiler": {
        "name": "solc",
        "version": "0.5.2+commit.1df8f40c.Emscripten.clang",
        "optimizer": {
            "enabled": true,
            "runs": 1000000000
        },
        "evmVersion": "constantinople"
    }
}