{"fileName":"MasterMinter.sol","contractName":"MasterMinter","source":"pragma solidity ^0.5.0;\n\nimport \"openzeppelin-eth/contracts/token/ERC20/ERC20Mintable.sol\";\nimport \"openzeppelin-eth/contracts/ownership/Ownable.sol\";\nimport \"zos-lib/contracts/Initializable.sol\";\n\n\ncontract MasterMinter is ERC20Mintable, Ownable {\n    \n    event MasterMinterAdded(address indexed account);\n    event MasterMinterChanged(address indexed newMasterMinter);\n\n    address public masterMinter;\n\n    function initialize (address _masterMinter) public initializer {\n        masterMinter = _masterMinter;\n        ERC20Mintable.initialize(_masterMinter);\n        emit MasterMinterChanged(masterMinter);\n    }\n\n    /**\n     * @dev Throws if called by any account other than the masterMinter\n    */\n    modifier onlyMasterMinter() {\n        require(msg.sender == masterMinter, \"masterMinter address needed\");\n        _;\n    }\n\n    /**\n     * @dev add minter address, only the contract Owner can do that\n    */\n    function addMinter(address account) public onlyMasterMinter {\n        _addMinter(account);\n    }\n\n    /**\n     * @dev remobe a minter address, only the contract Owner can do that\n    */\n    function removeMinter(address account) public onlyMasterMinter {\n        _removeMinter(account);\n    }\n\n    /**\n     * @dev update the MasterMinter address, only the contract Owner can do that\n    */\n    function updateMasterMinter(address _newMasterMinter) public onlyOwner { \n        require(_newMasterMinter != address(0) && _newMasterMinter != msg.sender, \"masterMinter has to be a real address and not the same\");\n        masterMinter = _newMasterMinter;\n        emit MasterMinterChanged(masterMinter);\n    }\n    \n}\n","sourcePath":"contracts/MasterMinter.sol","abi":[{"constant":false,"inputs":[{"name":"spender","type":"address"},{"name":"value","type":"uint256"}],"name":"approve","outputs":[{"name":"","type":"bool"}],"payable":false,"stateMutability":"nonpayable","type":"function"},{"constant":true,"inputs":[],"name":"totalSupply","outputs":[{"name":"","type":"uint256"}],"payable":false,"stateMutability":"view","type":"function"},{"constant":false,"inputs":[{"name":"from","type":"address"},{"name":"to","type":"address"},{"name":"value","type":"uint256"}],"name":"transferFrom","outputs":[{"name":"","type":"bool"}],"payable":false,"stateMutability":"nonpayable","type":"function"},{"constant":false,"inputs":[{"name":"account","type":"address"}],"name":"removeMinter","outputs":[],"payable":false,"stateMutability":"nonpayable","type":"function"},{"constant":true,"inputs":[],"name":"masterMinter","outputs":[{"name":"","type":"address"}],"payable":false,"stateMutability":"view","type":"function"},{"constant":false,"inputs":[{"name":"spender","type":"address"},{"name":"addedValue","type":"uint256"}],"name":"increaseAllowance","outputs":[{"name":"","type":"bool"}],"payable":false,"stateMutability":"nonpayable","type":"function"},{"constant":false,"inputs":[{"name":"to","type":"address"},{"name":"value","type":"uint256"}],"name":"mint","outputs":[{"name":"","type":"bool"}],"payable":false,"stateMutability":"nonpayable","type":"function"},{"constant":true,"inputs":[{"name":"owner","type":"address"}],"name":"balanceOf","outputs":[{"name":"","type":"uint256"}],"payable":false,"stateMutability":"view","type":"function"},{"constant":false,"inputs":[],"name":"renounceOwnership","outputs":[],"payable":false,"stateMutability":"nonpayable","type":"function"},{"constant":true,"inputs":[],"name":"owner","outputs":[{"name":"","type":"address"}],"payable":false,"stateMutability":"view","type":"function"},{"constant":true,"inputs":[],"name":"isOwner","outputs":[{"name":"","type":"bool"}],"payable":false,"stateMutability":"view","type":"function"},{"constant":false,"inputs":[{"name":"account","type":"address"}],"name":"addMinter","outputs":[],"payable":false,"stateMutability":"nonpayable","type":"function"},{"constant":false,"inputs":[],"name":"renounceMinter","outputs":[],"payable":false,"stateMutability":"nonpayable","type":"function"},{"constant":false,"inputs":[{"name":"spender","type":"address"},{"name":"subtractedValue","type":"uint256"}],"name":"decreaseAllowance","outputs":[{"name":"","type":"bool"}],"payable":false,"stateMutability":"nonpayable","type":"function"},{"constant":false,"inputs":[{"name":"to","type":"address"},{"name":"value","type":"uint256"}],"name":"transfer","outputs":[{"name":"","type":"bool"}],"payable":false,"stateMutability":"nonpayable","type":"function"},{"constant":false,"inputs":[{"name":"_newMasterMinter","type":"address"}],"name":"updateMasterMinter","outputs":[],"payable":false,"stateMutability":"nonpayable","type":"function"},{"constant":true,"inputs":[{"name":"account","type":"address"}],"name":"isMinter","outputs":[{"name":"","type":"bool"}],"payable":false,"stateMutability":"view","type":"function"},{"constant":false,"inputs":[{"name":"_masterMinter","type":"address"}],"name":"initialize","outputs":[],"payable":false,"stateMutability":"nonpayable","type":"function"},{"constant":true,"inputs":[{"name":"owner","type":"address"},{"name":"spender","type":"address"}],"name":"allowance","outputs":[{"name":"","type":"uint256"}],"payable":false,"stateMutability":"view","type":"function"},{"constant":false,"inputs":[{"name":"newOwner","type":"address"}],"name":"transferOwnership","outputs":[],"payable":false,"stateMutability":"nonpayable","type":"function"},{"anonymous":false,"inputs":[{"indexed":true,"name":"account","type":"address"}],"name":"MasterMinterAdded","type":"event"},{"anonymous":false,"inputs":[{"indexed":true,"name":"newMasterMinter","type":"address"}],"name":"MasterMinterChanged","type":"event"},{"anonymous":false,"inputs":[{"indexed":true,"name":"previousOwner","type":"address"},{"indexed":true,"name":"newOwner","type":"address"}],"name":"OwnershipTransferred","type":"event"},{"anonymous":false,"inputs":[{"indexed":true,"name":"account","type":"address"}],"name":"MinterAdded","type":"event"},{"anonymous":false,"inputs":[{"indexed":true,"name":"account","type":"address"}],"name":"MinterRemoved","type":"event"},{"anonymous":false,"inputs":[{"indexed":true,"name":"from","type":"address"},{"indexed":true,"name":"to","type":"address"},{"indexed":false,"name":"value","type":"uint256"}],"name":"Transfer","type":"event"},{"anonymous":false,"inputs":[{"indexed":true,"name":"owner","type":"address"},{"indexed":true,"name":"spender","type":"address"},{"indexed":false,"name":"value","type":"uint256"}],"name":"Approval","type":"event"}],"bytecode":"0x60806040523480156100115760006000fd5b50610017565b611dd4806100266000396000f3fe60806040523480156100115760006000fd5b50600436106101315760003560e01c80638f32d59b116100ae578063aa20e1e411610072578063aa20e1e41461058c578063aa271e1a146105d1578063c4d66de81461062e578063dd62ed3e14610673578063f2fde38b146106ec57610131565b80638f32d59b1461044d578063983b2d561461046f57806398650275146104b4578063a457c2d7146104be578063a9059cbb1461052557610131565b806339509351116100f557806339509351146102d257806340c10f191461033957806370a08231146103a0578063715018a6146103f95780638da5cb5b1461040357610131565b8063095ea7b31461013757806318160ddd1461019e57806323b872dd146101bc5780633092afd51461024357806335d99f351461028857610131565b60006000fd5b6101846004803603604081101561014e5760006000fd5b81019080803573ffffffffffffffffffffffffffffffffffffffff16906020019092919080359060200190929190505050610731565b604051808215151515815260200191505060405180910390f35b6101a6610753565b6040518082815260200191505060405180910390f35b610229600480360360608110156101d35760006000fd5b81019080803573ffffffffffffffffffffffffffffffffffffffff169060200190929190803573ffffffffffffffffffffffffffffffffffffffff16906020019092919080359060200190929190505050610765565b604051808215151515815260200191505060405180910390f35b6102866004803603602081101561025a5760006000fd5b81019080803573ffffffffffffffffffffffffffffffffffffffff169060200190929190505050610830565b005b61029061090d565b604051808273ffffffffffffffffffffffffffffffffffffffff1673ffffffffffffffffffffffffffffffffffffffff16815260200191505060405180910390f35b61031f600480360360408110156102e95760006000fd5b81019080803573ffffffffffffffffffffffffffffffffffffffff16906020019092919080359060200190929190505050610934565b604051808215151515815260200191505060405180910390f35b610386600480360360408110156103505760006000fd5b81019080803573ffffffffffffffffffffffffffffffffffffffff169060200190929190803590602001909291905050506109ed565b604051808215151515815260200191505060405180910390f35b6103e3600480360360208110156103b75760006000fd5b81019080803573ffffffffffffffffffffffffffffffffffffffff169060200190929190505050610a2a565b6040518082815260200191505060405180910390f35b610401610a7e565b005b61040b610b5b565b604051808273ffffffffffffffffffffffffffffffffffffffff1673ffffffffffffffffffffffffffffffffffffffff16815260200191505060405180910390f35b610455610b8a565b604051808215151515815260200191505060405180910390f35b6104b2600480360360208110156104865760006000fd5b81019080803573ffffffffffffffffffffffffffffffffffffffff169060200190929190505050610be7565b005b6104bc610cc4565b005b61050b600480360360408110156104d55760006000fd5b81019080803573ffffffffffffffffffffffffffffffffffffffff16906020019092919080359060200190929190505050610cd6565b604051808215151515815260200191505060405180910390f35b6105726004803603604081101561053c5760006000fd5b81019080803573ffffffffffffffffffffffffffffffffffffffff16906020019092919080359060200190929190505050610d8f565b604051808215151515815260200191505060405180910390f35b6105cf600480360360208110156105a35760006000fd5b81019080803573ffffffffffffffffffffffffffffffffffffffff169060200190929190505050610db1565b005b610614600480360360208110156105e85760006000fd5b81019080803573ffffffffffffffffffffffffffffffffffffffff169060200190929190505050610f38565b604051808215151515815260200191505060405180910390f35b610671600480360360208110156106455760006000fd5b81019080803573ffffffffffffffffffffffffffffffffffffffff169060200190929190505050610f5d565b005b6106d66004803603604081101561068a5760006000fd5b81019080803573ffffffffffffffffffffffffffffffffffffffff169060200190929190803573ffffffffffffffffffffffffffffffffffffffff169060200190929190505050611122565b6040518082815260200191505060405180910390f35b61072f600480360360208110156107035760006000fd5b81019080803573ffffffffffffffffffffffffffffffffffffffff1690602001909291905050506111b7565b005b60006107443384846111e563ffffffff16565b6001905061074d565b92915050565b60006035600050549050610762565b90565b600061077884848461135663ffffffff16565b610820843361081585603460005060008a73ffffffffffffffffffffffffffffffffffffffff1673ffffffffffffffffffffffffffffffffffffffff16815260200190815260200160002060005060003373ffffffffffffffffffffffffffffffffffffffff1673ffffffffffffffffffffffffffffffffffffffff1681526020019081526020016000206000505461154490919063ffffffff16565b6111e563ffffffff16565b60019050610829565b9392505050565b61010060009054906101000a900473ffffffffffffffffffffffffffffffffffffffff1673ffffffffffffffffffffffffffffffffffffffff163373ffffffffffffffffffffffffffffffffffffffff161415156108f9576040517f08c379a000000000000000000000000000000000000000000000000000000000815260040180806020018281038252601b8152602001807f6d61737465724d696e7465722061646472657373206e6565646564000000000081526020015060200191505060405180910390fd5b6109088161156d63ffffffff16565b5b5b50565b61010060009054906101000a900473ffffffffffffffffffffffffffffffffffffffff1681565b60006109de33846109d385603460005060003373ffffffffffffffffffffffffffffffffffffffff1673ffffffffffffffffffffffffffffffffffffffff16815260200190815260200160002060005060008973ffffffffffffffffffffffffffffffffffffffff1673ffffffffffffffffffffffffffffffffffffffff168152602001908152602001600020600050546115cb90919063ffffffff16565b6111e563ffffffff16565b600190506109e7565b92915050565b60006109fe33610f3863ffffffff16565b1515610a0a5760006000fd5b610a1a83836115f463ffffffff16565b60019050610a23565b5b92915050565b6000603360005060008373ffffffffffffffffffffffffffffffffffffffff1673ffffffffffffffffffffffffffffffffffffffff168152602001908152602001600020600050549050610a79565b919050565b610a8c610b8a63ffffffff16565b1515610a985760006000fd5b600073ffffffffffffffffffffffffffffffffffffffff1660cd60009054906101000a900473ffffffffffffffffffffffffffffffffffffffff1673ffffffffffffffffffffffffffffffffffffffff167f8be0079c531659141344cd1fd0a4f28419497f9722a3daafe3b4186f6b6457e060405160405180910390a3600060cd60006101000a81548173ffffffffffffffffffffffffffffffffffffffff021916908373ffffffffffffffffffffffffffffffffffffffff1602179055505b5b565b600060cd60009054906101000a900473ffffffffffffffffffffffffffffffffffffffff169050610b87565b90565b600060cd60009054906101000a900473ffffffffffffffffffffffffffffffffffffffff1673ffffffffffffffffffffffffffffffffffffffff163373ffffffffffffffffffffffffffffffffffffffff16149050610be4565b90565b61010060009054906101000a900473ffffffffffffffffffffffffffffffffffffffff1673ffffffffffffffffffffffffffffffffffffffff163373ffffffffffffffffffffffffffffffffffffffff16141515610cb0576040517f08c379a000000000000000000000000000000000000000000000000000000000815260040180806020018281038252601b8152602001807f6d61737465724d696e7465722061646472657373206e6565646564000000000081526020015060200191505060405180910390fd5b610cbf8161176263ffffffff16565b5b5b50565b610cd33361156d63ffffffff16565b5b565b6000610d803384610d7585603460005060003373ffffffffffffffffffffffffffffffffffffffff1673ffffffffffffffffffffffffffffffffffffffff16815260200190815260200160002060005060008973ffffffffffffffffffffffffffffffffffffffff1673ffffffffffffffffffffffffffffffffffffffff1681526020019081526020016000206000505461154490919063ffffffff16565b6111e563ffffffff16565b60019050610d89565b92915050565b6000610da233848461135663ffffffff16565b60019050610dab565b92915050565b610dbf610b8a63ffffffff16565b1515610dcb5760006000fd5b600073ffffffffffffffffffffffffffffffffffffffff168173ffffffffffffffffffffffffffffffffffffffff1614158015610e3457503373ffffffffffffffffffffffffffffffffffffffff168173ffffffffffffffffffffffffffffffffffffffff1614155b1515610e8b576040517f08c379a0000000000000000000000000000000000000000000000000000000008152600401808060200182810382526036815260200180611d6a6036913960400191505060405180910390fd5b8061010060006101000a81548173ffffffffffffffffffffffffffffffffffffffff021916908373ffffffffffffffffffffffffffffffffffffffff16021790555061010060009054906101000a900473ffffffffffffffffffffffffffffffffffffffff1673ffffffffffffffffffffffffffffffffffffffff167fdb66dfa9c6b8f5226fe9aac7e51897ae8ee94ac31dc70bb6c9900b2574b707e660405160405180910390a25b5b50565b6000610f518260686000506117c090919063ffffffff16565b9050610f58565b919050565b600060019054906101000a900460ff1680610f825750610f8161185e63ffffffff16565b5b80610f9a5750600060009054906101000a900460ff16155b1515610ff1576040517f08c379a000000000000000000000000000000000000000000000000000000000815260040180806020018281038252602e815260200180611d3c602e913960400191505060405180910390fd5b6000600060019054906101000a900460ff161590508015611043576001600060016101000a81548160ff0219169083151502179055506001600060006101000a81548160ff0219169083151502179055505b8161010060006101000a81548173ffffffffffffffffffffffffffffffffffffffff021916908373ffffffffffffffffffffffffffffffffffffffff1602179055506110948261187663ffffffff16565b61010060009054906101000a900473ffffffffffffffffffffffffffffffffffffffff1673ffffffffffffffffffffffffffffffffffffffff167fdb66dfa9c6b8f5226fe9aac7e51897ae8ee94ac31dc70bb6c9900b2574b707e660405160405180910390a25b801561111d576000600060016101000a81548160ff0219169083151502179055505b505b50565b6000603460005060008473ffffffffffffffffffffffffffffffffffffffff1673ffffffffffffffffffffffffffffffffffffffff16815260200190815260200160002060005060008373ffffffffffffffffffffffffffffffffffffffff1673ffffffffffffffffffffffffffffffffffffffff1681526020019081526020016000206000505490506111b1565b92915050565b6111c5610b8a63ffffffff16565b15156111d15760006000fd5b6111e08161199363ffffffff16565b5b5b50565b600073ffffffffffffffffffffffffffffffffffffffff168273ffffffffffffffffffffffffffffffffffffffff16141515156112225760006000fd5b600073ffffffffffffffffffffffffffffffffffffffff168373ffffffffffffffffffffffffffffffffffffffff161415151561125f5760006000fd5b80603460005060008573ffffffffffffffffffffffffffffffffffffffff1673ffffffffffffffffffffffffffffffffffffffff16815260200190815260200160002060005060008473ffffffffffffffffffffffffffffffffffffffff1673ffffffffffffffffffffffffffffffffffffffff1681526020019081526020016000206000508190909055508173ffffffffffffffffffffffffffffffffffffffff168373ffffffffffffffffffffffffffffffffffffffff167f8c5be1e5ebec7d5bd14f71427d1e84f3dd0314c0f7b2291e5b200ac8c7c3b925836040518082815260200191505060405180910390a35b505050565b600073ffffffffffffffffffffffffffffffffffffffff168273ffffffffffffffffffffffffffffffffffffffff16141515156113935760006000fd5b6113eb81603360005060008673ffffffffffffffffffffffffffffffffffffffff1673ffffffffffffffffffffffffffffffffffffffff1681526020019081526020016000206000505461154490919063ffffffff16565b603360005060008573ffffffffffffffffffffffffffffffffffffffff1673ffffffffffffffffffffffffffffffffffffffff16815260200190815260200160002060005081909090555061148e81603360005060008573ffffffffffffffffffffffffffffffffffffffff1673ffffffffffffffffffffffffffffffffffffffff168152602001908152602001600020600050546115cb90919063ffffffff16565b603360005060008473ffffffffffffffffffffffffffffffffffffffff1673ffffffffffffffffffffffffffffffffffffffff1681526020019081526020016000206000508190909055508173ffffffffffffffffffffffffffffffffffffffff168373ffffffffffffffffffffffffffffffffffffffff167fddf252ad1be2c89b69c2b068fc378daa952ba7f163c4a11628f55a4df523b3ef836040518082815260200191505060405180910390a35b505050565b60008282111515156115565760006000fd5b600082840390508091505061156756505b92915050565b611584816068600050611a9190919063ffffffff16565b8073ffffffffffffffffffffffffffffffffffffffff167fe94479a9f7e1952cc78f2d6baab678adc1b772d936c6583def489e524cb6669260405160405180910390a25b50565b6000600082840190508381101515156115e45760006000fd5b809150506115ee56505b92915050565b600073ffffffffffffffffffffffffffffffffffffffff168273ffffffffffffffffffffffffffffffffffffffff16141515156116315760006000fd5b611649816035600050546115cb90919063ffffffff16565b60356000508190909055506116ac81603360005060008573ffffffffffffffffffffffffffffffffffffffff1673ffffffffffffffffffffffffffffffffffffffff168152602001908152602001600020600050546115cb90919063ffffffff16565b603360005060008473ffffffffffffffffffffffffffffffffffffffff1673ffffffffffffffffffffffffffffffffffffffff1681526020019081526020016000206000508190909055508173ffffffffffffffffffffffffffffffffffffffff16600073ffffffffffffffffffffffffffffffffffffffff167fddf252ad1be2c89b69c2b068fc378daa952ba7f163c4a11628f55a4df523b3ef836040518082815260200191505060405180910390a35b5050565b611779816068600050611b4c90919063ffffffff16565b8073ffffffffffffffffffffffffffffffffffffffff167f6ae172837ea30b801fbfcdd4108aa1d5bf8ff775444fd70256b44e6bf3dfc3f660405160405180910390a25b50565b6000600073ffffffffffffffffffffffffffffffffffffffff168273ffffffffffffffffffffffffffffffffffffffff16141515156117ff5760006000fd5b8260000160005060008373ffffffffffffffffffffffffffffffffffffffff1673ffffffffffffffffffffffffffffffffffffffff16815260200190815260200160002060009054906101000a900460ff169050611858565b92915050565b60006000303b90506000811491505061187356505b90565b600060019054906101000a900460ff168061189b575061189a61185e63ffffffff16565b5b806118b35750600060009054906101000a900460ff16155b151561190a576040517f08c379a000000000000000000000000000000000000000000000000000000000815260040180806020018281038252602e815260200180611d3c602e913960400191505060405180910390fd5b6000600060019054906101000a900460ff16159050801561195c576001600060016101000a81548160ff0219169083151502179055506001600060006101000a81548160ff0219169083151502179055505b61196b82611c0863ffffffff16565b5b801561198e576000600060016101000a81548160ff0219169083151502179055505b505b50565b600073ffffffffffffffffffffffffffffffffffffffff168173ffffffffffffffffffffffffffffffffffffffff16141515156119d05760006000fd5b8073ffffffffffffffffffffffffffffffffffffffff1660cd60009054906101000a900473ffffffffffffffffffffffffffffffffffffffff1673ffffffffffffffffffffffffffffffffffffffff167f8be0079c531659141344cd1fd0a4f28419497f9722a3daafe3b4186f6b6457e060405160405180910390a38060cd60006101000a81548173ffffffffffffffffffffffffffffffffffffffff021916908373ffffffffffffffffffffffffffffffffffffffff1602179055505b50565b600073ffffffffffffffffffffffffffffffffffffffff168173ffffffffffffffffffffffffffffffffffffffff1614151515611ace5760006000fd5b611ade82826117c063ffffffff16565b1515611aea5760006000fd5b60008260000160005060008373ffffffffffffffffffffffffffffffffffffffff1673ffffffffffffffffffffffffffffffffffffffff16815260200190815260200160002060006101000a81548160ff0219169083151502179055505b5050565b600073ffffffffffffffffffffffffffffffffffffffff168173ffffffffffffffffffffffffffffffffffffffff1614151515611b895760006000fd5b611b9982826117c063ffffffff16565b151515611ba65760006000fd5b60018260000160005060008373ffffffffffffffffffffffffffffffffffffffff1673ffffffffffffffffffffffffffffffffffffffff16815260200190815260200160002060006101000a81548160ff0219169083151502179055505b5050565b600060019054906101000a900460ff1680611c2d5750611c2c61185e63ffffffff16565b5b80611c455750600060009054906101000a900460ff16155b1515611c9c576040517f08c379a000000000000000000000000000000000000000000000000000000000815260040180806020018281038252602e815260200180611d3c602e913960400191505060405180910390fd5b6000600060019054906101000a900460ff161590508015611cee576001600060016101000a81548160ff0219169083151502179055506001600060006101000a81548160ff0219169083151502179055505b611cfd82610f3863ffffffff16565b1515611d1357611d128261176263ffffffff16565b5b5b8015611d36576000600060016101000a81548160ff0219169083151502179055505b505b5056fe436f6e747261637420696e7374616e63652068617320616c7265616479206265656e20696e697469616c697a65646d61737465724d696e7465722068617320746f2062652061207265616c206164647265737320616e64206e6f74207468652073616d65a265627a7a723058204faddd800367ce466fc412a2579ad57337f52071ad511ee577ccf5f7dd5dde8664736f6c634300050a0032","compiler":{"name":"solc","version":"0.5.10+commit.5a6ea5b1.Emscripten.clang","optimizer":{},"evmVersion":"constantinople"}}