{"fileName":"MasterMinter.sol","contractName":"MasterMinter","source":"pragma solidity ^0.5.2;\n\nimport \"@openzeppelin/contracts-ethereum-package/contracts/access/roles/MinterRole.sol\";\nimport \"@openzeppelin/contracts-ethereum-package/contracts/ownership/Ownable.sol\";\nimport \"@openzeppelin/upgrades/contracts/Initializable.sol\";\n\n/**\n*   @title MasterMinter role, is that who is resposable of add and remove another minters\n*/\ncontract MasterMinter is Ownable, MinterRole {\n\n\n    event MasterMinterAdded(address indexed account);\n    event MasterMinterChanged(address indexed newMasterMinter);\n\n    address public masterMinter;\n\n    function initialize (\n        address _masterMinter,\n        address owner\n        ) public initializer {\n        masterMinter = _masterMinter;\n        MinterRole.initialize(_masterMinter);\n        Ownable.initialize(owner);\n        emit MasterMinterChanged(masterMinter);\n    }\n\n    /**\n     * @dev Throws if called by any account other than the masterMinter\n    */\n    modifier onlyMasterMinter() {\n        require(msg.sender == masterMinter, \"masterMinter address needed\");\n        _;\n    }\n\n    /**\n     * @dev add minter address, only the contract Owner can do that\n    */\n    function addMinter(address account) public onlyMasterMinter {\n        _addMinter(account);\n    }\n\n    /**\n     * @dev remobe a minter address, only the contract Owner can do that\n    */\n    function removeMinter(address account) public onlyMasterMinter {\n        _removeMinter(account);\n    }\n\n    /**\n     * @dev update the MasterMinter address, only the contract Owner can do that\n    */\n    function updateMasterMinter(address _newMasterMinter) public onlyOwner {\n        require(_newMasterMinter != address(0) && _newMasterMinter != msg.sender, \"masterMinter has to be a real address and not the same\");\n        masterMinter = _newMasterMinter;\n        emit MasterMinterChanged(masterMinter);\n    }\n\n}\n","sourcePath":"contracts/MasterMinter.sol","abi":[{"constant":false,"inputs":[{"name":"account","type":"address"}],"name":"removeMinter","outputs":[],"payable":false,"stateMutability":"nonpayable","type":"function"},{"constant":true,"inputs":[],"name":"masterMinter","outputs":[{"name":"","type":"address"}],"payable":false,"stateMutability":"view","type":"function"},{"constant":false,"inputs":[{"name":"_masterMinter","type":"address"},{"name":"owner","type":"address"}],"name":"initialize","outputs":[],"payable":false,"stateMutability":"nonpayable","type":"function"},{"constant":false,"inputs":[],"name":"renounceOwnership","outputs":[],"payable":false,"stateMutability":"nonpayable","type":"function"},{"constant":true,"inputs":[],"name":"owner","outputs":[{"name":"","type":"address"}],"payable":false,"stateMutability":"view","type":"function"},{"constant":true,"inputs":[],"name":"isOwner","outputs":[{"name":"","type":"bool"}],"payable":false,"stateMutability":"view","type":"function"},{"constant":false,"inputs":[{"name":"account","type":"address"}],"name":"addMinter","outputs":[],"payable":false,"stateMutability":"nonpayable","type":"function"},{"constant":false,"inputs":[],"name":"renounceMinter","outputs":[],"payable":false,"stateMutability":"nonpayable","type":"function"},{"constant":false,"inputs":[{"name":"_newMasterMinter","type":"address"}],"name":"updateMasterMinter","outputs":[],"payable":false,"stateMutability":"nonpayable","type":"function"},{"constant":true,"inputs":[{"name":"account","type":"address"}],"name":"isMinter","outputs":[{"name":"","type":"bool"}],"payable":false,"stateMutability":"view","type":"function"},{"constant":false,"inputs":[{"name":"sender","type":"address"}],"name":"initialize","outputs":[],"payable":false,"stateMutability":"nonpayable","type":"function"},{"constant":false,"inputs":[{"name":"newOwner","type":"address"}],"name":"transferOwnership","outputs":[],"payable":false,"stateMutability":"nonpayable","type":"function"},{"anonymous":false,"inputs":[{"indexed":true,"name":"account","type":"address"}],"name":"MasterMinterAdded","type":"event"},{"anonymous":false,"inputs":[{"indexed":true,"name":"newMasterMinter","type":"address"}],"name":"MasterMinterChanged","type":"event"},{"anonymous":false,"inputs":[{"indexed":true,"name":"account","type":"address"}],"name":"MinterAdded","type":"event"},{"anonymous":false,"inputs":[{"indexed":true,"name":"account","type":"address"}],"name":"MinterRemoved","type":"event"},{"anonymous":false,"inputs":[{"indexed":true,"name":"previousOwner","type":"address"},{"indexed":true,"name":"newOwner","type":"address"}],"name":"OwnershipTransferred","type":"event"}],"bytecode":"0x60806040523480156100115760006000fd5b50610017565b611227806100266000396000f3fe60806040523480156100115760006000fd5b50600436106100b95760003560e01c8063983b2d5611610072578063983b2d5614610229578063986502751461026e578063aa20e1e414610278578063aa271e1a146102bd578063c4d66de81461031a578063f2fde38b1461035f576100b9565b80633092afd5146100bf57806335d99f3514610104578063485cc9551461014e578063715018a6146101b35780638da5cb5b146101bd5780638f32d59b14610207576100b9565b60006000fd5b610102600480360360208110156100d65760006000fd5b81019080803573ffffffffffffffffffffffffffffffffffffffff1690602001909291905050506103a4565b005b61010c610480565b604051808273ffffffffffffffffffffffffffffffffffffffff1673ffffffffffffffffffffffffffffffffffffffff16815260200191505060405180910390f35b6101b1600480360360408110156101655760006000fd5b81019080803573ffffffffffffffffffffffffffffffffffffffff169060200190929190803573ffffffffffffffffffffffffffffffffffffffff1690602001909291905050506104a6565b005b6101bb610679565b005b6101c5610756565b604051808273ffffffffffffffffffffffffffffffffffffffff1673ffffffffffffffffffffffffffffffffffffffff16815260200191505060405180910390f35b61020f610785565b604051808215151515815260200191505060405180910390f35b61026c600480360360208110156102405760006000fd5b81019080803573ffffffffffffffffffffffffffffffffffffffff1690602001909291905050506107e2565b005b6102766108be565b005b6102bb6004803603602081101561028f5760006000fd5b81019080803573ffffffffffffffffffffffffffffffffffffffff1690602001909291905050506108d0565b005b610300600480360360208110156102d45760006000fd5b81019080803573ffffffffffffffffffffffffffffffffffffffff169060200190929190505050610a55565b604051808215151515815260200191505060405180910390f35b61035d600480360360208110156103315760006000fd5b81019080803573ffffffffffffffffffffffffffffffffffffffff169060200190929190505050610a7a565b005b6103a2600480360360208110156103765760006000fd5b81019080803573ffffffffffffffffffffffffffffffffffffffff169060200190929190505050610bad565b005b609960009054906101000a900473ffffffffffffffffffffffffffffffffffffffff1673ffffffffffffffffffffffffffffffffffffffff163373ffffffffffffffffffffffffffffffffffffffff1614151561046c576040517f08c379a000000000000000000000000000000000000000000000000000000000815260040180806020018281038252601b8152602001807f6d61737465724d696e7465722061646472657373206e6565646564000000000081526020015060200191505060405180910390fd5b61047b81610bdb63ffffffff16565b5b5b50565b609960009054906101000a900473ffffffffffffffffffffffffffffffffffffffff1681565b600060019054906101000a900460ff16806104cb57506104ca610c3963ffffffff16565b5b806104e35750600060009054906101000a900460ff16155b151561053a576040517f08c379a000000000000000000000000000000000000000000000000000000000815260040180806020018281038252602e81526020018061118f602e913960400191505060405180910390fd5b6000600060019054906101000a900460ff16159050801561058c576001600060016101000a81548160ff0219169083151502179055506001600060006101000a81548160ff0219169083151502179055505b82609960006101000a81548173ffffffffffffffffffffffffffffffffffffffff021916908373ffffffffffffffffffffffffffffffffffffffff1602179055506105dc83610a7a63ffffffff16565b6105eb82610c5163ffffffff16565b609960009054906101000a900473ffffffffffffffffffffffffffffffffffffffff1673ffffffffffffffffffffffffffffffffffffffff167fdb66dfa9c6b8f5226fe9aac7e51897ae8ee94ac31dc70bb6c9900b2574b707e660405160405180910390a25b8015610673576000600060016101000a81548160ff0219169083151502179055505b505b5050565b61068761078563ffffffff16565b15156106935760006000fd5b600073ffffffffffffffffffffffffffffffffffffffff16603360009054906101000a900473ffffffffffffffffffffffffffffffffffffffff1673ffffffffffffffffffffffffffffffffffffffff167f8be0079c531659141344cd1fd0a4f28419497f9722a3daafe3b4186f6b6457e060405160405180910390a36000603360006101000a81548173ffffffffffffffffffffffffffffffffffffffff021916908373ffffffffffffffffffffffffffffffffffffffff1602179055505b5b565b6000603360009054906101000a900473ffffffffffffffffffffffffffffffffffffffff169050610782565b90565b6000603360009054906101000a900473ffffffffffffffffffffffffffffffffffffffff1673ffffffffffffffffffffffffffffffffffffffff163373ffffffffffffffffffffffffffffffffffffffff161490506107df565b90565b609960009054906101000a900473ffffffffffffffffffffffffffffffffffffffff1673ffffffffffffffffffffffffffffffffffffffff163373ffffffffffffffffffffffffffffffffffffffff161415156108aa576040517f08c379a000000000000000000000000000000000000000000000000000000000815260040180806020018281038252601b8152602001807f6d61737465724d696e7465722061646472657373206e6565646564000000000081526020015060200191505060405180910390fd5b6108b981610e1d63ffffffff16565b5b5b50565b6108cd33610bdb63ffffffff16565b5b565b6108de61078563ffffffff16565b15156108ea5760006000fd5b600073ffffffffffffffffffffffffffffffffffffffff168173ffffffffffffffffffffffffffffffffffffffff161415801561095357503373ffffffffffffffffffffffffffffffffffffffff168173ffffffffffffffffffffffffffffffffffffffff1614155b15156109aa576040517f08c379a00000000000000000000000000000000000000000000000000000000081526004018080602001828103825260368152602001806111bd6036913960400191505060405180910390fd5b80609960006101000a81548173ffffffffffffffffffffffffffffffffffffffff021916908373ffffffffffffffffffffffffffffffffffffffff160217905550609960009054906101000a900473ffffffffffffffffffffffffffffffffffffffff1673ffffffffffffffffffffffffffffffffffffffff167fdb66dfa9c6b8f5226fe9aac7e51897ae8ee94ac31dc70bb6c9900b2574b707e660405160405180910390a25b5b50565b6000610a6e826066600050610e7b90919063ffffffff16565b9050610a75565b919050565b600060019054906101000a900460ff1680610a9f5750610a9e610c3963ffffffff16565b5b80610ab75750600060009054906101000a900460ff16155b1515610b0e576040517f08c379a000000000000000000000000000000000000000000000000000000000815260040180806020018281038252602e81526020018061118f602e913960400191505060405180910390fd5b6000600060019054906101000a900460ff161590508015610b60576001600060016101000a81548160ff0219169083151502179055506001600060006101000a81548160ff0219169083151502179055505b610b6f82610a5563ffffffff16565b1515610b8557610b8482610e1d63ffffffff16565b5b5b8015610ba8576000600060016101000a81548160ff0219169083151502179055505b505b50565b610bbb61078563ffffffff16565b1515610bc75760006000fd5b610bd681610f1963ffffffff16565b5b5b50565b610bf281606660005061101790919063ffffffff16565b8073ffffffffffffffffffffffffffffffffffffffff167fe94479a9f7e1952cc78f2d6baab678adc1b772d936c6583def489e524cb6669260405160405180910390a25b50565b60006000303b905060008114915050610c4e56505b90565b600060019054906101000a900460ff1680610c765750610c75610c3963ffffffff16565b5b80610c8e5750600060009054906101000a900460ff16155b1515610ce5576040517f08c379a000000000000000000000000000000000000000000000000000000000815260040180806020018281038252602e81526020018061118f602e913960400191505060405180910390fd5b6000600060019054906101000a900460ff161590508015610d37576001600060016101000a81548160ff0219169083151502179055506001600060006101000a81548160ff0219169083151502179055505b81603360006101000a81548173ffffffffffffffffffffffffffffffffffffffff021916908373ffffffffffffffffffffffffffffffffffffffff160217905550603360009054906101000a900473ffffffffffffffffffffffffffffffffffffffff1673ffffffffffffffffffffffffffffffffffffffff16600073ffffffffffffffffffffffffffffffffffffffff167f8be0079c531659141344cd1fd0a4f28419497f9722a3daafe3b4186f6b6457e060405160405180910390a35b8015610e18576000600060016101000a81548160ff0219169083151502179055505b505b50565b610e348160666000506110d290919063ffffffff16565b8073ffffffffffffffffffffffffffffffffffffffff167f6ae172837ea30b801fbfcdd4108aa1d5bf8ff775444fd70256b44e6bf3dfc3f660405160405180910390a25b50565b6000600073ffffffffffffffffffffffffffffffffffffffff168273ffffffffffffffffffffffffffffffffffffffff1614151515610eba5760006000fd5b8260000160005060008373ffffffffffffffffffffffffffffffffffffffff1673ffffffffffffffffffffffffffffffffffffffff16815260200190815260200160002060009054906101000a900460ff169050610f13565b92915050565b600073ffffffffffffffffffffffffffffffffffffffff168173ffffffffffffffffffffffffffffffffffffffff1614151515610f565760006000fd5b8073ffffffffffffffffffffffffffffffffffffffff16603360009054906101000a900473ffffffffffffffffffffffffffffffffffffffff1673ffffffffffffffffffffffffffffffffffffffff167f8be0079c531659141344cd1fd0a4f28419497f9722a3daafe3b4186f6b6457e060405160405180910390a380603360006101000a81548173ffffffffffffffffffffffffffffffffffffffff021916908373ffffffffffffffffffffffffffffffffffffffff1602179055505b50565b600073ffffffffffffffffffffffffffffffffffffffff168173ffffffffffffffffffffffffffffffffffffffff16141515156110545760006000fd5b6110648282610e7b63ffffffff16565b15156110705760006000fd5b60008260000160005060008373ffffffffffffffffffffffffffffffffffffffff1673ffffffffffffffffffffffffffffffffffffffff16815260200190815260200160002060006101000a81548160ff0219169083151502179055505b5050565b600073ffffffffffffffffffffffffffffffffffffffff168173ffffffffffffffffffffffffffffffffffffffff161415151561110f5760006000fd5b61111f8282610e7b63ffffffff16565b15151561112c5760006000fd5b60018260000160005060008373ffffffffffffffffffffffffffffffffffffffff1673ffffffffffffffffffffffffffffffffffffffff16815260200190815260200160002060006101000a81548160ff0219169083151502179055505b505056fe436f6e747261637420696e7374616e63652068617320616c7265616479206265656e20696e697469616c697a65646d61737465724d696e7465722068617320746f2062652061207265616c206164647265737320616e64206e6f74207468652073616d65a265627a7a72305820e516469d2edb5a58e3dfc513eb4a85d31ec07c9c384b05ce43a838fd87f1c2f164736f6c634300050a0032","compiler":{"name":"solc","version":"0.5.10+commit.5a6ea5b1.Emscripten.clang","optimizer":{},"evmVersion":"constantinople"}}