{"fileName":"MasterMinter.sol","contractName":"MasterMinter","source":"pragma solidity ^0.5.2;\n\nimport \"openzeppelin-eth/contracts/token/ERC20/ERC20Mintable.sol\";\nimport \"openzeppelin-eth/contracts/ownership/Ownable.sol\";\nimport \"zos-lib/contracts/Initializable.sol\";\n\n/**\n*   @title MasterMinter role, is that who is resposable of add and remove another minters\n*/\ncontract MasterMinter is ERC20Mintable, Ownable {\n\n\n    event MasterMinterAdded(address indexed account);\n    event MasterMinterChanged(address indexed newMasterMinter);\n\n    address public masterMinter;\n\n    function initialize (address _masterMinter) public initializer {\n        masterMinter = _masterMinter;\n        MinterRole.initialize(_masterMinter);\n        emit MasterMinterChanged(masterMinter);\n    }\n\n    /**\n     * @dev Throws if called by any account other than the masterMinter\n    */\n    modifier onlyMasterMinter() {\n        require(msg.sender == masterMinter, \"masterMinter address needed\");\n        _;\n    }\n\n    /**\n     * @dev add minter address, only the contract Owner can do that\n    */\n    function addMinter(address account) public onlyMasterMinter {\n        _addMinter(account);\n    }\n\n    /**\n     * @dev remobe a minter address, only the contract Owner can do that\n    */\n    function removeMinter(address account) public onlyMasterMinter {\n        _removeMinter(account);\n    }\n\n    /**\n     * @dev update the MasterMinter address, only the contract Owner can do that\n    */\n    function updateMasterMinter(address _newMasterMinter) public onlyOwner {\n        require(_newMasterMinter != address(0) && _newMasterMinter != msg.sender, \"masterMinter has to be a real address and not the same\");\n        masterMinter = _newMasterMinter;\n        emit MasterMinterChanged(masterMinter);\n    }\n\n}\n","sourcePath":"contracts/MasterMinter.sol","abi":[{"constant":false,"inputs":[{"name":"spender","type":"address"},{"name":"value","type":"uint256"}],"name":"approve","outputs":[{"name":"","type":"bool"}],"payable":false,"stateMutability":"nonpayable","type":"function"},{"constant":true,"inputs":[],"name":"totalSupply","outputs":[{"name":"","type":"uint256"}],"payable":false,"stateMutability":"view","type":"function"},{"constant":false,"inputs":[{"name":"from","type":"address"},{"name":"to","type":"address"},{"name":"value","type":"uint256"}],"name":"transferFrom","outputs":[{"name":"","type":"bool"}],"payable":false,"stateMutability":"nonpayable","type":"function"},{"constant":false,"inputs":[{"name":"account","type":"address"}],"name":"removeMinter","outputs":[],"payable":false,"stateMutability":"nonpayable","type":"function"},{"constant":true,"inputs":[],"name":"masterMinter","outputs":[{"name":"","type":"address"}],"payable":false,"stateMutability":"view","type":"function"},{"constant":false,"inputs":[{"name":"spender","type":"address"},{"name":"addedValue","type":"uint256"}],"name":"increaseAllowance","outputs":[{"name":"","type":"bool"}],"payable":false,"stateMutability":"nonpayable","type":"function"},{"constant":false,"inputs":[{"name":"to","type":"address"},{"name":"value","type":"uint256"}],"name":"mint","outputs":[{"name":"","type":"bool"}],"payable":false,"stateMutability":"nonpayable","type":"function"},{"constant":true,"inputs":[{"name":"owner","type":"address"}],"name":"balanceOf","outputs":[{"name":"","type":"uint256"}],"payable":false,"stateMutability":"view","type":"function"},{"constant":false,"inputs":[],"name":"renounceOwnership","outputs":[],"payable":false,"stateMutability":"nonpayable","type":"function"},{"constant":true,"inputs":[],"name":"owner","outputs":[{"name":"","type":"address"}],"payable":false,"stateMutability":"view","type":"function"},{"constant":true,"inputs":[],"name":"isOwner","outputs":[{"name":"","type":"bool"}],"payable":false,"stateMutability":"view","type":"function"},{"constant":false,"inputs":[{"name":"account","type":"address"}],"name":"addMinter","outputs":[],"payable":false,"stateMutability":"nonpayable","type":"function"},{"constant":false,"inputs":[],"name":"renounceMinter","outputs":[],"payable":false,"stateMutability":"nonpayable","type":"function"},{"constant":false,"inputs":[{"name":"spender","type":"address"},{"name":"subtractedValue","type":"uint256"}],"name":"decreaseAllowance","outputs":[{"name":"","type":"bool"}],"payable":false,"stateMutability":"nonpayable","type":"function"},{"constant":false,"inputs":[{"name":"to","type":"address"},{"name":"value","type":"uint256"}],"name":"transfer","outputs":[{"name":"","type":"bool"}],"payable":false,"stateMutability":"nonpayable","type":"function"},{"constant":false,"inputs":[{"name":"_newMasterMinter","type":"address"}],"name":"updateMasterMinter","outputs":[],"payable":false,"stateMutability":"nonpayable","type":"function"},{"constant":true,"inputs":[{"name":"account","type":"address"}],"name":"isMinter","outputs":[{"name":"","type":"bool"}],"payable":false,"stateMutability":"view","type":"function"},{"constant":false,"inputs":[{"name":"_masterMinter","type":"address"}],"name":"initialize","outputs":[],"payable":false,"stateMutability":"nonpayable","type":"function"},{"constant":true,"inputs":[{"name":"owner","type":"address"},{"name":"spender","type":"address"}],"name":"allowance","outputs":[{"name":"","type":"uint256"}],"payable":false,"stateMutability":"view","type":"function"},{"constant":false,"inputs":[{"name":"newOwner","type":"address"}],"name":"transferOwnership","outputs":[],"payable":false,"stateMutability":"nonpayable","type":"function"},{"anonymous":false,"inputs":[{"indexed":true,"name":"account","type":"address"}],"name":"MasterMinterAdded","type":"event"},{"anonymous":false,"inputs":[{"indexed":true,"name":"newMasterMinter","type":"address"}],"name":"MasterMinterChanged","type":"event"},{"anonymous":false,"inputs":[{"indexed":true,"name":"previousOwner","type":"address"},{"indexed":true,"name":"newOwner","type":"address"}],"name":"OwnershipTransferred","type":"event"},{"anonymous":false,"inputs":[{"indexed":true,"name":"account","type":"address"}],"name":"MinterAdded","type":"event"},{"anonymous":false,"inputs":[{"indexed":true,"name":"account","type":"address"}],"name":"MinterRemoved","type":"event"},{"anonymous":false,"inputs":[{"indexed":true,"name":"from","type":"address"},{"indexed":true,"name":"to","type":"address"},{"indexed":false,"name":"value","type":"uint256"}],"name":"Transfer","type":"event"},{"anonymous":false,"inputs":[{"indexed":true,"name":"owner","type":"address"},{"indexed":true,"name":"spender","type":"address"},{"indexed":false,"name":"value","type":"uint256"}],"name":"Approval","type":"event"}],"bytecode":"0x608060405234801561001057600080fd5b506112a6806100206000396000f3fe608060405234801561001057600080fd5b506004361061016c5760003560e01c80638f32d59b116100cd578063aa20e1e411610081578063c4d66de811610066578063c4d66de814610451578063dd62ed3e14610484578063f2fde38b146104bf5761016c565b8063aa20e1e4146103eb578063aa271e1a1461041e5761016c565b806398650275116100b25780639865027514610371578063a457c2d714610379578063a9059cbb146103b25761016c565b80638f32d59b14610336578063983b2d561461033e5761016c565b8063395093511161012457806370a082311161010957806370a08231146102f3578063715018a6146103265780638da5cb5b1461032e5761016c565b8063395093511461028157806340c10f19146102ba5761016c565b806323b872dd1161015557806323b872dd146101d85780633092afd51461021b57806335d99f35146102505761016c565b8063095ea7b31461017157806318160ddd146101be575b600080fd5b6101aa6004803603604081101561018757600080fd5b5073ffffffffffffffffffffffffffffffffffffffff81351690602001356104f2565b604080519115158252519081900360200190f35b6101c6610508565b60408051918252519081900360200190f35b6101aa600480360360608110156101ee57600080fd5b5073ffffffffffffffffffffffffffffffffffffffff81358116916020810135909116906040013561050e565b61024e6004803603602081101561023157600080fd5b503573ffffffffffffffffffffffffffffffffffffffff16610572565b005b610258610605565b6040805173ffffffffffffffffffffffffffffffffffffffff9092168252519081900360200190f35b6101aa6004803603604081101561029757600080fd5b5073ffffffffffffffffffffffffffffffffffffffff8135169060200135610622565b6101aa600480360360408110156102d057600080fd5b5073ffffffffffffffffffffffffffffffffffffffff813516906020013561066b565b6101c66004803603602081101561030957600080fd5b503573ffffffffffffffffffffffffffffffffffffffff16610689565b61024e6106b1565b610258610731565b6101aa61074d565b61024e6004803603602081101561035457600080fd5b503573ffffffffffffffffffffffffffffffffffffffff1661076b565b61024e6107fb565b6101aa6004803603604081101561038f57600080fd5b5073ffffffffffffffffffffffffffffffffffffffff8135169060200135610806565b6101aa600480360360408110156103c857600080fd5b5073ffffffffffffffffffffffffffffffffffffffff813516906020013561084f565b61024e6004803603602081101561040157600080fd5b503573ffffffffffffffffffffffffffffffffffffffff1661085c565b6101aa6004803603602081101561043457600080fd5b503573ffffffffffffffffffffffffffffffffffffffff16610973565b61024e6004803603602081101561046757600080fd5b503573ffffffffffffffffffffffffffffffffffffffff1661098c565b6101c66004803603604081101561049a57600080fd5b5073ffffffffffffffffffffffffffffffffffffffff81358116916020013516610b31565b61024e600480360360208110156104d557600080fd5b503573ffffffffffffffffffffffffffffffffffffffff16610b69565b60006104ff338484610b83565b50600192915050565b60355490565b600061051b848484610c32565b73ffffffffffffffffffffffffffffffffffffffff8416600090815260346020908152604080832033808552925290912054610568918691610563908663ffffffff610d3316565b610b83565b5060019392505050565b6101005473ffffffffffffffffffffffffffffffffffffffff1633146105f957604080517f08c379a000000000000000000000000000000000000000000000000000000000815260206004820152601b60248201527f6d61737465724d696e7465722061646472657373206e65656465640000000000604482015290519081900360640190fd5b61060281610d48565b50565b6101005473ffffffffffffffffffffffffffffffffffffffff1681565b33600081815260346020908152604080832073ffffffffffffffffffffffffffffffffffffffff8716845290915281205490916104ff918590610563908663ffffffff610d9d16565b600061067633610973565b61067f57600080fd5b6104ff8383610db6565b73ffffffffffffffffffffffffffffffffffffffff1660009081526033602052604090205490565b6106b961074d565b6106c257600080fd5b60cd5460405160009173ffffffffffffffffffffffffffffffffffffffff16907f8be0079c531659141344cd1fd0a4f28419497f9722a3daafe3b4186f6b6457e0908390a360cd80547fffffffffffffffffffffffff0000000000000000000000000000000000000000169055565b60cd5473ffffffffffffffffffffffffffffffffffffffff1690565b60cd5473ffffffffffffffffffffffffffffffffffffffff16331490565b6101005473ffffffffffffffffffffffffffffffffffffffff1633146107f257604080517f08c379a000000000000000000000000000000000000000000000000000000000815260206004820152601b60248201527f6d61737465724d696e7465722061646472657373206e65656465640000000000604482015290519081900360640190fd5b61060281610e87565b61080433610d48565b565b33600081815260346020908152604080832073ffffffffffffffffffffffffffffffffffffffff8716845290915281205490916104ff918590610563908663ffffffff610d3316565b60006104ff338484610c32565b61086461074d565b61086d57600080fd5b73ffffffffffffffffffffffffffffffffffffffff8116158015906108a8575073ffffffffffffffffffffffffffffffffffffffff81163314155b6108fd576040517f08c379a000000000000000000000000000000000000000000000000000000000815260040180806020018281038252603681526020018061123c6036913960400191505060405180910390fd5b61010080547fffffffffffffffffffffffff00000000000000000000000000000000000000001673ffffffffffffffffffffffffffffffffffffffff83811691909117918290556040519116907fdb66dfa9c6b8f5226fe9aac7e51897ae8ee94ac31dc70bb6c9900b2574b707e690600090a250565b600061098660688363ffffffff610edc16565b92915050565b600054610100900460ff16806109a557506109a5610f2b565b806109b3575060005460ff16155b610a08576040517f08c379a000000000000000000000000000000000000000000000000000000000815260040180806020018281038252602e81526020018061120e602e913960400191505060405180910390fd5b600054610100900460ff16158015610a6e57600080547fffffffffffffffffffffffffffffffffffffffffffffffffffffffffffffff007fffffffffffffffffffffffffffffffffffffffffffffffffffffffffffff00ff909116610100171660011790555b61010080547fffffffffffffffffffffffff00000000000000000000000000000000000000001673ffffffffffffffffffffffffffffffffffffffff8416179055610ab882610f31565b6101005460405173ffffffffffffffffffffffffffffffffffffffff909116907fdb66dfa9c6b8f5226fe9aac7e51897ae8ee94ac31dc70bb6c9900b2574b707e690600090a28015610b2d57600080547fffffffffffffffffffffffffffffffffffffffffffffffffffffffffffff00ff1690555b5050565b73ffffffffffffffffffffffffffffffffffffffff918216600090815260346020908152604080832093909416825291909152205490565b610b7161074d565b610b7a57600080fd5b6106028161105b565b73ffffffffffffffffffffffffffffffffffffffff8216610ba357600080fd5b73ffffffffffffffffffffffffffffffffffffffff8316610bc357600080fd5b73ffffffffffffffffffffffffffffffffffffffff808416600081815260346020908152604080832094871680845294825291829020859055815185815291517f8c5be1e5ebec7d5bd14f71427d1e84f3dd0314c0f7b2291e5b200ac8c7c3b9259281900390910190a3505050565b73ffffffffffffffffffffffffffffffffffffffff8216610c5257600080fd5b73ffffffffffffffffffffffffffffffffffffffff8316600090815260336020526040902054610c88908263ffffffff610d3316565b73ffffffffffffffffffffffffffffffffffffffff8085166000908152603360205260408082209390935590841681522054610cca908263ffffffff610d9d16565b73ffffffffffffffffffffffffffffffffffffffff80841660008181526033602090815260409182902094909455805185815290519193928716927fddf252ad1be2c89b69c2b068fc378daa952ba7f163c4a11628f55a4df523b3ef92918290030190a3505050565b600082821115610d4257600080fd5b50900390565b610d5960688263ffffffff61110916565b60405173ffffffffffffffffffffffffffffffffffffffff8216907fe94479a9f7e1952cc78f2d6baab678adc1b772d936c6583def489e524cb6669290600090a250565b600082820183811015610daf57600080fd5b9392505050565b73ffffffffffffffffffffffffffffffffffffffff8216610dd657600080fd5b603554610de9908263ffffffff610d9d16565b60355573ffffffffffffffffffffffffffffffffffffffff8216600090815260336020526040902054610e22908263ffffffff610d9d16565b73ffffffffffffffffffffffffffffffffffffffff831660008181526033602090815260408083209490945583518581529351929391927fddf252ad1be2c89b69c2b068fc378daa952ba7f163c4a11628f55a4df523b3ef9281900390910190a35050565b610e9860688263ffffffff61118916565b60405173ffffffffffffffffffffffffffffffffffffffff8216907f6ae172837ea30b801fbfcdd4108aa1d5bf8ff775444fd70256b44e6bf3dfc3f690600090a250565b600073ffffffffffffffffffffffffffffffffffffffff8216610efe57600080fd5b5073ffffffffffffffffffffffffffffffffffffffff166000908152602091909152604090205460ff1690565b303b1590565b600054610100900460ff1680610f4a5750610f4a610f2b565b80610f58575060005460ff16155b610fad576040517f08c379a000000000000000000000000000000000000000000000000000000000815260040180806020018281038252602e81526020018061120e602e913960400191505060405180910390fd5b600054610100900460ff1615801561101357600080547fffffffffffffffffffffffffffffffffffffffffffffffffffffffffffffff007fffffffffffffffffffffffffffffffffffffffffffffffffffffffffffff00ff909116610100171660011790555b61101c82610973565b6110295761102982610e87565b8015610b2d57600080547fffffffffffffffffffffffffffffffffffffffffffffffffffffffffffff00ff1690555050565b73ffffffffffffffffffffffffffffffffffffffff811661107b57600080fd5b60cd5460405173ffffffffffffffffffffffffffffffffffffffff8084169216907f8be0079c531659141344cd1fd0a4f28419497f9722a3daafe3b4186f6b6457e090600090a360cd80547fffffffffffffffffffffffff00000000000000000000000000000000000000001673ffffffffffffffffffffffffffffffffffffffff92909216919091179055565b73ffffffffffffffffffffffffffffffffffffffff811661112957600080fd5b6111338282610edc565b61113c57600080fd5b73ffffffffffffffffffffffffffffffffffffffff1660009081526020919091526040902080547fffffffffffffffffffffffffffffffffffffffffffffffffffffffffffffff00169055565b73ffffffffffffffffffffffffffffffffffffffff81166111a957600080fd5b6111b38282610edc565b156111bd57600080fd5b73ffffffffffffffffffffffffffffffffffffffff1660009081526020919091526040902080547fffffffffffffffffffffffffffffffffffffffffffffffffffffffffffffff0016600117905556fe436f6e747261637420696e7374616e63652068617320616c7265616479206265656e20696e697469616c697a65646d61737465724d696e7465722068617320746f2062652061207265616c206164647265737320616e64206e6f74207468652073616d65a265627a7a72305820258365f7a9bd0fbec7e0c168dc0f0601ed5678f2127056d8324dd2a7dbabc5f464736f6c634300050a0032","compiler":{"name":"solc","version":"0.5.10+commit.5a6ea5b1.Emscripten.clang","optimizer":{"enabled":true,"runs":1000000000},"evmVersion":"constantinople"}}