{
  "fileName": "MinterRole.sol",
  "contractName": "MinterRole",
  "source": "pragma solidity ^0.5.2;\n\nimport \"@openzeppelin/upgrades/contracts/Initializable.sol\";\nimport \"../Roles.sol\";\n\n\ncontract MinterRole is Initializable {\n    using Roles for Roles.Role;\n\n    event MinterAdded(address indexed account);\n    event MinterRemoved(address indexed account);\n\n    Roles.Role private _minters;\n\n    function initialize(address sender) public initializer {\n        if (!isMinter(sender)) {\n            _addMinter(sender);\n        }\n    }\n\n    modifier onlyMinter() {\n        require(isMinter(msg.sender));\n        _;\n    }\n\n    function isMinter(address account) public view returns (bool) {\n        return _minters.has(account);\n    }\n\n    function addMinter(address account) public onlyMinter {\n        _addMinter(account);\n    }\n\n    function renounceMinter() public {\n        _removeMinter(msg.sender);\n    }\n\n    function _addMinter(address account) internal {\n        _minters.add(account);\n        emit MinterAdded(account);\n    }\n\n    function _removeMinter(address account) internal {\n        _minters.remove(account);\n        emit MinterRemoved(account);\n    }\n\n    uint256[50] private ______gap;\n}\n",
  "sourcePath": "@openzeppelin/contracts-ethereum-package/contracts/access/roles/MinterRole.sol",
  "abi": [
    {
      "constant": false,
      "inputs": [
        {
          "name": "account",
          "type": "address"
        }
      ],
      "name": "addMinter",
      "outputs": [],
      "payable": false,
      "stateMutability": "nonpayable",
      "type": "function"
    },
    {
      "constant": false,
      "inputs": [],
      "name": "renounceMinter",
      "outputs": [],
      "payable": false,
      "stateMutability": "nonpayable",
      "type": "function"
    },
    {
      "constant": true,
      "inputs": [
        {
          "name": "account",
          "type": "address"
        }
      ],
      "name": "isMinter",
      "outputs": [
        {
          "name": "",
          "type": "bool"
        }
      ],
      "payable": false,
      "stateMutability": "view",
      "type": "function"
    },
    {
      "constant": false,
      "inputs": [
        {
          "name": "sender",
          "type": "address"
        }
      ],
      "name": "initialize",
      "outputs": [],
      "payable": false,
      "stateMutability": "nonpayable",
      "type": "function"
    },
    {
      "anonymous": false,
      "inputs": [
        {
          "indexed": true,
          "name": "account",
          "type": "address"
        }
      ],
      "name": "MinterAdded",
      "type": "event"
    },
    {
      "anonymous": false,
      "inputs": [
        {
          "indexed": true,
          "name": "account",
          "type": "address"
        }
      ],
      "name": "MinterRemoved",
      "type": "event"
    }
  ],
  "bytecode": "0x608060405234801561001057600080fd5b506104e0806100206000396000f3fe608060405234801561001057600080fd5b506004361061004c5760003560e01c8063983b2d56146100515780639865027514610086578063aa271e1a1461008e578063c4d66de8146100d5575b600080fd5b6100846004803603602081101561006757600080fd5b503573ffffffffffffffffffffffffffffffffffffffff16610108565b005b610084610128565b6100c1600480360360208110156100a457600080fd5b503573ffffffffffffffffffffffffffffffffffffffff16610133565b604080519115158252519081900360200190f35b610084600480360360208110156100eb57600080fd5b503573ffffffffffffffffffffffffffffffffffffffff1661014c565b61011133610133565b151561011c57600080fd5b6101258161027b565b50565b610131336102d0565b565b600061014660338363ffffffff61032516565b92915050565b600054610100900460ff16806101655750610165610376565b80610173575060005460ff16155b15156101ca576040517f08c379a000000000000000000000000000000000000000000000000000000000815260040180806020018281038252602e815260200180610487602e913960400191505060405180910390fd5b600054610100900460ff1615801561023057600080547fffffffffffffffffffffffffffffffffffffffffffffffffffffffffffffff007fffffffffffffffffffffffffffffffffffffffffffffffffffffffffffff00ff909116610100171660011790555b61023982610133565b1515610248576102488261027b565b801561027757600080547fffffffffffffffffffffffffffffffffffffffffffffffffffffffffffff00ff1690555b5050565b61028c60338263ffffffff61037c16565b60405173ffffffffffffffffffffffffffffffffffffffff8216907f6ae172837ea30b801fbfcdd4108aa1d5bf8ff775444fd70256b44e6bf3dfc3f690600090a250565b6102e160338263ffffffff61040216565b60405173ffffffffffffffffffffffffffffffffffffffff8216907fe94479a9f7e1952cc78f2d6baab678adc1b772d936c6583def489e524cb6669290600090a250565b600073ffffffffffffffffffffffffffffffffffffffff8216151561034957600080fd5b5073ffffffffffffffffffffffffffffffffffffffff166000908152602091909152604090205460ff1690565b303b1590565b73ffffffffffffffffffffffffffffffffffffffff8116151561039e57600080fd5b6103a88282610325565b156103b257600080fd5b73ffffffffffffffffffffffffffffffffffffffff1660009081526020919091526040902080547fffffffffffffffffffffffffffffffffffffffffffffffffffffffffffffff00166001179055565b73ffffffffffffffffffffffffffffffffffffffff8116151561042457600080fd5b61042e8282610325565b151561043957600080fd5b73ffffffffffffffffffffffffffffffffffffffff1660009081526020919091526040902080547fffffffffffffffffffffffffffffffffffffffffffffffffffffffffffffff0016905556fe436f6e747261637420696e7374616e63652068617320616c7265616479206265656e20696e697469616c697a6564a165627a7a72305820da5f67ad2eed19fed4cd6326b577468f10989ef3624b28afe7239b7df0afb5440029",
  "compiler": {
    "name": "solc",
    "version": "0.5.2+commit.1df8f40c.Emscripten.clang",
    "optimizer": {
      "enabled": true,
      "runs": 1000000000
    },
    "evmVersion": "constantinople"
  }
}