{"fileName":"Pausable.sol","contractName":"Pausable","source":"pragma solidity ^0.5.2;\n\nimport \"zos-lib/contracts/Initializable.sol\";\nimport \"../access/roles/PauserRole.sol\";\n\n/**\n * @title Pausable\n * @dev Base contract which allows children to implement an emergency stop mechanism.\n */\ncontract Pausable is Initializable, PauserRole {\n    event Paused(address account);\n    event Unpaused(address account);\n\n    bool private _paused;\n\n    function initialize(address sender) public initializer {\n        PauserRole.initialize(sender);\n\n        _paused = false;\n    }\n\n    /**\n     * @return true if the contract is paused, false otherwise.\n     */\n    function paused() public view returns (bool) {\n        return _paused;\n    }\n\n    /**\n     * @dev Modifier to make a function callable only when the contract is not paused.\n     */\n    modifier whenNotPaused() {\n        require(!_paused);\n        _;\n    }\n\n    /**\n     * @dev Modifier to make a function callable only when the contract is paused.\n     */\n    modifier whenPaused() {\n        require(_paused);\n        _;\n    }\n\n    /**\n     * @dev called by the owner to pause, triggers stopped state\n     */\n    function pause() public onlyPauser whenNotPaused {\n        _paused = true;\n        emit Paused(msg.sender);\n    }\n\n    /**\n     * @dev called by the owner to unpause, returns to normal state\n     */\n    function unpause() public onlyPauser whenPaused {\n        _paused = false;\n        emit Unpaused(msg.sender);\n    }\n\n    uint256[50] private ______gap;\n}\n","sourcePath":"openzeppelin-eth/contracts/lifecycle/Pausable.sol","abi":[{"constant":false,"inputs":[],"name":"unpause","outputs":[],"payable":false,"stateMutability":"nonpayable","type":"function"},{"constant":true,"inputs":[{"name":"account","type":"address"}],"name":"isPauser","outputs":[{"name":"","type":"bool"}],"payable":false,"stateMutability":"view","type":"function"},{"constant":true,"inputs":[],"name":"paused","outputs":[{"name":"","type":"bool"}],"payable":false,"stateMutability":"view","type":"function"},{"constant":false,"inputs":[],"name":"renouncePauser","outputs":[],"payable":false,"stateMutability":"nonpayable","type":"function"},{"constant":false,"inputs":[{"name":"account","type":"address"}],"name":"addPauser","outputs":[],"payable":false,"stateMutability":"nonpayable","type":"function"},{"constant":false,"inputs":[],"name":"pause","outputs":[],"payable":false,"stateMutability":"nonpayable","type":"function"},{"constant":false,"inputs":[{"name":"sender","type":"address"}],"name":"initialize","outputs":[],"payable":false,"stateMutability":"nonpayable","type":"function"},{"anonymous":false,"inputs":[{"indexed":false,"name":"account","type":"address"}],"name":"Paused","type":"event"},{"anonymous":false,"inputs":[{"indexed":false,"name":"account","type":"address"}],"name":"Unpaused","type":"event"},{"anonymous":false,"inputs":[{"indexed":true,"name":"account","type":"address"}],"name":"PauserAdded","type":"event"},{"anonymous":false,"inputs":[{"indexed":true,"name":"account","type":"address"}],"name":"PauserRemoved","type":"event"}],"bytecode":"0x608060405234801561001057600080fd5b50610772806100206000396000f3fe608060405234801561001057600080fd5b506004361061007d5760003560e01c80636ef8d66d1161005b5780636ef8d66d146100db57806382dc1ec4146100e35780638456cb5914610116578063c4d66de81461011e5761007d565b80633f4ba83a1461008257806346fbf68e1461008c5780635c975abb146100d3575b600080fd5b61008a610151565b005b6100bf600480360360208110156100a257600080fd5b503573ffffffffffffffffffffffffffffffffffffffff166101cf565b604080519115158252519081900360200190f35b6100bf6101e8565b61008a6101f1565b61008a600480360360208110156100f957600080fd5b503573ffffffffffffffffffffffffffffffffffffffff166101fc565b61008a61021a565b61008a6004803603602081101561013457600080fd5b503573ffffffffffffffffffffffffffffffffffffffff1661029c565b61015a336101cf565b61016357600080fd5b60665460ff1661017257600080fd5b606680547fffffffffffffffffffffffffffffffffffffffffffffffffffffffffffffff001690556040805133815290517f5db9ee0a495bf2e6ff9c91a7834c1ba4fdd244a5e8aa4e537bd38aeae4b073aa9181900360200190a1565b60006101e260338363ffffffff6103e216565b92915050565b60665460ff1690565b6101fa33610431565b565b610205336101cf565b61020e57600080fd5b61021781610486565b50565b610223336101cf565b61022c57600080fd5b60665460ff161561023c57600080fd5b606680547fffffffffffffffffffffffffffffffffffffffffffffffffffffffffffffff001660011790556040805133815290517f62e78cea01bee320cd4e420270b5ea74000d11b0c9f74754ebdbfc544b05a2589181900360200190a1565b600054610100900460ff16806102b557506102b56104db565b806102c3575060005460ff16155b610318576040517f08c379a000000000000000000000000000000000000000000000000000000000815260040180806020018281038252602e815260200180610710602e913960400191505060405180910390fd5b600054610100900460ff1615801561037e57600080547fffffffffffffffffffffffffffffffffffffffffffffffffffffffffffffff007fffffffffffffffffffffffffffffffffffffffffffffffffffffffffffff00ff909116610100171660011790555b610387826104e1565b606680547fffffffffffffffffffffffffffffffffffffffffffffffffffffffffffffff0016905580156103de57600080547fffffffffffffffffffffffffffffffffffffffffffffffffffffffffffff00ff1690555b5050565b600073ffffffffffffffffffffffffffffffffffffffff821661040457600080fd5b5073ffffffffffffffffffffffffffffffffffffffff166000908152602091909152604090205460ff1690565b61044260338263ffffffff61060b16565b60405173ffffffffffffffffffffffffffffffffffffffff8216907fcd265ebaf09df2871cc7bd4133404a235ba12eff2041bb89d9c714a2621c7c7e90600090a250565b61049760338263ffffffff61068b16565b60405173ffffffffffffffffffffffffffffffffffffffff8216907f6719d08c1888103bea251a4ed56406bd0c3e69723c8a1686e017e7bbe159b6f890600090a250565b303b1590565b600054610100900460ff16806104fa57506104fa6104db565b80610508575060005460ff16155b61055d576040517f08c379a000000000000000000000000000000000000000000000000000000000815260040180806020018281038252602e815260200180610710602e913960400191505060405180910390fd5b600054610100900460ff161580156105c357600080547fffffffffffffffffffffffffffffffffffffffffffffffffffffffffffffff007fffffffffffffffffffffffffffffffffffffffffffffffffffffffffffff00ff909116610100171660011790555b6105cc826101cf565b6105d9576105d982610486565b80156103de57600080547fffffffffffffffffffffffffffffffffffffffffffffffffffffffffffff00ff1690555050565b73ffffffffffffffffffffffffffffffffffffffff811661062b57600080fd5b61063582826103e2565b61063e57600080fd5b73ffffffffffffffffffffffffffffffffffffffff1660009081526020919091526040902080547fffffffffffffffffffffffffffffffffffffffffffffffffffffffffffffff00169055565b73ffffffffffffffffffffffffffffffffffffffff81166106ab57600080fd5b6106b582826103e2565b156106bf57600080fd5b73ffffffffffffffffffffffffffffffffffffffff1660009081526020919091526040902080547fffffffffffffffffffffffffffffffffffffffffffffffffffffffffffffff0016600117905556fe436f6e747261637420696e7374616e63652068617320616c7265616479206265656e20696e697469616c697a6564a265627a7a723058202cd28f203cc4774a3d7a9f6ef1928fa99e8172fe0bc71454094ef914ffc28fe664736f6c634300050a0032","compiler":{"name":"solc","version":"0.5.10+commit.5a6ea5b1.Emscripten.clang","optimizer":{"enabled":true,"runs":1000000000},"evmVersion":"constantinople"}}