{
    "fileName": "PauserRole.sol",
    "contractName": "PauserRole",
    "source": "pragma solidity ^0.5.2;\n\nimport \"@openzeppelin/upgrades/contracts/Initializable.sol\";\nimport \"../Roles.sol\";\n\n\ncontract PauserRole is Initializable {\n    using Roles for Roles.Role;\n\n    event PauserAdded(address indexed account);\n    event PauserRemoved(address indexed account);\n\n    Roles.Role private _pausers;\n\n    function initialize(address sender) public initializer {\n        if (!isPauser(sender)) {\n            _addPauser(sender);\n        }\n    }\n\n    modifier onlyPauser() {\n        require(isPauser(msg.sender));\n        _;\n    }\n\n    function isPauser(address account) public view returns (bool) {\n        return _pausers.has(account);\n    }\n\n    function addPauser(address account) public onlyPauser {\n        _addPauser(account);\n    }\n\n    function renouncePauser() public {\n        _removePauser(msg.sender);\n    }\n\n    function _addPauser(address account) internal {\n        _pausers.add(account);\n        emit PauserAdded(account);\n    }\n\n    function _removePauser(address account) internal {\n        _pausers.remove(account);\n        emit PauserRemoved(account);\n    }\n\n    uint256[50] private ______gap;\n}\n",
    "sourcePath": "@openzeppelin/contracts-ethereum-package/contracts/access/roles/PauserRole.sol",
    "abi": [
        {
            "constant": true,
            "inputs": [
                {
                    "name": "account",
                    "type": "address"
                }
            ],
            "name": "isPauser",
            "outputs": [
                {
                    "name": "",
                    "type": "bool"
                }
            ],
            "payable": false,
            "stateMutability": "view",
            "type": "function"
        },
        {
            "constant": false,
            "inputs": [],
            "name": "renouncePauser",
            "outputs": [],
            "payable": false,
            "stateMutability": "nonpayable",
            "type": "function"
        },
        {
            "constant": false,
            "inputs": [
                {
                    "name": "account",
                    "type": "address"
                }
            ],
            "name": "addPauser",
            "outputs": [],
            "payable": false,
            "stateMutability": "nonpayable",
            "type": "function"
        },
        {
            "constant": false,
            "inputs": [
                {
                    "name": "sender",
                    "type": "address"
                }
            ],
            "name": "initialize",
            "outputs": [],
            "payable": false,
            "stateMutability": "nonpayable",
            "type": "function"
        },
        {
            "anonymous": false,
            "inputs": [
                {
                    "indexed": true,
                    "name": "account",
                    "type": "address"
                }
            ],
            "name": "PauserAdded",
            "type": "event"
        },
        {
            "anonymous": false,
            "inputs": [
                {
                    "indexed": true,
                    "name": "account",
                    "type": "address"
                }
            ],
            "name": "PauserRemoved",
            "type": "event"
        }
    ],
    "bytecode": "0x608060405234801561001057600080fd5b506104e0806100206000396000f3fe608060405234801561001057600080fd5b506004361061004c5760003560e01c806346fbf68e146100515780636ef8d66d1461009857806382dc1ec4146100a2578063c4d66de8146100d5575b600080fd5b6100846004803603602081101561006757600080fd5b503573ffffffffffffffffffffffffffffffffffffffff16610108565b604080519115158252519081900360200190f35b6100a0610121565b005b6100a0600480360360208110156100b857600080fd5b503573ffffffffffffffffffffffffffffffffffffffff1661012c565b6100a0600480360360208110156100eb57600080fd5b503573ffffffffffffffffffffffffffffffffffffffff1661014c565b600061011b60338363ffffffff61027b16565b92915050565b61012a336102cc565b565b61013533610108565b151561014057600080fd5b61014981610321565b50565b600054610100900460ff16806101655750610165610376565b80610173575060005460ff16155b15156101ca576040517f08c379a000000000000000000000000000000000000000000000000000000000815260040180806020018281038252602e815260200180610487602e913960400191505060405180910390fd5b600054610100900460ff1615801561023057600080547fffffffffffffffffffffffffffffffffffffffffffffffffffffffffffffff007fffffffffffffffffffffffffffffffffffffffffffffffffffffffffffff00ff909116610100171660011790555b61023982610108565b15156102485761024882610321565b801561027757600080547fffffffffffffffffffffffffffffffffffffffffffffffffffffffffffff00ff1690555b5050565b600073ffffffffffffffffffffffffffffffffffffffff8216151561029f57600080fd5b5073ffffffffffffffffffffffffffffffffffffffff166000908152602091909152604090205460ff1690565b6102dd60338263ffffffff61037c16565b60405173ffffffffffffffffffffffffffffffffffffffff8216907fcd265ebaf09df2871cc7bd4133404a235ba12eff2041bb89d9c714a2621c7c7e90600090a250565b61033260338263ffffffff61040016565b60405173ffffffffffffffffffffffffffffffffffffffff8216907f6719d08c1888103bea251a4ed56406bd0c3e69723c8a1686e017e7bbe159b6f890600090a250565b303b1590565b73ffffffffffffffffffffffffffffffffffffffff8116151561039e57600080fd5b6103a8828261027b565b15156103b357600080fd5b73ffffffffffffffffffffffffffffffffffffffff1660009081526020919091526040902080547fffffffffffffffffffffffffffffffffffffffffffffffffffffffffffffff00169055565b73ffffffffffffffffffffffffffffffffffffffff8116151561042257600080fd5b61042c828261027b565b1561043657600080fd5b73ffffffffffffffffffffffffffffffffffffffff1660009081526020919091526040902080547fffffffffffffffffffffffffffffffffffffffffffffffffffffffffffffff0016600117905556fe436f6e747261637420696e7374616e63652068617320616c7265616479206265656e20696e697469616c697a6564a165627a7a723058209862a44d710d3c595e5e528ba349d600226356fdf20d8c78b257ee83c0871d7c0029",
    "compiler": {
        "name": "solc",
        "version": "0.5.2+commit.1df8f40c.Emscripten.clang",
        "optimizer": {
            "enabled": true,
            "runs": 1000000000
        },
        "evmVersion": "constantinople"
    }
}