{
  "fileName": "Pausable.sol",
  "contractName": "Pausable",
  "source": "pragma solidity ^0.5.2;\n\nimport \"@openzeppelin/upgrades/contracts/Initializable.sol\";\nimport \"@openzeppelin/contracts-ethereum-package/contracts/ownership/Ownable.sol\";\n\n/**\n*   @title Pausable behaviour\n*/\ncontract Pausable is Initializable , Ownable {\n\n    address pauserRole;\n\tbool private _paused;\n\n    function initialize (address _pauserRole) public initializer {\n        pauserRole = _pauserRole;\n\t\temit PauserChanged(pauserRole);\n        _paused = false;\n    }\n\n\n\tfunction changePauser(address _pauserRole) public onlyOwner {\n\t\tpauserRole = _pauserRole;\n\t\temit PauserChanged(pauserRole);\n\t}\n\n\tfunction isPauser(address anAddress) public view returns(bool){\n\t\treturn pauserRole == anAddress;\n\t}\n\n\tmodifier onlyPauser {\n\t\trequire(msg.sender==pauserRole,\"Only pauser role address can pause this contract\");\n\t\t_;\n\t}\n\n    event PauserChanged(address indexed pauser);\n\n\tfunction pause() public onlyPauser whenNotPaused {\n\t\t_paused = true;\n\t}\n\n\tfunction unpause() public onlyPauser whenPaused {\n\t\t_paused = false;\n\t}\n\n\n    /**\n     * @dev Modifier to make a function callable only when the contract is not paused.\n     */\n    modifier whenNotPaused() {\n        require(!_paused,\"This contract is paused\");\n        _;\n    }\n\n\tmodifier whenPaused(){\n\t\trequire(_paused,\"This contract is not paused\");\n        _;\n\t}\n\n\tfunction isPaused() public view returns(bool){\n\t\treturn _paused;\n\t}\n}",
  "sourcePath": "contracts/Pausable.sol",
  "abi": [
    {
      "constant": false,
      "inputs": [
        {
          "name": "_pauserRole",
          "type": "address"
        }
      ],
      "name": "changePauser",
      "outputs": [],
      "payable": false,
      "stateMutability": "nonpayable",
      "type": "function"
    },
    {
      "constant": false,
      "inputs": [],
      "name": "unpause",
      "outputs": [],
      "payable": false,
      "stateMutability": "nonpayable",
      "type": "function"
    },
    {
      "constant": true,
      "inputs": [
        {
          "name": "anAddress",
          "type": "address"
        }
      ],
      "name": "isPauser",
      "outputs": [
        {
          "name": "",
          "type": "bool"
        }
      ],
      "payable": false,
      "stateMutability": "view",
      "type": "function"
    },
    {
      "constant": false,
      "inputs": [],
      "name": "renounceOwnership",
      "outputs": [],
      "payable": false,
      "stateMutability": "nonpayable",
      "type": "function"
    },
    {
      "constant": false,
      "inputs": [],
      "name": "pause",
      "outputs": [],
      "payable": false,
      "stateMutability": "nonpayable",
      "type": "function"
    },
    {
      "constant": true,
      "inputs": [],
      "name": "owner",
      "outputs": [
        {
          "name": "",
          "type": "address"
        }
      ],
      "payable": false,
      "stateMutability": "view",
      "type": "function"
    },
    {
      "constant": true,
      "inputs": [],
      "name": "isOwner",
      "outputs": [
        {
          "name": "",
          "type": "bool"
        }
      ],
      "payable": false,
      "stateMutability": "view",
      "type": "function"
    },
    {
      "constant": true,
      "inputs": [],
      "name": "isPaused",
      "outputs": [
        {
          "name": "",
          "type": "bool"
        }
      ],
      "payable": false,
      "stateMutability": "view",
      "type": "function"
    },
    {
      "constant": false,
      "inputs": [
        {
          "name": "_pauserRole",
          "type": "address"
        }
      ],
      "name": "initialize",
      "outputs": [],
      "payable": false,
      "stateMutability": "nonpayable",
      "type": "function"
    },
    {
      "constant": false,
      "inputs": [
        {
          "name": "newOwner",
          "type": "address"
        }
      ],
      "name": "transferOwnership",
      "outputs": [],
      "payable": false,
      "stateMutability": "nonpayable",
      "type": "function"
    },
    {
      "anonymous": false,
      "inputs": [
        {
          "indexed": true,
          "name": "pauser",
          "type": "address"
        }
      ],
      "name": "PauserChanged",
      "type": "event"
    },
    {
      "anonymous": false,
      "inputs": [
        {
          "indexed": true,
          "name": "previousOwner",
          "type": "address"
        },
        {
          "indexed": true,
          "name": "newOwner",
          "type": "address"
        }
      ],
      "name": "OwnershipTransferred",
      "type": "event"
    }
  ],
  "bytecode": "0x608060405234801561001057600080fd5b506108f4806100206000396000f3fe608060405234801561001057600080fd5b50600436106100be5760003560e01c80638da5cb5b11610076578063b187bd261161005b578063b187bd2614610190578063c4d66de814610198578063f2fde38b146101cb576100be565b80638da5cb5b146101575780638f32d59b14610188576100be565b806346fbf68e116100a757806346fbf68e14610100578063715018a6146101475780638456cb591461014f576100be565b80632cd271e7146100c35780633f4ba83a146100f8575b600080fd5b6100f6600480360360208110156100d957600080fd5b503573ffffffffffffffffffffffffffffffffffffffff166101fe565b005b6100f6610286565b6101336004803603602081101561011657600080fd5b503573ffffffffffffffffffffffffffffffffffffffff166103ab565b604080519115158252519081900360200190f35b6100f66103cc565b6100f661044e565b61015f610589565b6040805173ffffffffffffffffffffffffffffffffffffffff9092168252519081900360200190f35b6101336105a5565b6101336105c3565b6100f6600480360360208110156101ae57600080fd5b503573ffffffffffffffffffffffffffffffffffffffff166105e4565b6100f6600480360360208110156101e157600080fd5b503573ffffffffffffffffffffffffffffffffffffffff16610795565b6102066105a5565b151561021157600080fd5b606680547fffffffffffffffffffffffff00000000000000000000000000000000000000001673ffffffffffffffffffffffffffffffffffffffff83811691909117918290556040519116907fb80482a293ca2e013eda8683c9bd7fc8347cfdaeea5ede58cba46df502c2a60490600090a250565b60665473ffffffffffffffffffffffffffffffffffffffff1633146102f6576040517f08c379a00000000000000000000000000000000000000000000000000000000081526004018080602001828103825260308152602001806108996030913960400191505060405180910390fd5b60665474010000000000000000000000000000000000000000900460ff16151561038157604080517f08c379a000000000000000000000000000000000000000000000000000000000815260206004820152601b60248201527f5468697320636f6e7472616374206973206e6f74207061757365640000000000604482015290519081900360640190fd5b606680547fffffffffffffffffffffff00ffffffffffffffffffffffffffffffffffffffff169055565b60665473ffffffffffffffffffffffffffffffffffffffff91821691161490565b6103d46105a5565b15156103df57600080fd5b60335460405160009173ffffffffffffffffffffffffffffffffffffffff16907f8be0079c531659141344cd1fd0a4f28419497f9722a3daafe3b4186f6b6457e0908390a3603380547fffffffffffffffffffffffff0000000000000000000000000000000000000000169055565b60665473ffffffffffffffffffffffffffffffffffffffff1633146104be576040517f08c379a00000000000000000000000000000000000000000000000000000000081526004018080602001828103825260308152602001806108996030913960400191505060405180910390fd5b60665474010000000000000000000000000000000000000000900460ff161561054857604080517f08c379a000000000000000000000000000000000000000000000000000000000815260206004820152601760248201527f5468697320636f6e747261637420697320706175736564000000000000000000604482015290519081900360640190fd5b606680547fffffffffffffffffffffff00ffffffffffffffffffffffffffffffffffffffff1674010000000000000000000000000000000000000000179055565b60335473ffffffffffffffffffffffffffffffffffffffff1690565b60335473ffffffffffffffffffffffffffffffffffffffff16331490565b60665474010000000000000000000000000000000000000000900460ff1690565b600054610100900460ff16806105fd57506105fd6107b4565b8061060b575060005460ff16155b1515610662576040517f08c379a000000000000000000000000000000000000000000000000000000000815260040180806020018281038252602e81526020018061086b602e913960400191505060405180910390fd5b600054610100900460ff161580156106c857600080547fffffffffffffffffffffffffffffffffffffffffffffffffffffffffffffff007fffffffffffffffffffffffffffffffffffffffffffffffffffffffffffff00ff909116610100171660011790555b606680547fffffffffffffffffffffffff00000000000000000000000000000000000000001673ffffffffffffffffffffffffffffffffffffffff84811691909117918290556040519116907fb80482a293ca2e013eda8683c9bd7fc8347cfdaeea5ede58cba46df502c2a60490600090a2606680547fffffffffffffffffffffff00ffffffffffffffffffffffffffffffffffffffff169055801561079157600080547fffffffffffffffffffffffffffffffffffffffffffffffffffffffffffff00ff1690555b5050565b61079d6105a5565b15156107a857600080fd5b6107b1816107ba565b50565b303b1590565b73ffffffffffffffffffffffffffffffffffffffff811615156107dc57600080fd5b60335460405173ffffffffffffffffffffffffffffffffffffffff8084169216907f8be0079c531659141344cd1fd0a4f28419497f9722a3daafe3b4186f6b6457e090600090a3603380547fffffffffffffffffffffffff00000000000000000000000000000000000000001673ffffffffffffffffffffffffffffffffffffffff9290921691909117905556fe436f6e747261637420696e7374616e63652068617320616c7265616479206265656e20696e697469616c697a65644f6e6c792070617573657220726f6c6520616464726573732063616e207061757365207468697320636f6e7472616374a165627a7a7230582004445bca8070078867f31a65ef2a18f62abe234e55a28a6114eb67aab4ee8dc80029",
  "compiler": {
    "name": "solc",
    "version": "0.5.2+commit.1df8f40c.Emscripten.clang",
    "optimizer": {
      "enabled": true,
      "runs": 1000000000
    },
    "evmVersion": "constantinople"
  }
}